{
  "_format": "hh-sol-artifact-1",
  "contractName": "Fweb3MaticFaucet",
  "sourceName": "contracts/Fweb3MaticFaucet.sol",
  "abi": [
    {
      "inputs": [
        {
          "internalType": "uint256",
          "name": "_dripAmount",
          "type": "uint256"
        },
        {
          "internalType": "uint256",
          "name": "_decimals",
          "type": "uint256"
        },
        {
          "internalType": "contract IERC20",
          "name": "_fweb3TokenAddress",
          "type": "address"
        },
        {
          "internalType": "uint256",
          "name": "_timout",
          "type": "uint256"
        },
        {
          "internalType": "bool",
          "name": "_singleUse",
          "type": "bool"
        },
        {
          "internalType": "uint256",
          "name": "_minFweb3Required",
          "type": "uint256"
        },
        {
          "internalType": "uint256",
          "name": "_minFweb3TokenRequiredDecimals",
          "type": "uint256"
        },
        {
          "internalType": "uint256",
          "name": "_holderLimit",
          "type": "uint256"
        }
      ],
      "stateMutability": "nonpayable",
      "type": "constructor"
    },
    {
      "anonymous": false,
      "inputs": [
        {
          "indexed": false,
          "internalType": "address",
          "name": "",
          "type": "address"
        },
        {
          "indexed": false,
          "internalType": "string",
          "name": "",
          "type": "string"
        },
        {
          "indexed": false,
          "internalType": "uint256",
          "name": "",
          "type": "uint256"
        }
      ],
      "name": "Dripped",
      "type": "event"
    },
    {
      "anonymous": false,
      "inputs": [
        {
          "indexed": true,
          "internalType": "address",
          "name": "previousOwner",
          "type": "address"
        },
        {
          "indexed": true,
          "internalType": "address",
          "name": "newOwner",
          "type": "address"
        }
      ],
      "name": "OwnershipTransferred",
      "type": "event"
    },
    {
      "anonymous": false,
      "inputs": [
        {
          "indexed": false,
          "internalType": "address",
          "name": "",
          "type": "address"
        },
        {
          "indexed": false,
          "internalType": "uint256",
          "name": "",
          "type": "uint256"
        }
      ],
      "name": "ReceivedDeposit",
      "type": "event"
    },
    {
      "anonymous": false,
      "inputs": [
        {
          "indexed": true,
          "internalType": "bytes32",
          "name": "role",
          "type": "bytes32"
        },
        {
          "indexed": true,
          "internalType": "bytes32",
          "name": "previousAdminRole",
          "type": "bytes32"
        },
        {
          "indexed": true,
          "internalType": "bytes32",
          "name": "newAdminRole",
          "type": "bytes32"
        }
      ],
      "name": "RoleAdminChanged",
      "type": "event"
    },
    {
      "anonymous": false,
      "inputs": [
        {
          "indexed": true,
          "internalType": "bytes32",
          "name": "role",
          "type": "bytes32"
        },
        {
          "indexed": true,
          "internalType": "address",
          "name": "account",
          "type": "address"
        },
        {
          "indexed": true,
          "internalType": "address",
          "name": "sender",
          "type": "address"
        }
      ],
      "name": "RoleGranted",
      "type": "event"
    },
    {
      "anonymous": false,
      "inputs": [
        {
          "indexed": true,
          "internalType": "bytes32",
          "name": "role",
          "type": "bytes32"
        },
        {
          "indexed": true,
          "internalType": "address",
          "name": "account",
          "type": "address"
        },
        {
          "indexed": true,
          "internalType": "address",
          "name": "sender",
          "type": "address"
        }
      ],
      "name": "RoleRevoked",
      "type": "event"
    },
    {
      "inputs": [],
      "name": "ADMIN_ROLE",
      "outputs": [
        {
          "internalType": "bytes32",
          "name": "",
          "type": "bytes32"
        }
      ],
      "stateMutability": "view",
      "type": "function"
    },
    {
      "inputs": [],
      "name": "DEFAULT_ADMIN_ROLE",
      "outputs": [
        {
          "internalType": "bytes32",
          "name": "",
          "type": "bytes32"
        }
      ],
      "stateMutability": "view",
      "type": "function"
    },
    {
      "inputs": [
        {
          "internalType": "address",
          "name": "forWhom",
          "type": "address"
        }
      ],
      "name": "clearTimeoutForAddress",
      "outputs": [],
      "stateMutability": "nonpayable",
      "type": "function"
    },
    {
      "inputs": [],
      "name": "decimals",
      "outputs": [
        {
          "internalType": "uint256",
          "name": "",
          "type": "uint256"
        }
      ],
      "stateMutability": "view",
      "type": "function"
    },
    {
      "inputs": [
        {
          "internalType": "address payable",
          "name": "to",
          "type": "address"
        }
      ],
      "name": "drain",
      "outputs": [],
      "stateMutability": "nonpayable",
      "type": "function"
    },
    {
      "inputs": [
        {
          "internalType": "address payable",
          "name": "to",
          "type": "address"
        }
      ],
      "name": "drip",
      "outputs": [],
      "stateMutability": "nonpayable",
      "type": "function"
    },
    {
      "inputs": [],
      "name": "dripAmount",
      "outputs": [
        {
          "internalType": "uint256",
          "name": "",
          "type": "uint256"
        }
      ],
      "stateMutability": "view",
      "type": "function"
    },
    {
      "inputs": [],
      "name": "faucetDisabled",
      "outputs": [
        {
          "internalType": "bool",
          "name": "",
          "type": "bool"
        }
      ],
      "stateMutability": "view",
      "type": "function"
    },
    {
      "inputs": [],
      "name": "fweb3TokenAddress",
      "outputs": [
        {
          "internalType": "contract IERC20",
          "name": "",
          "type": "address"
        }
      ],
      "stateMutability": "view",
      "type": "function"
    },
    {
      "inputs": [
        {
          "internalType": "bytes32",
          "name": "role",
          "type": "bytes32"
        }
      ],
      "name": "getRoleAdmin",
      "outputs": [
        {
          "internalType": "bytes32",
          "name": "",
          "type": "bytes32"
        }
      ],
      "stateMutability": "view",
      "type": "function"
    },
    {
      "inputs": [
        {
          "internalType": "bytes32",
          "name": "role",
          "type": "bytes32"
        },
        {
          "internalType": "address",
          "name": "account",
          "type": "address"
        }
      ],
      "name": "grantRole",
      "outputs": [],
      "stateMutability": "nonpayable",
      "type": "function"
    },
    {
      "inputs": [
        {
          "internalType": "bytes32",
          "name": "role",
          "type": "bytes32"
        },
        {
          "internalType": "address",
          "name": "account",
          "type": "address"
        }
      ],
      "name": "hasRole",
      "outputs": [
        {
          "internalType": "bool",
          "name": "",
          "type": "bool"
        }
      ],
      "stateMutability": "view",
      "type": "function"
    },
    {
      "inputs": [],
      "name": "holderLimit",
      "outputs": [
        {
          "internalType": "uint256",
          "name": "",
          "type": "uint256"
        }
      ],
      "stateMutability": "view",
      "type": "function"
    },
    {
      "inputs": [],
      "name": "minFweb3Required",
      "outputs": [
        {
          "internalType": "uint256",
          "name": "",
          "type": "uint256"
        }
      ],
      "stateMutability": "view",
      "type": "function"
    },
    {
      "inputs": [],
      "name": "minFweb3RequiredDecimals",
      "outputs": [
        {
          "internalType": "uint256",
          "name": "",
          "type": "uint256"
        }
      ],
      "stateMutability": "view",
      "type": "function"
    },
    {
      "inputs": [],
      "name": "owner",
      "outputs": [
        {
          "internalType": "address",
          "name": "",
          "type": "address"
        }
      ],
      "stateMutability": "view",
      "type": "function"
    },
    {
      "inputs": [],
      "name": "renounceOwnership",
      "outputs": [],
      "stateMutability": "nonpayable",
      "type": "function"
    },
    {
      "inputs": [
        {
          "internalType": "bytes32",
          "name": "role",
          "type": "bytes32"
        },
        {
          "internalType": "address",
          "name": "account",
          "type": "address"
        }
      ],
      "name": "renounceRole",
      "outputs": [],
      "stateMutability": "nonpayable",
      "type": "function"
    },
    {
      "inputs": [
        {
          "internalType": "bytes32",
          "name": "role",
          "type": "bytes32"
        },
        {
          "internalType": "address",
          "name": "account",
          "type": "address"
        }
      ],
      "name": "revokeRole",
      "outputs": [],
      "stateMutability": "nonpayable",
      "type": "function"
    },
    {
      "inputs": [
        {
          "internalType": "bool",
          "name": "shouldBeDisabled",
          "type": "bool"
        }
      ],
      "name": "setDisableFaucet",
      "outputs": [],
      "stateMutability": "nonpayable",
      "type": "function"
    },
    {
      "inputs": [
        {
          "internalType": "uint256",
          "name": "amount",
          "type": "uint256"
        },
        {
          "internalType": "uint256",
          "name": "_decimals",
          "type": "uint256"
        }
      ],
      "name": "setDripAmount",
      "outputs": [],
      "stateMutability": "nonpayable",
      "type": "function"
    },
    {
      "inputs": [
        {
          "internalType": "uint256",
          "name": "limit",
          "type": "uint256"
        }
      ],
      "name": "setHolderLimit",
      "outputs": [],
      "stateMutability": "nonpayable",
      "type": "function"
    },
    {
      "inputs": [
        {
          "internalType": "uint256",
          "name": "min",
          "type": "uint256"
        },
        {
          "internalType": "uint256",
          "name": "decimals",
          "type": "uint256"
        }
      ],
      "name": "setMinErc20Required",
      "outputs": [],
      "stateMutability": "nonpayable",
      "type": "function"
    },
    {
      "inputs": [
        {
          "internalType": "bool",
          "name": "shouldBeSingleUse",
          "type": "bool"
        }
      ],
      "name": "setSingleUse",
      "outputs": [],
      "stateMutability": "nonpayable",
      "type": "function"
    },
    {
      "inputs": [
        {
          "internalType": "uint256",
          "name": "newTimeout",
          "type": "uint256"
        }
      ],
      "name": "setTimeout",
      "outputs": [],
      "stateMutability": "nonpayable",
      "type": "function"
    },
    {
      "inputs": [],
      "name": "singleUse",
      "outputs": [
        {
          "internalType": "bool",
          "name": "",
          "type": "bool"
        }
      ],
      "stateMutability": "view",
      "type": "function"
    },
    {
      "inputs": [
        {
          "internalType": "bytes4",
          "name": "interfaceId",
          "type": "bytes4"
        }
      ],
      "name": "supportsInterface",
      "outputs": [
        {
          "internalType": "bool",
          "name": "",
          "type": "bool"
        }
      ],
      "stateMutability": "view",
      "type": "function"
    },
    {
      "inputs": [],
      "name": "timeout",
      "outputs": [
        {
          "internalType": "uint256",
          "name": "",
          "type": "uint256"
        }
      ],
      "stateMutability": "view",
      "type": "function"
    },
    {
      "inputs": [
        {
          "internalType": "address",
          "name": "newOwner",
          "type": "address"
        }
      ],
      "name": "transferOwnership",
      "outputs": [],
      "stateMutability": "nonpayable",
      "type": "function"
    },
    {
      "inputs": [],
      "name": "useHolderLimit",
      "outputs": [
        {
          "internalType": "bool",
          "name": "",
          "type": "bool"
        }
      ],
      "stateMutability": "view",
      "type": "function"
    },
    {
      "stateMutability": "payable",
      "type": "receive"
    }
  ],
  "bytecode": "0x60806040523480156200001157600080fd5b50604051620030933803806200309383398181016040528101906200003791906200049c565b620000576200004b6200016760201b60201c565b6200016f60201b60201c565b6200006c6000801b336200023560201b60201c565b6200009e7fa49807205ce4d355092ef5a8a18f56e8913cf4a201fbe287825b095693c21775336200023560201b60201c565b86600a620000ad9190620006e8565b88620000ba919062000739565b600281905550866003819055508460048190555083600560016101000a81548160ff02191690831515021790555085600a60006101000a81548173ffffffffffffffffffffffffffffffffffffffff021916908373ffffffffffffffffffffffffffffffffffffffff16021790555081600c8190555081600a6200013f9190620006e8565b836200014c919062000739565b600b819055508060068190555050505050505050506200079a565b600033905090565b6000600160009054906101000a900473ffffffffffffffffffffffffffffffffffffffff16905081600160006101000a81548173ffffffffffffffffffffffffffffffffffffffff021916908373ffffffffffffffffffffffffffffffffffffffff1602179055508173ffffffffffffffffffffffffffffffffffffffff168173ffffffffffffffffffffffffffffffffffffffff167f8be0079c531659141344cd1fd0a4f28419497f9722a3daafe3b4186f6b6457e060405160405180910390a35050565b6200024782826200024b60201b60201c565b5050565b6200025d82826200033c60201b60201c565b6200033857600160008084815260200190815260200160002060000160008373ffffffffffffffffffffffffffffffffffffffff1673ffffffffffffffffffffffffffffffffffffffff16815260200190815260200160002060006101000a81548160ff021916908315150217905550620002dd6200016760201b60201c565b73ffffffffffffffffffffffffffffffffffffffff168173ffffffffffffffffffffffffffffffffffffffff16837f2f8788117e7eff1d82e926ec794901d17c78024a50270940304540a733656f0d60405160405180910390a45b5050565b600080600084815260200190815260200160002060000160008373ffffffffffffffffffffffffffffffffffffffff1673ffffffffffffffffffffffffffffffffffffffff16815260200190815260200160002060009054906101000a900460ff16905092915050565b600080fd5b6000819050919050565b620003c081620003ab565b8114620003cc57600080fd5b50565b600081519050620003e081620003b5565b92915050565b600073ffffffffffffffffffffffffffffffffffffffff82169050919050565b60006200041382620003e6565b9050919050565b6000620004278262000406565b9050919050565b62000439816200041a565b81146200044557600080fd5b50565b60008151905062000459816200042e565b92915050565b60008115159050919050565b62000476816200045f565b81146200048257600080fd5b50565b60008151905062000496816200046b565b92915050565b600080600080600080600080610100898b031215620004c057620004bf620003a6565b5b6000620004d08b828c01620003cf565b9850506020620004e38b828c01620003cf565b9750506040620004f68b828c0162000448565b9650506060620005098b828c01620003cf565b95505060806200051c8b828c0162000485565b94505060a06200052f8b828c01620003cf565b93505060c0620005428b828c01620003cf565b92505060e0620005558b828c01620003cf565b9150509295985092959890939650565b7f4e487b7100000000000000000000000000000000000000000000000000000000600052601160045260246000fd5b60008160011c9050919050565b6000808291508390505b6001851115620005f357808604811115620005cb57620005ca62000565565b5b6001851615620005db5780820291505b8081029050620005eb8562000594565b9450620005ab565b94509492505050565b6000826200060e5760019050620006e1565b816200061e5760009050620006e1565b8160018114620006375760028114620006425762000678565b6001915050620006e1565b60ff84111562000657576200065662000565565b5b8360020a91508482111562000671576200067062000565565b5b50620006e1565b5060208310610133831016604e8410600b8410161715620006b25782820a905083811115620006ac57620006ab62000565565b5b620006e1565b620006c18484846001620005a1565b92509050818404811115620006db57620006da62000565565b5b81810290505b9392505050565b6000620006f582620003ab565b91506200070283620003ab565b9250620007317fffffffffffffffffffffffffffffffffffffffffffffffffffffffffffffffff8484620005fc565b905092915050565b60006200074682620003ab565b91506200075383620003ab565b9250817fffffffffffffffffffffffffffffffffffffffffffffffffffffffffffffffff04831182151516156200078f576200078e62000565565b5b828202905092915050565b6128e980620007aa6000396000f3fe6080604052600436106101d15760003560e01c806375b238fc116100f7578063a217fddf11610095578063e928890c11610064578063e928890c14610682578063ec1cb194146106ad578063ece53132146106d6578063f2fde38b146106ff57610211565b8063a217fddf146105dc578063c58a34cc14610607578063d547741f14610630578063e28c81721461065957610211565b806386c10c0a116100d157806386c10c0a146105205780638da5cb5b1461054957806391d14854146105745780639811572c146105b157610211565b806375b238fc1461049f57806376e1032a146104ca57806379f1cb54146104f557610211565b806335a1529b1161016f57806367a5cd061161013e57806367a5cd061461040b5780636c40bc151461043457806370dea79a1461045d578063715018a61461048857610211565b806335a1529b1461036157806336568abe1461038c578063506e817d146103b557806351f53a76146103e057610211565b80631d691fb5116101ab5780631d691fb5146102a7578063248a9ca3146102d05780632f2ff15d1461030d578063313ce5671461033657610211565b806301ffc9a71461021657806305b400ae1461025357806306f91d591461027e57610211565b36610211577f645431dbae366bae0d8be5812a6298ad69f5604842a40a1bae301a143386865433346040516102079291906119ad565b60405180910390a1005b600080fd5b34801561022257600080fd5b5061023d60048036038101906102389190611a33565b610728565b60405161024a9190611a7b565b60405180910390f35b34801561025f57600080fd5b506102686107a2565b6040516102759190611a96565b60405180910390f35b34801561028a57600080fd5b506102a560048036038101906102a09190611add565b6107a8565b005b3480156102b357600080fd5b506102ce60048036038101906102c99190611b36565b6107f8565b005b3480156102dc57600080fd5b506102f760048036038101906102f29190611b99565b610848565b6040516103049190611bd5565b60405180910390f35b34801561031957600080fd5b50610334600480360381019061032f9190611c1c565b610867565b005b34801561034257600080fd5b5061034b610890565b6040516103589190611a96565b60405180910390f35b34801561036d57600080fd5b50610376610896565b6040516103839190611a96565b60405180910390f35b34801561039857600080fd5b506103b360048036038101906103ae9190611c1c565b61089c565b005b3480156103c157600080fd5b506103ca61091f565b6040516103d79190611a7b565b60405180910390f35b3480156103ec57600080fd5b506103f5610932565b6040516104029190611cbb565b60405180910390f35b34801561041757600080fd5b50610432600480360381019061042d9190611d14565b610958565b005b34801561044057600080fd5b5061045b60048036038101906104569190611d41565b610d94565b005b34801561046957600080fd5b50610472610df0565b60405161047f9190611a96565b60405180910390f35b34801561049457600080fd5b5061049d610df6565b005b3480156104ab57600080fd5b506104b4610e7e565b6040516104c19190611bd5565b60405180910390f35b3480156104d657600080fd5b506104df610ea2565b6040516104ec9190611a7b565b60405180910390f35b34801561050157600080fd5b5061050a610eb5565b6040516105179190611a96565b60405180910390f35b34801561052c57600080fd5b5061054760048036038101906105429190611d81565b610ebb565b005b34801561055557600080fd5b5061055e610f36565b60405161056b9190611dae565b60405180910390f35b34801561058057600080fd5b5061059b60048036038101906105969190611c1c565b610f60565b6040516105a89190611a7b565b60405180910390f35b3480156105bd57600080fd5b506105c6610fca565b6040516105d39190611a96565b60405180910390f35b3480156105e857600080fd5b506105f1610fd0565b6040516105fe9190611bd5565b60405180910390f35b34801561061357600080fd5b5061062e60048036038101906106299190611add565b610fd7565b005b34801561063c57600080fd5b5061065760048036038101906106529190611c1c565b611014565b005b34801561066557600080fd5b50610680600480360381019061067b9190611b36565b61103d565b005b34801561068e57600080fd5b5061069761108d565b6040516106a49190611a7b565b60405180910390f35b3480156106b957600080fd5b506106d460048036038101906106cf9190611d41565b6110a0565b005b3480156106e257600080fd5b506106fd60048036038101906106f89190611d14565b6110f5565b005b34801561070b57600080fd5b5061072660048036038101906107219190611d81565b6111bb565b005b60007f7965db0b000000000000000000000000000000000000000000000000000000007bffffffffffffffffffffffffffffffffffffffffffffffffffffffff1916827bffffffffffffffffffffffffffffffffffffffffffffffffffffffff1916148061079b575061079a826112b3565b5b9050919050565b600b5481565b7fa49807205ce4d355092ef5a8a18f56e8913cf4a201fbe287825b095693c217756107da816107d561131d565b611325565b670de0b6b3a7640000826107ee9190611df8565b6006819055505050565b7fa49807205ce4d355092ef5a8a18f56e8913cf4a201fbe287825b095693c2177561082a8161082561131d565b611325565b81600560006101000a81548160ff0219169083151502179055505050565b6000806000838152602001908152602001600020600101549050919050565b61087082610848565b6108818161087c61131d565b611325565b61088b83836113c2565b505050565b60035481565b60025481565b6108a461131d565b73ffffffffffffffffffffffffffffffffffffffff168173ffffffffffffffffffffffffffffffffffffffff1614610911576040517f08c379a000000000000000000000000000000000000000000000000000000000815260040161090890611ed5565b60405180910390fd5b61091b82826114a2565b5050565b600760009054906101000a900460ff1681565b600a60009054906101000a900473ffffffffffffffffffffffffffffffffffffffff1681565b80600560009054906101000a900460ff16156109a9576040517f08c379a00000000000000000000000000000000000000000000000000000000081526004016109a090611f41565b60405180910390fd5b6002544710156109ee576040517f08c379a00000000000000000000000000000000000000000000000000000000081526004016109e590611fad565b60405180910390fd5b600560019054906101000a900460ff1615610a9157600860008273ffffffffffffffffffffffffffffffffffffffff1673ffffffffffffffffffffffffffffffffffffffff16815260200190815260200160002060009054906101000a900460ff1615610a90576040517f08c379a0000000000000000000000000000000000000000000000000000000008152600401610a8790612019565b60405180910390fd5b5b6006548173ffffffffffffffffffffffffffffffffffffffff16311015610aed576040517f08c379a0000000000000000000000000000000000000000000000000000000008152600401610ae490612085565b60405180910390fd5b60006004541115610b7b5742600960008373ffffffffffffffffffffffffffffffffffffffff1673ffffffffffffffffffffffffffffffffffffffff168152602001908152602001600020541115610b7a576040517f08c379a0000000000000000000000000000000000000000000000000000000008152600401610b71906120f1565b60405180910390fd5b5b7fa49807205ce4d355092ef5a8a18f56e8913cf4a201fbe287825b095693c21775610bad81610ba861131d565b611325565b600b54600a60009054906101000a900473ffffffffffffffffffffffffffffffffffffffff1673ffffffffffffffffffffffffffffffffffffffff166370a08231856040518263ffffffff1660e01b8152600401610c0b9190612132565b60206040518083038186803b158015610c2357600080fd5b505afa158015610c37573d6000803e3d6000fd5b505050506040513d601f19601f82011682018060405250810190610c5b9190612162565b1015610c9c576040517f08c379a0000000000000000000000000000000000000000000000000000000008152600401610c93906121db565b60405180910390fd5b60008373ffffffffffffffffffffffffffffffffffffffff16600254604051610cc49061222c565b60006040518083038185875af1925050503d8060008114610d01576040519150601f19603f3d011682016040523d82523d6000602084013e610d06565b606091505b5050905080610d4a576040517f08c379a0000000000000000000000000000000000000000000000000000000008152600401610d419061228d565b60405180910390fd5b610d5384611583565b7f5c17f5353b06dcfd2dc264e541fbcef1696efb5f704f1ca75eb20af054eab5ee33600254604051610d869291906122f9565b60405180910390a150505050565b7fa49807205ce4d355092ef5a8a18f56e8913cf4a201fbe287825b095693c21775610dc681610dc161131d565b611325565b8160038190555081600a610dda9190612468565b83610de59190611df8565b600281905550505050565b60045481565b610dfe61131d565b73ffffffffffffffffffffffffffffffffffffffff16610e1c610f36565b73ffffffffffffffffffffffffffffffffffffffff1614610e72576040517f08c379a0000000000000000000000000000000000000000000000000000000008152600401610e69906124ff565b60405180910390fd5b610e7c6000611651565b565b7fa49807205ce4d355092ef5a8a18f56e8913cf4a201fbe287825b095693c2177581565b600560019054906101000a900460ff1681565b600c5481565b7fa49807205ce4d355092ef5a8a18f56e8913cf4a201fbe287825b095693c21775610eed81610ee861131d565b611325565b6000600960008473ffffffffffffffffffffffffffffffffffffffff1673ffffffffffffffffffffffffffffffffffffffff168152602001908152602001600020819055505050565b6000600160009054906101000a900473ffffffffffffffffffffffffffffffffffffffff16905090565b600080600084815260200190815260200160002060000160008373ffffffffffffffffffffffffffffffffffffffff1673ffffffffffffffffffffffffffffffffffffffff16815260200190815260200160002060009054906101000a900460ff16905092915050565b60065481565b6000801b81565b7fa49807205ce4d355092ef5a8a18f56e8913cf4a201fbe287825b095693c217756110098161100461131d565b611325565b816004819055505050565b61101d82610848565b61102e8161102961131d565b611325565b61103883836114a2565b505050565b7fa49807205ce4d355092ef5a8a18f56e8913cf4a201fbe287825b095693c2177561106f8161106a61131d565b611325565b81600560016101000a81548160ff0219169083151502179055505050565b600560009054906101000a900460ff1681565b7fa49807205ce4d355092ef5a8a18f56e8913cf4a201fbe287825b095693c217756110d2816110cd61131d565b611325565b81600a6110df9190612468565b836110ea9190611df8565b600b81905550505050565b6110fd61131d565b73ffffffffffffffffffffffffffffffffffffffff1661111b610f36565b73ffffffffffffffffffffffffffffffffffffffff1614611171576040517f08c379a0000000000000000000000000000000000000000000000000000000008152600401611168906124ff565b60405180910390fd5b8073ffffffffffffffffffffffffffffffffffffffff166108fc479081150290604051600060405180830381858888f193505050501580156111b7573d6000803e3d6000fd5b5050565b6111c361131d565b73ffffffffffffffffffffffffffffffffffffffff166111e1610f36565b73ffffffffffffffffffffffffffffffffffffffff1614611237576040517f08c379a000000000000000000000000000000000000000000000000000000000815260040161122e906124ff565b60405180910390fd5b600073ffffffffffffffffffffffffffffffffffffffff168173ffffffffffffffffffffffffffffffffffffffff1614156112a7576040517f08c379a000000000000000000000000000000000000000000000000000000000815260040161129e90612591565b60405180910390fd5b6112b081611651565b50565b60007f01ffc9a7000000000000000000000000000000000000000000000000000000007bffffffffffffffffffffffffffffffffffffffffffffffffffffffff1916827bffffffffffffffffffffffffffffffffffffffffffffffffffffffff1916149050919050565b600033905090565b61132f8282610f60565b6113be576113548173ffffffffffffffffffffffffffffffffffffffff166014611717565b6113628360001c6020611717565b6040516020016113739291906126c3565b6040516020818303038152906040526040517f08c379a00000000000000000000000000000000000000000000000000000000081526004016113b59190612747565b60405180910390fd5b5050565b6113cc8282610f60565b61149e57600160008084815260200190815260200160002060000160008373ffffffffffffffffffffffffffffffffffffffff1673ffffffffffffffffffffffffffffffffffffffff16815260200190815260200160002060006101000a81548160ff02191690831515021790555061144361131d565b73ffffffffffffffffffffffffffffffffffffffff168173ffffffffffffffffffffffffffffffffffffffff16837f2f8788117e7eff1d82e926ec794901d17c78024a50270940304540a733656f0d60405160405180910390a45b5050565b6114ac8282610f60565b1561157f57600080600084815260200190815260200160002060000160008373ffffffffffffffffffffffffffffffffffffffff1673ffffffffffffffffffffffffffffffffffffffff16815260200190815260200160002060006101000a81548160ff02191690831515021790555061152461131d565b73ffffffffffffffffffffffffffffffffffffffff168173ffffffffffffffffffffffffffffffffffffffff16837ff6391f5c32d9c69d2a47ea670b442974b53935d1edc7fd64eb21e047a839171b60405160405180910390a45b5050565b600060045411156115e0576004544261159c9190612769565b600960008373ffffffffffffffffffffffffffffffffffffffff1673ffffffffffffffffffffffffffffffffffffffff168152602001908152602001600020819055505b600560019054906101000a900460ff161561164e576001600860008373ffffffffffffffffffffffffffffffffffffffff1673ffffffffffffffffffffffffffffffffffffffff16815260200190815260200160002060006101000a81548160ff0219169083151502179055505b50565b6000600160009054906101000a900473ffffffffffffffffffffffffffffffffffffffff16905081600160006101000a81548173ffffffffffffffffffffffffffffffffffffffff021916908373ffffffffffffffffffffffffffffffffffffffff1602179055508173ffffffffffffffffffffffffffffffffffffffff168173ffffffffffffffffffffffffffffffffffffffff167f8be0079c531659141344cd1fd0a4f28419497f9722a3daafe3b4186f6b6457e060405160405180910390a35050565b60606000600283600261172a9190611df8565b6117349190612769565b67ffffffffffffffff81111561174d5761174c6127bf565b5b6040519080825280601f01601f19166020018201604052801561177f5781602001600182028036833780820191505090505b5090507f3000000000000000000000000000000000000000000000000000000000000000816000815181106117b7576117b66127ee565b5b60200101907effffffffffffffffffffffffffffffffffffffffffffffffffffffffffffff1916908160001a9053507f78000000000000000000000000000000000000000000000000000000000000008160018151811061181b5761181a6127ee565b5b60200101907effffffffffffffffffffffffffffffffffffffffffffffffffffffffffffff1916908160001a9053506000600184600261185b9190611df8565b6118659190612769565b90505b6001811115611905577f3031323334353637383961626364656600000000000000000000000000000000600f8616601081106118a7576118a66127ee565b5b1a60f81b8282815181106118be576118bd6127ee565b5b60200101907effffffffffffffffffffffffffffffffffffffffffffffffffffffffffffff1916908160001a905350600485901c9450806118fe9061281d565b9050611868565b5060008414611949576040517f08c379a000000000000000000000000000000000000000000000000000000000815260040161194090612893565b60405180910390fd5b8091505092915050565b600073ffffffffffffffffffffffffffffffffffffffff82169050919050565b600061197e82611953565b9050919050565b61198e81611973565b82525050565b6000819050919050565b6119a781611994565b82525050565b60006040820190506119c26000830185611985565b6119cf602083018461199e565b9392505050565b600080fd5b60007fffffffff0000000000000000000000000000000000000000000000000000000082169050919050565b611a10816119db565b8114611a1b57600080fd5b50565b600081359050611a2d81611a07565b92915050565b600060208284031215611a4957611a486119d6565b5b6000611a5784828501611a1e565b91505092915050565b60008115159050919050565b611a7581611a60565b82525050565b6000602082019050611a906000830184611a6c565b92915050565b6000602082019050611aab600083018461199e565b92915050565b611aba81611994565b8114611ac557600080fd5b50565b600081359050611ad781611ab1565b92915050565b600060208284031215611af357611af26119d6565b5b6000611b0184828501611ac8565b91505092915050565b611b1381611a60565b8114611b1e57600080fd5b50565b600081359050611b3081611b0a565b92915050565b600060208284031215611b4c57611b4b6119d6565b5b6000611b5a84828501611b21565b91505092915050565b6000819050919050565b611b7681611b63565b8114611b8157600080fd5b50565b600081359050611b9381611b6d565b92915050565b600060208284031215611baf57611bae6119d6565b5b6000611bbd84828501611b84565b91505092915050565b611bcf81611b63565b82525050565b6000602082019050611bea6000830184611bc6565b92915050565b611bf981611973565b8114611c0457600080fd5b50565b600081359050611c1681611bf0565b92915050565b60008060408385031215611c3357611c326119d6565b5b6000611c4185828601611b84565b9250506020611c5285828601611c07565b9150509250929050565b6000819050919050565b6000611c81611c7c611c7784611953565b611c5c565b611953565b9050919050565b6000611c9382611c66565b9050919050565b6000611ca582611c88565b9050919050565b611cb581611c9a565b82525050565b6000602082019050611cd06000830184611cac565b92915050565b6000611ce182611953565b9050919050565b611cf181611cd6565b8114611cfc57600080fd5b50565b600081359050611d0e81611ce8565b92915050565b600060208284031215611d2a57611d296119d6565b5b6000611d3884828501611cff565b91505092915050565b60008060408385031215611d5857611d576119d6565b5b6000611d6685828601611ac8565b9250506020611d7785828601611ac8565b9150509250929050565b600060208284031215611d9757611d966119d6565b5b6000611da584828501611c07565b91505092915050565b6000602082019050611dc36000830184611985565b92915050565b7f4e487b7100000000000000000000000000000000000000000000000000000000600052601160045260246000fd5b6000611e0382611994565b9150611e0e83611994565b9250817fffffffffffffffffffffffffffffffffffffffffffffffffffffffffffffffff0483118215151615611e4757611e46611dc9565b5b828202905092915050565b600082825260208201905092915050565b7f416363657373436f6e74726f6c3a2063616e206f6e6c792072656e6f756e636560008201527f20726f6c657320666f722073656c660000000000000000000000000000000000602082015250565b6000611ebf602f83611e52565b9150611eca82611e63565b604082019050919050565b60006020820190508181036000830152611eee81611eb2565b9050919050565b7f4641554345545f44495341424c45440000000000000000000000000000000000600082015250565b6000611f2b600f83611e52565b9150611f3682611ef5565b602082019050919050565b60006020820190508181036000830152611f5a81611f1e565b9050919050565b7f4641554345545f44525900000000000000000000000000000000000000000000600082015250565b6000611f97600a83611e52565b9150611fa282611f61565b602082019050919050565b60006020820190508181036000830152611fc681611f8a565b9050919050565b7f53494e474c455f55534500000000000000000000000000000000000000000000600082015250565b6000612003600a83611e52565b915061200e82611fcd565b602082019050919050565b6000602082019050818103600083015261203281611ff6565b9050919050565b7f484f4c4445525f4c494d49540000000000000000000000000000000000000000600082015250565b600061206f600c83611e52565b915061207a82612039565b602082019050919050565b6000602082019050818103600083015261209e81612062565b9050919050565b7f57414c4c45545f54494d454f5554000000000000000000000000000000000000600082015250565b60006120db600e83611e52565b91506120e6826120a5565b602082019050919050565b6000602082019050818103600083015261210a816120ce565b9050919050565b600061211c82611c88565b9050919050565b61212c81612111565b82525050565b60006020820190506121476000830184612123565b92915050565b60008151905061215c81611ab1565b92915050565b600060208284031215612178576121776119d6565b5b60006121868482850161214d565b91505092915050565b7f4d495353494e475f46574542335f544f4b454e53000000000000000000000000600082015250565b60006121c5601483611e52565b91506121d08261218f565b602082019050919050565b600060208201905081810360008301526121f4816121b8565b9050919050565b600081905092915050565b50565b60006122166000836121fb565b915061222182612206565b600082019050919050565b600061223782612209565b9150819050919050565b7f54585f4641494c55524500000000000000000000000000000000000000000000600082015250565b6000612277600a83611e52565b915061228282612241565b602082019050919050565b600060208201905081810360008301526122a68161226a565b9050919050565b7f4d41544943000000000000000000000000000000000000000000000000000000600082015250565b60006122e3600583611e52565b91506122ee826122ad565b602082019050919050565b600060608201905061230e6000830185611985565b818103602083015261231f816122d6565b905061232e604083018461199e565b9392505050565b60008160011c9050919050565b6000808291508390505b600185111561238c5780860481111561236857612367611dc9565b5b60018516156123775780820291505b808102905061238585612335565b945061234c565b94509492505050565b6000826123a55760019050612461565b816123b35760009050612461565b81600181146123c957600281146123d357612402565b6001915050612461565b60ff8411156123e5576123e4611dc9565b5b8360020a9150848211156123fc576123fb611dc9565b5b50612461565b5060208310610133831016604e8410600b84101617156124375782820a90508381111561243257612431611dc9565b5b612461565b6124448484846001612342565b9250905081840481111561245b5761245a611dc9565b5b81810290505b9392505050565b600061247382611994565b915061247e83611994565b92506124ab7fffffffffffffffffffffffffffffffffffffffffffffffffffffffffffffffff8484612395565b905092915050565b7f4f776e61626c653a2063616c6c6572206973206e6f7420746865206f776e6572600082015250565b60006124e9602083611e52565b91506124f4826124b3565b602082019050919050565b60006020820190508181036000830152612518816124dc565b9050919050565b7f4f776e61626c653a206e6577206f776e657220697320746865207a65726f206160008201527f6464726573730000000000000000000000000000000000000000000000000000602082015250565b600061257b602683611e52565b91506125868261251f565b604082019050919050565b600060208201905081810360008301526125aa8161256e565b9050919050565b600081905092915050565b7f416363657373436f6e74726f6c3a206163636f756e7420000000000000000000600082015250565b60006125f26017836125b1565b91506125fd826125bc565b601782019050919050565b600081519050919050565b60005b83811015612631578082015181840152602081019050612616565b83811115612640576000848401525b50505050565b600061265182612608565b61265b81856125b1565b935061266b818560208601612613565b80840191505092915050565b7f206973206d697373696e6720726f6c6520000000000000000000000000000000600082015250565b60006126ad6011836125b1565b91506126b882612677565b601182019050919050565b60006126ce826125e5565b91506126da8285612646565b91506126e5826126a0565b91506126f18284612646565b91508190509392505050565b6000601f19601f8301169050919050565b600061271982612608565b6127238185611e52565b9350612733818560208601612613565b61273c816126fd565b840191505092915050565b60006020820190508181036000830152612761818461270e565b905092915050565b600061277482611994565b915061277f83611994565b9250827fffffffffffffffffffffffffffffffffffffffffffffffffffffffffffffffff038211156127b4576127b3611dc9565b5b828201905092915050565b7f4e487b7100000000000000000000000000000000000000000000000000000000600052604160045260246000fd5b7f4e487b7100000000000000000000000000000000000000000000000000000000600052603260045260246000fd5b600061282882611994565b9150600082141561283c5761283b611dc9565b5b600182039050919050565b7f537472696e67733a20686578206c656e67746820696e73756666696369656e74600082015250565b600061287d602083611e52565b915061288882612847565b602082019050919050565b600060208201905081810360008301526128ac81612870565b905091905056fea26469706673582212206ae3694bb2636639f7b24dee39bf731990d1d4e635ee82fc56822b38f898055d64736f6c63430008090033",
  "linkReferences": {},
  "deployedLinkReferences": {}
}