{
  "_format": "hh-sol-artifact-1",
  "contractName": "Fweb3TokenFaucet",
  "sourceName": "contracts/Fweb3TokenFaucet.sol",
  "abi": [
    {
      "inputs": [
        {
          "internalType": "contract ERC20",
          "name": "_fweb3Token",
          "type": "address"
        },
        {
          "internalType": "uint256",
          "name": "_dripAmount",
          "type": "uint256"
        },
        {
          "internalType": "uint256",
          "name": "_decimals",
          "type": "uint256"
        },
        {
          "internalType": "uint256",
          "name": "_timeout",
          "type": "uint256"
        },
        {
          "internalType": "bool",
          "name": "_singleUse",
          "type": "bool"
        },
        {
          "internalType": "uint256",
          "name": "_holderLimitFweb3",
          "type": "uint256"
        }
      ],
      "stateMutability": "nonpayable",
      "type": "constructor"
    },
    {
      "anonymous": false,
      "inputs": [
        {
          "indexed": false,
          "internalType": "address",
          "name": "",
          "type": "address"
        },
        {
          "indexed": false,
          "internalType": "string",
          "name": "",
          "type": "string"
        },
        {
          "indexed": false,
          "internalType": "uint256",
          "name": "",
          "type": "uint256"
        }
      ],
      "name": "Dripped",
      "type": "event"
    },
    {
      "anonymous": false,
      "inputs": [
        {
          "indexed": true,
          "internalType": "address",
          "name": "previousOwner",
          "type": "address"
        },
        {
          "indexed": true,
          "internalType": "address",
          "name": "newOwner",
          "type": "address"
        }
      ],
      "name": "OwnershipTransferred",
      "type": "event"
    },
    {
      "anonymous": false,
      "inputs": [
        {
          "indexed": false,
          "internalType": "address",
          "name": "",
          "type": "address"
        },
        {
          "indexed": false,
          "internalType": "uint256",
          "name": "",
          "type": "uint256"
        }
      ],
      "name": "ReceivedDeposit",
      "type": "event"
    },
    {
      "anonymous": false,
      "inputs": [
        {
          "indexed": false,
          "internalType": "address",
          "name": "",
          "type": "address"
        },
        {
          "indexed": false,
          "internalType": "uint256",
          "name": "",
          "type": "uint256"
        }
      ],
      "name": "ReceivedFweb3Deposit",
      "type": "event"
    },
    {
      "anonymous": false,
      "inputs": [
        {
          "indexed": true,
          "internalType": "bytes32",
          "name": "role",
          "type": "bytes32"
        },
        {
          "indexed": true,
          "internalType": "bytes32",
          "name": "previousAdminRole",
          "type": "bytes32"
        },
        {
          "indexed": true,
          "internalType": "bytes32",
          "name": "newAdminRole",
          "type": "bytes32"
        }
      ],
      "name": "RoleAdminChanged",
      "type": "event"
    },
    {
      "anonymous": false,
      "inputs": [
        {
          "indexed": true,
          "internalType": "bytes32",
          "name": "role",
          "type": "bytes32"
        },
        {
          "indexed": true,
          "internalType": "address",
          "name": "account",
          "type": "address"
        },
        {
          "indexed": true,
          "internalType": "address",
          "name": "sender",
          "type": "address"
        }
      ],
      "name": "RoleGranted",
      "type": "event"
    },
    {
      "anonymous": false,
      "inputs": [
        {
          "indexed": true,
          "internalType": "bytes32",
          "name": "role",
          "type": "bytes32"
        },
        {
          "indexed": true,
          "internalType": "address",
          "name": "account",
          "type": "address"
        },
        {
          "indexed": true,
          "internalType": "address",
          "name": "sender",
          "type": "address"
        }
      ],
      "name": "RoleRevoked",
      "type": "event"
    },
    {
      "inputs": [],
      "name": "ADMIN_ROLE",
      "outputs": [
        {
          "internalType": "bytes32",
          "name": "",
          "type": "bytes32"
        }
      ],
      "stateMutability": "view",
      "type": "function"
    },
    {
      "inputs": [],
      "name": "DEFAULT_ADMIN_ROLE",
      "outputs": [
        {
          "internalType": "bytes32",
          "name": "",
          "type": "bytes32"
        }
      ],
      "stateMutability": "view",
      "type": "function"
    },
    {
      "inputs": [
        {
          "internalType": "address",
          "name": "forWhom",
          "type": "address"
        }
      ],
      "name": "clearTimeoutForAddress",
      "outputs": [],
      "stateMutability": "nonpayable",
      "type": "function"
    },
    {
      "inputs": [],
      "name": "decimals",
      "outputs": [
        {
          "internalType": "uint256",
          "name": "",
          "type": "uint256"
        }
      ],
      "stateMutability": "view",
      "type": "function"
    },
    {
      "inputs": [
        {
          "internalType": "address payable",
          "name": "to",
          "type": "address"
        }
      ],
      "name": "drain",
      "outputs": [],
      "stateMutability": "nonpayable",
      "type": "function"
    },
    {
      "inputs": [
        {
          "internalType": "address payable",
          "name": "to",
          "type": "address"
        }
      ],
      "name": "drainFweb3",
      "outputs": [],
      "stateMutability": "nonpayable",
      "type": "function"
    },
    {
      "inputs": [
        {
          "internalType": "address payable",
          "name": "to",
          "type": "address"
        }
      ],
      "name": "drip",
      "outputs": [],
      "stateMutability": "nonpayable",
      "type": "function"
    },
    {
      "inputs": [],
      "name": "dripAmount",
      "outputs": [
        {
          "internalType": "uint256",
          "name": "",
          "type": "uint256"
        }
      ],
      "stateMutability": "view",
      "type": "function"
    },
    {
      "inputs": [],
      "name": "faucetDisabled",
      "outputs": [
        {
          "internalType": "bool",
          "name": "",
          "type": "bool"
        }
      ],
      "stateMutability": "view",
      "type": "function"
    },
    {
      "inputs": [],
      "name": "fweb3Token",
      "outputs": [
        {
          "internalType": "contract ERC20",
          "name": "",
          "type": "address"
        }
      ],
      "stateMutability": "view",
      "type": "function"
    },
    {
      "inputs": [
        {
          "internalType": "bytes32",
          "name": "role",
          "type": "bytes32"
        }
      ],
      "name": "getRoleAdmin",
      "outputs": [
        {
          "internalType": "bytes32",
          "name": "",
          "type": "bytes32"
        }
      ],
      "stateMutability": "view",
      "type": "function"
    },
    {
      "inputs": [
        {
          "internalType": "bytes32",
          "name": "role",
          "type": "bytes32"
        },
        {
          "internalType": "address",
          "name": "account",
          "type": "address"
        }
      ],
      "name": "grantRole",
      "outputs": [],
      "stateMutability": "nonpayable",
      "type": "function"
    },
    {
      "inputs": [
        {
          "internalType": "bytes32",
          "name": "role",
          "type": "bytes32"
        },
        {
          "internalType": "address",
          "name": "account",
          "type": "address"
        }
      ],
      "name": "hasRole",
      "outputs": [
        {
          "internalType": "bool",
          "name": "",
          "type": "bool"
        }
      ],
      "stateMutability": "view",
      "type": "function"
    },
    {
      "inputs": [],
      "name": "holderLimit",
      "outputs": [
        {
          "internalType": "uint256",
          "name": "",
          "type": "uint256"
        }
      ],
      "stateMutability": "view",
      "type": "function"
    },
    {
      "inputs": [],
      "name": "owner",
      "outputs": [
        {
          "internalType": "address",
          "name": "",
          "type": "address"
        }
      ],
      "stateMutability": "view",
      "type": "function"
    },
    {
      "inputs": [],
      "name": "renounceOwnership",
      "outputs": [],
      "stateMutability": "nonpayable",
      "type": "function"
    },
    {
      "inputs": [
        {
          "internalType": "bytes32",
          "name": "role",
          "type": "bytes32"
        },
        {
          "internalType": "address",
          "name": "account",
          "type": "address"
        }
      ],
      "name": "renounceRole",
      "outputs": [],
      "stateMutability": "nonpayable",
      "type": "function"
    },
    {
      "inputs": [
        {
          "internalType": "bytes32",
          "name": "role",
          "type": "bytes32"
        },
        {
          "internalType": "address",
          "name": "account",
          "type": "address"
        }
      ],
      "name": "revokeRole",
      "outputs": [],
      "stateMutability": "nonpayable",
      "type": "function"
    },
    {
      "inputs": [
        {
          "internalType": "bool",
          "name": "shouldBeDisabled",
          "type": "bool"
        }
      ],
      "name": "setDisableFaucet",
      "outputs": [],
      "stateMutability": "nonpayable",
      "type": "function"
    },
    {
      "inputs": [
        {
          "internalType": "uint256",
          "name": "amount",
          "type": "uint256"
        },
        {
          "internalType": "uint256",
          "name": "_decimals",
          "type": "uint256"
        }
      ],
      "name": "setDripAmount",
      "outputs": [],
      "stateMutability": "nonpayable",
      "type": "function"
    },
    {
      "inputs": [
        {
          "internalType": "uint256",
          "name": "limit",
          "type": "uint256"
        }
      ],
      "name": "setHolderLimit",
      "outputs": [],
      "stateMutability": "nonpayable",
      "type": "function"
    },
    {
      "inputs": [
        {
          "internalType": "bool",
          "name": "shouldBeSingleUse",
          "type": "bool"
        }
      ],
      "name": "setSingleUse",
      "outputs": [],
      "stateMutability": "nonpayable",
      "type": "function"
    },
    {
      "inputs": [
        {
          "internalType": "uint256",
          "name": "newTimeout",
          "type": "uint256"
        }
      ],
      "name": "setTimeout",
      "outputs": [],
      "stateMutability": "nonpayable",
      "type": "function"
    },
    {
      "inputs": [],
      "name": "singleUse",
      "outputs": [
        {
          "internalType": "bool",
          "name": "",
          "type": "bool"
        }
      ],
      "stateMutability": "view",
      "type": "function"
    },
    {
      "inputs": [
        {
          "internalType": "bytes4",
          "name": "interfaceId",
          "type": "bytes4"
        }
      ],
      "name": "supportsInterface",
      "outputs": [
        {
          "internalType": "bool",
          "name": "",
          "type": "bool"
        }
      ],
      "stateMutability": "view",
      "type": "function"
    },
    {
      "inputs": [],
      "name": "timeout",
      "outputs": [
        {
          "internalType": "uint256",
          "name": "",
          "type": "uint256"
        }
      ],
      "stateMutability": "view",
      "type": "function"
    },
    {
      "inputs": [
        {
          "internalType": "address",
          "name": "newOwner",
          "type": "address"
        }
      ],
      "name": "transferOwnership",
      "outputs": [],
      "stateMutability": "nonpayable",
      "type": "function"
    },
    {
      "inputs": [],
      "name": "useHolderLimit",
      "outputs": [
        {
          "internalType": "bool",
          "name": "",
          "type": "bool"
        }
      ],
      "stateMutability": "view",
      "type": "function"
    },
    {
      "stateMutability": "payable",
      "type": "receive"
    }
  ],
  "bytecode": "0x60806040523480156200001157600080fd5b506040516200336c3803806200336c833981810160405281019062000037919062000486565b620000576200004b6200015160201b60201c565b6200015960201b60201c565b6200006c6000801b336200021f60201b60201c565b6200009e7fa49807205ce4d355092ef5a8a18f56e8913cf4a201fbe287825b095693c21775336200021f60201b60201c565b85600a60006101000a81548173ffffffffffffffffffffffffffffffffffffffff021916908373ffffffffffffffffffffffffffffffffffffffff16021790555083600a620000ee9190620006a5565b85620000fb9190620006f6565b600281905550836003819055508260048190555081600560016101000a81548160ff021916908315150217905550670de0b6b3a7640000816200013f9190620006f6565b60068190555050505050505062000757565b600033905090565b6000600160009054906101000a900473ffffffffffffffffffffffffffffffffffffffff16905081600160006101000a81548173ffffffffffffffffffffffffffffffffffffffff021916908373ffffffffffffffffffffffffffffffffffffffff1602179055508173ffffffffffffffffffffffffffffffffffffffff168173ffffffffffffffffffffffffffffffffffffffff167f8be0079c531659141344cd1fd0a4f28419497f9722a3daafe3b4186f6b6457e060405160405180910390a35050565b6200023182826200023560201b60201c565b5050565b6200024782826200032660201b60201c565b6200032257600160008084815260200190815260200160002060000160008373ffffffffffffffffffffffffffffffffffffffff1673ffffffffffffffffffffffffffffffffffffffff16815260200190815260200160002060006101000a81548160ff021916908315150217905550620002c76200015160201b60201c565b73ffffffffffffffffffffffffffffffffffffffff168173ffffffffffffffffffffffffffffffffffffffff16837f2f8788117e7eff1d82e926ec794901d17c78024a50270940304540a733656f0d60405160405180910390a45b5050565b600080600084815260200190815260200160002060000160008373ffffffffffffffffffffffffffffffffffffffff1673ffffffffffffffffffffffffffffffffffffffff16815260200190815260200160002060009054906101000a900460ff16905092915050565b600080fd5b600073ffffffffffffffffffffffffffffffffffffffff82169050919050565b6000620003c28262000395565b9050919050565b6000620003d682620003b5565b9050919050565b620003e881620003c9565b8114620003f457600080fd5b50565b6000815190506200040881620003dd565b92915050565b6000819050919050565b62000423816200040e565b81146200042f57600080fd5b50565b600081519050620004438162000418565b92915050565b60008115159050919050565b620004608162000449565b81146200046c57600080fd5b50565b600081519050620004808162000455565b92915050565b60008060008060008060c08789031215620004a657620004a562000390565b5b6000620004b689828a01620003f7565b9650506020620004c989828a0162000432565b9550506040620004dc89828a0162000432565b9450506060620004ef89828a0162000432565b93505060806200050289828a016200046f565b92505060a06200051589828a0162000432565b9150509295509295509295565b7f4e487b7100000000000000000000000000000000000000000000000000000000600052601160045260246000fd5b60008160011c9050919050565b6000808291508390505b6001851115620005b05780860481111562000588576200058762000522565b5b6001851615620005985780820291505b8081029050620005a88562000551565b945062000568565b94509492505050565b600082620005cb57600190506200069e565b81620005db57600090506200069e565b8160018114620005f45760028114620005ff5762000635565b60019150506200069e565b60ff84111562000614576200061362000522565b5b8360020a9150848211156200062e576200062d62000522565b5b506200069e565b5060208310610133831016604e8410600b84101617156200066f5782820a90508381111562000669576200066862000522565b5b6200069e565b6200067e84848460016200055e565b9250905081840481111562000698576200069762000522565b5b81810290505b9392505050565b6000620006b2826200040e565b9150620006bf836200040e565b9250620006ee7fffffffffffffffffffffffffffffffffffffffffffffffffffffffffffffffff8484620005b9565b905092915050565b600062000703826200040e565b915062000710836200040e565b9250817fffffffffffffffffffffffffffffffffffffffffffffffffffffffffffffffff04831182151516156200074c576200074b62000522565b5b828202905092915050565b612c0580620007676000396000f3fe6080604052600436106101bb5760003560e01c806375b238fc116100ec578063c58a34cc1161008a578063e928890c11610064578063e928890c14610616578063ec53241814610641578063ece531321461066a578063f2fde38b14610693576101fb565b8063c58a34cc1461059b578063d547741f146105c4578063e28c8172146105ed576101fb565b80638da5cb5b116100c65780638da5cb5b146104dd57806391d14854146105085780639811572c14610545578063a217fddf14610570576101fb565b806375b238fc1461045e57806376e1032a1461048957806386c10c0a146104b4576101fb565b806336568abe116101595780636c40bc15116101335780636c40bc15146103c85780636f7bd002146103f157806370dea79a1461041c578063715018a614610447576101fb565b806336568abe1461034b578063506e817d1461037457806367a5cd061461039f576101fb565b8063248a9ca311610195578063248a9ca31461028f5780632f2ff15d146102cc578063313ce567146102f557806335a1529b14610320576101fb565b806301ffc9a71461020057806306f91d591461023d5780631d691fb514610266576101fb565b366101fb577f645431dbae366bae0d8be5812a6298ad69f5604842a40a1bae301a143386865433346040516101f1929190611c38565b60405180910390a1005b600080fd5b34801561020c57600080fd5b5061022760048036038101906102229190611cbe565b6106bc565b6040516102349190611d06565b60405180910390f35b34801561024957600080fd5b50610264600480360381019061025f9190611d4d565b610736565b005b34801561027257600080fd5b5061028d60048036038101906102889190611da6565b610786565b005b34801561029b57600080fd5b506102b660048036038101906102b19190611e09565b6107d6565b6040516102c39190611e45565b60405180910390f35b3480156102d857600080fd5b506102f360048036038101906102ee9190611e8c565b6107f5565b005b34801561030157600080fd5b5061030a61081e565b6040516103179190611ecc565b60405180910390f35b34801561032c57600080fd5b50610335610824565b6040516103429190611ecc565b60405180910390f35b34801561035757600080fd5b50610372600480360381019061036d9190611e8c565b61082a565b005b34801561038057600080fd5b506103896108ad565b6040516103969190611d06565b60405180910390f35b3480156103ab57600080fd5b506103c660048036038101906103c19190611f25565b6108c0565b005b3480156103d457600080fd5b506103ef60048036038101906103ea9190611f52565b610e31565b005b3480156103fd57600080fd5b50610406610e8d565b6040516104139190611ff1565b60405180910390f35b34801561042857600080fd5b50610431610eb3565b60405161043e9190611ecc565b60405180910390f35b34801561045357600080fd5b5061045c610eb9565b005b34801561046a57600080fd5b50610473610f41565b6040516104809190611e45565b60405180910390f35b34801561049557600080fd5b5061049e610f65565b6040516104ab9190611d06565b60405180910390f35b3480156104c057600080fd5b506104db60048036038101906104d6919061200c565b610f78565b005b3480156104e957600080fd5b506104f2610ff3565b6040516104ff9190612039565b60405180910390f35b34801561051457600080fd5b5061052f600480360381019061052a9190611e8c565b61101d565b60405161053c9190611d06565b60405180910390f35b34801561055157600080fd5b5061055a611087565b6040516105679190611ecc565b60405180910390f35b34801561057c57600080fd5b5061058561108d565b6040516105929190611e45565b60405180910390f35b3480156105a757600080fd5b506105c260048036038101906105bd9190611d4d565b611094565b005b3480156105d057600080fd5b506105eb60048036038101906105e69190611e8c565b6110d1565b005b3480156105f957600080fd5b50610614600480360381019061060f9190611da6565b6110fa565b005b34801561062257600080fd5b5061062b61114a565b6040516106389190611d06565b60405180910390f35b34801561064d57600080fd5b5061066860048036038101906106639190611f25565b61115d565b005b34801561067657600080fd5b50610691600480360381019061068c9190611f25565b611380565b005b34801561069f57600080fd5b506106ba60048036038101906106b5919061200c565b611446565b005b60007f7965db0b000000000000000000000000000000000000000000000000000000007bffffffffffffffffffffffffffffffffffffffffffffffffffffffff1916827bffffffffffffffffffffffffffffffffffffffffffffffffffffffff1916148061072f575061072e8261153e565b5b9050919050565b7fa49807205ce4d355092ef5a8a18f56e8913cf4a201fbe287825b095693c21775610768816107636115a8565b6115b0565b670de0b6b3a76400008261077c9190612083565b6006819055505050565b7fa49807205ce4d355092ef5a8a18f56e8913cf4a201fbe287825b095693c217756107b8816107b36115a8565b6115b0565b81600560006101000a81548160ff0219169083151502179055505050565b6000806000838152602001908152602001600020600101549050919050565b6107fe826107d6565b61080f8161080a6115a8565b6115b0565b610819838361164d565b505050565b60035481565b60025481565b6108326115a8565b73ffffffffffffffffffffffffffffffffffffffff168173ffffffffffffffffffffffffffffffffffffffff161461089f576040517f08c379a000000000000000000000000000000000000000000000000000000000815260040161089690612160565b60405180910390fd5b6108a9828261172d565b5050565b600760009054906101000a900460ff1681565b80600560009054906101000a900460ff1615610911576040517f08c379a0000000000000000000000000000000000000000000000000000000008152600401610908906121cc565b60405180910390fd5b600254471015610956576040517f08c379a000000000000000000000000000000000000000000000000000000000815260040161094d90612238565b60405180910390fd5b600560019054906101000a900460ff16156109f957600860008273ffffffffffffffffffffffffffffffffffffffff1673ffffffffffffffffffffffffffffffffffffffff16815260200190815260200160002060009054906101000a900460ff16156109f8576040517f08c379a00000000000000000000000000000000000000000000000000000000081526004016109ef906122a4565b60405180910390fd5b5b6006548173ffffffffffffffffffffffffffffffffffffffff16311015610a55576040517f08c379a0000000000000000000000000000000000000000000000000000000008152600401610a4c90612310565b60405180910390fd5b60006004541115610ae35742600960008373ffffffffffffffffffffffffffffffffffffffff1673ffffffffffffffffffffffffffffffffffffffff168152602001908152602001600020541115610ae2576040517f08c379a0000000000000000000000000000000000000000000000000000000008152600401610ad99061237c565b60405180910390fd5b5b7fa49807205ce4d355092ef5a8a18f56e8913cf4a201fbe287825b095693c21775610b1581610b106115a8565b6115b0565b600654600a60009054906101000a900473ffffffffffffffffffffffffffffffffffffffff1673ffffffffffffffffffffffffffffffffffffffff166370a08231856040518263ffffffff1660e01b8152600401610b7391906123bd565b60206040518083038186803b158015610b8b57600080fd5b505afa158015610b9f573d6000803e3d6000fd5b505050506040513d601f19601f82011682018060405250810190610bc391906123ed565b10610c03576040517f08c379a0000000000000000000000000000000000000000000000000000000008152600401610bfa90612466565b60405180910390fd5b600254600a60009054906101000a900473ffffffffffffffffffffffffffffffffffffffff1673ffffffffffffffffffffffffffffffffffffffff166370a08231306040518263ffffffff1660e01b8152600401610c619190612039565b60206040518083038186803b158015610c7957600080fd5b505afa158015610c8d573d6000803e3d6000fd5b505050506040513d601f19601f82011682018060405250810190610cb191906123ed565b1015610cf2576040517f08c379a0000000000000000000000000000000000000000000000000000000008152600401610ce9906124d2565b60405180910390fd5b6000600a60009054906101000a900473ffffffffffffffffffffffffffffffffffffffff1673ffffffffffffffffffffffffffffffffffffffff1663a9059cbb856002546040518363ffffffff1660e01b8152600401610d539291906124f2565b602060405180830381600087803b158015610d6d57600080fd5b505af1158015610d81573d6000803e3d6000fd5b505050506040513d601f19601f82011682018060405250810190610da59190612530565b905080610de7576040517f08c379a0000000000000000000000000000000000000000000000000000000008152600401610dde906125a9565b60405180910390fd5b610df08461180e565b7f5c17f5353b06dcfd2dc264e541fbcef1696efb5f704f1ca75eb20af054eab5ee33600254604051610e23929190612615565b60405180910390a150505050565b7fa49807205ce4d355092ef5a8a18f56e8913cf4a201fbe287825b095693c21775610e6381610e5e6115a8565b6115b0565b8160038190555081600a610e779190612784565b83610e829190612083565b600281905550505050565b600a60009054906101000a900473ffffffffffffffffffffffffffffffffffffffff1681565b60045481565b610ec16115a8565b73ffffffffffffffffffffffffffffffffffffffff16610edf610ff3565b73ffffffffffffffffffffffffffffffffffffffff1614610f35576040517f08c379a0000000000000000000000000000000000000000000000000000000008152600401610f2c9061281b565b60405180910390fd5b610f3f60006118dc565b565b7fa49807205ce4d355092ef5a8a18f56e8913cf4a201fbe287825b095693c2177581565b600560019054906101000a900460ff1681565b7fa49807205ce4d355092ef5a8a18f56e8913cf4a201fbe287825b095693c21775610faa81610fa56115a8565b6115b0565b6000600960008473ffffffffffffffffffffffffffffffffffffffff1673ffffffffffffffffffffffffffffffffffffffff168152602001908152602001600020819055505050565b6000600160009054906101000a900473ffffffffffffffffffffffffffffffffffffffff16905090565b600080600084815260200190815260200160002060000160008373ffffffffffffffffffffffffffffffffffffffff1673ffffffffffffffffffffffffffffffffffffffff16815260200190815260200160002060009054906101000a900460ff16905092915050565b60065481565b6000801b81565b7fa49807205ce4d355092ef5a8a18f56e8913cf4a201fbe287825b095693c217756110c6816110c16115a8565b6115b0565b816004819055505050565b6110da826107d6565b6110eb816110e66115a8565b6115b0565b6110f5838361172d565b505050565b7fa49807205ce4d355092ef5a8a18f56e8913cf4a201fbe287825b095693c2177561112c816111276115a8565b6115b0565b81600560016101000a81548160ff0219169083151502179055505050565b600560009054906101000a900460ff1681565b6111656115a8565b73ffffffffffffffffffffffffffffffffffffffff16611183610ff3565b73ffffffffffffffffffffffffffffffffffffffff16146111d9576040517f08c379a00000000000000000000000000000000000000000000000000000000081526004016111d09061281b565b60405180910390fd5b6000600a60009054906101000a900473ffffffffffffffffffffffffffffffffffffffff1673ffffffffffffffffffffffffffffffffffffffff166370a08231306040518263ffffffff1660e01b81526004016112369190612039565b60206040518083038186803b15801561124e57600080fd5b505afa158015611262573d6000803e3d6000fd5b505050506040513d601f19601f8201168201806040525081019061128691906123ed565b90506000600a60009054906101000a900473ffffffffffffffffffffffffffffffffffffffff1673ffffffffffffffffffffffffffffffffffffffff1663a9059cbb84846040518363ffffffff1660e01b81526004016112e79291906124f2565b602060405180830381600087803b15801561130157600080fd5b505af1158015611315573d6000803e3d6000fd5b505050506040513d601f19601f820116820180604052508101906113399190612530565b90508061137b576040517f08c379a0000000000000000000000000000000000000000000000000000000008152600401611372906125a9565b60405180910390fd5b505050565b6113886115a8565b73ffffffffffffffffffffffffffffffffffffffff166113a6610ff3565b73ffffffffffffffffffffffffffffffffffffffff16146113fc576040517f08c379a00000000000000000000000000000000000000000000000000000000081526004016113f39061281b565b60405180910390fd5b8073ffffffffffffffffffffffffffffffffffffffff166108fc479081150290604051600060405180830381858888f19350505050158015611442573d6000803e3d6000fd5b5050565b61144e6115a8565b73ffffffffffffffffffffffffffffffffffffffff1661146c610ff3565b73ffffffffffffffffffffffffffffffffffffffff16146114c2576040517f08c379a00000000000000000000000000000000000000000000000000000000081526004016114b99061281b565b60405180910390fd5b600073ffffffffffffffffffffffffffffffffffffffff168173ffffffffffffffffffffffffffffffffffffffff161415611532576040517f08c379a0000000000000000000000000000000000000000000000000000000008152600401611529906128ad565b60405180910390fd5b61153b816118dc565b50565b60007f01ffc9a7000000000000000000000000000000000000000000000000000000007bffffffffffffffffffffffffffffffffffffffffffffffffffffffff1916827bffffffffffffffffffffffffffffffffffffffffffffffffffffffff1916149050919050565b600033905090565b6115ba828261101d565b611649576115df8173ffffffffffffffffffffffffffffffffffffffff1660146119a2565b6115ed8360001c60206119a2565b6040516020016115fe9291906129df565b6040516020818303038152906040526040517f08c379a00000000000000000000000000000000000000000000000000000000081526004016116409190612a63565b60405180910390fd5b5050565b611657828261101d565b61172957600160008084815260200190815260200160002060000160008373ffffffffffffffffffffffffffffffffffffffff1673ffffffffffffffffffffffffffffffffffffffff16815260200190815260200160002060006101000a81548160ff0219169083151502179055506116ce6115a8565b73ffffffffffffffffffffffffffffffffffffffff168173ffffffffffffffffffffffffffffffffffffffff16837f2f8788117e7eff1d82e926ec794901d17c78024a50270940304540a733656f0d60405160405180910390a45b5050565b611737828261101d565b1561180a57600080600084815260200190815260200160002060000160008373ffffffffffffffffffffffffffffffffffffffff1673ffffffffffffffffffffffffffffffffffffffff16815260200190815260200160002060006101000a81548160ff0219169083151502179055506117af6115a8565b73ffffffffffffffffffffffffffffffffffffffff168173ffffffffffffffffffffffffffffffffffffffff16837ff6391f5c32d9c69d2a47ea670b442974b53935d1edc7fd64eb21e047a839171b60405160405180910390a45b5050565b6000600454111561186b57600454426118279190612a85565b600960008373ffffffffffffffffffffffffffffffffffffffff1673ffffffffffffffffffffffffffffffffffffffff168152602001908152602001600020819055505b600560019054906101000a900460ff16156118d9576001600860008373ffffffffffffffffffffffffffffffffffffffff1673ffffffffffffffffffffffffffffffffffffffff16815260200190815260200160002060006101000a81548160ff0219169083151502179055505b50565b6000600160009054906101000a900473ffffffffffffffffffffffffffffffffffffffff16905081600160006101000a81548173ffffffffffffffffffffffffffffffffffffffff021916908373ffffffffffffffffffffffffffffffffffffffff1602179055508173ffffffffffffffffffffffffffffffffffffffff168173ffffffffffffffffffffffffffffffffffffffff167f8be0079c531659141344cd1fd0a4f28419497f9722a3daafe3b4186f6b6457e060405160405180910390a35050565b6060600060028360026119b59190612083565b6119bf9190612a85565b67ffffffffffffffff8111156119d8576119d7612adb565b5b6040519080825280601f01601f191660200182016040528015611a0a5781602001600182028036833780820191505090505b5090507f300000000000000000000000000000000000000000000000000000000000000081600081518110611a4257611a41612b0a565b5b60200101907effffffffffffffffffffffffffffffffffffffffffffffffffffffffffffff1916908160001a9053507f780000000000000000000000000000000000000000000000000000000000000081600181518110611aa657611aa5612b0a565b5b60200101907effffffffffffffffffffffffffffffffffffffffffffffffffffffffffffff1916908160001a90535060006001846002611ae69190612083565b611af09190612a85565b90505b6001811115611b90577f3031323334353637383961626364656600000000000000000000000000000000600f861660108110611b3257611b31612b0a565b5b1a60f81b828281518110611b4957611b48612b0a565b5b60200101907effffffffffffffffffffffffffffffffffffffffffffffffffffffffffffff1916908160001a905350600485901c945080611b8990612b39565b9050611af3565b5060008414611bd4576040517f08c379a0000000000000000000000000000000000000000000000000000000008152600401611bcb90612baf565b60405180910390fd5b8091505092915050565b600073ffffffffffffffffffffffffffffffffffffffff82169050919050565b6000611c0982611bde565b9050919050565b611c1981611bfe565b82525050565b6000819050919050565b611c3281611c1f565b82525050565b6000604082019050611c4d6000830185611c10565b611c5a6020830184611c29565b9392505050565b600080fd5b60007fffffffff0000000000000000000000000000000000000000000000000000000082169050919050565b611c9b81611c66565b8114611ca657600080fd5b50565b600081359050611cb881611c92565b92915050565b600060208284031215611cd457611cd3611c61565b5b6000611ce284828501611ca9565b91505092915050565b60008115159050919050565b611d0081611ceb565b82525050565b6000602082019050611d1b6000830184611cf7565b92915050565b611d2a81611c1f565b8114611d3557600080fd5b50565b600081359050611d4781611d21565b92915050565b600060208284031215611d6357611d62611c61565b5b6000611d7184828501611d38565b91505092915050565b611d8381611ceb565b8114611d8e57600080fd5b50565b600081359050611da081611d7a565b92915050565b600060208284031215611dbc57611dbb611c61565b5b6000611dca84828501611d91565b91505092915050565b6000819050919050565b611de681611dd3565b8114611df157600080fd5b50565b600081359050611e0381611ddd565b92915050565b600060208284031215611e1f57611e1e611c61565b5b6000611e2d84828501611df4565b91505092915050565b611e3f81611dd3565b82525050565b6000602082019050611e5a6000830184611e36565b92915050565b611e6981611bfe565b8114611e7457600080fd5b50565b600081359050611e8681611e60565b92915050565b60008060408385031215611ea357611ea2611c61565b5b6000611eb185828601611df4565b9250506020611ec285828601611e77565b9150509250929050565b6000602082019050611ee16000830184611c29565b92915050565b6000611ef282611bde565b9050919050565b611f0281611ee7565b8114611f0d57600080fd5b50565b600081359050611f1f81611ef9565b92915050565b600060208284031215611f3b57611f3a611c61565b5b6000611f4984828501611f10565b91505092915050565b60008060408385031215611f6957611f68611c61565b5b6000611f7785828601611d38565b9250506020611f8885828601611d38565b9150509250929050565b6000819050919050565b6000611fb7611fb2611fad84611bde565b611f92565b611bde565b9050919050565b6000611fc982611f9c565b9050919050565b6000611fdb82611fbe565b9050919050565b611feb81611fd0565b82525050565b60006020820190506120066000830184611fe2565b92915050565b60006020828403121561202257612021611c61565b5b600061203084828501611e77565b91505092915050565b600060208201905061204e6000830184611c10565b92915050565b7f4e487b7100000000000000000000000000000000000000000000000000000000600052601160045260246000fd5b600061208e82611c1f565b915061209983611c1f565b9250817fffffffffffffffffffffffffffffffffffffffffffffffffffffffffffffffff04831182151516156120d2576120d1612054565b5b828202905092915050565b600082825260208201905092915050565b7f416363657373436f6e74726f6c3a2063616e206f6e6c792072656e6f756e636560008201527f20726f6c657320666f722073656c660000000000000000000000000000000000602082015250565b600061214a602f836120dd565b9150612155826120ee565b604082019050919050565b600060208201905081810360008301526121798161213d565b9050919050565b7f4641554345545f44495341424c45440000000000000000000000000000000000600082015250565b60006121b6600f836120dd565b91506121c182612180565b602082019050919050565b600060208201905081810360008301526121e5816121a9565b9050919050565b7f4641554345545f44525900000000000000000000000000000000000000000000600082015250565b6000612222600a836120dd565b915061222d826121ec565b602082019050919050565b6000602082019050818103600083015261225181612215565b9050919050565b7f53494e474c455f55534500000000000000000000000000000000000000000000600082015250565b600061228e600a836120dd565b915061229982612258565b602082019050919050565b600060208201905081810360008301526122bd81612281565b9050919050565b7f484f4c4445525f4c494d49540000000000000000000000000000000000000000600082015250565b60006122fa600c836120dd565b9150612305826122c4565b602082019050919050565b60006020820190508181036000830152612329816122ed565b9050919050565b7f57414c4c45545f54494d454f5554000000000000000000000000000000000000600082015250565b6000612366600e836120dd565b915061237182612330565b602082019050919050565b6000602082019050818103600083015261239581612359565b9050919050565b60006123a782611fbe565b9050919050565b6123b78161239c565b82525050565b60006020820190506123d260008301846123ae565b92915050565b6000815190506123e781611d21565b92915050565b60006020828403121561240357612402611c61565b5b6000612411848285016123d8565b91505092915050565b7f46574542335f57414c4c45545f4c494d49540000000000000000000000000000600082015250565b60006124506012836120dd565b915061245b8261241a565b602082019050919050565b6000602082019050818103600083015261247f81612443565b9050919050565b7f46574542335f4452590000000000000000000000000000000000000000000000600082015250565b60006124bc6009836120dd565b91506124c782612486565b602082019050919050565b600060208201905081810360008301526124eb816124af565b9050919050565b600060408201905061250760008301856123ae565b6125146020830184611c29565b9392505050565b60008151905061252a81611d7a565b92915050565b60006020828403121561254657612545611c61565b5b60006125548482850161251b565b91505092915050565b7f54585f4641494c55524500000000000000000000000000000000000000000000600082015250565b6000612593600a836120dd565b915061259e8261255d565b602082019050919050565b600060208201905081810360008301526125c281612586565b9050919050565b7f4657454233000000000000000000000000000000000000000000000000000000600082015250565b60006125ff6005836120dd565b915061260a826125c9565b602082019050919050565b600060608201905061262a6000830185611c10565b818103602083015261263b816125f2565b905061264a6040830184611c29565b9392505050565b60008160011c9050919050565b6000808291508390505b60018511156126a85780860481111561268457612683612054565b5b60018516156126935780820291505b80810290506126a185612651565b9450612668565b94509492505050565b6000826126c1576001905061277d565b816126cf576000905061277d565b81600181146126e557600281146126ef5761271e565b600191505061277d565b60ff84111561270157612700612054565b5b8360020a91508482111561271857612717612054565b5b5061277d565b5060208310610133831016604e8410600b84101617156127535782820a90508381111561274e5761274d612054565b5b61277d565b612760848484600161265e565b9250905081840481111561277757612776612054565b5b81810290505b9392505050565b600061278f82611c1f565b915061279a83611c1f565b92506127c77fffffffffffffffffffffffffffffffffffffffffffffffffffffffffffffffff84846126b1565b905092915050565b7f4f776e61626c653a2063616c6c6572206973206e6f7420746865206f776e6572600082015250565b60006128056020836120dd565b9150612810826127cf565b602082019050919050565b60006020820190508181036000830152612834816127f8565b9050919050565b7f4f776e61626c653a206e6577206f776e657220697320746865207a65726f206160008201527f6464726573730000000000000000000000000000000000000000000000000000602082015250565b60006128976026836120dd565b91506128a28261283b565b604082019050919050565b600060208201905081810360008301526128c68161288a565b9050919050565b600081905092915050565b7f416363657373436f6e74726f6c3a206163636f756e7420000000000000000000600082015250565b600061290e6017836128cd565b9150612919826128d8565b601782019050919050565b600081519050919050565b60005b8381101561294d578082015181840152602081019050612932565b8381111561295c576000848401525b50505050565b600061296d82612924565b61297781856128cd565b935061298781856020860161292f565b80840191505092915050565b7f206973206d697373696e6720726f6c6520000000000000000000000000000000600082015250565b60006129c96011836128cd565b91506129d482612993565b601182019050919050565b60006129ea82612901565b91506129f68285612962565b9150612a01826129bc565b9150612a0d8284612962565b91508190509392505050565b6000601f19601f8301169050919050565b6000612a3582612924565b612a3f81856120dd565b9350612a4f81856020860161292f565b612a5881612a19565b840191505092915050565b60006020820190508181036000830152612a7d8184612a2a565b905092915050565b6000612a9082611c1f565b9150612a9b83611c1f565b9250827fffffffffffffffffffffffffffffffffffffffffffffffffffffffffffffffff03821115612ad057612acf612054565b5b828201905092915050565b7f4e487b7100000000000000000000000000000000000000000000000000000000600052604160045260246000fd5b7f4e487b7100000000000000000000000000000000000000000000000000000000600052603260045260246000fd5b6000612b4482611c1f565b91506000821415612b5857612b57612054565b5b600182039050919050565b7f537472696e67733a20686578206c656e67746820696e73756666696369656e74600082015250565b6000612b996020836120dd565b9150612ba482612b63565b602082019050919050565b60006020820190508181036000830152612bc881612b8c565b905091905056fea264697066735822122041db4b8977de874789e3aed2f0c9dcd62af93827adb732285ccaae32113372a264736f6c63430008090033",
  "linkReferences": {},
  "deployedLinkReferences": {}
}