{
  "_format": "hh-sol-artifact-1",
  "contractName": "Fweb3MaticFaucet",
  "sourceName": "contracts/Fweb3MaticFaucet.sol",
  "abi": [
    {
      "inputs": [
        {
          "internalType": "uint256",
          "name": "_dripAmount",
          "type": "uint256"
        },
        {
          "internalType": "uint256",
          "name": "_decimals",
          "type": "uint256"
        },
        {
          "internalType": "contract IERC20",
          "name": "_fweb3TokenAddress",
          "type": "address"
        },
        {
          "internalType": "uint256",
          "name": "_timout",
          "type": "uint256"
        },
        {
          "internalType": "bool",
          "name": "_singleUse",
          "type": "bool"
        },
        {
          "internalType": "uint256",
          "name": "_minFweb3Required",
          "type": "uint256"
        },
        {
          "internalType": "uint256",
          "name": "_minFweb3TokenRequiredDecimals",
          "type": "uint256"
        },
        {
          "internalType": "uint256",
          "name": "_holderLimit",
          "type": "uint256"
        }
      ],
      "stateMutability": "nonpayable",
      "type": "constructor"
    },
    {
      "anonymous": false,
      "inputs": [
        {
          "indexed": false,
          "internalType": "address",
          "name": "",
          "type": "address"
        },
        {
          "indexed": false,
          "internalType": "string",
          "name": "",
          "type": "string"
        },
        {
          "indexed": false,
          "internalType": "uint256",
          "name": "",
          "type": "uint256"
        }
      ],
      "name": "Dripped",
      "type": "event"
    },
    {
      "anonymous": false,
      "inputs": [
        {
          "indexed": true,
          "internalType": "address",
          "name": "previousOwner",
          "type": "address"
        },
        {
          "indexed": true,
          "internalType": "address",
          "name": "newOwner",
          "type": "address"
        }
      ],
      "name": "OwnershipTransferred",
      "type": "event"
    },
    {
      "anonymous": false,
      "inputs": [
        {
          "indexed": false,
          "internalType": "address",
          "name": "",
          "type": "address"
        },
        {
          "indexed": false,
          "internalType": "uint256",
          "name": "",
          "type": "uint256"
        }
      ],
      "name": "ReceivedDeposit",
      "type": "event"
    },
    {
      "anonymous": false,
      "inputs": [
        {
          "indexed": true,
          "internalType": "bytes32",
          "name": "role",
          "type": "bytes32"
        },
        {
          "indexed": true,
          "internalType": "bytes32",
          "name": "previousAdminRole",
          "type": "bytes32"
        },
        {
          "indexed": true,
          "internalType": "bytes32",
          "name": "newAdminRole",
          "type": "bytes32"
        }
      ],
      "name": "RoleAdminChanged",
      "type": "event"
    },
    {
      "anonymous": false,
      "inputs": [
        {
          "indexed": true,
          "internalType": "bytes32",
          "name": "role",
          "type": "bytes32"
        },
        {
          "indexed": true,
          "internalType": "address",
          "name": "account",
          "type": "address"
        },
        {
          "indexed": true,
          "internalType": "address",
          "name": "sender",
          "type": "address"
        }
      ],
      "name": "RoleGranted",
      "type": "event"
    },
    {
      "anonymous": false,
      "inputs": [
        {
          "indexed": true,
          "internalType": "bytes32",
          "name": "role",
          "type": "bytes32"
        },
        {
          "indexed": true,
          "internalType": "address",
          "name": "account",
          "type": "address"
        },
        {
          "indexed": true,
          "internalType": "address",
          "name": "sender",
          "type": "address"
        }
      ],
      "name": "RoleRevoked",
      "type": "event"
    },
    {
      "inputs": [],
      "name": "ADMIN_ROLE",
      "outputs": [
        {
          "internalType": "bytes32",
          "name": "",
          "type": "bytes32"
        }
      ],
      "stateMutability": "view",
      "type": "function"
    },
    {
      "inputs": [],
      "name": "DEFAULT_ADMIN_ROLE",
      "outputs": [
        {
          "internalType": "bytes32",
          "name": "",
          "type": "bytes32"
        }
      ],
      "stateMutability": "view",
      "type": "function"
    },
    {
      "inputs": [
        {
          "internalType": "address",
          "name": "forWhom",
          "type": "address"
        }
      ],
      "name": "clearTimeoutForAddress",
      "outputs": [],
      "stateMutability": "nonpayable",
      "type": "function"
    },
    {
      "inputs": [],
      "name": "decimals",
      "outputs": [
        {
          "internalType": "uint256",
          "name": "",
          "type": "uint256"
        }
      ],
      "stateMutability": "view",
      "type": "function"
    },
    {
      "inputs": [
        {
          "internalType": "address payable",
          "name": "to",
          "type": "address"
        }
      ],
      "name": "drain",
      "outputs": [],
      "stateMutability": "nonpayable",
      "type": "function"
    },
    {
      "inputs": [
        {
          "internalType": "address payable",
          "name": "to",
          "type": "address"
        }
      ],
      "name": "drip",
      "outputs": [],
      "stateMutability": "nonpayable",
      "type": "function"
    },
    {
      "inputs": [],
      "name": "dripAmount",
      "outputs": [
        {
          "internalType": "uint256",
          "name": "",
          "type": "uint256"
        }
      ],
      "stateMutability": "view",
      "type": "function"
    },
    {
      "inputs": [],
      "name": "faucetDisabled",
      "outputs": [
        {
          "internalType": "bool",
          "name": "",
          "type": "bool"
        }
      ],
      "stateMutability": "view",
      "type": "function"
    },
    {
      "inputs": [],
      "name": "fweb3TokenAddress",
      "outputs": [
        {
          "internalType": "contract IERC20",
          "name": "",
          "type": "address"
        }
      ],
      "stateMutability": "view",
      "type": "function"
    },
    {
      "inputs": [
        {
          "internalType": "bytes32",
          "name": "role",
          "type": "bytes32"
        }
      ],
      "name": "getRoleAdmin",
      "outputs": [
        {
          "internalType": "bytes32",
          "name": "",
          "type": "bytes32"
        }
      ],
      "stateMutability": "view",
      "type": "function"
    },
    {
      "inputs": [
        {
          "internalType": "bytes32",
          "name": "role",
          "type": "bytes32"
        },
        {
          "internalType": "address",
          "name": "account",
          "type": "address"
        }
      ],
      "name": "grantRole",
      "outputs": [],
      "stateMutability": "nonpayable",
      "type": "function"
    },
    {
      "inputs": [
        {
          "internalType": "bytes32",
          "name": "role",
          "type": "bytes32"
        },
        {
          "internalType": "address",
          "name": "account",
          "type": "address"
        }
      ],
      "name": "hasRole",
      "outputs": [
        {
          "internalType": "bool",
          "name": "",
          "type": "bool"
        }
      ],
      "stateMutability": "view",
      "type": "function"
    },
    {
      "inputs": [],
      "name": "holderLimit",
      "outputs": [
        {
          "internalType": "uint256",
          "name": "",
          "type": "uint256"
        }
      ],
      "stateMutability": "view",
      "type": "function"
    },
    {
      "inputs": [],
      "name": "minFweb3Required",
      "outputs": [
        {
          "internalType": "uint256",
          "name": "",
          "type": "uint256"
        }
      ],
      "stateMutability": "view",
      "type": "function"
    },
    {
      "inputs": [],
      "name": "minFweb3RequiredDecimals",
      "outputs": [
        {
          "internalType": "uint256",
          "name": "",
          "type": "uint256"
        }
      ],
      "stateMutability": "view",
      "type": "function"
    },
    {
      "inputs": [],
      "name": "owner",
      "outputs": [
        {
          "internalType": "address",
          "name": "",
          "type": "address"
        }
      ],
      "stateMutability": "view",
      "type": "function"
    },
    {
      "inputs": [],
      "name": "renounceOwnership",
      "outputs": [],
      "stateMutability": "nonpayable",
      "type": "function"
    },
    {
      "inputs": [
        {
          "internalType": "bytes32",
          "name": "role",
          "type": "bytes32"
        },
        {
          "internalType": "address",
          "name": "account",
          "type": "address"
        }
      ],
      "name": "renounceRole",
      "outputs": [],
      "stateMutability": "nonpayable",
      "type": "function"
    },
    {
      "inputs": [
        {
          "internalType": "bytes32",
          "name": "role",
          "type": "bytes32"
        },
        {
          "internalType": "address",
          "name": "account",
          "type": "address"
        }
      ],
      "name": "revokeRole",
      "outputs": [],
      "stateMutability": "nonpayable",
      "type": "function"
    },
    {
      "inputs": [
        {
          "internalType": "bool",
          "name": "shouldBeDisabled",
          "type": "bool"
        }
      ],
      "name": "setDisableFaucet",
      "outputs": [],
      "stateMutability": "nonpayable",
      "type": "function"
    },
    {
      "inputs": [
        {
          "internalType": "uint256",
          "name": "amount",
          "type": "uint256"
        },
        {
          "internalType": "uint256",
          "name": "_decimals",
          "type": "uint256"
        }
      ],
      "name": "setDripAmount",
      "outputs": [],
      "stateMutability": "nonpayable",
      "type": "function"
    },
    {
      "inputs": [
        {
          "internalType": "uint256",
          "name": "limit",
          "type": "uint256"
        }
      ],
      "name": "setHolderLimit",
      "outputs": [],
      "stateMutability": "nonpayable",
      "type": "function"
    },
    {
      "inputs": [
        {
          "internalType": "uint256",
          "name": "min",
          "type": "uint256"
        },
        {
          "internalType": "uint256",
          "name": "decimals",
          "type": "uint256"
        }
      ],
      "name": "setMinErc20Required",
      "outputs": [],
      "stateMutability": "nonpayable",
      "type": "function"
    },
    {
      "inputs": [
        {
          "internalType": "bool",
          "name": "shouldBeSingleUse",
          "type": "bool"
        }
      ],
      "name": "setSingleUse",
      "outputs": [],
      "stateMutability": "nonpayable",
      "type": "function"
    },
    {
      "inputs": [
        {
          "internalType": "uint256",
          "name": "newTimeout",
          "type": "uint256"
        }
      ],
      "name": "setTimeout",
      "outputs": [],
      "stateMutability": "nonpayable",
      "type": "function"
    },
    {
      "inputs": [],
      "name": "singleUse",
      "outputs": [
        {
          "internalType": "bool",
          "name": "",
          "type": "bool"
        }
      ],
      "stateMutability": "view",
      "type": "function"
    },
    {
      "inputs": [
        {
          "internalType": "bytes4",
          "name": "interfaceId",
          "type": "bytes4"
        }
      ],
      "name": "supportsInterface",
      "outputs": [
        {
          "internalType": "bool",
          "name": "",
          "type": "bool"
        }
      ],
      "stateMutability": "view",
      "type": "function"
    },
    {
      "inputs": [],
      "name": "timeout",
      "outputs": [
        {
          "internalType": "uint256",
          "name": "",
          "type": "uint256"
        }
      ],
      "stateMutability": "view",
      "type": "function"
    },
    {
      "inputs": [
        {
          "internalType": "address",
          "name": "newOwner",
          "type": "address"
        }
      ],
      "name": "transferOwnership",
      "outputs": [],
      "stateMutability": "nonpayable",
      "type": "function"
    },
    {
      "inputs": [],
      "name": "useHolderLimit",
      "outputs": [
        {
          "internalType": "bool",
          "name": "",
          "type": "bool"
        }
      ],
      "stateMutability": "view",
      "type": "function"
    },
    {
      "stateMutability": "payable",
      "type": "receive"
    }
  ],
  "bytecode": "0x60806040523480156200001157600080fd5b50604051620030da380380620030da83398181016040528101906200003791906200049c565b620000576200004b6200016760201b60201c565b6200016f60201b60201c565b6200006c6000801b336200023560201b60201c565b6200009e7fa49807205ce4d355092ef5a8a18f56e8913cf4a201fbe287825b095693c21775336200023560201b60201c565b86600a620000ad9190620006e8565b88620000ba919062000739565b600281905550866003819055508460048190555083600560016101000a81548160ff02191690831515021790555085600a60006101000a81548173ffffffffffffffffffffffffffffffffffffffff021916908373ffffffffffffffffffffffffffffffffffffffff16021790555081600c8190555081600a6200013f9190620006e8565b836200014c919062000739565b600b819055508060068190555050505050505050506200079a565b600033905090565b6000600160009054906101000a900473ffffffffffffffffffffffffffffffffffffffff16905081600160006101000a81548173ffffffffffffffffffffffffffffffffffffffff021916908373ffffffffffffffffffffffffffffffffffffffff1602179055508173ffffffffffffffffffffffffffffffffffffffff168173ffffffffffffffffffffffffffffffffffffffff167f8be0079c531659141344cd1fd0a4f28419497f9722a3daafe3b4186f6b6457e060405160405180910390a35050565b6200024782826200024b60201b60201c565b5050565b6200025d82826200033c60201b60201c565b6200033857600160008084815260200190815260200160002060000160008373ffffffffffffffffffffffffffffffffffffffff1673ffffffffffffffffffffffffffffffffffffffff16815260200190815260200160002060006101000a81548160ff021916908315150217905550620002dd6200016760201b60201c565b73ffffffffffffffffffffffffffffffffffffffff168173ffffffffffffffffffffffffffffffffffffffff16837f2f8788117e7eff1d82e926ec794901d17c78024a50270940304540a733656f0d60405160405180910390a45b5050565b600080600084815260200190815260200160002060000160008373ffffffffffffffffffffffffffffffffffffffff1673ffffffffffffffffffffffffffffffffffffffff16815260200190815260200160002060009054906101000a900460ff16905092915050565b600080fd5b6000819050919050565b620003c081620003ab565b8114620003cc57600080fd5b50565b600081519050620003e081620003b5565b92915050565b600073ffffffffffffffffffffffffffffffffffffffff82169050919050565b60006200041382620003e6565b9050919050565b6000620004278262000406565b9050919050565b62000439816200041a565b81146200044557600080fd5b50565b60008151905062000459816200042e565b92915050565b60008115159050919050565b62000476816200045f565b81146200048257600080fd5b50565b60008151905062000496816200046b565b92915050565b600080600080600080600080610100898b031215620004c057620004bf620003a6565b5b6000620004d08b828c01620003cf565b9850506020620004e38b828c01620003cf565b9750506040620004f68b828c0162000448565b9650506060620005098b828c01620003cf565b95505060806200051c8b828c0162000485565b94505060a06200052f8b828c01620003cf565b93505060c0620005428b828c01620003cf565b92505060e0620005558b828c01620003cf565b9150509295985092959890939650565b7f4e487b7100000000000000000000000000000000000000000000000000000000600052601160045260246000fd5b60008160011c9050919050565b6000808291508390505b6001851115620005f357808604811115620005cb57620005ca62000565565b5b6001851615620005db5780820291505b8081029050620005eb8562000594565b9450620005ab565b94509492505050565b6000826200060e5760019050620006e1565b816200061e5760009050620006e1565b8160018114620006375760028114620006425762000678565b6001915050620006e1565b60ff84111562000657576200065662000565565b5b8360020a91508482111562000671576200067062000565565b5b50620006e1565b5060208310610133831016604e8410600b8410161715620006b25782820a905083811115620006ac57620006ab62000565565b5b620006e1565b620006c18484846001620005a1565b92509050818404811115620006db57620006da62000565565b5b81810290505b9392505050565b6000620006f582620003ab565b91506200070283620003ab565b9250620007317fffffffffffffffffffffffffffffffffffffffffffffffffffffffffffffffff8484620005fc565b905092915050565b60006200074682620003ab565b91506200075383620003ab565b9250817fffffffffffffffffffffffffffffffffffffffffffffffffffffffffffffffff04831182151516156200078f576200078e62000565565b5b828202905092915050565b61293080620007aa6000396000f3fe6080604052600436106101d15760003560e01c806375b238fc116100f7578063a217fddf11610095578063e928890c11610064578063e928890c14610682578063ec1cb194146106ad578063ece53132146106d6578063f2fde38b146106ff57610211565b8063a217fddf146105dc578063c58a34cc14610607578063d547741f14610630578063e28c81721461065957610211565b806386c10c0a116100d157806386c10c0a146105205780638da5cb5b1461054957806391d14854146105745780639811572c146105b157610211565b806375b238fc1461049f57806376e1032a146104ca57806379f1cb54146104f557610211565b806335a1529b1161016f57806367a5cd061161013e57806367a5cd061461040b5780636c40bc151461043457806370dea79a1461045d578063715018a61461048857610211565b806335a1529b1461036157806336568abe1461038c578063506e817d146103b557806351f53a76146103e057610211565b80631d691fb5116101ab5780631d691fb5146102a7578063248a9ca3146102d05780632f2ff15d1461030d578063313ce5671461033657610211565b806301ffc9a71461021657806305b400ae1461025357806306f91d591461027e57610211565b36610211577f645431dbae366bae0d8be5812a6298ad69f5604842a40a1bae301a143386865433346040516102079291906119f4565b60405180910390a1005b600080fd5b34801561022257600080fd5b5061023d60048036038101906102389190611a7a565b610728565b60405161024a9190611ac2565b60405180910390f35b34801561025f57600080fd5b506102686107a2565b6040516102759190611add565b60405180910390f35b34801561028a57600080fd5b506102a560048036038101906102a09190611b24565b6107a8565b005b3480156102b357600080fd5b506102ce60048036038101906102c99190611b7d565b6107f8565b005b3480156102dc57600080fd5b506102f760048036038101906102f29190611be0565b610848565b6040516103049190611c1c565b60405180910390f35b34801561031957600080fd5b50610334600480360381019061032f9190611c63565b610867565b005b34801561034257600080fd5b5061034b610890565b6040516103589190611add565b60405180910390f35b34801561036d57600080fd5b50610376610896565b6040516103839190611add565b60405180910390f35b34801561039857600080fd5b506103b360048036038101906103ae9190611c63565b61089c565b005b3480156103c157600080fd5b506103ca61091f565b6040516103d79190611ac2565b60405180910390f35b3480156103ec57600080fd5b506103f5610932565b6040516104029190611d02565b60405180910390f35b34801561041757600080fd5b50610432600480360381019061042d9190611d5b565b610958565b005b34801561044057600080fd5b5061045b60048036038101906104569190611d88565b610ddb565b005b34801561046957600080fd5b50610472610e37565b60405161047f9190611add565b60405180910390f35b34801561049457600080fd5b5061049d610e3d565b005b3480156104ab57600080fd5b506104b4610ec5565b6040516104c19190611c1c565b60405180910390f35b3480156104d657600080fd5b506104df610ee9565b6040516104ec9190611ac2565b60405180910390f35b34801561050157600080fd5b5061050a610efc565b6040516105179190611add565b60405180910390f35b34801561052c57600080fd5b5061054760048036038101906105429190611dc8565b610f02565b005b34801561055557600080fd5b5061055e610f7d565b60405161056b9190611df5565b60405180910390f35b34801561058057600080fd5b5061059b60048036038101906105969190611c63565b610fa7565b6040516105a89190611ac2565b60405180910390f35b3480156105bd57600080fd5b506105c6611011565b6040516105d39190611add565b60405180910390f35b3480156105e857600080fd5b506105f1611017565b6040516105fe9190611c1c565b60405180910390f35b34801561061357600080fd5b5061062e60048036038101906106299190611b24565b61101e565b005b34801561063c57600080fd5b5061065760048036038101906106529190611c63565b61105b565b005b34801561066557600080fd5b50610680600480360381019061067b9190611b7d565b611084565b005b34801561068e57600080fd5b506106976110d4565b6040516106a49190611ac2565b60405180910390f35b3480156106b957600080fd5b506106d460048036038101906106cf9190611d88565b6110e7565b005b3480156106e257600080fd5b506106fd60048036038101906106f89190611d5b565b61113c565b005b34801561070b57600080fd5b5061072660048036038101906107219190611dc8565b611202565b005b60007f7965db0b000000000000000000000000000000000000000000000000000000007bffffffffffffffffffffffffffffffffffffffffffffffffffffffff1916827bffffffffffffffffffffffffffffffffffffffffffffffffffffffff1916148061079b575061079a826112fa565b5b9050919050565b600b5481565b7fa49807205ce4d355092ef5a8a18f56e8913cf4a201fbe287825b095693c217756107da816107d5611364565b61136c565b670de0b6b3a7640000826107ee9190611e3f565b6006819055505050565b7fa49807205ce4d355092ef5a8a18f56e8913cf4a201fbe287825b095693c2177561082a81610825611364565b61136c565b81600560006101000a81548160ff0219169083151502179055505050565b6000806000838152602001908152602001600020600101549050919050565b61087082610848565b6108818161087c611364565b61136c565b61088b8383611409565b505050565b60035481565b60025481565b6108a4611364565b73ffffffffffffffffffffffffffffffffffffffff168173ffffffffffffffffffffffffffffffffffffffff1614610911576040517f08c379a000000000000000000000000000000000000000000000000000000000815260040161090890611f1c565b60405180910390fd5b61091b82826114e9565b5050565b600760009054906101000a900460ff1681565b600a60009054906101000a900473ffffffffffffffffffffffffffffffffffffffff1681565b80600560009054906101000a900460ff16156109a9576040517f08c379a00000000000000000000000000000000000000000000000000000000081526004016109a090611f88565b60405180910390fd5b6402540be4004710156109f1576040517f08c379a00000000000000000000000000000000000000000000000000000000081526004016109e890611ff4565b60405180910390fd5b600560019054906101000a900460ff1615610a9457600860008273ffffffffffffffffffffffffffffffffffffffff1673ffffffffffffffffffffffffffffffffffffffff16815260200190815260200160002060009054906101000a900460ff1615610a93576040517f08c379a0000000000000000000000000000000000000000000000000000000008152600401610a8a90612060565b60405180910390fd5b5b6006548173ffffffffffffffffffffffffffffffffffffffff163111610aef576040517f08c379a0000000000000000000000000000000000000000000000000000000008152600401610ae6906120cc565b60405180910390fd5b60006004541115610b7d5742600960008373ffffffffffffffffffffffffffffffffffffffff1673ffffffffffffffffffffffffffffffffffffffff168152602001908152602001600020541115610b7c576040517f08c379a0000000000000000000000000000000000000000000000000000000008152600401610b7390612138565b60405180910390fd5b5b7fa49807205ce4d355092ef5a8a18f56e8913cf4a201fbe287825b095693c21775610baf81610baa611364565b61136c565b600254471015610bf4576040517f08c379a0000000000000000000000000000000000000000000000000000000008152600401610beb90611ff4565b60405180910390fd5b600b54600a60009054906101000a900473ffffffffffffffffffffffffffffffffffffffff1673ffffffffffffffffffffffffffffffffffffffff166370a08231856040518263ffffffff1660e01b8152600401610c529190612179565b60206040518083038186803b158015610c6a57600080fd5b505afa158015610c7e573d6000803e3d6000fd5b505050506040513d601f19601f82011682018060405250810190610ca291906121a9565b1015610ce3576040517f08c379a0000000000000000000000000000000000000000000000000000000008152600401610cda90612222565b60405180910390fd5b60008373ffffffffffffffffffffffffffffffffffffffff16600254604051610d0b90612273565b60006040518083038185875af1925050503d8060008114610d48576040519150601f19603f3d011682016040523d82523d6000602084013e610d4d565b606091505b5050905080610d91576040517f08c379a0000000000000000000000000000000000000000000000000000000008152600401610d88906122d4565b60405180910390fd5b610d9a846115ca565b7f5c17f5353b06dcfd2dc264e541fbcef1696efb5f704f1ca75eb20af054eab5ee33600254604051610dcd929190612340565b60405180910390a150505050565b7fa49807205ce4d355092ef5a8a18f56e8913cf4a201fbe287825b095693c21775610e0d81610e08611364565b61136c565b8160038190555081600a610e2191906124af565b83610e2c9190611e3f565b600281905550505050565b60045481565b610e45611364565b73ffffffffffffffffffffffffffffffffffffffff16610e63610f7d565b73ffffffffffffffffffffffffffffffffffffffff1614610eb9576040517f08c379a0000000000000000000000000000000000000000000000000000000008152600401610eb090612546565b60405180910390fd5b610ec36000611698565b565b7fa49807205ce4d355092ef5a8a18f56e8913cf4a201fbe287825b095693c2177581565b600560019054906101000a900460ff1681565b600c5481565b7fa49807205ce4d355092ef5a8a18f56e8913cf4a201fbe287825b095693c21775610f3481610f2f611364565b61136c565b6000600960008473ffffffffffffffffffffffffffffffffffffffff1673ffffffffffffffffffffffffffffffffffffffff168152602001908152602001600020819055505050565b6000600160009054906101000a900473ffffffffffffffffffffffffffffffffffffffff16905090565b600080600084815260200190815260200160002060000160008373ffffffffffffffffffffffffffffffffffffffff1673ffffffffffffffffffffffffffffffffffffffff16815260200190815260200160002060009054906101000a900460ff16905092915050565b60065481565b6000801b81565b7fa49807205ce4d355092ef5a8a18f56e8913cf4a201fbe287825b095693c217756110508161104b611364565b61136c565b816004819055505050565b61106482610848565b61107581611070611364565b61136c565b61107f83836114e9565b505050565b7fa49807205ce4d355092ef5a8a18f56e8913cf4a201fbe287825b095693c217756110b6816110b1611364565b61136c565b81600560016101000a81548160ff0219169083151502179055505050565b600560009054906101000a900460ff1681565b7fa49807205ce4d355092ef5a8a18f56e8913cf4a201fbe287825b095693c2177561111981611114611364565b61136c565b81600a61112691906124af565b836111319190611e3f565b600b81905550505050565b611144611364565b73ffffffffffffffffffffffffffffffffffffffff16611162610f7d565b73ffffffffffffffffffffffffffffffffffffffff16146111b8576040517f08c379a00000000000000000000000000000000000000000000000000000000081526004016111af90612546565b60405180910390fd5b8073ffffffffffffffffffffffffffffffffffffffff166108fc479081150290604051600060405180830381858888f193505050501580156111fe573d6000803e3d6000fd5b5050565b61120a611364565b73ffffffffffffffffffffffffffffffffffffffff16611228610f7d565b73ffffffffffffffffffffffffffffffffffffffff161461127e576040517f08c379a000000000000000000000000000000000000000000000000000000000815260040161127590612546565b60405180910390fd5b600073ffffffffffffffffffffffffffffffffffffffff168173ffffffffffffffffffffffffffffffffffffffff1614156112ee576040517f08c379a00000000000000000000000000000000000000000000000000000000081526004016112e5906125d8565b60405180910390fd5b6112f781611698565b50565b60007f01ffc9a7000000000000000000000000000000000000000000000000000000007bffffffffffffffffffffffffffffffffffffffffffffffffffffffff1916827bffffffffffffffffffffffffffffffffffffffffffffffffffffffff1916149050919050565b600033905090565b6113768282610fa7565b6114055761139b8173ffffffffffffffffffffffffffffffffffffffff16601461175e565b6113a98360001c602061175e565b6040516020016113ba92919061270a565b6040516020818303038152906040526040517f08c379a00000000000000000000000000000000000000000000000000000000081526004016113fc919061278e565b60405180910390fd5b5050565b6114138282610fa7565b6114e557600160008084815260200190815260200160002060000160008373ffffffffffffffffffffffffffffffffffffffff1673ffffffffffffffffffffffffffffffffffffffff16815260200190815260200160002060006101000a81548160ff02191690831515021790555061148a611364565b73ffffffffffffffffffffffffffffffffffffffff168173ffffffffffffffffffffffffffffffffffffffff16837f2f8788117e7eff1d82e926ec794901d17c78024a50270940304540a733656f0d60405160405180910390a45b5050565b6114f38282610fa7565b156115c657600080600084815260200190815260200160002060000160008373ffffffffffffffffffffffffffffffffffffffff1673ffffffffffffffffffffffffffffffffffffffff16815260200190815260200160002060006101000a81548160ff02191690831515021790555061156b611364565b73ffffffffffffffffffffffffffffffffffffffff168173ffffffffffffffffffffffffffffffffffffffff16837ff6391f5c32d9c69d2a47ea670b442974b53935d1edc7fd64eb21e047a839171b60405160405180910390a45b5050565b6000600454111561162757600454426115e391906127b0565b600960008373ffffffffffffffffffffffffffffffffffffffff1673ffffffffffffffffffffffffffffffffffffffff168152602001908152602001600020819055505b600560019054906101000a900460ff1615611695576001600860008373ffffffffffffffffffffffffffffffffffffffff1673ffffffffffffffffffffffffffffffffffffffff16815260200190815260200160002060006101000a81548160ff0219169083151502179055505b50565b6000600160009054906101000a900473ffffffffffffffffffffffffffffffffffffffff16905081600160006101000a81548173ffffffffffffffffffffffffffffffffffffffff021916908373ffffffffffffffffffffffffffffffffffffffff1602179055508173ffffffffffffffffffffffffffffffffffffffff168173ffffffffffffffffffffffffffffffffffffffff167f8be0079c531659141344cd1fd0a4f28419497f9722a3daafe3b4186f6b6457e060405160405180910390a35050565b6060600060028360026117719190611e3f565b61177b91906127b0565b67ffffffffffffffff81111561179457611793612806565b5b6040519080825280601f01601f1916602001820160405280156117c65781602001600182028036833780820191505090505b5090507f3000000000000000000000000000000000000000000000000000000000000000816000815181106117fe576117fd612835565b5b60200101907effffffffffffffffffffffffffffffffffffffffffffffffffffffffffffff1916908160001a9053507f78000000000000000000000000000000000000000000000000000000000000008160018151811061186257611861612835565b5b60200101907effffffffffffffffffffffffffffffffffffffffffffffffffffffffffffff1916908160001a905350600060018460026118a29190611e3f565b6118ac91906127b0565b90505b600181111561194c577f3031323334353637383961626364656600000000000000000000000000000000600f8616601081106118ee576118ed612835565b5b1a60f81b82828151811061190557611904612835565b5b60200101907effffffffffffffffffffffffffffffffffffffffffffffffffffffffffffff1916908160001a905350600485901c94508061194590612864565b90506118af565b5060008414611990576040517f08c379a0000000000000000000000000000000000000000000000000000000008152600401611987906128da565b60405180910390fd5b8091505092915050565b600073ffffffffffffffffffffffffffffffffffffffff82169050919050565b60006119c58261199a565b9050919050565b6119d5816119ba565b82525050565b6000819050919050565b6119ee816119db565b82525050565b6000604082019050611a0960008301856119cc565b611a1660208301846119e5565b9392505050565b600080fd5b60007fffffffff0000000000000000000000000000000000000000000000000000000082169050919050565b611a5781611a22565b8114611a6257600080fd5b50565b600081359050611a7481611a4e565b92915050565b600060208284031215611a9057611a8f611a1d565b5b6000611a9e84828501611a65565b91505092915050565b60008115159050919050565b611abc81611aa7565b82525050565b6000602082019050611ad76000830184611ab3565b92915050565b6000602082019050611af260008301846119e5565b92915050565b611b01816119db565b8114611b0c57600080fd5b50565b600081359050611b1e81611af8565b92915050565b600060208284031215611b3a57611b39611a1d565b5b6000611b4884828501611b0f565b91505092915050565b611b5a81611aa7565b8114611b6557600080fd5b50565b600081359050611b7781611b51565b92915050565b600060208284031215611b9357611b92611a1d565b5b6000611ba184828501611b68565b91505092915050565b6000819050919050565b611bbd81611baa565b8114611bc857600080fd5b50565b600081359050611bda81611bb4565b92915050565b600060208284031215611bf657611bf5611a1d565b5b6000611c0484828501611bcb565b91505092915050565b611c1681611baa565b82525050565b6000602082019050611c316000830184611c0d565b92915050565b611c40816119ba565b8114611c4b57600080fd5b50565b600081359050611c5d81611c37565b92915050565b60008060408385031215611c7a57611c79611a1d565b5b6000611c8885828601611bcb565b9250506020611c9985828601611c4e565b9150509250929050565b6000819050919050565b6000611cc8611cc3611cbe8461199a565b611ca3565b61199a565b9050919050565b6000611cda82611cad565b9050919050565b6000611cec82611ccf565b9050919050565b611cfc81611ce1565b82525050565b6000602082019050611d176000830184611cf3565b92915050565b6000611d288261199a565b9050919050565b611d3881611d1d565b8114611d4357600080fd5b50565b600081359050611d5581611d2f565b92915050565b600060208284031215611d7157611d70611a1d565b5b6000611d7f84828501611d46565b91505092915050565b60008060408385031215611d9f57611d9e611a1d565b5b6000611dad85828601611b0f565b9250506020611dbe85828601611b0f565b9150509250929050565b600060208284031215611dde57611ddd611a1d565b5b6000611dec84828501611c4e565b91505092915050565b6000602082019050611e0a60008301846119cc565b92915050565b7f4e487b7100000000000000000000000000000000000000000000000000000000600052601160045260246000fd5b6000611e4a826119db565b9150611e55836119db565b9250817fffffffffffffffffffffffffffffffffffffffffffffffffffffffffffffffff0483118215151615611e8e57611e8d611e10565b5b828202905092915050565b600082825260208201905092915050565b7f416363657373436f6e74726f6c3a2063616e206f6e6c792072656e6f756e636560008201527f20726f6c657320666f722073656c660000000000000000000000000000000000602082015250565b6000611f06602f83611e99565b9150611f1182611eaa565b604082019050919050565b60006020820190508181036000830152611f3581611ef9565b9050919050565b7f4641554345545f44495341424c45440000000000000000000000000000000000600082015250565b6000611f72600f83611e99565b9150611f7d82611f3c565b602082019050919050565b60006020820190508181036000830152611fa181611f65565b9050919050565b7f4641554345545f44525900000000000000000000000000000000000000000000600082015250565b6000611fde600a83611e99565b9150611fe982611fa8565b602082019050919050565b6000602082019050818103600083015261200d81611fd1565b9050919050565b7f53494e474c455f55534500000000000000000000000000000000000000000000600082015250565b600061204a600a83611e99565b915061205582612014565b602082019050919050565b600060208201905081810360008301526120798161203d565b9050919050565b7f484f4c4445525f4c494d49540000000000000000000000000000000000000000600082015250565b60006120b6600c83611e99565b91506120c182612080565b602082019050919050565b600060208201905081810360008301526120e5816120a9565b9050919050565b7f57414c4c45545f54494d454f5554000000000000000000000000000000000000600082015250565b6000612122600e83611e99565b915061212d826120ec565b602082019050919050565b6000602082019050818103600083015261215181612115565b9050919050565b600061216382611ccf565b9050919050565b61217381612158565b82525050565b600060208201905061218e600083018461216a565b92915050565b6000815190506121a381611af8565b92915050565b6000602082840312156121bf576121be611a1d565b5b60006121cd84828501612194565b91505092915050565b7f4d495353494e475f46574542335f544f4b454e53000000000000000000000000600082015250565b600061220c601483611e99565b9150612217826121d6565b602082019050919050565b6000602082019050818103600083015261223b816121ff565b9050919050565b600081905092915050565b50565b600061225d600083612242565b91506122688261224d565b600082019050919050565b600061227e82612250565b9150819050919050565b7f54585f4641494c55524500000000000000000000000000000000000000000000600082015250565b60006122be600a83611e99565b91506122c982612288565b602082019050919050565b600060208201905081810360008301526122ed816122b1565b9050919050565b7f4d41544943000000000000000000000000000000000000000000000000000000600082015250565b600061232a600583611e99565b9150612335826122f4565b602082019050919050565b600060608201905061235560008301856119cc565b81810360208301526123668161231d565b905061237560408301846119e5565b9392505050565b60008160011c9050919050565b6000808291508390505b60018511156123d3578086048111156123af576123ae611e10565b5b60018516156123be5780820291505b80810290506123cc8561237c565b9450612393565b94509492505050565b6000826123ec57600190506124a8565b816123fa57600090506124a8565b8160018114612410576002811461241a57612449565b60019150506124a8565b60ff84111561242c5761242b611e10565b5b8360020a91508482111561244357612442611e10565b5b506124a8565b5060208310610133831016604e8410600b841016171561247e5782820a90508381111561247957612478611e10565b5b6124a8565b61248b8484846001612389565b925090508184048111156124a2576124a1611e10565b5b81810290505b9392505050565b60006124ba826119db565b91506124c5836119db565b92506124f27fffffffffffffffffffffffffffffffffffffffffffffffffffffffffffffffff84846123dc565b905092915050565b7f4f776e61626c653a2063616c6c6572206973206e6f7420746865206f776e6572600082015250565b6000612530602083611e99565b915061253b826124fa565b602082019050919050565b6000602082019050818103600083015261255f81612523565b9050919050565b7f4f776e61626c653a206e6577206f776e657220697320746865207a65726f206160008201527f6464726573730000000000000000000000000000000000000000000000000000602082015250565b60006125c2602683611e99565b91506125cd82612566565b604082019050919050565b600060208201905081810360008301526125f1816125b5565b9050919050565b600081905092915050565b7f416363657373436f6e74726f6c3a206163636f756e7420000000000000000000600082015250565b60006126396017836125f8565b915061264482612603565b601782019050919050565b600081519050919050565b60005b8381101561267857808201518184015260208101905061265d565b83811115612687576000848401525b50505050565b60006126988261264f565b6126a281856125f8565b93506126b281856020860161265a565b80840191505092915050565b7f206973206d697373696e6720726f6c6520000000000000000000000000000000600082015250565b60006126f46011836125f8565b91506126ff826126be565b601182019050919050565b60006127158261262c565b9150612721828561268d565b915061272c826126e7565b9150612738828461268d565b91508190509392505050565b6000601f19601f8301169050919050565b60006127608261264f565b61276a8185611e99565b935061277a81856020860161265a565b61278381612744565b840191505092915050565b600060208201905081810360008301526127a88184612755565b905092915050565b60006127bb826119db565b91506127c6836119db565b9250827fffffffffffffffffffffffffffffffffffffffffffffffffffffffffffffffff038211156127fb576127fa611e10565b5b828201905092915050565b7f4e487b7100000000000000000000000000000000000000000000000000000000600052604160045260246000fd5b7f4e487b7100000000000000000000000000000000000000000000000000000000600052603260045260246000fd5b600061286f826119db565b9150600082141561288357612882611e10565b5b600182039050919050565b7f537472696e67733a20686578206c656e67746820696e73756666696369656e74600082015250565b60006128c4602083611e99565b91506128cf8261288e565b602082019050919050565b600060208201905081810360008301526128f3816128b7565b905091905056fea264697066735822122000a1422900109764e163b53405178a59b44adf9e3a720a29bac5afdb06ee627f64736f6c63430008090033",
  "linkReferences": {},
  "deployedLinkReferences": {}
}