{
  "_format": "hh-sol-artifact-1",
  "contractName": "Fweb3TokenFaucet",
  "sourceName": "contracts/Fweb3TokenFaucet.sol",
  "abi": [
    {
      "inputs": [
        {
          "internalType": "contract ERC20",
          "name": "_fweb3Token",
          "type": "address"
        },
        {
          "internalType": "uint256",
          "name": "_dripBase",
          "type": "uint256"
        },
        {
          "internalType": "uint256",
          "name": "_decimals",
          "type": "uint256"
        },
        {
          "internalType": "uint256",
          "name": "_timeout",
          "type": "uint256"
        },
        {
          "internalType": "bool",
          "name": "_singleUse",
          "type": "bool"
        },
        {
          "internalType": "uint256",
          "name": "_holderLimitFweb3",
          "type": "uint256"
        }
      ],
      "stateMutability": "nonpayable",
      "type": "constructor"
    },
    {
      "anonymous": false,
      "inputs": [
        {
          "indexed": false,
          "internalType": "address",
          "name": "",
          "type": "address"
        },
        {
          "indexed": false,
          "internalType": "string",
          "name": "",
          "type": "string"
        },
        {
          "indexed": false,
          "internalType": "uint256",
          "name": "",
          "type": "uint256"
        }
      ],
      "name": "Dripped",
      "type": "event"
    },
    {
      "anonymous": false,
      "inputs": [
        {
          "indexed": true,
          "internalType": "address",
          "name": "previousOwner",
          "type": "address"
        },
        {
          "indexed": true,
          "internalType": "address",
          "name": "newOwner",
          "type": "address"
        }
      ],
      "name": "OwnershipTransferred",
      "type": "event"
    },
    {
      "anonymous": false,
      "inputs": [
        {
          "indexed": false,
          "internalType": "address",
          "name": "",
          "type": "address"
        },
        {
          "indexed": false,
          "internalType": "uint256",
          "name": "",
          "type": "uint256"
        }
      ],
      "name": "ReceivedDeposit",
      "type": "event"
    },
    {
      "anonymous": false,
      "inputs": [
        {
          "indexed": false,
          "internalType": "address",
          "name": "",
          "type": "address"
        },
        {
          "indexed": false,
          "internalType": "uint256",
          "name": "",
          "type": "uint256"
        }
      ],
      "name": "ReceivedFweb3Deposit",
      "type": "event"
    },
    {
      "anonymous": false,
      "inputs": [
        {
          "indexed": true,
          "internalType": "bytes32",
          "name": "role",
          "type": "bytes32"
        },
        {
          "indexed": true,
          "internalType": "bytes32",
          "name": "previousAdminRole",
          "type": "bytes32"
        },
        {
          "indexed": true,
          "internalType": "bytes32",
          "name": "newAdminRole",
          "type": "bytes32"
        }
      ],
      "name": "RoleAdminChanged",
      "type": "event"
    },
    {
      "anonymous": false,
      "inputs": [
        {
          "indexed": true,
          "internalType": "bytes32",
          "name": "role",
          "type": "bytes32"
        },
        {
          "indexed": true,
          "internalType": "address",
          "name": "account",
          "type": "address"
        },
        {
          "indexed": true,
          "internalType": "address",
          "name": "sender",
          "type": "address"
        }
      ],
      "name": "RoleGranted",
      "type": "event"
    },
    {
      "anonymous": false,
      "inputs": [
        {
          "indexed": true,
          "internalType": "bytes32",
          "name": "role",
          "type": "bytes32"
        },
        {
          "indexed": true,
          "internalType": "address",
          "name": "account",
          "type": "address"
        },
        {
          "indexed": true,
          "internalType": "address",
          "name": "sender",
          "type": "address"
        }
      ],
      "name": "RoleRevoked",
      "type": "event"
    },
    {
      "inputs": [],
      "name": "ADMIN_ROLE",
      "outputs": [
        {
          "internalType": "bytes32",
          "name": "",
          "type": "bytes32"
        }
      ],
      "stateMutability": "view",
      "type": "function"
    },
    {
      "inputs": [],
      "name": "DEFAULT_ADMIN_ROLE",
      "outputs": [
        {
          "internalType": "bytes32",
          "name": "",
          "type": "bytes32"
        }
      ],
      "stateMutability": "view",
      "type": "function"
    },
    {
      "inputs": [
        {
          "internalType": "address",
          "name": "forWhom",
          "type": "address"
        }
      ],
      "name": "clearTimeoutForAddress",
      "outputs": [],
      "stateMutability": "nonpayable",
      "type": "function"
    },
    {
      "inputs": [],
      "name": "decimals",
      "outputs": [
        {
          "internalType": "uint256",
          "name": "",
          "type": "uint256"
        }
      ],
      "stateMutability": "view",
      "type": "function"
    },
    {
      "inputs": [
        {
          "internalType": "address payable",
          "name": "to",
          "type": "address"
        }
      ],
      "name": "drain",
      "outputs": [],
      "stateMutability": "nonpayable",
      "type": "function"
    },
    {
      "inputs": [
        {
          "internalType": "address payable",
          "name": "to",
          "type": "address"
        }
      ],
      "name": "drainFweb3",
      "outputs": [],
      "stateMutability": "nonpayable",
      "type": "function"
    },
    {
      "inputs": [
        {
          "internalType": "address payable",
          "name": "to",
          "type": "address"
        }
      ],
      "name": "drip",
      "outputs": [],
      "stateMutability": "nonpayable",
      "type": "function"
    },
    {
      "inputs": [],
      "name": "dripAmount",
      "outputs": [
        {
          "internalType": "uint256",
          "name": "",
          "type": "uint256"
        }
      ],
      "stateMutability": "view",
      "type": "function"
    },
    {
      "inputs": [],
      "name": "dripBase",
      "outputs": [
        {
          "internalType": "uint256",
          "name": "",
          "type": "uint256"
        }
      ],
      "stateMutability": "view",
      "type": "function"
    },
    {
      "inputs": [],
      "name": "faucetDisabled",
      "outputs": [
        {
          "internalType": "bool",
          "name": "",
          "type": "bool"
        }
      ],
      "stateMutability": "view",
      "type": "function"
    },
    {
      "inputs": [],
      "name": "fweb3Token",
      "outputs": [
        {
          "internalType": "contract ERC20",
          "name": "",
          "type": "address"
        }
      ],
      "stateMutability": "view",
      "type": "function"
    },
    {
      "inputs": [
        {
          "internalType": "bytes32",
          "name": "role",
          "type": "bytes32"
        }
      ],
      "name": "getRoleAdmin",
      "outputs": [
        {
          "internalType": "bytes32",
          "name": "",
          "type": "bytes32"
        }
      ],
      "stateMutability": "view",
      "type": "function"
    },
    {
      "inputs": [
        {
          "internalType": "bytes32",
          "name": "role",
          "type": "bytes32"
        },
        {
          "internalType": "address",
          "name": "account",
          "type": "address"
        }
      ],
      "name": "grantRole",
      "outputs": [],
      "stateMutability": "nonpayable",
      "type": "function"
    },
    {
      "inputs": [
        {
          "internalType": "bytes32",
          "name": "role",
          "type": "bytes32"
        },
        {
          "internalType": "address",
          "name": "account",
          "type": "address"
        }
      ],
      "name": "hasRole",
      "outputs": [
        {
          "internalType": "bool",
          "name": "",
          "type": "bool"
        }
      ],
      "stateMutability": "view",
      "type": "function"
    },
    {
      "inputs": [],
      "name": "holderLimit",
      "outputs": [
        {
          "internalType": "uint256",
          "name": "",
          "type": "uint256"
        }
      ],
      "stateMutability": "view",
      "type": "function"
    },
    {
      "inputs": [],
      "name": "owner",
      "outputs": [
        {
          "internalType": "address",
          "name": "",
          "type": "address"
        }
      ],
      "stateMutability": "view",
      "type": "function"
    },
    {
      "inputs": [],
      "name": "renounceOwnership",
      "outputs": [],
      "stateMutability": "nonpayable",
      "type": "function"
    },
    {
      "inputs": [
        {
          "internalType": "bytes32",
          "name": "role",
          "type": "bytes32"
        },
        {
          "internalType": "address",
          "name": "account",
          "type": "address"
        }
      ],
      "name": "renounceRole",
      "outputs": [],
      "stateMutability": "nonpayable",
      "type": "function"
    },
    {
      "inputs": [
        {
          "internalType": "bytes32",
          "name": "role",
          "type": "bytes32"
        },
        {
          "internalType": "address",
          "name": "account",
          "type": "address"
        }
      ],
      "name": "revokeRole",
      "outputs": [],
      "stateMutability": "nonpayable",
      "type": "function"
    },
    {
      "inputs": [
        {
          "internalType": "bool",
          "name": "shouldBeDisabled",
          "type": "bool"
        }
      ],
      "name": "setDisableFaucet",
      "outputs": [],
      "stateMutability": "nonpayable",
      "type": "function"
    },
    {
      "inputs": [
        {
          "internalType": "uint256",
          "name": "_dripbase",
          "type": "uint256"
        },
        {
          "internalType": "uint256",
          "name": "_decimals",
          "type": "uint256"
        }
      ],
      "name": "setDripAmount",
      "outputs": [],
      "stateMutability": "nonpayable",
      "type": "function"
    },
    {
      "inputs": [
        {
          "internalType": "uint256",
          "name": "limit",
          "type": "uint256"
        }
      ],
      "name": "setHolderLimit",
      "outputs": [],
      "stateMutability": "nonpayable",
      "type": "function"
    },
    {
      "inputs": [
        {
          "internalType": "bool",
          "name": "shouldBeSingleUse",
          "type": "bool"
        }
      ],
      "name": "setSingleUse",
      "outputs": [],
      "stateMutability": "nonpayable",
      "type": "function"
    },
    {
      "inputs": [
        {
          "internalType": "uint256",
          "name": "newTimeout",
          "type": "uint256"
        }
      ],
      "name": "setTimeout",
      "outputs": [],
      "stateMutability": "nonpayable",
      "type": "function"
    },
    {
      "inputs": [],
      "name": "singleUse",
      "outputs": [
        {
          "internalType": "bool",
          "name": "",
          "type": "bool"
        }
      ],
      "stateMutability": "view",
      "type": "function"
    },
    {
      "inputs": [
        {
          "internalType": "bytes4",
          "name": "interfaceId",
          "type": "bytes4"
        }
      ],
      "name": "supportsInterface",
      "outputs": [
        {
          "internalType": "bool",
          "name": "",
          "type": "bool"
        }
      ],
      "stateMutability": "view",
      "type": "function"
    },
    {
      "inputs": [],
      "name": "timeout",
      "outputs": [
        {
          "internalType": "uint256",
          "name": "",
          "type": "uint256"
        }
      ],
      "stateMutability": "view",
      "type": "function"
    },
    {
      "inputs": [
        {
          "internalType": "address",
          "name": "newOwner",
          "type": "address"
        }
      ],
      "name": "transferOwnership",
      "outputs": [],
      "stateMutability": "nonpayable",
      "type": "function"
    },
    {
      "inputs": [],
      "name": "useHolderLimit",
      "outputs": [
        {
          "internalType": "bool",
          "name": "",
          "type": "bool"
        }
      ],
      "stateMutability": "view",
      "type": "function"
    },
    {
      "stateMutability": "payable",
      "type": "receive"
    }
  ],
  "bytecode": "0x60806040523480156200001157600080fd5b50604051620032f2380380620032f283398181016040528101906200003791906200048d565b620000576200004b6200015860201b60201c565b6200016060201b60201c565b6200006c6000801b336200022660201b60201c565b6200009e7fa49807205ce4d355092ef5a8a18f56e8913cf4a201fbe287825b095693c21775336200022660201b60201c565b85600b60006101000a81548173ffffffffffffffffffffffffffffffffffffffff021916908373ffffffffffffffffffffffffffffffffffffffff16021790555083600a620000ee9190620006ac565b85620000fb9190620006fd565b60028190555084600381905550836004819055508260058190555081600660016101000a81548160ff021916908315150217905550670de0b6b3a764000081620001469190620006fd565b6007819055505050505050506200075e565b600033905090565b6000600160009054906101000a900473ffffffffffffffffffffffffffffffffffffffff16905081600160006101000a81548173ffffffffffffffffffffffffffffffffffffffff021916908373ffffffffffffffffffffffffffffffffffffffff1602179055508173ffffffffffffffffffffffffffffffffffffffff168173ffffffffffffffffffffffffffffffffffffffff167f8be0079c531659141344cd1fd0a4f28419497f9722a3daafe3b4186f6b6457e060405160405180910390a35050565b6200023882826200023c60201b60201c565b5050565b6200024e82826200032d60201b60201c565b6200032957600160008084815260200190815260200160002060000160008373ffffffffffffffffffffffffffffffffffffffff1673ffffffffffffffffffffffffffffffffffffffff16815260200190815260200160002060006101000a81548160ff021916908315150217905550620002ce6200015860201b60201c565b73ffffffffffffffffffffffffffffffffffffffff168173ffffffffffffffffffffffffffffffffffffffff16837f2f8788117e7eff1d82e926ec794901d17c78024a50270940304540a733656f0d60405160405180910390a45b5050565b600080600084815260200190815260200160002060000160008373ffffffffffffffffffffffffffffffffffffffff1673ffffffffffffffffffffffffffffffffffffffff16815260200190815260200160002060009054906101000a900460ff16905092915050565b600080fd5b600073ffffffffffffffffffffffffffffffffffffffff82169050919050565b6000620003c9826200039c565b9050919050565b6000620003dd82620003bc565b9050919050565b620003ef81620003d0565b8114620003fb57600080fd5b50565b6000815190506200040f81620003e4565b92915050565b6000819050919050565b6200042a8162000415565b81146200043657600080fd5b50565b6000815190506200044a816200041f565b92915050565b60008115159050919050565b620004678162000450565b81146200047357600080fd5b50565b60008151905062000487816200045c565b92915050565b60008060008060008060c08789031215620004ad57620004ac62000397565b5b6000620004bd89828a01620003fe565b9650506020620004d089828a0162000439565b9550506040620004e389828a0162000439565b9450506060620004f689828a0162000439565b93505060806200050989828a0162000476565b92505060a06200051c89828a0162000439565b9150509295509295509295565b7f4e487b7100000000000000000000000000000000000000000000000000000000600052601160045260246000fd5b60008160011c9050919050565b6000808291508390505b6001851115620005b7578086048111156200058f576200058e62000529565b5b60018516156200059f5780820291505b8081029050620005af8562000558565b94506200056f565b94509492505050565b600082620005d25760019050620006a5565b81620005e25760009050620006a5565b8160018114620005fb576002811462000606576200063c565b6001915050620006a5565b60ff8411156200061b576200061a62000529565b5b8360020a91508482111562000635576200063462000529565b5b50620006a5565b5060208310610133831016604e8410600b8410161715620006765782820a90508381111562000670576200066f62000529565b5b620006a5565b62000685848484600162000565565b925090508184048111156200069f576200069e62000529565b5b81810290505b9392505050565b6000620006b98262000415565b9150620006c68362000415565b9250620006f57fffffffffffffffffffffffffffffffffffffffffffffffffffffffffffffffff8484620005c0565b905092915050565b60006200070a8262000415565b9150620007178362000415565b9250817fffffffffffffffffffffffffffffffffffffffffffffffffffffffffffffffff048311821515161562000753576200075262000529565b5b828202905092915050565b612b84806200076e6000396000f3fe6080604052600436106101c65760003560e01c8063715018a6116100f7578063a217fddf11610095578063e928890c11610064578063e928890c1461064c578063ec53241814610677578063ece53132146106a0578063f2fde38b146106c957610206565b8063a217fddf146105a6578063c58a34cc146105d1578063d547741f146105fa578063e28c81721461062357610206565b806386c10c0a116100d157806386c10c0a146104ea5780638da5cb5b1461051357806391d148541461053e5780639811572c1461057b57610206565b8063715018a61461047d57806375b238fc1461049457806376e1032a146104bf57610206565b806336568abe1161016457806367a5cd061161013e57806367a5cd06146103d55780636c40bc15146103fe5780636f7bd0021461042757806370dea79a1461045257610206565b806336568abe14610356578063393c47341461037f578063506e817d146103aa57610206565b8063248a9ca3116101a0578063248a9ca31461029a5780632f2ff15d146102d7578063313ce5671461030057806335a1529b1461032b57610206565b806301ffc9a71461020b57806306f91d59146102485780631d691fb51461027157610206565b36610206577f645431dbae366bae0d8be5812a6298ad69f5604842a40a1bae301a143386865433346040516101fc929190611c23565b60405180910390a1005b600080fd5b34801561021757600080fd5b50610232600480360381019061022d9190611ca9565b6106f2565b60405161023f9190611cf1565b60405180910390f35b34801561025457600080fd5b5061026f600480360381019061026a9190611d38565b61076c565b005b34801561027d57600080fd5b5061029860048036038101906102939190611d91565b6107bc565b005b3480156102a657600080fd5b506102c160048036038101906102bc9190611df4565b61080c565b6040516102ce9190611e30565b60405180910390f35b3480156102e357600080fd5b506102fe60048036038101906102f99190611e77565b61082b565b005b34801561030c57600080fd5b50610315610854565b6040516103229190611eb7565b60405180910390f35b34801561033757600080fd5b5061034061085a565b60405161034d9190611eb7565b60405180910390f35b34801561036257600080fd5b5061037d60048036038101906103789190611e77565b610860565b005b34801561038b57600080fd5b506103946108e3565b6040516103a19190611eb7565b60405180910390f35b3480156103b657600080fd5b506103bf6108e9565b6040516103cc9190611cf1565b60405180910390f35b3480156103e157600080fd5b506103fc60048036038101906103f79190611f10565b6108fc565b005b34801561040a57600080fd5b5061042560048036038101906104209190611f3d565b610e15565b005b34801561043357600080fd5b5061043c610e78565b6040516104499190611fdc565b60405180910390f35b34801561045e57600080fd5b50610467610e9e565b6040516104749190611eb7565b60405180910390f35b34801561048957600080fd5b50610492610ea4565b005b3480156104a057600080fd5b506104a9610f2c565b6040516104b69190611e30565b60405180910390f35b3480156104cb57600080fd5b506104d4610f50565b6040516104e19190611cf1565b60405180910390f35b3480156104f657600080fd5b50610511600480360381019061050c9190611ff7565b610f63565b005b34801561051f57600080fd5b50610528610fde565b6040516105359190612024565b60405180910390f35b34801561054a57600080fd5b5061056560048036038101906105609190611e77565b611008565b6040516105729190611cf1565b60405180910390f35b34801561058757600080fd5b50610590611072565b60405161059d9190611eb7565b60405180910390f35b3480156105b257600080fd5b506105bb611078565b6040516105c89190611e30565b60405180910390f35b3480156105dd57600080fd5b506105f860048036038101906105f39190611d38565b61107f565b005b34801561060657600080fd5b50610621600480360381019061061c9190611e77565b6110bc565b005b34801561062f57600080fd5b5061064a60048036038101906106459190611d91565b6110e5565b005b34801561065857600080fd5b50610661611135565b60405161066e9190611cf1565b60405180910390f35b34801561068357600080fd5b5061069e60048036038101906106999190611f10565b611148565b005b3480156106ac57600080fd5b506106c760048036038101906106c29190611f10565b61136b565b005b3480156106d557600080fd5b506106f060048036038101906106eb9190611ff7565b611431565b005b60007f7965db0b000000000000000000000000000000000000000000000000000000007bffffffffffffffffffffffffffffffffffffffffffffffffffffffff1916827bffffffffffffffffffffffffffffffffffffffffffffffffffffffff19161480610765575061076482611529565b5b9050919050565b7fa49807205ce4d355092ef5a8a18f56e8913cf4a201fbe287825b095693c2177561079e81610799611593565b61159b565b670de0b6b3a7640000826107b2919061206e565b6007819055505050565b7fa49807205ce4d355092ef5a8a18f56e8913cf4a201fbe287825b095693c217756107ee816107e9611593565b61159b565b81600660006101000a81548160ff0219169083151502179055505050565b6000806000838152602001908152602001600020600101549050919050565b6108348261080c565b61084581610840611593565b61159b565b61084f8383611638565b505050565b60045481565b60025481565b610868611593565b73ffffffffffffffffffffffffffffffffffffffff168173ffffffffffffffffffffffffffffffffffffffff16146108d5576040517f08c379a00000000000000000000000000000000000000000000000000000000081526004016108cc9061214b565b60405180910390fd5b6108df8282611718565b5050565b60035481565b600860009054906101000a900460ff1681565b80600660009054906101000a900460ff161561094d576040517f08c379a0000000000000000000000000000000000000000000000000000000008152600401610944906121b7565b60405180910390fd5b6402540be400471015610995576040517f08c379a000000000000000000000000000000000000000000000000000000000815260040161098c90612223565b60405180910390fd5b600660019054906101000a900460ff1615610a3857600960008273ffffffffffffffffffffffffffffffffffffffff1673ffffffffffffffffffffffffffffffffffffffff16815260200190815260200160002060009054906101000a900460ff1615610a37576040517f08c379a0000000000000000000000000000000000000000000000000000000008152600401610a2e9061228f565b60405180910390fd5b5b60006005541115610ac65742600a60008373ffffffffffffffffffffffffffffffffffffffff1673ffffffffffffffffffffffffffffffffffffffff168152602001908152602001600020541115610ac5576040517f08c379a0000000000000000000000000000000000000000000000000000000008152600401610abc906122fb565b60405180910390fd5b5b7fa49807205ce4d355092ef5a8a18f56e8913cf4a201fbe287825b095693c21775610af881610af3611593565b61159b565b600254600b60009054906101000a900473ffffffffffffffffffffffffffffffffffffffff1673ffffffffffffffffffffffffffffffffffffffff166370a08231306040518263ffffffff1660e01b8152600401610b569190612024565b60206040518083038186803b158015610b6e57600080fd5b505afa158015610b82573d6000803e3d6000fd5b505050506040513d601f19601f82011682018060405250810190610ba69190612330565b1015610be7576040517f08c379a0000000000000000000000000000000000000000000000000000000008152600401610bde906123a9565b60405180910390fd5b600754600b60009054906101000a900473ffffffffffffffffffffffffffffffffffffffff1673ffffffffffffffffffffffffffffffffffffffff166370a08231856040518263ffffffff1660e01b8152600401610c4591906123ea565b60206040518083038186803b158015610c5d57600080fd5b505afa158015610c71573d6000803e3d6000fd5b505050506040513d601f19601f82011682018060405250810190610c959190612330565b1115610cd6576040517f08c379a0000000000000000000000000000000000000000000000000000000008152600401610ccd90612451565b60405180910390fd5b6000600b60009054906101000a900473ffffffffffffffffffffffffffffffffffffffff1673ffffffffffffffffffffffffffffffffffffffff1663a9059cbb856002546040518363ffffffff1660e01b8152600401610d37929190612471565b602060405180830381600087803b158015610d5157600080fd5b505af1158015610d65573d6000803e3d6000fd5b505050506040513d601f19601f82011682018060405250810190610d8991906124af565b905080610dcb576040517f08c379a0000000000000000000000000000000000000000000000000000000008152600401610dc290612528565b60405180910390fd5b610dd4846117f9565b7f5c17f5353b06dcfd2dc264e541fbcef1696efb5f704f1ca75eb20af054eab5ee33600254604051610e07929190612594565b60405180910390a150505050565b7fa49807205ce4d355092ef5a8a18f56e8913cf4a201fbe287825b095693c21775610e4781610e42611593565b61159b565b816004819055508260038190555081600a610e629190612703565b83610e6d919061206e565b600281905550505050565b600b60009054906101000a900473ffffffffffffffffffffffffffffffffffffffff1681565b60055481565b610eac611593565b73ffffffffffffffffffffffffffffffffffffffff16610eca610fde565b73ffffffffffffffffffffffffffffffffffffffff1614610f20576040517f08c379a0000000000000000000000000000000000000000000000000000000008152600401610f179061279a565b60405180910390fd5b610f2a60006118c7565b565b7fa49807205ce4d355092ef5a8a18f56e8913cf4a201fbe287825b095693c2177581565b600660019054906101000a900460ff1681565b7fa49807205ce4d355092ef5a8a18f56e8913cf4a201fbe287825b095693c21775610f9581610f90611593565b61159b565b6000600a60008473ffffffffffffffffffffffffffffffffffffffff1673ffffffffffffffffffffffffffffffffffffffff168152602001908152602001600020819055505050565b6000600160009054906101000a900473ffffffffffffffffffffffffffffffffffffffff16905090565b600080600084815260200190815260200160002060000160008373ffffffffffffffffffffffffffffffffffffffff1673ffffffffffffffffffffffffffffffffffffffff16815260200190815260200160002060009054906101000a900460ff16905092915050565b60075481565b6000801b81565b7fa49807205ce4d355092ef5a8a18f56e8913cf4a201fbe287825b095693c217756110b1816110ac611593565b61159b565b816005819055505050565b6110c58261080c565b6110d6816110d1611593565b61159b565b6110e08383611718565b505050565b7fa49807205ce4d355092ef5a8a18f56e8913cf4a201fbe287825b095693c2177561111781611112611593565b61159b565b81600660016101000a81548160ff0219169083151502179055505050565b600660009054906101000a900460ff1681565b611150611593565b73ffffffffffffffffffffffffffffffffffffffff1661116e610fde565b73ffffffffffffffffffffffffffffffffffffffff16146111c4576040517f08c379a00000000000000000000000000000000000000000000000000000000081526004016111bb9061279a565b60405180910390fd5b6000600b60009054906101000a900473ffffffffffffffffffffffffffffffffffffffff1673ffffffffffffffffffffffffffffffffffffffff166370a08231306040518263ffffffff1660e01b81526004016112219190612024565b60206040518083038186803b15801561123957600080fd5b505afa15801561124d573d6000803e3d6000fd5b505050506040513d601f19601f820116820180604052508101906112719190612330565b90506000600b60009054906101000a900473ffffffffffffffffffffffffffffffffffffffff1673ffffffffffffffffffffffffffffffffffffffff1663a9059cbb84846040518363ffffffff1660e01b81526004016112d2929190612471565b602060405180830381600087803b1580156112ec57600080fd5b505af1158015611300573d6000803e3d6000fd5b505050506040513d601f19601f8201168201806040525081019061132491906124af565b905080611366576040517f08c379a000000000000000000000000000000000000000000000000000000000815260040161135d90612528565b60405180910390fd5b505050565b611373611593565b73ffffffffffffffffffffffffffffffffffffffff16611391610fde565b73ffffffffffffffffffffffffffffffffffffffff16146113e7576040517f08c379a00000000000000000000000000000000000000000000000000000000081526004016113de9061279a565b60405180910390fd5b8073ffffffffffffffffffffffffffffffffffffffff166108fc479081150290604051600060405180830381858888f1935050505015801561142d573d6000803e3d6000fd5b5050565b611439611593565b73ffffffffffffffffffffffffffffffffffffffff16611457610fde565b73ffffffffffffffffffffffffffffffffffffffff16146114ad576040517f08c379a00000000000000000000000000000000000000000000000000000000081526004016114a49061279a565b60405180910390fd5b600073ffffffffffffffffffffffffffffffffffffffff168173ffffffffffffffffffffffffffffffffffffffff16141561151d576040517f08c379a00000000000000000000000000000000000000000000000000000000081526004016115149061282c565b60405180910390fd5b611526816118c7565b50565b60007f01ffc9a7000000000000000000000000000000000000000000000000000000007bffffffffffffffffffffffffffffffffffffffffffffffffffffffff1916827bffffffffffffffffffffffffffffffffffffffffffffffffffffffff1916149050919050565b600033905090565b6115a58282611008565b611634576115ca8173ffffffffffffffffffffffffffffffffffffffff16601461198d565b6115d88360001c602061198d565b6040516020016115e992919061295e565b6040516020818303038152906040526040517f08c379a000000000000000000000000000000000000000000000000000000000815260040161162b91906129e2565b60405180910390fd5b5050565b6116428282611008565b61171457600160008084815260200190815260200160002060000160008373ffffffffffffffffffffffffffffffffffffffff1673ffffffffffffffffffffffffffffffffffffffff16815260200190815260200160002060006101000a81548160ff0219169083151502179055506116b9611593565b73ffffffffffffffffffffffffffffffffffffffff168173ffffffffffffffffffffffffffffffffffffffff16837f2f8788117e7eff1d82e926ec794901d17c78024a50270940304540a733656f0d60405160405180910390a45b5050565b6117228282611008565b156117f557600080600084815260200190815260200160002060000160008373ffffffffffffffffffffffffffffffffffffffff1673ffffffffffffffffffffffffffffffffffffffff16815260200190815260200160002060006101000a81548160ff02191690831515021790555061179a611593565b73ffffffffffffffffffffffffffffffffffffffff168173ffffffffffffffffffffffffffffffffffffffff16837ff6391f5c32d9c69d2a47ea670b442974b53935d1edc7fd64eb21e047a839171b60405160405180910390a45b5050565b6000600554111561185657600554426118129190612a04565b600a60008373ffffffffffffffffffffffffffffffffffffffff1673ffffffffffffffffffffffffffffffffffffffff168152602001908152602001600020819055505b600660019054906101000a900460ff16156118c4576001600960008373ffffffffffffffffffffffffffffffffffffffff1673ffffffffffffffffffffffffffffffffffffffff16815260200190815260200160002060006101000a81548160ff0219169083151502179055505b50565b6000600160009054906101000a900473ffffffffffffffffffffffffffffffffffffffff16905081600160006101000a81548173ffffffffffffffffffffffffffffffffffffffff021916908373ffffffffffffffffffffffffffffffffffffffff1602179055508173ffffffffffffffffffffffffffffffffffffffff168173ffffffffffffffffffffffffffffffffffffffff167f8be0079c531659141344cd1fd0a4f28419497f9722a3daafe3b4186f6b6457e060405160405180910390a35050565b6060600060028360026119a0919061206e565b6119aa9190612a04565b67ffffffffffffffff8111156119c3576119c2612a5a565b5b6040519080825280601f01601f1916602001820160405280156119f55781602001600182028036833780820191505090505b5090507f300000000000000000000000000000000000000000000000000000000000000081600081518110611a2d57611a2c612a89565b5b60200101907effffffffffffffffffffffffffffffffffffffffffffffffffffffffffffff1916908160001a9053507f780000000000000000000000000000000000000000000000000000000000000081600181518110611a9157611a90612a89565b5b60200101907effffffffffffffffffffffffffffffffffffffffffffffffffffffffffffff1916908160001a90535060006001846002611ad1919061206e565b611adb9190612a04565b90505b6001811115611b7b577f3031323334353637383961626364656600000000000000000000000000000000600f861660108110611b1d57611b1c612a89565b5b1a60f81b828281518110611b3457611b33612a89565b5b60200101907effffffffffffffffffffffffffffffffffffffffffffffffffffffffffffff1916908160001a905350600485901c945080611b7490612ab8565b9050611ade565b5060008414611bbf576040517f08c379a0000000000000000000000000000000000000000000000000000000008152600401611bb690612b2e565b60405180910390fd5b8091505092915050565b600073ffffffffffffffffffffffffffffffffffffffff82169050919050565b6000611bf482611bc9565b9050919050565b611c0481611be9565b82525050565b6000819050919050565b611c1d81611c0a565b82525050565b6000604082019050611c386000830185611bfb565b611c456020830184611c14565b9392505050565b600080fd5b60007fffffffff0000000000000000000000000000000000000000000000000000000082169050919050565b611c8681611c51565b8114611c9157600080fd5b50565b600081359050611ca381611c7d565b92915050565b600060208284031215611cbf57611cbe611c4c565b5b6000611ccd84828501611c94565b91505092915050565b60008115159050919050565b611ceb81611cd6565b82525050565b6000602082019050611d066000830184611ce2565b92915050565b611d1581611c0a565b8114611d2057600080fd5b50565b600081359050611d3281611d0c565b92915050565b600060208284031215611d4e57611d4d611c4c565b5b6000611d5c84828501611d23565b91505092915050565b611d6e81611cd6565b8114611d7957600080fd5b50565b600081359050611d8b81611d65565b92915050565b600060208284031215611da757611da6611c4c565b5b6000611db584828501611d7c565b91505092915050565b6000819050919050565b611dd181611dbe565b8114611ddc57600080fd5b50565b600081359050611dee81611dc8565b92915050565b600060208284031215611e0a57611e09611c4c565b5b6000611e1884828501611ddf565b91505092915050565b611e2a81611dbe565b82525050565b6000602082019050611e456000830184611e21565b92915050565b611e5481611be9565b8114611e5f57600080fd5b50565b600081359050611e7181611e4b565b92915050565b60008060408385031215611e8e57611e8d611c4c565b5b6000611e9c85828601611ddf565b9250506020611ead85828601611e62565b9150509250929050565b6000602082019050611ecc6000830184611c14565b92915050565b6000611edd82611bc9565b9050919050565b611eed81611ed2565b8114611ef857600080fd5b50565b600081359050611f0a81611ee4565b92915050565b600060208284031215611f2657611f25611c4c565b5b6000611f3484828501611efb565b91505092915050565b60008060408385031215611f5457611f53611c4c565b5b6000611f6285828601611d23565b9250506020611f7385828601611d23565b9150509250929050565b6000819050919050565b6000611fa2611f9d611f9884611bc9565b611f7d565b611bc9565b9050919050565b6000611fb482611f87565b9050919050565b6000611fc682611fa9565b9050919050565b611fd681611fbb565b82525050565b6000602082019050611ff16000830184611fcd565b92915050565b60006020828403121561200d5761200c611c4c565b5b600061201b84828501611e62565b91505092915050565b60006020820190506120396000830184611bfb565b92915050565b7f4e487b7100000000000000000000000000000000000000000000000000000000600052601160045260246000fd5b600061207982611c0a565b915061208483611c0a565b9250817fffffffffffffffffffffffffffffffffffffffffffffffffffffffffffffffff04831182151516156120bd576120bc61203f565b5b828202905092915050565b600082825260208201905092915050565b7f416363657373436f6e74726f6c3a2063616e206f6e6c792072656e6f756e636560008201527f20726f6c657320666f722073656c660000000000000000000000000000000000602082015250565b6000612135602f836120c8565b9150612140826120d9565b604082019050919050565b6000602082019050818103600083015261216481612128565b9050919050565b7f4641554345545f44495341424c45440000000000000000000000000000000000600082015250565b60006121a1600f836120c8565b91506121ac8261216b565b602082019050919050565b600060208201905081810360008301526121d081612194565b9050919050565b7f4641554345545f44525900000000000000000000000000000000000000000000600082015250565b600061220d600a836120c8565b9150612218826121d7565b602082019050919050565b6000602082019050818103600083015261223c81612200565b9050919050565b7f53494e474c455f55534500000000000000000000000000000000000000000000600082015250565b6000612279600a836120c8565b915061228482612243565b602082019050919050565b600060208201905081810360008301526122a88161226c565b9050919050565b7f57414c4c45545f54494d454f5554000000000000000000000000000000000000600082015250565b60006122e5600e836120c8565b91506122f0826122af565b602082019050919050565b60006020820190508181036000830152612314816122d8565b9050919050565b60008151905061232a81611d0c565b92915050565b60006020828403121561234657612345611c4c565b5b60006123548482850161231b565b91505092915050565b7f46574542335f4452590000000000000000000000000000000000000000000000600082015250565b60006123936009836120c8565b915061239e8261235d565b602082019050919050565b600060208201905081810360008301526123c281612386565b9050919050565b60006123d482611fa9565b9050919050565b6123e4816123c9565b82525050565b60006020820190506123ff60008301846123db565b92915050565b7f46574542335f57414c4c45545f4c494d49540000000000000000000000000000600082015250565b600061243b6012836120c8565b915061244682612405565b602082019050919050565b6000602082019050818103600083015261246a8161242e565b9050919050565b600060408201905061248660008301856123db565b6124936020830184611c14565b9392505050565b6000815190506124a981611d65565b92915050565b6000602082840312156124c5576124c4611c4c565b5b60006124d38482850161249a565b91505092915050565b7f54585f4641494c55524500000000000000000000000000000000000000000000600082015250565b6000612512600a836120c8565b915061251d826124dc565b602082019050919050565b6000602082019050818103600083015261254181612505565b9050919050565b7f4657454233000000000000000000000000000000000000000000000000000000600082015250565b600061257e6005836120c8565b915061258982612548565b602082019050919050565b60006060820190506125a96000830185611bfb565b81810360208301526125ba81612571565b90506125c96040830184611c14565b9392505050565b60008160011c9050919050565b6000808291508390505b6001851115612627578086048111156126035761260261203f565b5b60018516156126125780820291505b8081029050612620856125d0565b94506125e7565b94509492505050565b60008261264057600190506126fc565b8161264e57600090506126fc565b8160018114612664576002811461266e5761269d565b60019150506126fc565b60ff8411156126805761267f61203f565b5b8360020a9150848211156126975761269661203f565b5b506126fc565b5060208310610133831016604e8410600b84101617156126d25782820a9050838111156126cd576126cc61203f565b5b6126fc565b6126df84848460016125dd565b925090508184048111156126f6576126f561203f565b5b81810290505b9392505050565b600061270e82611c0a565b915061271983611c0a565b92506127467fffffffffffffffffffffffffffffffffffffffffffffffffffffffffffffffff8484612630565b905092915050565b7f4f776e61626c653a2063616c6c6572206973206e6f7420746865206f776e6572600082015250565b60006127846020836120c8565b915061278f8261274e565b602082019050919050565b600060208201905081810360008301526127b381612777565b9050919050565b7f4f776e61626c653a206e6577206f776e657220697320746865207a65726f206160008201527f6464726573730000000000000000000000000000000000000000000000000000602082015250565b60006128166026836120c8565b9150612821826127ba565b604082019050919050565b6000602082019050818103600083015261284581612809565b9050919050565b600081905092915050565b7f416363657373436f6e74726f6c3a206163636f756e7420000000000000000000600082015250565b600061288d60178361284c565b915061289882612857565b601782019050919050565b600081519050919050565b60005b838110156128cc5780820151818401526020810190506128b1565b838111156128db576000848401525b50505050565b60006128ec826128a3565b6128f6818561284c565b93506129068185602086016128ae565b80840191505092915050565b7f206973206d697373696e6720726f6c6520000000000000000000000000000000600082015250565b600061294860118361284c565b915061295382612912565b601182019050919050565b600061296982612880565b915061297582856128e1565b91506129808261293b565b915061298c82846128e1565b91508190509392505050565b6000601f19601f8301169050919050565b60006129b4826128a3565b6129be81856120c8565b93506129ce8185602086016128ae565b6129d781612998565b840191505092915050565b600060208201905081810360008301526129fc81846129a9565b905092915050565b6000612a0f82611c0a565b9150612a1a83611c0a565b9250827fffffffffffffffffffffffffffffffffffffffffffffffffffffffffffffffff03821115612a4f57612a4e61203f565b5b828201905092915050565b7f4e487b7100000000000000000000000000000000000000000000000000000000600052604160045260246000fd5b7f4e487b7100000000000000000000000000000000000000000000000000000000600052603260045260246000fd5b6000612ac382611c0a565b91506000821415612ad757612ad661203f565b5b600182039050919050565b7f537472696e67733a20686578206c656e67746820696e73756666696369656e74600082015250565b6000612b186020836120c8565b9150612b2382612ae2565b602082019050919050565b60006020820190508181036000830152612b4781612b0b565b905091905056fea2646970667358221220aa30bfe237155e33cd8d218b37a0f941235c95dfe2369db3468120272931636d64736f6c63430008090033",
  "linkReferences": {},
  "deployedLinkReferences": {}
}