{
  "_format": "hh-sol-artifact-1",
  "contractName": "Fweb3MaticFaucet",
  "sourceName": "contracts/Fweb3MaticFaucet.sol",
  "abi": [
    {
      "inputs": [
        {
          "internalType": "uint256",
          "name": "_dripBase",
          "type": "uint256"
        },
        {
          "internalType": "uint256",
          "name": "_decimals",
          "type": "uint256"
        },
        {
          "internalType": "contract IERC20",
          "name": "_fweb3TokenAddress",
          "type": "address"
        },
        {
          "internalType": "uint256",
          "name": "_timout",
          "type": "uint256"
        },
        {
          "internalType": "bool",
          "name": "_singleUse",
          "type": "bool"
        },
        {
          "internalType": "uint256",
          "name": "_minFweb3Required",
          "type": "uint256"
        },
        {
          "internalType": "uint256",
          "name": "_minFweb3TokenRequiredDecimals",
          "type": "uint256"
        },
        {
          "internalType": "uint256",
          "name": "_holderLimit",
          "type": "uint256"
        }
      ],
      "stateMutability": "nonpayable",
      "type": "constructor"
    },
    {
      "anonymous": false,
      "inputs": [
        {
          "indexed": false,
          "internalType": "address",
          "name": "",
          "type": "address"
        },
        {
          "indexed": false,
          "internalType": "string",
          "name": "",
          "type": "string"
        },
        {
          "indexed": false,
          "internalType": "uint256",
          "name": "",
          "type": "uint256"
        }
      ],
      "name": "Dripped",
      "type": "event"
    },
    {
      "anonymous": false,
      "inputs": [
        {
          "indexed": true,
          "internalType": "address",
          "name": "previousOwner",
          "type": "address"
        },
        {
          "indexed": true,
          "internalType": "address",
          "name": "newOwner",
          "type": "address"
        }
      ],
      "name": "OwnershipTransferred",
      "type": "event"
    },
    {
      "anonymous": false,
      "inputs": [
        {
          "indexed": false,
          "internalType": "address",
          "name": "",
          "type": "address"
        },
        {
          "indexed": false,
          "internalType": "uint256",
          "name": "",
          "type": "uint256"
        }
      ],
      "name": "ReceivedDeposit",
      "type": "event"
    },
    {
      "anonymous": false,
      "inputs": [
        {
          "indexed": true,
          "internalType": "bytes32",
          "name": "role",
          "type": "bytes32"
        },
        {
          "indexed": true,
          "internalType": "bytes32",
          "name": "previousAdminRole",
          "type": "bytes32"
        },
        {
          "indexed": true,
          "internalType": "bytes32",
          "name": "newAdminRole",
          "type": "bytes32"
        }
      ],
      "name": "RoleAdminChanged",
      "type": "event"
    },
    {
      "anonymous": false,
      "inputs": [
        {
          "indexed": true,
          "internalType": "bytes32",
          "name": "role",
          "type": "bytes32"
        },
        {
          "indexed": true,
          "internalType": "address",
          "name": "account",
          "type": "address"
        },
        {
          "indexed": true,
          "internalType": "address",
          "name": "sender",
          "type": "address"
        }
      ],
      "name": "RoleGranted",
      "type": "event"
    },
    {
      "anonymous": false,
      "inputs": [
        {
          "indexed": true,
          "internalType": "bytes32",
          "name": "role",
          "type": "bytes32"
        },
        {
          "indexed": true,
          "internalType": "address",
          "name": "account",
          "type": "address"
        },
        {
          "indexed": true,
          "internalType": "address",
          "name": "sender",
          "type": "address"
        }
      ],
      "name": "RoleRevoked",
      "type": "event"
    },
    {
      "inputs": [],
      "name": "ADMIN_ROLE",
      "outputs": [
        {
          "internalType": "bytes32",
          "name": "",
          "type": "bytes32"
        }
      ],
      "stateMutability": "view",
      "type": "function"
    },
    {
      "inputs": [],
      "name": "DEFAULT_ADMIN_ROLE",
      "outputs": [
        {
          "internalType": "bytes32",
          "name": "",
          "type": "bytes32"
        }
      ],
      "stateMutability": "view",
      "type": "function"
    },
    {
      "inputs": [
        {
          "internalType": "address",
          "name": "forWhom",
          "type": "address"
        }
      ],
      "name": "clearTimeoutForAddress",
      "outputs": [],
      "stateMutability": "nonpayable",
      "type": "function"
    },
    {
      "inputs": [],
      "name": "decimals",
      "outputs": [
        {
          "internalType": "uint256",
          "name": "",
          "type": "uint256"
        }
      ],
      "stateMutability": "view",
      "type": "function"
    },
    {
      "inputs": [
        {
          "internalType": "address payable",
          "name": "to",
          "type": "address"
        }
      ],
      "name": "drain",
      "outputs": [],
      "stateMutability": "nonpayable",
      "type": "function"
    },
    {
      "inputs": [
        {
          "internalType": "address payable",
          "name": "to",
          "type": "address"
        }
      ],
      "name": "drip",
      "outputs": [],
      "stateMutability": "nonpayable",
      "type": "function"
    },
    {
      "inputs": [],
      "name": "dripAmount",
      "outputs": [
        {
          "internalType": "uint256",
          "name": "",
          "type": "uint256"
        }
      ],
      "stateMutability": "view",
      "type": "function"
    },
    {
      "inputs": [],
      "name": "dripBase",
      "outputs": [
        {
          "internalType": "uint256",
          "name": "",
          "type": "uint256"
        }
      ],
      "stateMutability": "view",
      "type": "function"
    },
    {
      "inputs": [],
      "name": "faucetDisabled",
      "outputs": [
        {
          "internalType": "bool",
          "name": "",
          "type": "bool"
        }
      ],
      "stateMutability": "view",
      "type": "function"
    },
    {
      "inputs": [],
      "name": "fweb3TokenAddress",
      "outputs": [
        {
          "internalType": "contract IERC20",
          "name": "",
          "type": "address"
        }
      ],
      "stateMutability": "view",
      "type": "function"
    },
    {
      "inputs": [
        {
          "internalType": "bytes32",
          "name": "role",
          "type": "bytes32"
        }
      ],
      "name": "getRoleAdmin",
      "outputs": [
        {
          "internalType": "bytes32",
          "name": "",
          "type": "bytes32"
        }
      ],
      "stateMutability": "view",
      "type": "function"
    },
    {
      "inputs": [
        {
          "internalType": "bytes32",
          "name": "role",
          "type": "bytes32"
        },
        {
          "internalType": "address",
          "name": "account",
          "type": "address"
        }
      ],
      "name": "grantRole",
      "outputs": [],
      "stateMutability": "nonpayable",
      "type": "function"
    },
    {
      "inputs": [
        {
          "internalType": "bytes32",
          "name": "role",
          "type": "bytes32"
        },
        {
          "internalType": "address",
          "name": "account",
          "type": "address"
        }
      ],
      "name": "hasRole",
      "outputs": [
        {
          "internalType": "bool",
          "name": "",
          "type": "bool"
        }
      ],
      "stateMutability": "view",
      "type": "function"
    },
    {
      "inputs": [],
      "name": "holderLimit",
      "outputs": [
        {
          "internalType": "uint256",
          "name": "",
          "type": "uint256"
        }
      ],
      "stateMutability": "view",
      "type": "function"
    },
    {
      "inputs": [],
      "name": "minFweb3Required",
      "outputs": [
        {
          "internalType": "uint256",
          "name": "",
          "type": "uint256"
        }
      ],
      "stateMutability": "view",
      "type": "function"
    },
    {
      "inputs": [],
      "name": "minFweb3RequiredDecimals",
      "outputs": [
        {
          "internalType": "uint256",
          "name": "",
          "type": "uint256"
        }
      ],
      "stateMutability": "view",
      "type": "function"
    },
    {
      "inputs": [],
      "name": "owner",
      "outputs": [
        {
          "internalType": "address",
          "name": "",
          "type": "address"
        }
      ],
      "stateMutability": "view",
      "type": "function"
    },
    {
      "inputs": [],
      "name": "renounceOwnership",
      "outputs": [],
      "stateMutability": "nonpayable",
      "type": "function"
    },
    {
      "inputs": [
        {
          "internalType": "bytes32",
          "name": "role",
          "type": "bytes32"
        },
        {
          "internalType": "address",
          "name": "account",
          "type": "address"
        }
      ],
      "name": "renounceRole",
      "outputs": [],
      "stateMutability": "nonpayable",
      "type": "function"
    },
    {
      "inputs": [
        {
          "internalType": "bytes32",
          "name": "role",
          "type": "bytes32"
        },
        {
          "internalType": "address",
          "name": "account",
          "type": "address"
        }
      ],
      "name": "revokeRole",
      "outputs": [],
      "stateMutability": "nonpayable",
      "type": "function"
    },
    {
      "inputs": [
        {
          "internalType": "bool",
          "name": "shouldBeDisabled",
          "type": "bool"
        }
      ],
      "name": "setDisableFaucet",
      "outputs": [],
      "stateMutability": "nonpayable",
      "type": "function"
    },
    {
      "inputs": [
        {
          "internalType": "uint256",
          "name": "_dripbase",
          "type": "uint256"
        },
        {
          "internalType": "uint256",
          "name": "_decimals",
          "type": "uint256"
        }
      ],
      "name": "setDripAmount",
      "outputs": [],
      "stateMutability": "nonpayable",
      "type": "function"
    },
    {
      "inputs": [
        {
          "internalType": "uint256",
          "name": "limit",
          "type": "uint256"
        }
      ],
      "name": "setHolderLimit",
      "outputs": [],
      "stateMutability": "nonpayable",
      "type": "function"
    },
    {
      "inputs": [
        {
          "internalType": "uint256",
          "name": "min",
          "type": "uint256"
        },
        {
          "internalType": "uint256",
          "name": "decimals",
          "type": "uint256"
        }
      ],
      "name": "setMinErc20Required",
      "outputs": [],
      "stateMutability": "nonpayable",
      "type": "function"
    },
    {
      "inputs": [
        {
          "internalType": "bool",
          "name": "shouldBeSingleUse",
          "type": "bool"
        }
      ],
      "name": "setSingleUse",
      "outputs": [],
      "stateMutability": "nonpayable",
      "type": "function"
    },
    {
      "inputs": [
        {
          "internalType": "uint256",
          "name": "newTimeout",
          "type": "uint256"
        }
      ],
      "name": "setTimeout",
      "outputs": [],
      "stateMutability": "nonpayable",
      "type": "function"
    },
    {
      "inputs": [],
      "name": "singleUse",
      "outputs": [
        {
          "internalType": "bool",
          "name": "",
          "type": "bool"
        }
      ],
      "stateMutability": "view",
      "type": "function"
    },
    {
      "inputs": [
        {
          "internalType": "bytes4",
          "name": "interfaceId",
          "type": "bytes4"
        }
      ],
      "name": "supportsInterface",
      "outputs": [
        {
          "internalType": "bool",
          "name": "",
          "type": "bool"
        }
      ],
      "stateMutability": "view",
      "type": "function"
    },
    {
      "inputs": [],
      "name": "timeout",
      "outputs": [
        {
          "internalType": "uint256",
          "name": "",
          "type": "uint256"
        }
      ],
      "stateMutability": "view",
      "type": "function"
    },
    {
      "inputs": [
        {
          "internalType": "address",
          "name": "newOwner",
          "type": "address"
        }
      ],
      "name": "transferOwnership",
      "outputs": [],
      "stateMutability": "nonpayable",
      "type": "function"
    },
    {
      "inputs": [],
      "name": "useHolderLimit",
      "outputs": [
        {
          "internalType": "bool",
          "name": "",
          "type": "bool"
        }
      ],
      "stateMutability": "view",
      "type": "function"
    },
    {
      "stateMutability": "payable",
      "type": "receive"
    }
  ],
  "bytecode": "0x60806040523480156200001157600080fd5b5060405162003124380380620031248339818101604052810190620000379190620004a3565b620000576200004b6200016e60201b60201c565b6200017660201b60201c565b6200006c6000801b336200023c60201b60201c565b6200009e7fa49807205ce4d355092ef5a8a18f56e8913cf4a201fbe287825b095693c21775336200023c60201b60201c565b8760038190555086600a620000b49190620006ef565b88620000c1919062000740565b600281905550866004819055508460058190555083600660016101000a81548160ff02191690831515021790555085600b60006101000a81548173ffffffffffffffffffffffffffffffffffffffff021916908373ffffffffffffffffffffffffffffffffffffffff16021790555081600d8190555081600a620001469190620006ef565b8362000153919062000740565b600c81905550806007819055505050505050505050620007a1565b600033905090565b6000600160009054906101000a900473ffffffffffffffffffffffffffffffffffffffff16905081600160006101000a81548173ffffffffffffffffffffffffffffffffffffffff021916908373ffffffffffffffffffffffffffffffffffffffff1602179055508173ffffffffffffffffffffffffffffffffffffffff168173ffffffffffffffffffffffffffffffffffffffff167f8be0079c531659141344cd1fd0a4f28419497f9722a3daafe3b4186f6b6457e060405160405180910390a35050565b6200024e82826200025260201b60201c565b5050565b6200026482826200034360201b60201c565b6200033f57600160008084815260200190815260200160002060000160008373ffffffffffffffffffffffffffffffffffffffff1673ffffffffffffffffffffffffffffffffffffffff16815260200190815260200160002060006101000a81548160ff021916908315150217905550620002e46200016e60201b60201c565b73ffffffffffffffffffffffffffffffffffffffff168173ffffffffffffffffffffffffffffffffffffffff16837f2f8788117e7eff1d82e926ec794901d17c78024a50270940304540a733656f0d60405160405180910390a45b5050565b600080600084815260200190815260200160002060000160008373ffffffffffffffffffffffffffffffffffffffff1673ffffffffffffffffffffffffffffffffffffffff16815260200190815260200160002060009054906101000a900460ff16905092915050565b600080fd5b6000819050919050565b620003c781620003b2565b8114620003d357600080fd5b50565b600081519050620003e781620003bc565b92915050565b600073ffffffffffffffffffffffffffffffffffffffff82169050919050565b60006200041a82620003ed565b9050919050565b60006200042e826200040d565b9050919050565b620004408162000421565b81146200044c57600080fd5b50565b600081519050620004608162000435565b92915050565b60008115159050919050565b6200047d8162000466565b81146200048957600080fd5b50565b6000815190506200049d8162000472565b92915050565b600080600080600080600080610100898b031215620004c757620004c6620003ad565b5b6000620004d78b828c01620003d6565b9850506020620004ea8b828c01620003d6565b9750506040620004fd8b828c016200044f565b9650506060620005108b828c01620003d6565b9550506080620005238b828c016200048c565b94505060a0620005368b828c01620003d6565b93505060c0620005498b828c01620003d6565b92505060e06200055c8b828c01620003d6565b9150509295985092959890939650565b7f4e487b7100000000000000000000000000000000000000000000000000000000600052601160045260246000fd5b60008160011c9050919050565b6000808291508390505b6001851115620005fa57808604811115620005d257620005d16200056c565b5b6001851615620005e25780820291505b8081029050620005f2856200059b565b9450620005b2565b94509492505050565b600082620006155760019050620006e8565b81620006255760009050620006e8565b81600181146200063e576002811462000649576200067f565b6001915050620006e8565b60ff8411156200065e576200065d6200056c565b5b8360020a9150848211156200067857620006776200056c565b5b50620006e8565b5060208310610133831016604e8410600b8410161715620006b95782820a905083811115620006b357620006b26200056c565b5b620006e8565b620006c88484846001620005a8565b92509050818404811115620006e257620006e16200056c565b5b81810290505b9392505050565b6000620006fc82620003b2565b91506200070983620003b2565b9250620007387fffffffffffffffffffffffffffffffffffffffffffffffffffffffffffffffff848462000603565b905092915050565b60006200074d82620003b2565b91506200075a83620003b2565b9250817fffffffffffffffffffffffffffffffffffffffffffffffffffffffffffffffff04831182151516156200079657620007956200056c565b5b828202905092915050565b61297380620007b16000396000f3fe6080604052600436106101dc5760003560e01c8063715018a611610102578063a217fddf11610095578063e928890c11610064578063e928890c146106b8578063ec1cb194146106e3578063ece531321461070c578063f2fde38b146107355761021c565b8063a217fddf14610612578063c58a34cc1461063d578063d547741f14610666578063e28c81721461068f5761021c565b806386c10c0a116100d157806386c10c0a146105565780638da5cb5b1461057f57806391d14854146105aa5780639811572c146105e75761021c565b8063715018a6146104be57806375b238fc146104d557806376e1032a1461050057806379f1cb541461052b5761021c565b806335a1529b1161017a57806351f53a761161014957806351f53a761461041657806367a5cd06146104415780636c40bc151461046a57806370dea79a146104935761021c565b806335a1529b1461036c57806336568abe14610397578063393c4734146103c0578063506e817d146103eb5761021c565b80631d691fb5116101b65780631d691fb5146102b2578063248a9ca3146102db5780632f2ff15d14610318578063313ce567146103415761021c565b806301ffc9a71461022157806305b400ae1461025e57806306f91d59146102895761021c565b3661021c577f645431dbae366bae0d8be5812a6298ad69f5604842a40a1bae301a14338686543334604051610212929190611a37565b60405180910390a1005b600080fd5b34801561022d57600080fd5b5061024860048036038101906102439190611abd565b61075e565b6040516102559190611b05565b60405180910390f35b34801561026a57600080fd5b506102736107d8565b6040516102809190611b20565b60405180910390f35b34801561029557600080fd5b506102b060048036038101906102ab9190611b67565b6107de565b005b3480156102be57600080fd5b506102d960048036038101906102d49190611bc0565b61082e565b005b3480156102e757600080fd5b5061030260048036038101906102fd9190611c23565b61087e565b60405161030f9190611c5f565b60405180910390f35b34801561032457600080fd5b5061033f600480360381019061033a9190611ca6565b61089d565b005b34801561034d57600080fd5b506103566108c6565b6040516103639190611b20565b60405180910390f35b34801561037857600080fd5b506103816108cc565b60405161038e9190611b20565b60405180910390f35b3480156103a357600080fd5b506103be60048036038101906103b99190611ca6565b6108d2565b005b3480156103cc57600080fd5b506103d5610955565b6040516103e29190611b20565b60405180910390f35b3480156103f757600080fd5b5061040061095b565b60405161040d9190611b05565b60405180910390f35b34801561042257600080fd5b5061042b61096e565b6040516104389190611d45565b60405180910390f35b34801561044d57600080fd5b5061046860048036038101906104639190611d9e565b610994565b005b34801561047657600080fd5b50610491600480360381019061048c9190611dcb565b610e17565b005b34801561049f57600080fd5b506104a8610e7a565b6040516104b59190611b20565b60405180910390f35b3480156104ca57600080fd5b506104d3610e80565b005b3480156104e157600080fd5b506104ea610f08565b6040516104f79190611c5f565b60405180910390f35b34801561050c57600080fd5b50610515610f2c565b6040516105229190611b05565b60405180910390f35b34801561053757600080fd5b50610540610f3f565b60405161054d9190611b20565b60405180910390f35b34801561056257600080fd5b5061057d60048036038101906105789190611e0b565b610f45565b005b34801561058b57600080fd5b50610594610fc0565b6040516105a19190611e38565b60405180910390f35b3480156105b657600080fd5b506105d160048036038101906105cc9190611ca6565b610fea565b6040516105de9190611b05565b60405180910390f35b3480156105f357600080fd5b506105fc611054565b6040516106099190611b20565b60405180910390f35b34801561061e57600080fd5b5061062761105a565b6040516106349190611c5f565b60405180910390f35b34801561064957600080fd5b50610664600480360381019061065f9190611b67565b611061565b005b34801561067257600080fd5b5061068d60048036038101906106889190611ca6565b61109e565b005b34801561069b57600080fd5b506106b660048036038101906106b19190611bc0565b6110c7565b005b3480156106c457600080fd5b506106cd611117565b6040516106da9190611b05565b60405180910390f35b3480156106ef57600080fd5b5061070a60048036038101906107059190611dcb565b61112a565b005b34801561071857600080fd5b50610733600480360381019061072e9190611d9e565b61117f565b005b34801561074157600080fd5b5061075c60048036038101906107579190611e0b565b611245565b005b60007f7965db0b000000000000000000000000000000000000000000000000000000007bffffffffffffffffffffffffffffffffffffffffffffffffffffffff1916827bffffffffffffffffffffffffffffffffffffffffffffffffffffffff191614806107d157506107d08261133d565b5b9050919050565b600c5481565b7fa49807205ce4d355092ef5a8a18f56e8913cf4a201fbe287825b095693c217756108108161080b6113a7565b6113af565b670de0b6b3a7640000826108249190611e82565b6007819055505050565b7fa49807205ce4d355092ef5a8a18f56e8913cf4a201fbe287825b095693c217756108608161085b6113a7565b6113af565b81600660006101000a81548160ff0219169083151502179055505050565b6000806000838152602001908152602001600020600101549050919050565b6108a68261087e565b6108b7816108b26113a7565b6113af565b6108c1838361144c565b505050565b60045481565b60025481565b6108da6113a7565b73ffffffffffffffffffffffffffffffffffffffff168173ffffffffffffffffffffffffffffffffffffffff1614610947576040517f08c379a000000000000000000000000000000000000000000000000000000000815260040161093e90611f5f565b60405180910390fd5b610951828261152c565b5050565b60035481565b600860009054906101000a900460ff1681565b600b60009054906101000a900473ffffffffffffffffffffffffffffffffffffffff1681565b80600660009054906101000a900460ff16156109e5576040517f08c379a00000000000000000000000000000000000000000000000000000000081526004016109dc90611fcb565b60405180910390fd5b6402540be400471015610a2d576040517f08c379a0000000000000000000000000000000000000000000000000000000008152600401610a2490612037565b60405180910390fd5b600660019054906101000a900460ff1615610ad057600960008273ffffffffffffffffffffffffffffffffffffffff1673ffffffffffffffffffffffffffffffffffffffff16815260200190815260200160002060009054906101000a900460ff1615610acf576040517f08c379a0000000000000000000000000000000000000000000000000000000008152600401610ac6906120a3565b60405180910390fd5b5b60006005541115610b5e5742600a60008373ffffffffffffffffffffffffffffffffffffffff1673ffffffffffffffffffffffffffffffffffffffff168152602001908152602001600020541115610b5d576040517f08c379a0000000000000000000000000000000000000000000000000000000008152600401610b549061210f565b60405180910390fd5b5b7fa49807205ce4d355092ef5a8a18f56e8913cf4a201fbe287825b095693c21775610b9081610b8b6113a7565b6113af565b6007548373ffffffffffffffffffffffffffffffffffffffff163111610beb576040517f08c379a0000000000000000000000000000000000000000000000000000000008152600401610be29061217b565b60405180910390fd5b600254471015610c30576040517f08c379a0000000000000000000000000000000000000000000000000000000008152600401610c2790612037565b60405180910390fd5b600c54600b60009054906101000a900473ffffffffffffffffffffffffffffffffffffffff1673ffffffffffffffffffffffffffffffffffffffff166370a08231856040518263ffffffff1660e01b8152600401610c8e91906121bc565b60206040518083038186803b158015610ca657600080fd5b505afa158015610cba573d6000803e3d6000fd5b505050506040513d601f19601f82011682018060405250810190610cde91906121ec565b1015610d1f576040517f08c379a0000000000000000000000000000000000000000000000000000000008152600401610d1690612265565b60405180910390fd5b60008373ffffffffffffffffffffffffffffffffffffffff16600254604051610d47906122b6565b60006040518083038185875af1925050503d8060008114610d84576040519150601f19603f3d011682016040523d82523d6000602084013e610d89565b606091505b5050905080610dcd576040517f08c379a0000000000000000000000000000000000000000000000000000000008152600401610dc490612317565b60405180910390fd5b610dd68461160d565b7f5c17f5353b06dcfd2dc264e541fbcef1696efb5f704f1ca75eb20af054eab5ee33600254604051610e09929190612383565b60405180910390a150505050565b7fa49807205ce4d355092ef5a8a18f56e8913cf4a201fbe287825b095693c21775610e4981610e446113a7565b6113af565b816004819055508260038190555081600a610e6491906124f2565b83610e6f9190611e82565b600281905550505050565b60055481565b610e886113a7565b73ffffffffffffffffffffffffffffffffffffffff16610ea6610fc0565b73ffffffffffffffffffffffffffffffffffffffff1614610efc576040517f08c379a0000000000000000000000000000000000000000000000000000000008152600401610ef390612589565b60405180910390fd5b610f0660006116db565b565b7fa49807205ce4d355092ef5a8a18f56e8913cf4a201fbe287825b095693c2177581565b600660019054906101000a900460ff1681565b600d5481565b7fa49807205ce4d355092ef5a8a18f56e8913cf4a201fbe287825b095693c21775610f7781610f726113a7565b6113af565b6000600a60008473ffffffffffffffffffffffffffffffffffffffff1673ffffffffffffffffffffffffffffffffffffffff168152602001908152602001600020819055505050565b6000600160009054906101000a900473ffffffffffffffffffffffffffffffffffffffff16905090565b600080600084815260200190815260200160002060000160008373ffffffffffffffffffffffffffffffffffffffff1673ffffffffffffffffffffffffffffffffffffffff16815260200190815260200160002060009054906101000a900460ff16905092915050565b60075481565b6000801b81565b7fa49807205ce4d355092ef5a8a18f56e8913cf4a201fbe287825b095693c217756110938161108e6113a7565b6113af565b816005819055505050565b6110a78261087e565b6110b8816110b36113a7565b6113af565b6110c2838361152c565b505050565b7fa49807205ce4d355092ef5a8a18f56e8913cf4a201fbe287825b095693c217756110f9816110f46113a7565b6113af565b81600660016101000a81548160ff0219169083151502179055505050565b600660009054906101000a900460ff1681565b7fa49807205ce4d355092ef5a8a18f56e8913cf4a201fbe287825b095693c2177561115c816111576113a7565b6113af565b81600a61116991906124f2565b836111749190611e82565b600c81905550505050565b6111876113a7565b73ffffffffffffffffffffffffffffffffffffffff166111a5610fc0565b73ffffffffffffffffffffffffffffffffffffffff16146111fb576040517f08c379a00000000000000000000000000000000000000000000000000000000081526004016111f290612589565b60405180910390fd5b8073ffffffffffffffffffffffffffffffffffffffff166108fc479081150290604051600060405180830381858888f19350505050158015611241573d6000803e3d6000fd5b5050565b61124d6113a7565b73ffffffffffffffffffffffffffffffffffffffff1661126b610fc0565b73ffffffffffffffffffffffffffffffffffffffff16146112c1576040517f08c379a00000000000000000000000000000000000000000000000000000000081526004016112b890612589565b60405180910390fd5b600073ffffffffffffffffffffffffffffffffffffffff168173ffffffffffffffffffffffffffffffffffffffff161415611331576040517f08c379a00000000000000000000000000000000000000000000000000000000081526004016113289061261b565b60405180910390fd5b61133a816116db565b50565b60007f01ffc9a7000000000000000000000000000000000000000000000000000000007bffffffffffffffffffffffffffffffffffffffffffffffffffffffff1916827bffffffffffffffffffffffffffffffffffffffffffffffffffffffff1916149050919050565b600033905090565b6113b98282610fea565b611448576113de8173ffffffffffffffffffffffffffffffffffffffff1660146117a1565b6113ec8360001c60206117a1565b6040516020016113fd92919061274d565b6040516020818303038152906040526040517f08c379a000000000000000000000000000000000000000000000000000000000815260040161143f91906127d1565b60405180910390fd5b5050565b6114568282610fea565b61152857600160008084815260200190815260200160002060000160008373ffffffffffffffffffffffffffffffffffffffff1673ffffffffffffffffffffffffffffffffffffffff16815260200190815260200160002060006101000a81548160ff0219169083151502179055506114cd6113a7565b73ffffffffffffffffffffffffffffffffffffffff168173ffffffffffffffffffffffffffffffffffffffff16837f2f8788117e7eff1d82e926ec794901d17c78024a50270940304540a733656f0d60405160405180910390a45b5050565b6115368282610fea565b1561160957600080600084815260200190815260200160002060000160008373ffffffffffffffffffffffffffffffffffffffff1673ffffffffffffffffffffffffffffffffffffffff16815260200190815260200160002060006101000a81548160ff0219169083151502179055506115ae6113a7565b73ffffffffffffffffffffffffffffffffffffffff168173ffffffffffffffffffffffffffffffffffffffff16837ff6391f5c32d9c69d2a47ea670b442974b53935d1edc7fd64eb21e047a839171b60405160405180910390a45b5050565b6000600554111561166a576005544261162691906127f3565b600a60008373ffffffffffffffffffffffffffffffffffffffff1673ffffffffffffffffffffffffffffffffffffffff168152602001908152602001600020819055505b600660019054906101000a900460ff16156116d8576001600960008373ffffffffffffffffffffffffffffffffffffffff1673ffffffffffffffffffffffffffffffffffffffff16815260200190815260200160002060006101000a81548160ff0219169083151502179055505b50565b6000600160009054906101000a900473ffffffffffffffffffffffffffffffffffffffff16905081600160006101000a81548173ffffffffffffffffffffffffffffffffffffffff021916908373ffffffffffffffffffffffffffffffffffffffff1602179055508173ffffffffffffffffffffffffffffffffffffffff168173ffffffffffffffffffffffffffffffffffffffff167f8be0079c531659141344cd1fd0a4f28419497f9722a3daafe3b4186f6b6457e060405160405180910390a35050565b6060600060028360026117b49190611e82565b6117be91906127f3565b67ffffffffffffffff8111156117d7576117d6612849565b5b6040519080825280601f01601f1916602001820160405280156118095781602001600182028036833780820191505090505b5090507f30000000000000000000000000000000000000000000000000000000000000008160008151811061184157611840612878565b5b60200101907effffffffffffffffffffffffffffffffffffffffffffffffffffffffffffff1916908160001a9053507f7800000000000000000000000000000000000000000000000000000000000000816001815181106118a5576118a4612878565b5b60200101907effffffffffffffffffffffffffffffffffffffffffffffffffffffffffffff1916908160001a905350600060018460026118e59190611e82565b6118ef91906127f3565b90505b600181111561198f577f3031323334353637383961626364656600000000000000000000000000000000600f86166010811061193157611930612878565b5b1a60f81b82828151811061194857611947612878565b5b60200101907effffffffffffffffffffffffffffffffffffffffffffffffffffffffffffff1916908160001a905350600485901c945080611988906128a7565b90506118f2565b50600084146119d3576040517f08c379a00000000000000000000000000000000000000000000000000000000081526004016119ca9061291d565b60405180910390fd5b8091505092915050565b600073ffffffffffffffffffffffffffffffffffffffff82169050919050565b6000611a08826119dd565b9050919050565b611a18816119fd565b82525050565b6000819050919050565b611a3181611a1e565b82525050565b6000604082019050611a4c6000830185611a0f565b611a596020830184611a28565b9392505050565b600080fd5b60007fffffffff0000000000000000000000000000000000000000000000000000000082169050919050565b611a9a81611a65565b8114611aa557600080fd5b50565b600081359050611ab781611a91565b92915050565b600060208284031215611ad357611ad2611a60565b5b6000611ae184828501611aa8565b91505092915050565b60008115159050919050565b611aff81611aea565b82525050565b6000602082019050611b1a6000830184611af6565b92915050565b6000602082019050611b356000830184611a28565b92915050565b611b4481611a1e565b8114611b4f57600080fd5b50565b600081359050611b6181611b3b565b92915050565b600060208284031215611b7d57611b7c611a60565b5b6000611b8b84828501611b52565b91505092915050565b611b9d81611aea565b8114611ba857600080fd5b50565b600081359050611bba81611b94565b92915050565b600060208284031215611bd657611bd5611a60565b5b6000611be484828501611bab565b91505092915050565b6000819050919050565b611c0081611bed565b8114611c0b57600080fd5b50565b600081359050611c1d81611bf7565b92915050565b600060208284031215611c3957611c38611a60565b5b6000611c4784828501611c0e565b91505092915050565b611c5981611bed565b82525050565b6000602082019050611c746000830184611c50565b92915050565b611c83816119fd565b8114611c8e57600080fd5b50565b600081359050611ca081611c7a565b92915050565b60008060408385031215611cbd57611cbc611a60565b5b6000611ccb85828601611c0e565b9250506020611cdc85828601611c91565b9150509250929050565b6000819050919050565b6000611d0b611d06611d01846119dd565b611ce6565b6119dd565b9050919050565b6000611d1d82611cf0565b9050919050565b6000611d2f82611d12565b9050919050565b611d3f81611d24565b82525050565b6000602082019050611d5a6000830184611d36565b92915050565b6000611d6b826119dd565b9050919050565b611d7b81611d60565b8114611d8657600080fd5b50565b600081359050611d9881611d72565b92915050565b600060208284031215611db457611db3611a60565b5b6000611dc284828501611d89565b91505092915050565b60008060408385031215611de257611de1611a60565b5b6000611df085828601611b52565b9250506020611e0185828601611b52565b9150509250929050565b600060208284031215611e2157611e20611a60565b5b6000611e2f84828501611c91565b91505092915050565b6000602082019050611e4d6000830184611a0f565b92915050565b7f4e487b7100000000000000000000000000000000000000000000000000000000600052601160045260246000fd5b6000611e8d82611a1e565b9150611e9883611a1e565b9250817fffffffffffffffffffffffffffffffffffffffffffffffffffffffffffffffff0483118215151615611ed157611ed0611e53565b5b828202905092915050565b600082825260208201905092915050565b7f416363657373436f6e74726f6c3a2063616e206f6e6c792072656e6f756e636560008201527f20726f6c657320666f722073656c660000000000000000000000000000000000602082015250565b6000611f49602f83611edc565b9150611f5482611eed565b604082019050919050565b60006020820190508181036000830152611f7881611f3c565b9050919050565b7f4641554345545f44495341424c45440000000000000000000000000000000000600082015250565b6000611fb5600f83611edc565b9150611fc082611f7f565b602082019050919050565b60006020820190508181036000830152611fe481611fa8565b9050919050565b7f4641554345545f44525900000000000000000000000000000000000000000000600082015250565b6000612021600a83611edc565b915061202c82611feb565b602082019050919050565b6000602082019050818103600083015261205081612014565b9050919050565b7f53494e474c455f55534500000000000000000000000000000000000000000000600082015250565b600061208d600a83611edc565b915061209882612057565b602082019050919050565b600060208201905081810360008301526120bc81612080565b9050919050565b7f57414c4c45545f54494d454f5554000000000000000000000000000000000000600082015250565b60006120f9600e83611edc565b9150612104826120c3565b602082019050919050565b60006020820190508181036000830152612128816120ec565b9050919050565b7f484f4c4445525f4c494d49540000000000000000000000000000000000000000600082015250565b6000612165600c83611edc565b91506121708261212f565b602082019050919050565b6000602082019050818103600083015261219481612158565b9050919050565b60006121a682611d12565b9050919050565b6121b68161219b565b82525050565b60006020820190506121d160008301846121ad565b92915050565b6000815190506121e681611b3b565b92915050565b60006020828403121561220257612201611a60565b5b6000612210848285016121d7565b91505092915050565b7f4d495353494e475f46574542335f544f4b454e53000000000000000000000000600082015250565b600061224f601483611edc565b915061225a82612219565b602082019050919050565b6000602082019050818103600083015261227e81612242565b9050919050565b600081905092915050565b50565b60006122a0600083612285565b91506122ab82612290565b600082019050919050565b60006122c182612293565b9150819050919050565b7f54585f4641494c55524500000000000000000000000000000000000000000000600082015250565b6000612301600a83611edc565b915061230c826122cb565b602082019050919050565b60006020820190508181036000830152612330816122f4565b9050919050565b7f4d41544943000000000000000000000000000000000000000000000000000000600082015250565b600061236d600583611edc565b915061237882612337565b602082019050919050565b60006060820190506123986000830185611a0f565b81810360208301526123a981612360565b90506123b86040830184611a28565b9392505050565b60008160011c9050919050565b6000808291508390505b6001851115612416578086048111156123f2576123f1611e53565b5b60018516156124015780820291505b808102905061240f856123bf565b94506123d6565b94509492505050565b60008261242f57600190506124eb565b8161243d57600090506124eb565b8160018114612453576002811461245d5761248c565b60019150506124eb565b60ff84111561246f5761246e611e53565b5b8360020a91508482111561248657612485611e53565b5b506124eb565b5060208310610133831016604e8410600b84101617156124c15782820a9050838111156124bc576124bb611e53565b5b6124eb565b6124ce84848460016123cc565b925090508184048111156124e5576124e4611e53565b5b81810290505b9392505050565b60006124fd82611a1e565b915061250883611a1e565b92506125357fffffffffffffffffffffffffffffffffffffffffffffffffffffffffffffffff848461241f565b905092915050565b7f4f776e61626c653a2063616c6c6572206973206e6f7420746865206f776e6572600082015250565b6000612573602083611edc565b915061257e8261253d565b602082019050919050565b600060208201905081810360008301526125a281612566565b9050919050565b7f4f776e61626c653a206e6577206f776e657220697320746865207a65726f206160008201527f6464726573730000000000000000000000000000000000000000000000000000602082015250565b6000612605602683611edc565b9150612610826125a9565b604082019050919050565b60006020820190508181036000830152612634816125f8565b9050919050565b600081905092915050565b7f416363657373436f6e74726f6c3a206163636f756e7420000000000000000000600082015250565b600061267c60178361263b565b915061268782612646565b601782019050919050565b600081519050919050565b60005b838110156126bb5780820151818401526020810190506126a0565b838111156126ca576000848401525b50505050565b60006126db82612692565b6126e5818561263b565b93506126f581856020860161269d565b80840191505092915050565b7f206973206d697373696e6720726f6c6520000000000000000000000000000000600082015250565b600061273760118361263b565b915061274282612701565b601182019050919050565b60006127588261266f565b915061276482856126d0565b915061276f8261272a565b915061277b82846126d0565b91508190509392505050565b6000601f19601f8301169050919050565b60006127a382612692565b6127ad8185611edc565b93506127bd81856020860161269d565b6127c681612787565b840191505092915050565b600060208201905081810360008301526127eb8184612798565b905092915050565b60006127fe82611a1e565b915061280983611a1e565b9250827fffffffffffffffffffffffffffffffffffffffffffffffffffffffffffffffff0382111561283e5761283d611e53565b5b828201905092915050565b7f4e487b7100000000000000000000000000000000000000000000000000000000600052604160045260246000fd5b7f4e487b7100000000000000000000000000000000000000000000000000000000600052603260045260246000fd5b60006128b282611a1e565b915060008214156128c6576128c5611e53565b5b600182039050919050565b7f537472696e67733a20686578206c656e67746820696e73756666696369656e74600082015250565b6000612907602083611edc565b9150612912826128d1565b602082019050919050565b60006020820190508181036000830152612936816128fa565b905091905056fea264697066735822122070b4e3ca6b31bb8bddb941ca987a09a9c6a585d74dcd452e5c62312364fea3aa64736f6c63430008090033",
  "linkReferences": {},
  "deployedLinkReferences": {}
}