{
  "_format": "hh-sol-artifact-1",
  "contractName": "Fweb3MaticFaucet",
  "sourceName": "contracts/Fweb3MaticFaucet.sol",
  "abi": [
    {
      "inputs": [
        {
          "internalType": "uint256",
          "name": "_dripBase",
          "type": "uint256"
        },
        {
          "internalType": "uint256",
          "name": "_decimals",
          "type": "uint256"
        },
        {
          "internalType": "contract IERC20",
          "name": "_fweb3TokenAddress",
          "type": "address"
        },
        {
          "internalType": "uint256",
          "name": "_timout",
          "type": "uint256"
        },
        {
          "internalType": "bool",
          "name": "_singleUse",
          "type": "bool"
        },
        {
          "internalType": "uint256",
          "name": "_minFweb3Required",
          "type": "uint256"
        },
        {
          "internalType": "uint256",
          "name": "_minFweb3TokenRequiredDecimals",
          "type": "uint256"
        },
        {
          "internalType": "uint256",
          "name": "_holderLimit",
          "type": "uint256"
        }
      ],
      "stateMutability": "nonpayable",
      "type": "constructor"
    },
    {
      "anonymous": false,
      "inputs": [
        {
          "indexed": false,
          "internalType": "address",
          "name": "",
          "type": "address"
        },
        {
          "indexed": false,
          "internalType": "string",
          "name": "",
          "type": "string"
        },
        {
          "indexed": false,
          "internalType": "uint256",
          "name": "",
          "type": "uint256"
        }
      ],
      "name": "Dripped",
      "type": "event"
    },
    {
      "anonymous": false,
      "inputs": [
        {
          "indexed": true,
          "internalType": "address",
          "name": "previousOwner",
          "type": "address"
        },
        {
          "indexed": true,
          "internalType": "address",
          "name": "newOwner",
          "type": "address"
        }
      ],
      "name": "OwnershipTransferred",
      "type": "event"
    },
    {
      "anonymous": false,
      "inputs": [
        {
          "indexed": false,
          "internalType": "address",
          "name": "",
          "type": "address"
        },
        {
          "indexed": false,
          "internalType": "uint256",
          "name": "",
          "type": "uint256"
        }
      ],
      "name": "ReceivedDeposit",
      "type": "event"
    },
    {
      "anonymous": false,
      "inputs": [
        {
          "indexed": true,
          "internalType": "bytes32",
          "name": "role",
          "type": "bytes32"
        },
        {
          "indexed": true,
          "internalType": "bytes32",
          "name": "previousAdminRole",
          "type": "bytes32"
        },
        {
          "indexed": true,
          "internalType": "bytes32",
          "name": "newAdminRole",
          "type": "bytes32"
        }
      ],
      "name": "RoleAdminChanged",
      "type": "event"
    },
    {
      "anonymous": false,
      "inputs": [
        {
          "indexed": true,
          "internalType": "bytes32",
          "name": "role",
          "type": "bytes32"
        },
        {
          "indexed": true,
          "internalType": "address",
          "name": "account",
          "type": "address"
        },
        {
          "indexed": true,
          "internalType": "address",
          "name": "sender",
          "type": "address"
        }
      ],
      "name": "RoleGranted",
      "type": "event"
    },
    {
      "anonymous": false,
      "inputs": [
        {
          "indexed": true,
          "internalType": "bytes32",
          "name": "role",
          "type": "bytes32"
        },
        {
          "indexed": true,
          "internalType": "address",
          "name": "account",
          "type": "address"
        },
        {
          "indexed": true,
          "internalType": "address",
          "name": "sender",
          "type": "address"
        }
      ],
      "name": "RoleRevoked",
      "type": "event"
    },
    {
      "inputs": [],
      "name": "ADMIN_ROLE",
      "outputs": [
        {
          "internalType": "bytes32",
          "name": "",
          "type": "bytes32"
        }
      ],
      "stateMutability": "view",
      "type": "function"
    },
    {
      "inputs": [],
      "name": "DEFAULT_ADMIN_ROLE",
      "outputs": [
        {
          "internalType": "bytes32",
          "name": "",
          "type": "bytes32"
        }
      ],
      "stateMutability": "view",
      "type": "function"
    },
    {
      "inputs": [
        {
          "internalType": "address",
          "name": "forWhom",
          "type": "address"
        }
      ],
      "name": "clearTimeoutForAddress",
      "outputs": [],
      "stateMutability": "nonpayable",
      "type": "function"
    },
    {
      "inputs": [],
      "name": "decimals",
      "outputs": [
        {
          "internalType": "uint256",
          "name": "",
          "type": "uint256"
        }
      ],
      "stateMutability": "view",
      "type": "function"
    },
    {
      "inputs": [
        {
          "internalType": "address payable",
          "name": "to",
          "type": "address"
        }
      ],
      "name": "drain",
      "outputs": [],
      "stateMutability": "nonpayable",
      "type": "function"
    },
    {
      "inputs": [
        {
          "internalType": "address payable",
          "name": "to",
          "type": "address"
        }
      ],
      "name": "drip",
      "outputs": [],
      "stateMutability": "nonpayable",
      "type": "function"
    },
    {
      "inputs": [],
      "name": "dripAmount",
      "outputs": [
        {
          "internalType": "uint256",
          "name": "",
          "type": "uint256"
        }
      ],
      "stateMutability": "view",
      "type": "function"
    },
    {
      "inputs": [],
      "name": "dripBase",
      "outputs": [
        {
          "internalType": "uint256",
          "name": "",
          "type": "uint256"
        }
      ],
      "stateMutability": "view",
      "type": "function"
    },
    {
      "inputs": [],
      "name": "faucetDisabled",
      "outputs": [
        {
          "internalType": "bool",
          "name": "",
          "type": "bool"
        }
      ],
      "stateMutability": "view",
      "type": "function"
    },
    {
      "inputs": [],
      "name": "fweb3TokenAddress",
      "outputs": [
        {
          "internalType": "contract IERC20",
          "name": "",
          "type": "address"
        }
      ],
      "stateMutability": "view",
      "type": "function"
    },
    {
      "inputs": [
        {
          "internalType": "bytes32",
          "name": "role",
          "type": "bytes32"
        }
      ],
      "name": "getRoleAdmin",
      "outputs": [
        {
          "internalType": "bytes32",
          "name": "",
          "type": "bytes32"
        }
      ],
      "stateMutability": "view",
      "type": "function"
    },
    {
      "inputs": [
        {
          "internalType": "bytes32",
          "name": "role",
          "type": "bytes32"
        },
        {
          "internalType": "address",
          "name": "account",
          "type": "address"
        }
      ],
      "name": "grantRole",
      "outputs": [],
      "stateMutability": "nonpayable",
      "type": "function"
    },
    {
      "inputs": [
        {
          "internalType": "bytes32",
          "name": "role",
          "type": "bytes32"
        },
        {
          "internalType": "address",
          "name": "account",
          "type": "address"
        }
      ],
      "name": "hasRole",
      "outputs": [
        {
          "internalType": "bool",
          "name": "",
          "type": "bool"
        }
      ],
      "stateMutability": "view",
      "type": "function"
    },
    {
      "inputs": [],
      "name": "holderLimit",
      "outputs": [
        {
          "internalType": "uint256",
          "name": "",
          "type": "uint256"
        }
      ],
      "stateMutability": "view",
      "type": "function"
    },
    {
      "inputs": [],
      "name": "minFweb3Required",
      "outputs": [
        {
          "internalType": "uint256",
          "name": "",
          "type": "uint256"
        }
      ],
      "stateMutability": "view",
      "type": "function"
    },
    {
      "inputs": [],
      "name": "minFweb3RequiredDecimals",
      "outputs": [
        {
          "internalType": "uint256",
          "name": "",
          "type": "uint256"
        }
      ],
      "stateMutability": "view",
      "type": "function"
    },
    {
      "inputs": [],
      "name": "owner",
      "outputs": [
        {
          "internalType": "address",
          "name": "",
          "type": "address"
        }
      ],
      "stateMutability": "view",
      "type": "function"
    },
    {
      "inputs": [],
      "name": "renounceOwnership",
      "outputs": [],
      "stateMutability": "nonpayable",
      "type": "function"
    },
    {
      "inputs": [
        {
          "internalType": "bytes32",
          "name": "role",
          "type": "bytes32"
        },
        {
          "internalType": "address",
          "name": "account",
          "type": "address"
        }
      ],
      "name": "renounceRole",
      "outputs": [],
      "stateMutability": "nonpayable",
      "type": "function"
    },
    {
      "inputs": [
        {
          "internalType": "bytes32",
          "name": "role",
          "type": "bytes32"
        },
        {
          "internalType": "address",
          "name": "account",
          "type": "address"
        }
      ],
      "name": "revokeRole",
      "outputs": [],
      "stateMutability": "nonpayable",
      "type": "function"
    },
    {
      "inputs": [
        {
          "internalType": "bool",
          "name": "shouldBeDisabled",
          "type": "bool"
        }
      ],
      "name": "setDisableFaucet",
      "outputs": [],
      "stateMutability": "nonpayable",
      "type": "function"
    },
    {
      "inputs": [
        {
          "internalType": "uint256",
          "name": "_dripbase",
          "type": "uint256"
        },
        {
          "internalType": "uint256",
          "name": "_decimals",
          "type": "uint256"
        }
      ],
      "name": "setDripAmount",
      "outputs": [],
      "stateMutability": "nonpayable",
      "type": "function"
    },
    {
      "inputs": [
        {
          "internalType": "uint256",
          "name": "_base",
          "type": "uint256"
        },
        {
          "internalType": "uint256",
          "name": "_decimals",
          "type": "uint256"
        }
      ],
      "name": "setHolderLimit",
      "outputs": [],
      "stateMutability": "nonpayable",
      "type": "function"
    },
    {
      "inputs": [
        {
          "internalType": "uint256",
          "name": "min",
          "type": "uint256"
        },
        {
          "internalType": "uint256",
          "name": "decimals",
          "type": "uint256"
        }
      ],
      "name": "setMinErc20Required",
      "outputs": [],
      "stateMutability": "nonpayable",
      "type": "function"
    },
    {
      "inputs": [
        {
          "internalType": "bool",
          "name": "shouldBeSingleUse",
          "type": "bool"
        }
      ],
      "name": "setSingleUse",
      "outputs": [],
      "stateMutability": "nonpayable",
      "type": "function"
    },
    {
      "inputs": [
        {
          "internalType": "uint256",
          "name": "newTimeout",
          "type": "uint256"
        }
      ],
      "name": "setTimeout",
      "outputs": [],
      "stateMutability": "nonpayable",
      "type": "function"
    },
    {
      "inputs": [],
      "name": "singleUse",
      "outputs": [
        {
          "internalType": "bool",
          "name": "",
          "type": "bool"
        }
      ],
      "stateMutability": "view",
      "type": "function"
    },
    {
      "inputs": [
        {
          "internalType": "bytes4",
          "name": "interfaceId",
          "type": "bytes4"
        }
      ],
      "name": "supportsInterface",
      "outputs": [
        {
          "internalType": "bool",
          "name": "",
          "type": "bool"
        }
      ],
      "stateMutability": "view",
      "type": "function"
    },
    {
      "inputs": [],
      "name": "timeout",
      "outputs": [
        {
          "internalType": "uint256",
          "name": "",
          "type": "uint256"
        }
      ],
      "stateMutability": "view",
      "type": "function"
    },
    {
      "inputs": [
        {
          "internalType": "address",
          "name": "newOwner",
          "type": "address"
        }
      ],
      "name": "transferOwnership",
      "outputs": [],
      "stateMutability": "nonpayable",
      "type": "function"
    },
    {
      "stateMutability": "payable",
      "type": "receive"
    }
  ],
  "bytecode": "0x60806040523480156200001157600080fd5b50604051620030ec380380620030ec8339818101604052810190620000379190620004a3565b620000576200004b6200016e60201b60201c565b6200017660201b60201c565b6200006c6000801b336200023c60201b60201c565b6200009e7fa49807205ce4d355092ef5a8a18f56e8913cf4a201fbe287825b095693c21775336200023c60201b60201c565b8760038190555086600a620000b49190620006ef565b88620000c1919062000740565b600281905550866004819055508460058190555083600660016101000a81548160ff02191690831515021790555085600a60006101000a81548173ffffffffffffffffffffffffffffffffffffffff021916908373ffffffffffffffffffffffffffffffffffffffff16021790555081600c8190555081600a620001469190620006ef565b8362000153919062000740565b600b81905550806007819055505050505050505050620007a1565b600033905090565b6000600160009054906101000a900473ffffffffffffffffffffffffffffffffffffffff16905081600160006101000a81548173ffffffffffffffffffffffffffffffffffffffff021916908373ffffffffffffffffffffffffffffffffffffffff1602179055508173ffffffffffffffffffffffffffffffffffffffff168173ffffffffffffffffffffffffffffffffffffffff167f8be0079c531659141344cd1fd0a4f28419497f9722a3daafe3b4186f6b6457e060405160405180910390a35050565b6200024e82826200025260201b60201c565b5050565b6200026482826200034360201b60201c565b6200033f57600160008084815260200190815260200160002060000160008373ffffffffffffffffffffffffffffffffffffffff1673ffffffffffffffffffffffffffffffffffffffff16815260200190815260200160002060006101000a81548160ff021916908315150217905550620002e46200016e60201b60201c565b73ffffffffffffffffffffffffffffffffffffffff168173ffffffffffffffffffffffffffffffffffffffff16837f2f8788117e7eff1d82e926ec794901d17c78024a50270940304540a733656f0d60405160405180910390a45b5050565b600080600084815260200190815260200160002060000160008373ffffffffffffffffffffffffffffffffffffffff1673ffffffffffffffffffffffffffffffffffffffff16815260200190815260200160002060009054906101000a900460ff16905092915050565b600080fd5b6000819050919050565b620003c781620003b2565b8114620003d357600080fd5b50565b600081519050620003e781620003bc565b92915050565b600073ffffffffffffffffffffffffffffffffffffffff82169050919050565b60006200041a82620003ed565b9050919050565b60006200042e826200040d565b9050919050565b620004408162000421565b81146200044c57600080fd5b50565b600081519050620004608162000435565b92915050565b60008115159050919050565b6200047d8162000466565b81146200048957600080fd5b50565b6000815190506200049d8162000472565b92915050565b600080600080600080600080610100898b031215620004c757620004c6620003ad565b5b6000620004d78b828c01620003d6565b9850506020620004ea8b828c01620003d6565b9750506040620004fd8b828c016200044f565b9650506060620005108b828c01620003d6565b9550506080620005238b828c016200048c565b94505060a0620005368b828c01620003d6565b93505060c0620005498b828c01620003d6565b92505060e06200055c8b828c01620003d6565b9150509295985092959890939650565b7f4e487b7100000000000000000000000000000000000000000000000000000000600052601160045260246000fd5b60008160011c9050919050565b6000808291508390505b6001851115620005fa57808604811115620005d257620005d16200056c565b5b6001851615620005e25780820291505b8081029050620005f2856200059b565b9450620005b2565b94509492505050565b600082620006155760019050620006e8565b81620006255760009050620006e8565b81600181146200063e576002811462000649576200067f565b6001915050620006e8565b60ff8411156200065e576200065d6200056c565b5b8360020a9150848211156200067857620006776200056c565b5b50620006e8565b5060208310610133831016604e8410600b8410161715620006b95782820a905083811115620006b357620006b26200056c565b5b620006e8565b620006c88484846001620005a8565b92509050818404811115620006e257620006e16200056c565b5b81810290505b9392505050565b6000620006fc82620003b2565b91506200070983620003b2565b9250620007387fffffffffffffffffffffffffffffffffffffffffffffffffffffffffffffffff848462000603565b905092915050565b60006200074d82620003b2565b91506200075a83620003b2565b9250817fffffffffffffffffffffffffffffffffffffffffffffffffffffffffffffffff04831182151516156200079657620007956200056c565b5b828202905092915050565b61293b80620007b16000396000f3fe6080604052600436106101d15760003560e01c806375b238fc116100f7578063a217fddf11610095578063e928890c11610064578063e928890c14610682578063ec1cb194146106ad578063ece53132146106d6578063f2fde38b146106ff57610211565b8063a217fddf146105dc578063c58a34cc14610607578063d547741f14610630578063e28c81721461065957610211565b806386c10c0a116100d157806386c10c0a146105205780638da5cb5b1461054957806391d14854146105745780639811572c146105b157610211565b806375b238fc1461049f57806376e1032a146104ca57806379f1cb54146104f557610211565b806335a1529b1161016f57806367a5cd061161013e57806367a5cd061461040b5780636c40bc151461043457806370dea79a1461045d578063715018a61461048857610211565b806335a1529b1461036157806336568abe1461038c578063393c4734146103b557806351f53a76146103e057610211565b80631d691fb5116101ab5780631d691fb5146102a7578063248a9ca3146102d05780632f2ff15d1461030d578063313ce5671461033657610211565b806301ffc9a71461021657806305b400ae1461025357806306464e561461027e57610211565b36610211577f645431dbae366bae0d8be5812a6298ad69f5604842a40a1bae301a143386865433346040516102079291906119ff565b60405180910390a1005b600080fd5b34801561022257600080fd5b5061023d60048036038101906102389190611a85565b610728565b60405161024a9190611acd565b60405180910390f35b34801561025f57600080fd5b506102686107a2565b6040516102759190611ae8565b60405180910390f35b34801561028a57600080fd5b506102a560048036038101906102a09190611b2f565b6107a8565b005b3480156102b357600080fd5b506102ce60048036038101906102c99190611b9b565b6107fd565b005b3480156102dc57600080fd5b506102f760048036038101906102f29190611bfe565b61084d565b6040516103049190611c3a565b60405180910390f35b34801561031957600080fd5b50610334600480360381019061032f9190611c81565b61086c565b005b34801561034257600080fd5b5061034b610895565b6040516103589190611ae8565b60405180910390f35b34801561036d57600080fd5b5061037661089b565b6040516103839190611ae8565b60405180910390f35b34801561039857600080fd5b506103b360048036038101906103ae9190611c81565b6108a1565b005b3480156103c157600080fd5b506103ca610924565b6040516103d79190611ae8565b60405180910390f35b3480156103ec57600080fd5b506103f561092a565b6040516104029190611d20565b60405180910390f35b34801561041757600080fd5b50610432600480360381019061042d9190611d79565b610950565b005b34801561044057600080fd5b5061045b60048036038101906104569190611b2f565b610ddf565b005b34801561046957600080fd5b50610472610e42565b60405161047f9190611ae8565b60405180910390f35b34801561049457600080fd5b5061049d610e48565b005b3480156104ab57600080fd5b506104b4610ed0565b6040516104c19190611c3a565b60405180910390f35b3480156104d657600080fd5b506104df610ef4565b6040516104ec9190611acd565b60405180910390f35b34801561050157600080fd5b5061050a610f07565b6040516105179190611ae8565b60405180910390f35b34801561052c57600080fd5b5061054760048036038101906105429190611da6565b610f0d565b005b34801561055557600080fd5b5061055e610f88565b60405161056b9190611dd3565b60405180910390f35b34801561058057600080fd5b5061059b60048036038101906105969190611c81565b610fb2565b6040516105a89190611acd565b60405180910390f35b3480156105bd57600080fd5b506105c661101c565b6040516105d39190611ae8565b60405180910390f35b3480156105e857600080fd5b506105f1611022565b6040516105fe9190611c3a565b60405180910390f35b34801561061357600080fd5b5061062e60048036038101906106299190611dee565b611029565b005b34801561063c57600080fd5b5061065760048036038101906106529190611c81565b611066565b005b34801561066557600080fd5b50610680600480360381019061067b9190611b9b565b61108f565b005b34801561068e57600080fd5b506106976110df565b6040516106a49190611acd565b60405180910390f35b3480156106b957600080fd5b506106d460048036038101906106cf9190611b2f565b6110f2565b005b3480156106e257600080fd5b506106fd60048036038101906106f89190611d79565b611147565b005b34801561070b57600080fd5b5061072660048036038101906107219190611da6565b61120d565b005b60007f7965db0b000000000000000000000000000000000000000000000000000000007bffffffffffffffffffffffffffffffffffffffffffffffffffffffff1916827bffffffffffffffffffffffffffffffffffffffffffffffffffffffff1916148061079b575061079a82611305565b5b9050919050565b600b5481565b7fa49807205ce4d355092ef5a8a18f56e8913cf4a201fbe287825b095693c217756107da816107d561136f565b611377565b81600a6107e79190611f7d565b836107f29190611fc8565b600781905550505050565b7fa49807205ce4d355092ef5a8a18f56e8913cf4a201fbe287825b095693c2177561082f8161082a61136f565b611377565b81600660006101000a81548160ff0219169083151502179055505050565b6000806000838152602001908152602001600020600101549050919050565b6108758261084d565b6108868161088161136f565b611377565b6108908383611414565b505050565b60045481565b60025481565b6108a961136f565b73ffffffffffffffffffffffffffffffffffffffff168173ffffffffffffffffffffffffffffffffffffffff1614610916576040517f08c379a000000000000000000000000000000000000000000000000000000000815260040161090d906120a5565b60405180910390fd5b61092082826114f4565b5050565b60035481565b600a60009054906101000a900473ffffffffffffffffffffffffffffffffffffffff1681565b80600660009054906101000a900460ff16156109a1576040517f08c379a000000000000000000000000000000000000000000000000000000000815260040161099890612111565b60405180910390fd5b6402540be4004710156109e9576040517f08c379a00000000000000000000000000000000000000000000000000000000081526004016109e09061217d565b60405180910390fd5b600660019054906101000a900460ff1615610a8c57600860008273ffffffffffffffffffffffffffffffffffffffff1673ffffffffffffffffffffffffffffffffffffffff16815260200190815260200160002060009054906101000a900460ff1615610a8b576040517f08c379a0000000000000000000000000000000000000000000000000000000008152600401610a82906121e9565b60405180910390fd5b5b60006005541115610b1a5742600960008373ffffffffffffffffffffffffffffffffffffffff1673ffffffffffffffffffffffffffffffffffffffff168152602001908152602001600020541115610b19576040517f08c379a0000000000000000000000000000000000000000000000000000000008152600401610b1090612255565b60405180910390fd5b5b7fa49807205ce4d355092ef5a8a18f56e8913cf4a201fbe287825b095693c21775610b4c81610b4761136f565b611377565b600254471015610b91576040517f08c379a0000000000000000000000000000000000000000000000000000000008152600401610b889061217d565b60405180910390fd5b600b54600a60009054906101000a900473ffffffffffffffffffffffffffffffffffffffff1673ffffffffffffffffffffffffffffffffffffffff166370a08231856040518263ffffffff1660e01b8152600401610bef9190612296565b60206040518083038186803b158015610c0757600080fd5b505afa158015610c1b573d6000803e3d6000fd5b505050506040513d601f19601f82011682018060405250810190610c3f91906122c6565b1015610c80576040517f08c379a0000000000000000000000000000000000000000000000000000000008152600401610c779061233f565b60405180910390fd5b600060075414610ce7576007548373ffffffffffffffffffffffffffffffffffffffff16311115610ce6576040517f08c379a0000000000000000000000000000000000000000000000000000000008152600401610cdd906123ab565b60405180910390fd5b5b60008373ffffffffffffffffffffffffffffffffffffffff16600254604051610d0f906123fc565b60006040518083038185875af1925050503d8060008114610d4c576040519150601f19603f3d011682016040523d82523d6000602084013e610d51565b606091505b5050905080610d95576040517f08c379a0000000000000000000000000000000000000000000000000000000008152600401610d8c9061245d565b60405180910390fd5b610d9e846115d5565b7f5c17f5353b06dcfd2dc264e541fbcef1696efb5f704f1ca75eb20af054eab5ee33600254604051610dd19291906124c9565b60405180910390a150505050565b7fa49807205ce4d355092ef5a8a18f56e8913cf4a201fbe287825b095693c21775610e1181610e0c61136f565b611377565b816004819055508260038190555081600a610e2c9190611f7d565b83610e379190611fc8565b600281905550505050565b60055481565b610e5061136f565b73ffffffffffffffffffffffffffffffffffffffff16610e6e610f88565b73ffffffffffffffffffffffffffffffffffffffff1614610ec4576040517f08c379a0000000000000000000000000000000000000000000000000000000008152600401610ebb90612551565b60405180910390fd5b610ece60006116a3565b565b7fa49807205ce4d355092ef5a8a18f56e8913cf4a201fbe287825b095693c2177581565b600660019054906101000a900460ff1681565b600c5481565b7fa49807205ce4d355092ef5a8a18f56e8913cf4a201fbe287825b095693c21775610f3f81610f3a61136f565b611377565b6000600960008473ffffffffffffffffffffffffffffffffffffffff1673ffffffffffffffffffffffffffffffffffffffff168152602001908152602001600020819055505050565b6000600160009054906101000a900473ffffffffffffffffffffffffffffffffffffffff16905090565b600080600084815260200190815260200160002060000160008373ffffffffffffffffffffffffffffffffffffffff1673ffffffffffffffffffffffffffffffffffffffff16815260200190815260200160002060009054906101000a900460ff16905092915050565b60075481565b6000801b81565b7fa49807205ce4d355092ef5a8a18f56e8913cf4a201fbe287825b095693c2177561105b8161105661136f565b611377565b816005819055505050565b61106f8261084d565b6110808161107b61136f565b611377565b61108a83836114f4565b505050565b7fa49807205ce4d355092ef5a8a18f56e8913cf4a201fbe287825b095693c217756110c1816110bc61136f565b611377565b81600660016101000a81548160ff0219169083151502179055505050565b600660009054906101000a900460ff1681565b7fa49807205ce4d355092ef5a8a18f56e8913cf4a201fbe287825b095693c217756111248161111f61136f565b611377565b81600a6111319190611f7d565b8361113c9190611fc8565b600b81905550505050565b61114f61136f565b73ffffffffffffffffffffffffffffffffffffffff1661116d610f88565b73ffffffffffffffffffffffffffffffffffffffff16146111c3576040517f08c379a00000000000000000000000000000000000000000000000000000000081526004016111ba90612551565b60405180910390fd5b8073ffffffffffffffffffffffffffffffffffffffff166108fc479081150290604051600060405180830381858888f19350505050158015611209573d6000803e3d6000fd5b5050565b61121561136f565b73ffffffffffffffffffffffffffffffffffffffff16611233610f88565b73ffffffffffffffffffffffffffffffffffffffff1614611289576040517f08c379a000000000000000000000000000000000000000000000000000000000815260040161128090612551565b60405180910390fd5b600073ffffffffffffffffffffffffffffffffffffffff168173ffffffffffffffffffffffffffffffffffffffff1614156112f9576040517f08c379a00000000000000000000000000000000000000000000000000000000081526004016112f0906125e3565b60405180910390fd5b611302816116a3565b50565b60007f01ffc9a7000000000000000000000000000000000000000000000000000000007bffffffffffffffffffffffffffffffffffffffffffffffffffffffff1916827bffffffffffffffffffffffffffffffffffffffffffffffffffffffff1916149050919050565b600033905090565b6113818282610fb2565b611410576113a68173ffffffffffffffffffffffffffffffffffffffff166014611769565b6113b48360001c6020611769565b6040516020016113c5929190612715565b6040516020818303038152906040526040517f08c379a00000000000000000000000000000000000000000000000000000000081526004016114079190612799565b60405180910390fd5b5050565b61141e8282610fb2565b6114f057600160008084815260200190815260200160002060000160008373ffffffffffffffffffffffffffffffffffffffff1673ffffffffffffffffffffffffffffffffffffffff16815260200190815260200160002060006101000a81548160ff02191690831515021790555061149561136f565b73ffffffffffffffffffffffffffffffffffffffff168173ffffffffffffffffffffffffffffffffffffffff16837f2f8788117e7eff1d82e926ec794901d17c78024a50270940304540a733656f0d60405160405180910390a45b5050565b6114fe8282610fb2565b156115d157600080600084815260200190815260200160002060000160008373ffffffffffffffffffffffffffffffffffffffff1673ffffffffffffffffffffffffffffffffffffffff16815260200190815260200160002060006101000a81548160ff02191690831515021790555061157661136f565b73ffffffffffffffffffffffffffffffffffffffff168173ffffffffffffffffffffffffffffffffffffffff16837ff6391f5c32d9c69d2a47ea670b442974b53935d1edc7fd64eb21e047a839171b60405160405180910390a45b5050565b6000600554111561163257600554426115ee91906127bb565b600960008373ffffffffffffffffffffffffffffffffffffffff1673ffffffffffffffffffffffffffffffffffffffff168152602001908152602001600020819055505b600660019054906101000a900460ff16156116a0576001600860008373ffffffffffffffffffffffffffffffffffffffff1673ffffffffffffffffffffffffffffffffffffffff16815260200190815260200160002060006101000a81548160ff0219169083151502179055505b50565b6000600160009054906101000a900473ffffffffffffffffffffffffffffffffffffffff16905081600160006101000a81548173ffffffffffffffffffffffffffffffffffffffff021916908373ffffffffffffffffffffffffffffffffffffffff1602179055508173ffffffffffffffffffffffffffffffffffffffff168173ffffffffffffffffffffffffffffffffffffffff167f8be0079c531659141344cd1fd0a4f28419497f9722a3daafe3b4186f6b6457e060405160405180910390a35050565b60606000600283600261177c9190611fc8565b61178691906127bb565b67ffffffffffffffff81111561179f5761179e612811565b5b6040519080825280601f01601f1916602001820160405280156117d15781602001600182028036833780820191505090505b5090507f30000000000000000000000000000000000000000000000000000000000000008160008151811061180957611808612840565b5b60200101907effffffffffffffffffffffffffffffffffffffffffffffffffffffffffffff1916908160001a9053507f78000000000000000000000000000000000000000000000000000000000000008160018151811061186d5761186c612840565b5b60200101907effffffffffffffffffffffffffffffffffffffffffffffffffffffffffffff1916908160001a905350600060018460026118ad9190611fc8565b6118b791906127bb565b90505b6001811115611957577f3031323334353637383961626364656600000000000000000000000000000000600f8616601081106118f9576118f8612840565b5b1a60f81b8282815181106119105761190f612840565b5b60200101907effffffffffffffffffffffffffffffffffffffffffffffffffffffffffffff1916908160001a905350600485901c9450806119509061286f565b90506118ba565b506000841461199b576040517f08c379a0000000000000000000000000000000000000000000000000000000008152600401611992906128e5565b60405180910390fd5b8091505092915050565b600073ffffffffffffffffffffffffffffffffffffffff82169050919050565b60006119d0826119a5565b9050919050565b6119e0816119c5565b82525050565b6000819050919050565b6119f9816119e6565b82525050565b6000604082019050611a1460008301856119d7565b611a2160208301846119f0565b9392505050565b600080fd5b60007fffffffff0000000000000000000000000000000000000000000000000000000082169050919050565b611a6281611a2d565b8114611a6d57600080fd5b50565b600081359050611a7f81611a59565b92915050565b600060208284031215611a9b57611a9a611a28565b5b6000611aa984828501611a70565b91505092915050565b60008115159050919050565b611ac781611ab2565b82525050565b6000602082019050611ae26000830184611abe565b92915050565b6000602082019050611afd60008301846119f0565b92915050565b611b0c816119e6565b8114611b1757600080fd5b50565b600081359050611b2981611b03565b92915050565b60008060408385031215611b4657611b45611a28565b5b6000611b5485828601611b1a565b9250506020611b6585828601611b1a565b9150509250929050565b611b7881611ab2565b8114611b8357600080fd5b50565b600081359050611b9581611b6f565b92915050565b600060208284031215611bb157611bb0611a28565b5b6000611bbf84828501611b86565b91505092915050565b6000819050919050565b611bdb81611bc8565b8114611be657600080fd5b50565b600081359050611bf881611bd2565b92915050565b600060208284031215611c1457611c13611a28565b5b6000611c2284828501611be9565b91505092915050565b611c3481611bc8565b82525050565b6000602082019050611c4f6000830184611c2b565b92915050565b611c5e816119c5565b8114611c6957600080fd5b50565b600081359050611c7b81611c55565b92915050565b60008060408385031215611c9857611c97611a28565b5b6000611ca685828601611be9565b9250506020611cb785828601611c6c565b9150509250929050565b6000819050919050565b6000611ce6611ce1611cdc846119a5565b611cc1565b6119a5565b9050919050565b6000611cf882611ccb565b9050919050565b6000611d0a82611ced565b9050919050565b611d1a81611cff565b82525050565b6000602082019050611d356000830184611d11565b92915050565b6000611d46826119a5565b9050919050565b611d5681611d3b565b8114611d6157600080fd5b50565b600081359050611d7381611d4d565b92915050565b600060208284031215611d8f57611d8e611a28565b5b6000611d9d84828501611d64565b91505092915050565b600060208284031215611dbc57611dbb611a28565b5b6000611dca84828501611c6c565b91505092915050565b6000602082019050611de860008301846119d7565b92915050565b600060208284031215611e0457611e03611a28565b5b6000611e1284828501611b1a565b91505092915050565b7f4e487b7100000000000000000000000000000000000000000000000000000000600052601160045260246000fd5b60008160011c9050919050565b6000808291508390505b6001851115611ea157808604811115611e7d57611e7c611e1b565b5b6001851615611e8c5780820291505b8081029050611e9a85611e4a565b9450611e61565b94509492505050565b600082611eba5760019050611f76565b81611ec85760009050611f76565b8160018114611ede5760028114611ee857611f17565b6001915050611f76565b60ff841115611efa57611ef9611e1b565b5b8360020a915084821115611f1157611f10611e1b565b5b50611f76565b5060208310610133831016604e8410600b8410161715611f4c5782820a905083811115611f4757611f46611e1b565b5b611f76565b611f598484846001611e57565b92509050818404811115611f7057611f6f611e1b565b5b81810290505b9392505050565b6000611f88826119e6565b9150611f93836119e6565b9250611fc07fffffffffffffffffffffffffffffffffffffffffffffffffffffffffffffffff8484611eaa565b905092915050565b6000611fd3826119e6565b9150611fde836119e6565b9250817fffffffffffffffffffffffffffffffffffffffffffffffffffffffffffffffff048311821515161561201757612016611e1b565b5b828202905092915050565b600082825260208201905092915050565b7f416363657373436f6e74726f6c3a2063616e206f6e6c792072656e6f756e636560008201527f20726f6c657320666f722073656c660000000000000000000000000000000000602082015250565b600061208f602f83612022565b915061209a82612033565b604082019050919050565b600060208201905081810360008301526120be81612082565b9050919050565b7f4641554345545f44495341424c45440000000000000000000000000000000000600082015250565b60006120fb600f83612022565b9150612106826120c5565b602082019050919050565b6000602082019050818103600083015261212a816120ee565b9050919050565b7f4641554345545f44525900000000000000000000000000000000000000000000600082015250565b6000612167600a83612022565b915061217282612131565b602082019050919050565b600060208201905081810360008301526121968161215a565b9050919050565b7f53494e474c455f55534500000000000000000000000000000000000000000000600082015250565b60006121d3600a83612022565b91506121de8261219d565b602082019050919050565b60006020820190508181036000830152612202816121c6565b9050919050565b7f57414c4c45545f54494d454f5554000000000000000000000000000000000000600082015250565b600061223f600e83612022565b915061224a82612209565b602082019050919050565b6000602082019050818103600083015261226e81612232565b9050919050565b600061228082611ced565b9050919050565b61229081612275565b82525050565b60006020820190506122ab6000830184612287565b92915050565b6000815190506122c081611b03565b92915050565b6000602082840312156122dc576122db611a28565b5b60006122ea848285016122b1565b91505092915050565b7f4d495353494e475f46574542335f544f4b454e53000000000000000000000000600082015250565b6000612329601483612022565b9150612334826122f3565b602082019050919050565b600060208201905081810360008301526123588161231c565b9050919050565b7f484f4c4445525f4c494d49540000000000000000000000000000000000000000600082015250565b6000612395600c83612022565b91506123a08261235f565b602082019050919050565b600060208201905081810360008301526123c481612388565b9050919050565b600081905092915050565b50565b60006123e66000836123cb565b91506123f1826123d6565b600082019050919050565b6000612407826123d9565b9150819050919050565b7f54585f4641494c55524500000000000000000000000000000000000000000000600082015250565b6000612447600a83612022565b915061245282612411565b602082019050919050565b600060208201905081810360008301526124768161243a565b9050919050565b7f4d41544943000000000000000000000000000000000000000000000000000000600082015250565b60006124b3600583612022565b91506124be8261247d565b602082019050919050565b60006060820190506124de60008301856119d7565b81810360208301526124ef816124a6565b90506124fe60408301846119f0565b9392505050565b7f4f776e61626c653a2063616c6c6572206973206e6f7420746865206f776e6572600082015250565b600061253b602083612022565b915061254682612505565b602082019050919050565b6000602082019050818103600083015261256a8161252e565b9050919050565b7f4f776e61626c653a206e6577206f776e657220697320746865207a65726f206160008201527f6464726573730000000000000000000000000000000000000000000000000000602082015250565b60006125cd602683612022565b91506125d882612571565b604082019050919050565b600060208201905081810360008301526125fc816125c0565b9050919050565b600081905092915050565b7f416363657373436f6e74726f6c3a206163636f756e7420000000000000000000600082015250565b6000612644601783612603565b915061264f8261260e565b601782019050919050565b600081519050919050565b60005b83811015612683578082015181840152602081019050612668565b83811115612692576000848401525b50505050565b60006126a38261265a565b6126ad8185612603565b93506126bd818560208601612665565b80840191505092915050565b7f206973206d697373696e6720726f6c6520000000000000000000000000000000600082015250565b60006126ff601183612603565b915061270a826126c9565b601182019050919050565b600061272082612637565b915061272c8285612698565b9150612737826126f2565b91506127438284612698565b91508190509392505050565b6000601f19601f8301169050919050565b600061276b8261265a565b6127758185612022565b9350612785818560208601612665565b61278e8161274f565b840191505092915050565b600060208201905081810360008301526127b38184612760565b905092915050565b60006127c6826119e6565b91506127d1836119e6565b9250827fffffffffffffffffffffffffffffffffffffffffffffffffffffffffffffffff0382111561280657612805611e1b565b5b828201905092915050565b7f4e487b7100000000000000000000000000000000000000000000000000000000600052604160045260246000fd5b7f4e487b7100000000000000000000000000000000000000000000000000000000600052603260045260246000fd5b600061287a826119e6565b9150600082141561288e5761288d611e1b565b5b600182039050919050565b7f537472696e67733a20686578206c656e67746820696e73756666696369656e74600082015250565b60006128cf602083612022565b91506128da82612899565b602082019050919050565b600060208201905081810360008301526128fe816128c2565b905091905056fea2646970667358221220ce6859824c97949a5a41f944e9da3fdd8ea207a01aca7fd8eb147d49cc4a2c7464736f6c63430008090033",
  "linkReferences": {},
  "deployedLinkReferences": {}
}