{
  "_format": "hh-sol-artifact-1",
  "contractName": "Fweb3TokenFaucet",
  "sourceName": "contracts/Fweb3TokenFaucet.sol",
  "abi": [
    {
      "inputs": [
        {
          "internalType": "contract ERC20",
          "name": "_fweb3Token",
          "type": "address"
        },
        {
          "internalType": "uint256",
          "name": "_dripBase",
          "type": "uint256"
        },
        {
          "internalType": "uint256",
          "name": "_decimals",
          "type": "uint256"
        },
        {
          "internalType": "uint256",
          "name": "_timeout",
          "type": "uint256"
        },
        {
          "internalType": "bool",
          "name": "_singleUse",
          "type": "bool"
        },
        {
          "internalType": "uint256",
          "name": "_holderLimitFweb3",
          "type": "uint256"
        }
      ],
      "stateMutability": "nonpayable",
      "type": "constructor"
    },
    {
      "anonymous": false,
      "inputs": [
        {
          "indexed": false,
          "internalType": "address",
          "name": "",
          "type": "address"
        },
        {
          "indexed": false,
          "internalType": "string",
          "name": "",
          "type": "string"
        },
        {
          "indexed": false,
          "internalType": "uint256",
          "name": "",
          "type": "uint256"
        }
      ],
      "name": "Dripped",
      "type": "event"
    },
    {
      "anonymous": false,
      "inputs": [
        {
          "indexed": true,
          "internalType": "address",
          "name": "previousOwner",
          "type": "address"
        },
        {
          "indexed": true,
          "internalType": "address",
          "name": "newOwner",
          "type": "address"
        }
      ],
      "name": "OwnershipTransferred",
      "type": "event"
    },
    {
      "anonymous": false,
      "inputs": [
        {
          "indexed": false,
          "internalType": "address",
          "name": "",
          "type": "address"
        },
        {
          "indexed": false,
          "internalType": "uint256",
          "name": "",
          "type": "uint256"
        }
      ],
      "name": "ReceivedDeposit",
      "type": "event"
    },
    {
      "anonymous": false,
      "inputs": [
        {
          "indexed": false,
          "internalType": "address",
          "name": "",
          "type": "address"
        },
        {
          "indexed": false,
          "internalType": "uint256",
          "name": "",
          "type": "uint256"
        }
      ],
      "name": "ReceivedFweb3Deposit",
      "type": "event"
    },
    {
      "anonymous": false,
      "inputs": [
        {
          "indexed": true,
          "internalType": "bytes32",
          "name": "role",
          "type": "bytes32"
        },
        {
          "indexed": true,
          "internalType": "bytes32",
          "name": "previousAdminRole",
          "type": "bytes32"
        },
        {
          "indexed": true,
          "internalType": "bytes32",
          "name": "newAdminRole",
          "type": "bytes32"
        }
      ],
      "name": "RoleAdminChanged",
      "type": "event"
    },
    {
      "anonymous": false,
      "inputs": [
        {
          "indexed": true,
          "internalType": "bytes32",
          "name": "role",
          "type": "bytes32"
        },
        {
          "indexed": true,
          "internalType": "address",
          "name": "account",
          "type": "address"
        },
        {
          "indexed": true,
          "internalType": "address",
          "name": "sender",
          "type": "address"
        }
      ],
      "name": "RoleGranted",
      "type": "event"
    },
    {
      "anonymous": false,
      "inputs": [
        {
          "indexed": true,
          "internalType": "bytes32",
          "name": "role",
          "type": "bytes32"
        },
        {
          "indexed": true,
          "internalType": "address",
          "name": "account",
          "type": "address"
        },
        {
          "indexed": true,
          "internalType": "address",
          "name": "sender",
          "type": "address"
        }
      ],
      "name": "RoleRevoked",
      "type": "event"
    },
    {
      "inputs": [],
      "name": "ADMIN_ROLE",
      "outputs": [
        {
          "internalType": "bytes32",
          "name": "",
          "type": "bytes32"
        }
      ],
      "stateMutability": "view",
      "type": "function"
    },
    {
      "inputs": [],
      "name": "DEFAULT_ADMIN_ROLE",
      "outputs": [
        {
          "internalType": "bytes32",
          "name": "",
          "type": "bytes32"
        }
      ],
      "stateMutability": "view",
      "type": "function"
    },
    {
      "inputs": [
        {
          "internalType": "address",
          "name": "forWhom",
          "type": "address"
        }
      ],
      "name": "clearTimeoutForAddress",
      "outputs": [],
      "stateMutability": "nonpayable",
      "type": "function"
    },
    {
      "inputs": [],
      "name": "decimals",
      "outputs": [
        {
          "internalType": "uint256",
          "name": "",
          "type": "uint256"
        }
      ],
      "stateMutability": "view",
      "type": "function"
    },
    {
      "inputs": [
        {
          "internalType": "address payable",
          "name": "to",
          "type": "address"
        }
      ],
      "name": "drain",
      "outputs": [],
      "stateMutability": "nonpayable",
      "type": "function"
    },
    {
      "inputs": [
        {
          "internalType": "address payable",
          "name": "to",
          "type": "address"
        }
      ],
      "name": "drainFweb3",
      "outputs": [],
      "stateMutability": "nonpayable",
      "type": "function"
    },
    {
      "inputs": [
        {
          "internalType": "address payable",
          "name": "to",
          "type": "address"
        }
      ],
      "name": "drip",
      "outputs": [],
      "stateMutability": "nonpayable",
      "type": "function"
    },
    {
      "inputs": [],
      "name": "dripAmount",
      "outputs": [
        {
          "internalType": "uint256",
          "name": "",
          "type": "uint256"
        }
      ],
      "stateMutability": "view",
      "type": "function"
    },
    {
      "inputs": [],
      "name": "dripBase",
      "outputs": [
        {
          "internalType": "uint256",
          "name": "",
          "type": "uint256"
        }
      ],
      "stateMutability": "view",
      "type": "function"
    },
    {
      "inputs": [],
      "name": "faucetDisabled",
      "outputs": [
        {
          "internalType": "bool",
          "name": "",
          "type": "bool"
        }
      ],
      "stateMutability": "view",
      "type": "function"
    },
    {
      "inputs": [],
      "name": "fweb3Token",
      "outputs": [
        {
          "internalType": "contract ERC20",
          "name": "",
          "type": "address"
        }
      ],
      "stateMutability": "view",
      "type": "function"
    },
    {
      "inputs": [
        {
          "internalType": "bytes32",
          "name": "role",
          "type": "bytes32"
        }
      ],
      "name": "getRoleAdmin",
      "outputs": [
        {
          "internalType": "bytes32",
          "name": "",
          "type": "bytes32"
        }
      ],
      "stateMutability": "view",
      "type": "function"
    },
    {
      "inputs": [
        {
          "internalType": "bytes32",
          "name": "role",
          "type": "bytes32"
        },
        {
          "internalType": "address",
          "name": "account",
          "type": "address"
        }
      ],
      "name": "grantRole",
      "outputs": [],
      "stateMutability": "nonpayable",
      "type": "function"
    },
    {
      "inputs": [
        {
          "internalType": "bytes32",
          "name": "role",
          "type": "bytes32"
        },
        {
          "internalType": "address",
          "name": "account",
          "type": "address"
        }
      ],
      "name": "hasRole",
      "outputs": [
        {
          "internalType": "bool",
          "name": "",
          "type": "bool"
        }
      ],
      "stateMutability": "view",
      "type": "function"
    },
    {
      "inputs": [],
      "name": "holderLimit",
      "outputs": [
        {
          "internalType": "uint256",
          "name": "",
          "type": "uint256"
        }
      ],
      "stateMutability": "view",
      "type": "function"
    },
    {
      "inputs": [],
      "name": "owner",
      "outputs": [
        {
          "internalType": "address",
          "name": "",
          "type": "address"
        }
      ],
      "stateMutability": "view",
      "type": "function"
    },
    {
      "inputs": [],
      "name": "renounceOwnership",
      "outputs": [],
      "stateMutability": "nonpayable",
      "type": "function"
    },
    {
      "inputs": [
        {
          "internalType": "bytes32",
          "name": "role",
          "type": "bytes32"
        },
        {
          "internalType": "address",
          "name": "account",
          "type": "address"
        }
      ],
      "name": "renounceRole",
      "outputs": [],
      "stateMutability": "nonpayable",
      "type": "function"
    },
    {
      "inputs": [
        {
          "internalType": "bytes32",
          "name": "role",
          "type": "bytes32"
        },
        {
          "internalType": "address",
          "name": "account",
          "type": "address"
        }
      ],
      "name": "revokeRole",
      "outputs": [],
      "stateMutability": "nonpayable",
      "type": "function"
    },
    {
      "inputs": [
        {
          "internalType": "bool",
          "name": "shouldBeDisabled",
          "type": "bool"
        }
      ],
      "name": "setDisableFaucet",
      "outputs": [],
      "stateMutability": "nonpayable",
      "type": "function"
    },
    {
      "inputs": [
        {
          "internalType": "uint256",
          "name": "_dripbase",
          "type": "uint256"
        },
        {
          "internalType": "uint256",
          "name": "_decimals",
          "type": "uint256"
        }
      ],
      "name": "setDripAmount",
      "outputs": [],
      "stateMutability": "nonpayable",
      "type": "function"
    },
    {
      "inputs": [
        {
          "internalType": "uint256",
          "name": "_base",
          "type": "uint256"
        },
        {
          "internalType": "uint256",
          "name": "_decimals",
          "type": "uint256"
        }
      ],
      "name": "setHolderLimit",
      "outputs": [],
      "stateMutability": "nonpayable",
      "type": "function"
    },
    {
      "inputs": [
        {
          "internalType": "bool",
          "name": "shouldBeSingleUse",
          "type": "bool"
        }
      ],
      "name": "setSingleUse",
      "outputs": [],
      "stateMutability": "nonpayable",
      "type": "function"
    },
    {
      "inputs": [
        {
          "internalType": "uint256",
          "name": "newTimeout",
          "type": "uint256"
        }
      ],
      "name": "setTimeout",
      "outputs": [],
      "stateMutability": "nonpayable",
      "type": "function"
    },
    {
      "inputs": [],
      "name": "singleUse",
      "outputs": [
        {
          "internalType": "bool",
          "name": "",
          "type": "bool"
        }
      ],
      "stateMutability": "view",
      "type": "function"
    },
    {
      "inputs": [
        {
          "internalType": "bytes4",
          "name": "interfaceId",
          "type": "bytes4"
        }
      ],
      "name": "supportsInterface",
      "outputs": [
        {
          "internalType": "bool",
          "name": "",
          "type": "bool"
        }
      ],
      "stateMutability": "view",
      "type": "function"
    },
    {
      "inputs": [],
      "name": "timeout",
      "outputs": [
        {
          "internalType": "uint256",
          "name": "",
          "type": "uint256"
        }
      ],
      "stateMutability": "view",
      "type": "function"
    },
    {
      "inputs": [
        {
          "internalType": "address",
          "name": "newOwner",
          "type": "address"
        }
      ],
      "name": "transferOwnership",
      "outputs": [],
      "stateMutability": "nonpayable",
      "type": "function"
    },
    {
      "stateMutability": "payable",
      "type": "receive"
    }
  ],
  "bytecode": "0x60806040523480156200001157600080fd5b50604051620032ae380380620032ae83398181016040528101906200003791906200048d565b620000576200004b6200015860201b60201c565b6200016060201b60201c565b6200006c6000801b336200022660201b60201c565b6200009e7fa49807205ce4d355092ef5a8a18f56e8913cf4a201fbe287825b095693c21775336200022660201b60201c565b85600a60006101000a81548173ffffffffffffffffffffffffffffffffffffffff021916908373ffffffffffffffffffffffffffffffffffffffff16021790555083600a620000ee9190620006ac565b85620000fb9190620006fd565b60028190555084600381905550836004819055508260058190555081600660016101000a81548160ff021916908315150217905550670de0b6b3a764000081620001469190620006fd565b6007819055505050505050506200075e565b600033905090565b6000600160009054906101000a900473ffffffffffffffffffffffffffffffffffffffff16905081600160006101000a81548173ffffffffffffffffffffffffffffffffffffffff021916908373ffffffffffffffffffffffffffffffffffffffff1602179055508173ffffffffffffffffffffffffffffffffffffffff168173ffffffffffffffffffffffffffffffffffffffff167f8be0079c531659141344cd1fd0a4f28419497f9722a3daafe3b4186f6b6457e060405160405180910390a35050565b6200023882826200023c60201b60201c565b5050565b6200024e82826200032d60201b60201c565b6200032957600160008084815260200190815260200160002060000160008373ffffffffffffffffffffffffffffffffffffffff1673ffffffffffffffffffffffffffffffffffffffff16815260200190815260200160002060006101000a81548160ff021916908315150217905550620002ce6200015860201b60201c565b73ffffffffffffffffffffffffffffffffffffffff168173ffffffffffffffffffffffffffffffffffffffff16837f2f8788117e7eff1d82e926ec794901d17c78024a50270940304540a733656f0d60405160405180910390a45b5050565b600080600084815260200190815260200160002060000160008373ffffffffffffffffffffffffffffffffffffffff1673ffffffffffffffffffffffffffffffffffffffff16815260200190815260200160002060009054906101000a900460ff16905092915050565b600080fd5b600073ffffffffffffffffffffffffffffffffffffffff82169050919050565b6000620003c9826200039c565b9050919050565b6000620003dd82620003bc565b9050919050565b620003ef81620003d0565b8114620003fb57600080fd5b50565b6000815190506200040f81620003e4565b92915050565b6000819050919050565b6200042a8162000415565b81146200043657600080fd5b50565b6000815190506200044a816200041f565b92915050565b60008115159050919050565b620004678162000450565b81146200047357600080fd5b50565b60008151905062000487816200045c565b92915050565b60008060008060008060c08789031215620004ad57620004ac62000397565b5b6000620004bd89828a01620003fe565b9650506020620004d089828a0162000439565b9550506040620004e389828a0162000439565b9450506060620004f689828a0162000439565b93505060806200050989828a0162000476565b92505060a06200051c89828a0162000439565b9150509295509295509295565b7f4e487b7100000000000000000000000000000000000000000000000000000000600052601160045260246000fd5b60008160011c9050919050565b6000808291508390505b6001851115620005b7578086048111156200058f576200058e62000529565b5b60018516156200059f5780820291505b8081029050620005af8562000558565b94506200056f565b94509492505050565b600082620005d25760019050620006a5565b81620005e25760009050620006a5565b8160018114620005fb576002811462000606576200063c565b6001915050620006a5565b60ff8411156200061b576200061a62000529565b5b8360020a91508482111562000635576200063462000529565b5b50620006a5565b5060208310610133831016604e8410600b8410161715620006765782820a90508381111562000670576200066f62000529565b5b620006a5565b62000685848484600162000565565b925090508184048111156200069f576200069e62000529565b5b81810290505b9392505050565b6000620006b98262000415565b9150620006c68362000415565b9250620006f57fffffffffffffffffffffffffffffffffffffffffffffffffffffffffffffffff8484620005c0565b905092915050565b60006200070a8262000415565b9150620007178362000415565b9250817fffffffffffffffffffffffffffffffffffffffffffffffffffffffffffffffff048311821515161562000753576200075262000529565b5b828202905092915050565b612b40806200076e6000396000f3fe6080604052600436106101bb5760003560e01c806375b238fc116100ec578063c58a34cc1161008a578063e928890c11610064578063e928890c14610616578063ec53241814610641578063ece531321461066a578063f2fde38b14610693576101fb565b8063c58a34cc1461059b578063d547741f146105c4578063e28c8172146105ed576101fb565b80638da5cb5b116100c65780638da5cb5b146104dd57806391d14854146105085780639811572c14610545578063a217fddf14610570576101fb565b806375b238fc1461045e57806376e1032a1461048957806386c10c0a146104b4576101fb565b806336568abe116101595780636c40bc15116101335780636c40bc15146103c85780636f7bd002146103f157806370dea79a1461041c578063715018a614610447576101fb565b806336568abe1461034b578063393c47341461037457806367a5cd061461039f576101fb565b8063248a9ca311610195578063248a9ca31461028f5780632f2ff15d146102cc578063313ce567146102f557806335a1529b14610320576101fb565b806301ffc9a71461020057806306464e561461023d5780631d691fb514610266576101fb565b366101fb577f645431dbae366bae0d8be5812a6298ad69f5604842a40a1bae301a143386865433346040516101f1929190611bdf565b60405180910390a1005b600080fd5b34801561020c57600080fd5b5061022760048036038101906102229190611c65565b6106bc565b6040516102349190611cad565b60405180910390f35b34801561024957600080fd5b50610264600480360381019061025f9190611cf4565b610736565b005b34801561027257600080fd5b5061028d60048036038101906102889190611d60565b61078b565b005b34801561029b57600080fd5b506102b660048036038101906102b19190611dc3565b6107db565b6040516102c39190611dff565b60405180910390f35b3480156102d857600080fd5b506102f360048036038101906102ee9190611e46565b6107fa565b005b34801561030157600080fd5b5061030a610823565b6040516103179190611e86565b60405180910390f35b34801561032c57600080fd5b50610335610829565b6040516103429190611e86565b60405180910390f35b34801561035757600080fd5b50610372600480360381019061036d9190611e46565b61082f565b005b34801561038057600080fd5b506103896108b2565b6040516103969190611e86565b60405180910390f35b3480156103ab57600080fd5b506103c660048036038101906103c19190611edf565b6108b8565b005b3480156103d457600080fd5b506103ef60048036038101906103ea9190611cf4565b610dd1565b005b3480156103fd57600080fd5b50610406610e34565b6040516104139190611f6b565b60405180910390f35b34801561042857600080fd5b50610431610e5a565b60405161043e9190611e86565b60405180910390f35b34801561045357600080fd5b5061045c610e60565b005b34801561046a57600080fd5b50610473610ee8565b6040516104809190611dff565b60405180910390f35b34801561049557600080fd5b5061049e610f0c565b6040516104ab9190611cad565b60405180910390f35b3480156104c057600080fd5b506104db60048036038101906104d69190611f86565b610f1f565b005b3480156104e957600080fd5b506104f2610f9a565b6040516104ff9190611fb3565b60405180910390f35b34801561051457600080fd5b5061052f600480360381019061052a9190611e46565b610fc4565b60405161053c9190611cad565b60405180910390f35b34801561055157600080fd5b5061055a61102e565b6040516105679190611e86565b60405180910390f35b34801561057c57600080fd5b50610585611034565b6040516105929190611dff565b60405180910390f35b3480156105a757600080fd5b506105c260048036038101906105bd9190611fce565b61103b565b005b3480156105d057600080fd5b506105eb60048036038101906105e69190611e46565b611078565b005b3480156105f957600080fd5b50610614600480360381019061060f9190611d60565b6110a1565b005b34801561062257600080fd5b5061062b6110f1565b6040516106389190611cad565b60405180910390f35b34801561064d57600080fd5b5061066860048036038101906106639190611edf565b611104565b005b34801561067657600080fd5b50610691600480360381019061068c9190611edf565b611327565b005b34801561069f57600080fd5b506106ba60048036038101906106b59190611f86565b6113ed565b005b60007f7965db0b000000000000000000000000000000000000000000000000000000007bffffffffffffffffffffffffffffffffffffffffffffffffffffffff1916827bffffffffffffffffffffffffffffffffffffffffffffffffffffffff1916148061072f575061072e826114e5565b5b9050919050565b7fa49807205ce4d355092ef5a8a18f56e8913cf4a201fbe287825b095693c217756107688161076361154f565b611557565b81600a610775919061215d565b8361078091906121a8565b600781905550505050565b7fa49807205ce4d355092ef5a8a18f56e8913cf4a201fbe287825b095693c217756107bd816107b861154f565b611557565b81600660006101000a81548160ff0219169083151502179055505050565b6000806000838152602001908152602001600020600101549050919050565b610803826107db565b6108148161080f61154f565b611557565b61081e83836115f4565b505050565b60045481565b60025481565b61083761154f565b73ffffffffffffffffffffffffffffffffffffffff168173ffffffffffffffffffffffffffffffffffffffff16146108a4576040517f08c379a000000000000000000000000000000000000000000000000000000000815260040161089b90612285565b60405180910390fd5b6108ae82826116d4565b5050565b60035481565b80600660009054906101000a900460ff1615610909576040517f08c379a0000000000000000000000000000000000000000000000000000000008152600401610900906122f1565b60405180910390fd5b6402540be400471015610951576040517f08c379a00000000000000000000000000000000000000000000000000000000081526004016109489061235d565b60405180910390fd5b600660019054906101000a900460ff16156109f457600860008273ffffffffffffffffffffffffffffffffffffffff1673ffffffffffffffffffffffffffffffffffffffff16815260200190815260200160002060009054906101000a900460ff16156109f3576040517f08c379a00000000000000000000000000000000000000000000000000000000081526004016109ea906123c9565b60405180910390fd5b5b60006005541115610a825742600960008373ffffffffffffffffffffffffffffffffffffffff1673ffffffffffffffffffffffffffffffffffffffff168152602001908152602001600020541115610a81576040517f08c379a0000000000000000000000000000000000000000000000000000000008152600401610a7890612435565b60405180910390fd5b5b7fa49807205ce4d355092ef5a8a18f56e8913cf4a201fbe287825b095693c21775610ab481610aaf61154f565b611557565b600254600a60009054906101000a900473ffffffffffffffffffffffffffffffffffffffff1673ffffffffffffffffffffffffffffffffffffffff166370a08231306040518263ffffffff1660e01b8152600401610b129190611fb3565b60206040518083038186803b158015610b2a57600080fd5b505afa158015610b3e573d6000803e3d6000fd5b505050506040513d601f19601f82011682018060405250810190610b62919061246a565b1015610ba3576040517f08c379a0000000000000000000000000000000000000000000000000000000008152600401610b9a906124e3565b60405180910390fd5b600754600a60009054906101000a900473ffffffffffffffffffffffffffffffffffffffff1673ffffffffffffffffffffffffffffffffffffffff166370a08231856040518263ffffffff1660e01b8152600401610c019190612524565b60206040518083038186803b158015610c1957600080fd5b505afa158015610c2d573d6000803e3d6000fd5b505050506040513d601f19601f82011682018060405250810190610c51919061246a565b1115610c92576040517f08c379a0000000000000000000000000000000000000000000000000000000008152600401610c899061258b565b60405180910390fd5b6000600a60009054906101000a900473ffffffffffffffffffffffffffffffffffffffff1673ffffffffffffffffffffffffffffffffffffffff1663a9059cbb856002546040518363ffffffff1660e01b8152600401610cf39291906125ab565b602060405180830381600087803b158015610d0d57600080fd5b505af1158015610d21573d6000803e3d6000fd5b505050506040513d601f19601f82011682018060405250810190610d4591906125e9565b905080610d87576040517f08c379a0000000000000000000000000000000000000000000000000000000008152600401610d7e90612662565b60405180910390fd5b610d90846117b5565b7f5c17f5353b06dcfd2dc264e541fbcef1696efb5f704f1ca75eb20af054eab5ee33600254604051610dc39291906126ce565b60405180910390a150505050565b7fa49807205ce4d355092ef5a8a18f56e8913cf4a201fbe287825b095693c21775610e0381610dfe61154f565b611557565b816004819055508260038190555081600a610e1e919061215d565b83610e2991906121a8565b600281905550505050565b600a60009054906101000a900473ffffffffffffffffffffffffffffffffffffffff1681565b60055481565b610e6861154f565b73ffffffffffffffffffffffffffffffffffffffff16610e86610f9a565b73ffffffffffffffffffffffffffffffffffffffff1614610edc576040517f08c379a0000000000000000000000000000000000000000000000000000000008152600401610ed390612756565b60405180910390fd5b610ee66000611883565b565b7fa49807205ce4d355092ef5a8a18f56e8913cf4a201fbe287825b095693c2177581565b600660019054906101000a900460ff1681565b7fa49807205ce4d355092ef5a8a18f56e8913cf4a201fbe287825b095693c21775610f5181610f4c61154f565b611557565b6000600960008473ffffffffffffffffffffffffffffffffffffffff1673ffffffffffffffffffffffffffffffffffffffff168152602001908152602001600020819055505050565b6000600160009054906101000a900473ffffffffffffffffffffffffffffffffffffffff16905090565b600080600084815260200190815260200160002060000160008373ffffffffffffffffffffffffffffffffffffffff1673ffffffffffffffffffffffffffffffffffffffff16815260200190815260200160002060009054906101000a900460ff16905092915050565b60075481565b6000801b81565b7fa49807205ce4d355092ef5a8a18f56e8913cf4a201fbe287825b095693c2177561106d8161106861154f565b611557565b816005819055505050565b611081826107db565b6110928161108d61154f565b611557565b61109c83836116d4565b505050565b7fa49807205ce4d355092ef5a8a18f56e8913cf4a201fbe287825b095693c217756110d3816110ce61154f565b611557565b81600660016101000a81548160ff0219169083151502179055505050565b600660009054906101000a900460ff1681565b61110c61154f565b73ffffffffffffffffffffffffffffffffffffffff1661112a610f9a565b73ffffffffffffffffffffffffffffffffffffffff1614611180576040517f08c379a000000000000000000000000000000000000000000000000000000000815260040161117790612756565b60405180910390fd5b6000600a60009054906101000a900473ffffffffffffffffffffffffffffffffffffffff1673ffffffffffffffffffffffffffffffffffffffff166370a08231306040518263ffffffff1660e01b81526004016111dd9190611fb3565b60206040518083038186803b1580156111f557600080fd5b505afa158015611209573d6000803e3d6000fd5b505050506040513d601f19601f8201168201806040525081019061122d919061246a565b90506000600a60009054906101000a900473ffffffffffffffffffffffffffffffffffffffff1673ffffffffffffffffffffffffffffffffffffffff1663a9059cbb84846040518363ffffffff1660e01b815260040161128e9291906125ab565b602060405180830381600087803b1580156112a857600080fd5b505af11580156112bc573d6000803e3d6000fd5b505050506040513d601f19601f820116820180604052508101906112e091906125e9565b905080611322576040517f08c379a000000000000000000000000000000000000000000000000000000000815260040161131990612662565b60405180910390fd5b505050565b61132f61154f565b73ffffffffffffffffffffffffffffffffffffffff1661134d610f9a565b73ffffffffffffffffffffffffffffffffffffffff16146113a3576040517f08c379a000000000000000000000000000000000000000000000000000000000815260040161139a90612756565b60405180910390fd5b8073ffffffffffffffffffffffffffffffffffffffff166108fc479081150290604051600060405180830381858888f193505050501580156113e9573d6000803e3d6000fd5b5050565b6113f561154f565b73ffffffffffffffffffffffffffffffffffffffff16611413610f9a565b73ffffffffffffffffffffffffffffffffffffffff1614611469576040517f08c379a000000000000000000000000000000000000000000000000000000000815260040161146090612756565b60405180910390fd5b600073ffffffffffffffffffffffffffffffffffffffff168173ffffffffffffffffffffffffffffffffffffffff1614156114d9576040517f08c379a00000000000000000000000000000000000000000000000000000000081526004016114d0906127e8565b60405180910390fd5b6114e281611883565b50565b60007f01ffc9a7000000000000000000000000000000000000000000000000000000007bffffffffffffffffffffffffffffffffffffffffffffffffffffffff1916827bffffffffffffffffffffffffffffffffffffffffffffffffffffffff1916149050919050565b600033905090565b6115618282610fc4565b6115f0576115868173ffffffffffffffffffffffffffffffffffffffff166014611949565b6115948360001c6020611949565b6040516020016115a592919061291a565b6040516020818303038152906040526040517f08c379a00000000000000000000000000000000000000000000000000000000081526004016115e7919061299e565b60405180910390fd5b5050565b6115fe8282610fc4565b6116d057600160008084815260200190815260200160002060000160008373ffffffffffffffffffffffffffffffffffffffff1673ffffffffffffffffffffffffffffffffffffffff16815260200190815260200160002060006101000a81548160ff02191690831515021790555061167561154f565b73ffffffffffffffffffffffffffffffffffffffff168173ffffffffffffffffffffffffffffffffffffffff16837f2f8788117e7eff1d82e926ec794901d17c78024a50270940304540a733656f0d60405160405180910390a45b5050565b6116de8282610fc4565b156117b157600080600084815260200190815260200160002060000160008373ffffffffffffffffffffffffffffffffffffffff1673ffffffffffffffffffffffffffffffffffffffff16815260200190815260200160002060006101000a81548160ff02191690831515021790555061175661154f565b73ffffffffffffffffffffffffffffffffffffffff168173ffffffffffffffffffffffffffffffffffffffff16837ff6391f5c32d9c69d2a47ea670b442974b53935d1edc7fd64eb21e047a839171b60405160405180910390a45b5050565b6000600554111561181257600554426117ce91906129c0565b600960008373ffffffffffffffffffffffffffffffffffffffff1673ffffffffffffffffffffffffffffffffffffffff168152602001908152602001600020819055505b600660019054906101000a900460ff1615611880576001600860008373ffffffffffffffffffffffffffffffffffffffff1673ffffffffffffffffffffffffffffffffffffffff16815260200190815260200160002060006101000a81548160ff0219169083151502179055505b50565b6000600160009054906101000a900473ffffffffffffffffffffffffffffffffffffffff16905081600160006101000a81548173ffffffffffffffffffffffffffffffffffffffff021916908373ffffffffffffffffffffffffffffffffffffffff1602179055508173ffffffffffffffffffffffffffffffffffffffff168173ffffffffffffffffffffffffffffffffffffffff167f8be0079c531659141344cd1fd0a4f28419497f9722a3daafe3b4186f6b6457e060405160405180910390a35050565b60606000600283600261195c91906121a8565b61196691906129c0565b67ffffffffffffffff81111561197f5761197e612a16565b5b6040519080825280601f01601f1916602001820160405280156119b15781602001600182028036833780820191505090505b5090507f3000000000000000000000000000000000000000000000000000000000000000816000815181106119e9576119e8612a45565b5b60200101907effffffffffffffffffffffffffffffffffffffffffffffffffffffffffffff1916908160001a9053507f780000000000000000000000000000000000000000000000000000000000000081600181518110611a4d57611a4c612a45565b5b60200101907effffffffffffffffffffffffffffffffffffffffffffffffffffffffffffff1916908160001a90535060006001846002611a8d91906121a8565b611a9791906129c0565b90505b6001811115611b37577f3031323334353637383961626364656600000000000000000000000000000000600f861660108110611ad957611ad8612a45565b5b1a60f81b828281518110611af057611aef612a45565b5b60200101907effffffffffffffffffffffffffffffffffffffffffffffffffffffffffffff1916908160001a905350600485901c945080611b3090612a74565b9050611a9a565b5060008414611b7b576040517f08c379a0000000000000000000000000000000000000000000000000000000008152600401611b7290612aea565b60405180910390fd5b8091505092915050565b600073ffffffffffffffffffffffffffffffffffffffff82169050919050565b6000611bb082611b85565b9050919050565b611bc081611ba5565b82525050565b6000819050919050565b611bd981611bc6565b82525050565b6000604082019050611bf46000830185611bb7565b611c016020830184611bd0565b9392505050565b600080fd5b60007fffffffff0000000000000000000000000000000000000000000000000000000082169050919050565b611c4281611c0d565b8114611c4d57600080fd5b50565b600081359050611c5f81611c39565b92915050565b600060208284031215611c7b57611c7a611c08565b5b6000611c8984828501611c50565b91505092915050565b60008115159050919050565b611ca781611c92565b82525050565b6000602082019050611cc26000830184611c9e565b92915050565b611cd181611bc6565b8114611cdc57600080fd5b50565b600081359050611cee81611cc8565b92915050565b60008060408385031215611d0b57611d0a611c08565b5b6000611d1985828601611cdf565b9250506020611d2a85828601611cdf565b9150509250929050565b611d3d81611c92565b8114611d4857600080fd5b50565b600081359050611d5a81611d34565b92915050565b600060208284031215611d7657611d75611c08565b5b6000611d8484828501611d4b565b91505092915050565b6000819050919050565b611da081611d8d565b8114611dab57600080fd5b50565b600081359050611dbd81611d97565b92915050565b600060208284031215611dd957611dd8611c08565b5b6000611de784828501611dae565b91505092915050565b611df981611d8d565b82525050565b6000602082019050611e146000830184611df0565b92915050565b611e2381611ba5565b8114611e2e57600080fd5b50565b600081359050611e4081611e1a565b92915050565b60008060408385031215611e5d57611e5c611c08565b5b6000611e6b85828601611dae565b9250506020611e7c85828601611e31565b9150509250929050565b6000602082019050611e9b6000830184611bd0565b92915050565b6000611eac82611b85565b9050919050565b611ebc81611ea1565b8114611ec757600080fd5b50565b600081359050611ed981611eb3565b92915050565b600060208284031215611ef557611ef4611c08565b5b6000611f0384828501611eca565b91505092915050565b6000819050919050565b6000611f31611f2c611f2784611b85565b611f0c565b611b85565b9050919050565b6000611f4382611f16565b9050919050565b6000611f5582611f38565b9050919050565b611f6581611f4a565b82525050565b6000602082019050611f806000830184611f5c565b92915050565b600060208284031215611f9c57611f9b611c08565b5b6000611faa84828501611e31565b91505092915050565b6000602082019050611fc86000830184611bb7565b92915050565b600060208284031215611fe457611fe3611c08565b5b6000611ff284828501611cdf565b91505092915050565b7f4e487b7100000000000000000000000000000000000000000000000000000000600052601160045260246000fd5b60008160011c9050919050565b6000808291508390505b60018511156120815780860481111561205d5761205c611ffb565b5b600185161561206c5780820291505b808102905061207a8561202a565b9450612041565b94509492505050565b60008261209a5760019050612156565b816120a85760009050612156565b81600181146120be57600281146120c8576120f7565b6001915050612156565b60ff8411156120da576120d9611ffb565b5b8360020a9150848211156120f1576120f0611ffb565b5b50612156565b5060208310610133831016604e8410600b841016171561212c5782820a90508381111561212757612126611ffb565b5b612156565b6121398484846001612037565b925090508184048111156121505761214f611ffb565b5b81810290505b9392505050565b600061216882611bc6565b915061217383611bc6565b92506121a07fffffffffffffffffffffffffffffffffffffffffffffffffffffffffffffffff848461208a565b905092915050565b60006121b382611bc6565b91506121be83611bc6565b9250817fffffffffffffffffffffffffffffffffffffffffffffffffffffffffffffffff04831182151516156121f7576121f6611ffb565b5b828202905092915050565b600082825260208201905092915050565b7f416363657373436f6e74726f6c3a2063616e206f6e6c792072656e6f756e636560008201527f20726f6c657320666f722073656c660000000000000000000000000000000000602082015250565b600061226f602f83612202565b915061227a82612213565b604082019050919050565b6000602082019050818103600083015261229e81612262565b9050919050565b7f4641554345545f44495341424c45440000000000000000000000000000000000600082015250565b60006122db600f83612202565b91506122e6826122a5565b602082019050919050565b6000602082019050818103600083015261230a816122ce565b9050919050565b7f4641554345545f44525900000000000000000000000000000000000000000000600082015250565b6000612347600a83612202565b915061235282612311565b602082019050919050565b600060208201905081810360008301526123768161233a565b9050919050565b7f53494e474c455f55534500000000000000000000000000000000000000000000600082015250565b60006123b3600a83612202565b91506123be8261237d565b602082019050919050565b600060208201905081810360008301526123e2816123a6565b9050919050565b7f57414c4c45545f54494d454f5554000000000000000000000000000000000000600082015250565b600061241f600e83612202565b915061242a826123e9565b602082019050919050565b6000602082019050818103600083015261244e81612412565b9050919050565b60008151905061246481611cc8565b92915050565b6000602082840312156124805761247f611c08565b5b600061248e84828501612455565b91505092915050565b7f46574542335f4452590000000000000000000000000000000000000000000000600082015250565b60006124cd600983612202565b91506124d882612497565b602082019050919050565b600060208201905081810360008301526124fc816124c0565b9050919050565b600061250e82611f38565b9050919050565b61251e81612503565b82525050565b60006020820190506125396000830184612515565b92915050565b7f46574542335f57414c4c45545f4c494d49540000000000000000000000000000600082015250565b6000612575601283612202565b91506125808261253f565b602082019050919050565b600060208201905081810360008301526125a481612568565b9050919050565b60006040820190506125c06000830185612515565b6125cd6020830184611bd0565b9392505050565b6000815190506125e381611d34565b92915050565b6000602082840312156125ff576125fe611c08565b5b600061260d848285016125d4565b91505092915050565b7f54585f4641494c55524500000000000000000000000000000000000000000000600082015250565b600061264c600a83612202565b915061265782612616565b602082019050919050565b6000602082019050818103600083015261267b8161263f565b9050919050565b7f4657454233000000000000000000000000000000000000000000000000000000600082015250565b60006126b8600583612202565b91506126c382612682565b602082019050919050565b60006060820190506126e36000830185611bb7565b81810360208301526126f4816126ab565b90506127036040830184611bd0565b9392505050565b7f4f776e61626c653a2063616c6c6572206973206e6f7420746865206f776e6572600082015250565b6000612740602083612202565b915061274b8261270a565b602082019050919050565b6000602082019050818103600083015261276f81612733565b9050919050565b7f4f776e61626c653a206e6577206f776e657220697320746865207a65726f206160008201527f6464726573730000000000000000000000000000000000000000000000000000602082015250565b60006127d2602683612202565b91506127dd82612776565b604082019050919050565b60006020820190508181036000830152612801816127c5565b9050919050565b600081905092915050565b7f416363657373436f6e74726f6c3a206163636f756e7420000000000000000000600082015250565b6000612849601783612808565b915061285482612813565b601782019050919050565b600081519050919050565b60005b8381101561288857808201518184015260208101905061286d565b83811115612897576000848401525b50505050565b60006128a88261285f565b6128b28185612808565b93506128c281856020860161286a565b80840191505092915050565b7f206973206d697373696e6720726f6c6520000000000000000000000000000000600082015250565b6000612904601183612808565b915061290f826128ce565b601182019050919050565b60006129258261283c565b9150612931828561289d565b915061293c826128f7565b9150612948828461289d565b91508190509392505050565b6000601f19601f8301169050919050565b60006129708261285f565b61297a8185612202565b935061298a81856020860161286a565b61299381612954565b840191505092915050565b600060208201905081810360008301526129b88184612965565b905092915050565b60006129cb82611bc6565b91506129d683611bc6565b9250827fffffffffffffffffffffffffffffffffffffffffffffffffffffffffffffffff03821115612a0b57612a0a611ffb565b5b828201905092915050565b7f4e487b7100000000000000000000000000000000000000000000000000000000600052604160045260246000fd5b7f4e487b7100000000000000000000000000000000000000000000000000000000600052603260045260246000fd5b6000612a7f82611bc6565b91506000821415612a9357612a92611ffb565b5b600182039050919050565b7f537472696e67733a20686578206c656e67746820696e73756666696369656e74600082015250565b6000612ad4602083612202565b9150612adf82612a9e565b602082019050919050565b60006020820190508181036000830152612b0381612ac7565b905091905056fea26469706673582212202b75a047aac1b313fd3895cc2142c77fb4cece7bb037a1e9e05865042f15a56d64736f6c63430008090033",
  "linkReferences": {},
  "deployedLinkReferences": {}
}