{
  "_format": "hh-sol-artifact-1",
  "contractName": "Fweb3DiamondNFT",
  "sourceName": "contracts/Fweb3DiamondNFT.sol",
  "abi": [
    {
      "inputs": [],
      "stateMutability": "nonpayable",
      "type": "constructor"
    },
    {
      "anonymous": false,
      "inputs": [
        {
          "indexed": true,
          "internalType": "address",
          "name": "owner",
          "type": "address"
        },
        {
          "indexed": true,
          "internalType": "address",
          "name": "approved",
          "type": "address"
        },
        {
          "indexed": true,
          "internalType": "uint256",
          "name": "tokenId",
          "type": "uint256"
        }
      ],
      "name": "Approval",
      "type": "event"
    },
    {
      "anonymous": false,
      "inputs": [
        {
          "indexed": true,
          "internalType": "address",
          "name": "owner",
          "type": "address"
        },
        {
          "indexed": true,
          "internalType": "address",
          "name": "operator",
          "type": "address"
        },
        {
          "indexed": false,
          "internalType": "bool",
          "name": "approved",
          "type": "bool"
        }
      ],
      "name": "ApprovalForAll",
      "type": "event"
    },
    {
      "anonymous": false,
      "inputs": [
        {
          "indexed": true,
          "internalType": "address",
          "name": "previousOwner",
          "type": "address"
        },
        {
          "indexed": true,
          "internalType": "address",
          "name": "newOwner",
          "type": "address"
        }
      ],
      "name": "OwnershipTransferred",
      "type": "event"
    },
    {
      "anonymous": false,
      "inputs": [
        {
          "indexed": true,
          "internalType": "address",
          "name": "from",
          "type": "address"
        },
        {
          "indexed": true,
          "internalType": "address",
          "name": "to",
          "type": "address"
        },
        {
          "indexed": true,
          "internalType": "uint256",
          "name": "tokenId",
          "type": "uint256"
        }
      ],
      "name": "Transfer",
      "type": "event"
    },
    {
      "inputs": [
        {
          "internalType": "address",
          "name": "to",
          "type": "address"
        },
        {
          "internalType": "uint256",
          "name": "tokenId",
          "type": "uint256"
        }
      ],
      "name": "approve",
      "outputs": [],
      "stateMutability": "nonpayable",
      "type": "function"
    },
    {
      "inputs": [
        {
          "internalType": "address",
          "name": "owner",
          "type": "address"
        }
      ],
      "name": "balanceOf",
      "outputs": [
        {
          "internalType": "uint256",
          "name": "",
          "type": "uint256"
        }
      ],
      "stateMutability": "view",
      "type": "function"
    },
    {
      "inputs": [
        {
          "internalType": "uint256",
          "name": "tokenId",
          "type": "uint256"
        }
      ],
      "name": "getApproved",
      "outputs": [
        {
          "internalType": "address",
          "name": "",
          "type": "address"
        }
      ],
      "stateMutability": "view",
      "type": "function"
    },
    {
      "inputs": [
        {
          "internalType": "address",
          "name": "owner",
          "type": "address"
        },
        {
          "internalType": "address",
          "name": "operator",
          "type": "address"
        }
      ],
      "name": "isApprovedForAll",
      "outputs": [
        {
          "internalType": "bool",
          "name": "",
          "type": "bool"
        }
      ],
      "stateMutability": "view",
      "type": "function"
    },
    {
      "inputs": [
        {
          "internalType": "uint256",
          "name": "tokenId",
          "type": "uint256"
        }
      ],
      "name": "mint",
      "outputs": [],
      "stateMutability": "nonpayable",
      "type": "function"
    },
    {
      "inputs": [],
      "name": "name",
      "outputs": [
        {
          "internalType": "string",
          "name": "",
          "type": "string"
        }
      ],
      "stateMutability": "view",
      "type": "function"
    },
    {
      "inputs": [],
      "name": "owner",
      "outputs": [
        {
          "internalType": "address",
          "name": "",
          "type": "address"
        }
      ],
      "stateMutability": "view",
      "type": "function"
    },
    {
      "inputs": [
        {
          "internalType": "uint256",
          "name": "tokenId",
          "type": "uint256"
        }
      ],
      "name": "ownerOf",
      "outputs": [
        {
          "internalType": "address",
          "name": "",
          "type": "address"
        }
      ],
      "stateMutability": "view",
      "type": "function"
    },
    {
      "inputs": [],
      "name": "renounceOwnership",
      "outputs": [],
      "stateMutability": "nonpayable",
      "type": "function"
    },
    {
      "inputs": [
        {
          "internalType": "address",
          "name": "from",
          "type": "address"
        },
        {
          "internalType": "address",
          "name": "to",
          "type": "address"
        },
        {
          "internalType": "uint256",
          "name": "tokenId",
          "type": "uint256"
        }
      ],
      "name": "safeTransferFrom",
      "outputs": [],
      "stateMutability": "nonpayable",
      "type": "function"
    },
    {
      "inputs": [
        {
          "internalType": "address",
          "name": "from",
          "type": "address"
        },
        {
          "internalType": "address",
          "name": "to",
          "type": "address"
        },
        {
          "internalType": "uint256",
          "name": "tokenId",
          "type": "uint256"
        },
        {
          "internalType": "bytes",
          "name": "_data",
          "type": "bytes"
        }
      ],
      "name": "safeTransferFrom",
      "outputs": [],
      "stateMutability": "nonpayable",
      "type": "function"
    },
    {
      "inputs": [
        {
          "internalType": "address",
          "name": "operator",
          "type": "address"
        },
        {
          "internalType": "bool",
          "name": "approved",
          "type": "bool"
        }
      ],
      "name": "setApprovalForAll",
      "outputs": [],
      "stateMutability": "nonpayable",
      "type": "function"
    },
    {
      "inputs": [
        {
          "internalType": "bytes4",
          "name": "interfaceId",
          "type": "bytes4"
        }
      ],
      "name": "supportsInterface",
      "outputs": [
        {
          "internalType": "bool",
          "name": "",
          "type": "bool"
        }
      ],
      "stateMutability": "view",
      "type": "function"
    },
    {
      "inputs": [],
      "name": "symbol",
      "outputs": [
        {
          "internalType": "string",
          "name": "",
          "type": "string"
        }
      ],
      "stateMutability": "view",
      "type": "function"
    },
    {
      "inputs": [
        {
          "internalType": "uint256",
          "name": "tokenId",
          "type": "uint256"
        }
      ],
      "name": "tokenURI",
      "outputs": [
        {
          "internalType": "string",
          "name": "",
          "type": "string"
        }
      ],
      "stateMutability": "pure",
      "type": "function"
    },
    {
      "inputs": [
        {
          "internalType": "address",
          "name": "from",
          "type": "address"
        },
        {
          "internalType": "address",
          "name": "to",
          "type": "address"
        },
        {
          "internalType": "uint256",
          "name": "tokenId",
          "type": "uint256"
        }
      ],
      "name": "transferFrom",
      "outputs": [],
      "stateMutability": "nonpayable",
      "type": "function"
    },
    {
      "inputs": [
        {
          "internalType": "address",
          "name": "newOwner",
          "type": "address"
        }
      ],
      "name": "transferOwnership",
      "outputs": [],
      "stateMutability": "nonpayable",
      "type": "function"
    }
  ],
  "bytecode": "0x60806040523480156200001157600080fd5b506040518060400160405280601181526020017f4677656233204469616d6f6e64204e46540000000000000000000000000000008152506040518060400160405280600f81526020017f46574542334449414d4f4e444e46540000000000000000000000000000000000815250816000908051906020019062000096929190620001a6565b508060019080519060200190620000af929190620001a6565b505050620000d2620000c6620000d860201b60201c565b620000e060201b60201c565b620002bb565b600033905090565b6000600660009054906101000a900473ffffffffffffffffffffffffffffffffffffffff16905081600660006101000a81548173ffffffffffffffffffffffffffffffffffffffff021916908373ffffffffffffffffffffffffffffffffffffffff1602179055508173ffffffffffffffffffffffffffffffffffffffff168173ffffffffffffffffffffffffffffffffffffffff167f8be0079c531659141344cd1fd0a4f28419497f9722a3daafe3b4186f6b6457e060405160405180910390a35050565b828054620001b49062000285565b90600052602060002090601f016020900481019282620001d8576000855562000224565b82601f10620001f357805160ff191683800117855562000224565b8280016001018555821562000224579182015b828111156200022357825182559160200191906001019062000206565b5b50905062000233919062000237565b5090565b5b808211156200025257600081600090555060010162000238565b5090565b7f4e487b7100000000000000000000000000000000000000000000000000000000600052602260045260246000fd5b600060028204905060018216806200029e57607f821691505b60208210811415620002b557620002b462000256565b5b50919050565b61396d80620002cb6000396000f3fe608060405234801561001057600080fd5b506004361061010b5760003560e01c8063715018a6116100a2578063a22cb46511610071578063a22cb465146102a4578063b88d4fde146102c0578063c87b56dd146102dc578063e985e9c51461030c578063f2fde38b1461033c5761010b565b8063715018a6146102425780638da5cb5b1461024c57806395d89b411461026a578063a0712d68146102885761010b565b806323b872dd116100de57806323b872dd146101aa57806342842e0e146101c65780636352211e146101e257806370a08231146102125761010b565b806301ffc9a71461011057806306fdde0314610140578063081812fc1461015e578063095ea7b31461018e575b600080fd5b61012a60048036038101906101259190612275565b610358565b60405161013791906122bd565b60405180910390f35b61014861043a565b6040516101559190612371565b60405180910390f35b610178600480360381019061017391906123c9565b6104cc565b6040516101859190612437565b60405180910390f35b6101a860048036038101906101a3919061247e565b610551565b005b6101c460048036038101906101bf91906124be565b610669565b005b6101e060048036038101906101db91906124be565b6106c9565b005b6101fc60048036038101906101f791906123c9565b6106e9565b6040516102099190612437565b60405180910390f35b61022c60048036038101906102279190612511565b61079b565b604051610239919061254d565b60405180910390f35b61024a610853565b005b6102546108db565b6040516102619190612437565b60405180910390f35b610272610905565b60405161027f9190612371565b60405180910390f35b6102a2600480360381019061029d91906123c9565b610997565b005b6102be60048036038101906102b99190612594565b6109ab565b005b6102da60048036038101906102d59190612709565b6109c1565b005b6102f660048036038101906102f191906123c9565b610a23565b6040516103039190612371565b60405180910390f35b6103266004803603810190610321919061278c565b610fb3565b60405161033391906122bd565b60405180910390f35b61035660048036038101906103519190612511565b611047565b005b60007f80ac58cd000000000000000000000000000000000000000000000000000000007bffffffffffffffffffffffffffffffffffffffffffffffffffffffff1916827bffffffffffffffffffffffffffffffffffffffffffffffffffffffff1916148061042357507f5b5e139f000000000000000000000000000000000000000000000000000000007bffffffffffffffffffffffffffffffffffffffffffffffffffffffff1916827bffffffffffffffffffffffffffffffffffffffffffffffffffffffff1916145b8061043357506104328261113f565b5b9050919050565b606060008054610449906127fb565b80601f0160208091040260200160405190810160405280929190818152602001828054610475906127fb565b80156104c25780601f10610497576101008083540402835291602001916104c2565b820191906000526020600020905b8154815290600101906020018083116104a557829003601f168201915b5050505050905090565b60006104d7826111a9565b610516576040517f08c379a000000000000000000000000000000000000000000000000000000000815260040161050d9061289f565b60405180910390fd5b6004600083815260200190815260200160002060009054906101000a900473ffffffffffffffffffffffffffffffffffffffff169050919050565b600061055c826106e9565b90508073ffffffffffffffffffffffffffffffffffffffff168373ffffffffffffffffffffffffffffffffffffffff1614156105cd576040517f08c379a00000000000000000000000000000000000000000000000000000000081526004016105c490612931565b60405180910390fd5b8073ffffffffffffffffffffffffffffffffffffffff166105ec611215565b73ffffffffffffffffffffffffffffffffffffffff16148061061b575061061a81610615611215565b610fb3565b5b61065a576040517f08c379a0000000000000000000000000000000000000000000000000000000008152600401610651906129c3565b60405180910390fd5b610664838361121d565b505050565b61067a610674611215565b826112d6565b6106b9576040517f08c379a00000000000000000000000000000000000000000000000000000000081526004016106b090612a55565b60405180910390fd5b6106c48383836113b4565b505050565b6106e4838383604051806020016040528060008152506109c1565b505050565b6000806002600084815260200190815260200160002060009054906101000a900473ffffffffffffffffffffffffffffffffffffffff169050600073ffffffffffffffffffffffffffffffffffffffff168173ffffffffffffffffffffffffffffffffffffffff161415610792576040517f08c379a000000000000000000000000000000000000000000000000000000000815260040161078990612ae7565b60405180910390fd5b80915050919050565b60008073ffffffffffffffffffffffffffffffffffffffff168273ffffffffffffffffffffffffffffffffffffffff16141561080c576040517f08c379a000000000000000000000000000000000000000000000000000000000815260040161080390612b79565b60405180910390fd5b600360008373ffffffffffffffffffffffffffffffffffffffff1673ffffffffffffffffffffffffffffffffffffffff168152602001908152602001600020549050919050565b61085b611215565b73ffffffffffffffffffffffffffffffffffffffff166108796108db565b73ffffffffffffffffffffffffffffffffffffffff16146108cf576040517f08c379a00000000000000000000000000000000000000000000000000000000081526004016108c690612be5565b60405180910390fd5b6108d9600061161b565b565b6000600660009054906101000a900473ffffffffffffffffffffffffffffffffffffffff16905090565b606060018054610914906127fb565b80601f0160208091040260200160405190810160405280929190818152602001828054610940906127fb565b801561098d5780601f106109625761010080835404028352916020019161098d565b820191906000526020600020905b81548152906001019060200180831161097057829003601f168201915b5050505050905090565b6109a86109a2611215565b826116e1565b50565b6109bd6109b6611215565b83836116ff565b5050565b6109d26109cc611215565b836112d6565b610a11576040517f08c379a0000000000000000000000000000000000000000000000000000000008152600401610a0890612a55565b60405180910390fd5b610a1d8484848461186c565b50505050565b6060610a2d6121e1565b6000610a38846118c8565b610a4185611922565b604051602001610a52929190612c8d565b60405160208183030381529060405290506000610a6e8561197b565b90506040518060c00160405280608a81526020016136d9608a913983600060118110610a9d57610a9c612cbc565b5b60200201819052508083600160118110610aba57610ab9612cbc565b5b60200201819052506040518060800160405280605981526020016138886059913983600260118110610aef57610aee612cbc565b5b60200201819052508183600360118110610b0c57610b0b612cbc565b5b60200201819052506040518060800160405280604b815260200161363b604b913983600460118110610b4157610b40612cbc565b5b60200201819052508183600560118110610b5e57610b5d612cbc565b5b60200201819052506040518060800160405280604b8152602001613763604b913983600660118110610b9357610b92612cbc565b5b60200201819052508183600760118110610bb057610baf612cbc565b5b60200201819052506040518060800160405280605781526020016138e16057913983600860118110610be557610be4612cbc565b5b60200201819052508183600960118110610c0257610c01612cbc565b5b60200201819052506040518060800160405280604b815260200161383d604b913983600a60118110610c3757610c36612cbc565b5b60200201819052508183600b60118110610c5457610c53612cbc565b5b60200201819052506040518060800160405280604f81526020016137ae604f913983600c60118110610c8957610c88612cbc565b5b60200201819052508183600d60118110610ca657610ca5612cbc565b5b60200201819052506040518060800160405280605381526020016136866053913983600e60118110610cdb57610cda612cbc565b5b60200201819052508183600f60118110610cf857610cf7612cbc565b5b60200201819052506040518060400160405280600f81526020017f252c39342529222f3e3c2f7376673e000000000000000000000000000000000081525083601060118110610d4a57610d49612cbc565b5b6020020181905250600083600060118110610d6857610d67612cbc565b5b602002015184600160118110610d8157610d80612cbc565b5b602002015185600260118110610d9a57610d99612cbc565b5b602002015186600360118110610db357610db2612cbc565b5b602002015187600460118110610dcc57610dcb612cbc565b5b602002015188600560118110610de557610de4612cbc565b5b602002015189600660118110610dfe57610dfd612cbc565b5b60200201518a600760118110610e1757610e16612cbc565b5b60200201518b600860118110610e3057610e2f612cbc565b5b6020020151604051602001610e4d99989796959493929190612ceb565b60405160208183030381529060405290508084600960118110610e7357610e72612cbc565b5b602002015185600a60118110610e8c57610e8b612cbc565b5b602002015186600b60118110610ea557610ea4612cbc565b5b602002015187600c60118110610ebe57610ebd612cbc565b5b602002015188600d60118110610ed757610ed6612cbc565b5b602002015189600e60118110610ef057610eef612cbc565b5b60200201518a600f60118110610f0957610f08612cbc565b5b60200201518b601060118110610f2257610f21612cbc565b5b6020020151604051602001610f3f99989796959493929190612ceb565b60405160208183030381529060405290506000610f82610f5e83611af0565b604051602001610f6e9190612e9a565b604051602081830303815290604052611af0565b905080604051602001610f959190612f13565b60405160208183030381529060405291508195505050505050919050565b6000600560008473ffffffffffffffffffffffffffffffffffffffff1673ffffffffffffffffffffffffffffffffffffffff16815260200190815260200160002060008373ffffffffffffffffffffffffffffffffffffffff1673ffffffffffffffffffffffffffffffffffffffff16815260200190815260200160002060009054906101000a900460ff16905092915050565b61104f611215565b73ffffffffffffffffffffffffffffffffffffffff1661106d6108db565b73ffffffffffffffffffffffffffffffffffffffff16146110c3576040517f08c379a00000000000000000000000000000000000000000000000000000000081526004016110ba90612be5565b60405180910390fd5b600073ffffffffffffffffffffffffffffffffffffffff168173ffffffffffffffffffffffffffffffffffffffff161415611133576040517f08c379a000000000000000000000000000000000000000000000000000000000815260040161112a90612fa7565b60405180910390fd5b61113c8161161b565b50565b60007f01ffc9a7000000000000000000000000000000000000000000000000000000007bffffffffffffffffffffffffffffffffffffffffffffffffffffffff1916827bffffffffffffffffffffffffffffffffffffffffffffffffffffffff1916149050919050565b60008073ffffffffffffffffffffffffffffffffffffffff166002600084815260200190815260200160002060009054906101000a900473ffffffffffffffffffffffffffffffffffffffff1673ffffffffffffffffffffffffffffffffffffffff1614159050919050565b600033905090565b816004600083815260200190815260200160002060006101000a81548173ffffffffffffffffffffffffffffffffffffffff021916908373ffffffffffffffffffffffffffffffffffffffff160217905550808273ffffffffffffffffffffffffffffffffffffffff16611290836106e9565b73ffffffffffffffffffffffffffffffffffffffff167f8c5be1e5ebec7d5bd14f71427d1e84f3dd0314c0f7b2291e5b200ac8c7c3b92560405160405180910390a45050565b60006112e1826111a9565b611320576040517f08c379a000000000000000000000000000000000000000000000000000000000815260040161131790613039565b60405180910390fd5b600061132b836106e9565b90508073ffffffffffffffffffffffffffffffffffffffff168473ffffffffffffffffffffffffffffffffffffffff16148061139a57508373ffffffffffffffffffffffffffffffffffffffff16611382846104cc565b73ffffffffffffffffffffffffffffffffffffffff16145b806113ab57506113aa8185610fb3565b5b91505092915050565b8273ffffffffffffffffffffffffffffffffffffffff166113d4826106e9565b73ffffffffffffffffffffffffffffffffffffffff161461142a576040517f08c379a0000000000000000000000000000000000000000000000000000000008152600401611421906130cb565b60405180910390fd5b600073ffffffffffffffffffffffffffffffffffffffff168273ffffffffffffffffffffffffffffffffffffffff16141561149a576040517f08c379a00000000000000000000000000000000000000000000000000000000081526004016114919061315d565b60405180910390fd5b6114a5838383611c54565b6114b060008261121d565b6001600360008573ffffffffffffffffffffffffffffffffffffffff1673ffffffffffffffffffffffffffffffffffffffff168152602001908152602001600020600082825461150091906131ac565b925050819055506001600360008473ffffffffffffffffffffffffffffffffffffffff1673ffffffffffffffffffffffffffffffffffffffff168152602001908152602001600020600082825461155791906131e0565b92505081905550816002600083815260200190815260200160002060006101000a81548173ffffffffffffffffffffffffffffffffffffffff021916908373ffffffffffffffffffffffffffffffffffffffff160217905550808273ffffffffffffffffffffffffffffffffffffffff168473ffffffffffffffffffffffffffffffffffffffff167fddf252ad1be2c89b69c2b068fc378daa952ba7f163c4a11628f55a4df523b3ef60405160405180910390a4611616838383611c59565b505050565b6000600660009054906101000a900473ffffffffffffffffffffffffffffffffffffffff16905081600660006101000a81548173ffffffffffffffffffffffffffffffffffffffff021916908373ffffffffffffffffffffffffffffffffffffffff1602179055508173ffffffffffffffffffffffffffffffffffffffff168173ffffffffffffffffffffffffffffffffffffffff167f8be0079c531659141344cd1fd0a4f28419497f9722a3daafe3b4186f6b6457e060405160405180910390a35050565b6116fb828260405180602001604052806000815250611c5e565b5050565b8173ffffffffffffffffffffffffffffffffffffffff168373ffffffffffffffffffffffffffffffffffffffff16141561176e576040517f08c379a000000000000000000000000000000000000000000000000000000000815260040161176590613282565b60405180910390fd5b80600560008573ffffffffffffffffffffffffffffffffffffffff1673ffffffffffffffffffffffffffffffffffffffff16815260200190815260200160002060008473ffffffffffffffffffffffffffffffffffffffff1673ffffffffffffffffffffffffffffffffffffffff16815260200190815260200160002060006101000a81548160ff0219169083151502179055508173ffffffffffffffffffffffffffffffffffffffff168373ffffffffffffffffffffffffffffffffffffffff167f17307eab39ab6107e8899845ad3d59bd9653f200f220920489ca2b5937696c318360405161185f91906122bd565b60405180910390a3505050565b6118778484846113b4565b61188384848484611cb9565b6118c2576040517f08c379a00000000000000000000000000000000000000000000000000000000081526004016118b990613314565b60405180910390fd5b50505050565b606060006118fc6118d884611e50565b6040516020016118e89190613334565b604051602081830303815290604052611fb1565b905060006101688261190e919061337a565b905061191981611e50565b92505050919050565b6060600061195661193284611e50565b6040516020016119429190613334565b604051602081830303815290604052611fb1565b90506000606482611967919061337a565b905061197281611e50565b92505050919050565b606060006119af61198b84611e50565b60405160200161199b9190613334565b604051602081830303815290604052611fb1565b905060008160001b905060006040518060400160405280601081526020017f303132333435363738394142434445460000000000000000000000000000000081525090506000600667ffffffffffffffff811115611a1057611a0f6125de565b5b6040519080825280601f01601f191660200182016040528015611a425781602001600182028036833780820191505090505b50905060005b6006811015611ae35782600f858360208110611a6757611a66612cbc565b5b1a60f81b60f81c1660ff1681518110611a8357611a82612cbc565b5b602001015160f81c60f81b828281518110611aa157611aa0612cbc565b5b60200101907effffffffffffffffffffffffffffffffffffffffffffffffffffffffffffff1916908160001a9053508080611adb906133ab565b915050611a48565b5080945050505050919050565b6060600082511415611b1357604051806020016040528060008152509050611c4f565b60006040518060600160405280604081526020016137fd6040913990506000600360028551611b4291906131e0565b611b4c91906133f4565b6004611b589190613425565b67ffffffffffffffff811115611b7157611b706125de565b5b6040519080825280601f01601f191660200182016040528015611ba35781602001600182028036833780820191505090505b509050600182016020820185865187015b80821015611c0f576003820191508151603f8160121c168501518453600184019350603f81600c1c168501518453600184019350603f8160061c168501518453600184019350603f8116850151845360018401935050611bb4565b5050600386510660018114611c2b5760028114611c3e57611c46565b603d6001830353603d6002830353611c46565b603d60018303535b50505080925050505b919050565b505050565b505050565b611c688383611fe4565b611c756000848484611cb9565b611cb4576040517f08c379a0000000000000000000000000000000000000000000000000000000008152600401611cab90613314565b60405180910390fd5b505050565b6000611cda8473ffffffffffffffffffffffffffffffffffffffff166121be565b15611e43578373ffffffffffffffffffffffffffffffffffffffff1663150b7a02611d03611215565b8786866040518563ffffffff1660e01b8152600401611d2594939291906134d4565b602060405180830381600087803b158015611d3f57600080fd5b505af1925050508015611d7057506040513d601f19601f82011682018060405250810190611d6d9190613535565b60015b611df3573d8060008114611da0576040519150601f19603f3d011682016040523d82523d6000602084013e611da5565b606091505b50600081511415611deb576040517f08c379a0000000000000000000000000000000000000000000000000000000008152600401611de290613314565b60405180910390fd5b805181602001fd5b63150b7a0260e01b7bffffffffffffffffffffffffffffffffffffffffffffffffffffffff1916817bffffffffffffffffffffffffffffffffffffffffffffffffffffffff191614915050611e48565b600190505b949350505050565b60606000821415611e98576040518060400160405280600181526020017f30000000000000000000000000000000000000000000000000000000000000008152509050611fac565b600082905060005b60008214611eca578080611eb3906133ab565b915050600a82611ec391906133f4565b9150611ea0565b60008167ffffffffffffffff811115611ee657611ee56125de565b5b6040519080825280601f01601f191660200182016040528015611f185781602001600182028036833780820191505090505b5090505b60008514611fa557600182611f3191906131ac565b9150600a85611f40919061337a565b6030611f4c91906131e0565b60f81b818381518110611f6257611f61612cbc565b5b60200101907effffffffffffffffffffffffffffffffffffffffffffffffffffffffffffff1916908160001a905350600a85611f9e91906133f4565b9450611f1c565b8093505050505b919050565b600081604051602001611fc49190613334565b6040516020818303038152906040528051906020012060001c9050919050565b600073ffffffffffffffffffffffffffffffffffffffff168273ffffffffffffffffffffffffffffffffffffffff161415612054576040517f08c379a000000000000000000000000000000000000000000000000000000000815260040161204b906135ae565b60405180910390fd5b61205d816111a9565b1561209d576040517f08c379a00000000000000000000000000000000000000000000000000000000081526004016120949061361a565b60405180910390fd5b6120a960008383611c54565b6001600360008473ffffffffffffffffffffffffffffffffffffffff1673ffffffffffffffffffffffffffffffffffffffff16815260200190815260200160002060008282546120f991906131e0565b92505081905550816002600083815260200190815260200160002060006101000a81548173ffffffffffffffffffffffffffffffffffffffff021916908373ffffffffffffffffffffffffffffffffffffffff160217905550808273ffffffffffffffffffffffffffffffffffffffff16600073ffffffffffffffffffffffffffffffffffffffff167fddf252ad1be2c89b69c2b068fc378daa952ba7f163c4a11628f55a4df523b3ef60405160405180910390a46121ba60008383611c59565b5050565b6000808273ffffffffffffffffffffffffffffffffffffffff163b119050919050565b6040518061022001604052806011905b60608152602001906001900390816121f15790505090565b6000604051905090565b600080fd5b600080fd5b60007fffffffff0000000000000000000000000000000000000000000000000000000082169050919050565b6122528161221d565b811461225d57600080fd5b50565b60008135905061226f81612249565b92915050565b60006020828403121561228b5761228a612213565b5b600061229984828501612260565b91505092915050565b60008115159050919050565b6122b7816122a2565b82525050565b60006020820190506122d260008301846122ae565b92915050565b600081519050919050565b600082825260208201905092915050565b60005b838110156123125780820151818401526020810190506122f7565b83811115612321576000848401525b50505050565b6000601f19601f8301169050919050565b6000612343826122d8565b61234d81856122e3565b935061235d8185602086016122f4565b61236681612327565b840191505092915050565b6000602082019050818103600083015261238b8184612338565b905092915050565b6000819050919050565b6123a681612393565b81146123b157600080fd5b50565b6000813590506123c38161239d565b92915050565b6000602082840312156123df576123de612213565b5b60006123ed848285016123b4565b91505092915050565b600073ffffffffffffffffffffffffffffffffffffffff82169050919050565b6000612421826123f6565b9050919050565b61243181612416565b82525050565b600060208201905061244c6000830184612428565b92915050565b61245b81612416565b811461246657600080fd5b50565b60008135905061247881612452565b92915050565b6000806040838503121561249557612494612213565b5b60006124a385828601612469565b92505060206124b4858286016123b4565b9150509250929050565b6000806000606084860312156124d7576124d6612213565b5b60006124e586828701612469565b93505060206124f686828701612469565b9250506040612507868287016123b4565b9150509250925092565b60006020828403121561252757612526612213565b5b600061253584828501612469565b91505092915050565b61254781612393565b82525050565b6000602082019050612562600083018461253e565b92915050565b612571816122a2565b811461257c57600080fd5b50565b60008135905061258e81612568565b92915050565b600080604083850312156125ab576125aa612213565b5b60006125b985828601612469565b92505060206125ca8582860161257f565b9150509250929050565b600080fd5b600080fd5b7f4e487b7100000000000000000000000000000000000000000000000000000000600052604160045260246000fd5b61261682612327565b810181811067ffffffffffffffff82111715612635576126346125de565b5b80604052505050565b6000612648612209565b9050612654828261260d565b919050565b600067ffffffffffffffff821115612674576126736125de565b5b61267d82612327565b9050602081019050919050565b82818337600083830152505050565b60006126ac6126a784612659565b61263e565b9050828152602081018484840111156126c8576126c76125d9565b5b6126d384828561268a565b509392505050565b600082601f8301126126f0576126ef6125d4565b5b8135612700848260208601612699565b91505092915050565b6000806000806080858703121561272357612722612213565b5b600061273187828801612469565b945050602061274287828801612469565b9350506040612753878288016123b4565b925050606085013567ffffffffffffffff81111561277457612773612218565b5b612780878288016126db565b91505092959194509250565b600080604083850312156127a3576127a2612213565b5b60006127b185828601612469565b92505060206127c285828601612469565b9150509250929050565b7f4e487b7100000000000000000000000000000000000000000000000000000000600052602260045260246000fd5b6000600282049050600182168061281357607f821691505b60208210811415612827576128266127cc565b5b50919050565b7f4552433732313a20617070726f76656420717565727920666f72206e6f6e657860008201527f697374656e7420746f6b656e0000000000000000000000000000000000000000602082015250565b6000612889602c836122e3565b91506128948261282d565b604082019050919050565b600060208201905081810360008301526128b88161287c565b9050919050565b7f4552433732313a20617070726f76616c20746f2063757272656e74206f776e6560008201527f7200000000000000000000000000000000000000000000000000000000000000602082015250565b600061291b6021836122e3565b9150612926826128bf565b604082019050919050565b6000602082019050818103600083015261294a8161290e565b9050919050565b7f4552433732313a20617070726f76652063616c6c6572206973206e6f74206f7760008201527f6e6572206e6f7220617070726f76656420666f7220616c6c0000000000000000602082015250565b60006129ad6038836122e3565b91506129b882612951565b604082019050919050565b600060208201905081810360008301526129dc816129a0565b9050919050565b7f4552433732313a207472616e736665722063616c6c6572206973206e6f74206f60008201527f776e6572206e6f7220617070726f766564000000000000000000000000000000602082015250565b6000612a3f6031836122e3565b9150612a4a826129e3565b604082019050919050565b60006020820190508181036000830152612a6e81612a32565b9050919050565b7f4552433732313a206f776e657220717565727920666f72206e6f6e657869737460008201527f656e7420746f6b656e0000000000000000000000000000000000000000000000602082015250565b6000612ad16029836122e3565b9150612adc82612a75565b604082019050919050565b60006020820190508181036000830152612b0081612ac4565b9050919050565b7f4552433732313a2062616c616e636520717565727920666f7220746865207a6560008201527f726f206164647265737300000000000000000000000000000000000000000000602082015250565b6000612b63602a836122e3565b9150612b6e82612b07565b604082019050919050565b60006020820190508181036000830152612b9281612b56565b9050919050565b7f4f776e61626c653a2063616c6c6572206973206e6f7420746865206f776e6572600082015250565b6000612bcf6020836122e3565b9150612bda82612b99565b602082019050919050565b60006020820190508181036000830152612bfe81612bc2565b9050919050565b600081905092915050565b6000612c1b826122d8565b612c258185612c05565b9350612c358185602086016122f4565b80840191505092915050565b7f2c00000000000000000000000000000000000000000000000000000000000000600082015250565b6000612c77600183612c05565b9150612c8282612c41565b600182019050919050565b6000612c998285612c10565b9150612ca482612c6a565b9150612cb08284612c10565b91508190509392505050565b7f4e487b7100000000000000000000000000000000000000000000000000000000600052603260045260246000fd5b6000612cf7828c612c10565b9150612d03828b612c10565b9150612d0f828a612c10565b9150612d1b8289612c10565b9150612d278288612c10565b9150612d338287612c10565b9150612d3f8286612c10565b9150612d4b8285612c10565b9150612d578284612c10565b91508190509a9950505050505050505050565b7f7b226e616d65223a20224677656233204469616d6f6e64204e4654222c20226460008201527f65736372697074696f6e223a202254686973204e465420726570726573656e7460208201527f732070617274696369706174696f6e20696e20467765623320323032322e222c60408201527f2022696d616765223a2022646174613a696d6167652f7376672b786d6c3b626160608201527f736536342c000000000000000000000000000000000000000000000000000000608082015250565b6000612e38608583612c05565b9150612e4382612d6a565b608582019050919050565b7f227d000000000000000000000000000000000000000000000000000000000000600082015250565b6000612e84600283612c05565b9150612e8f82612e4e565b600282019050919050565b6000612ea582612e2b565b9150612eb18284612c10565b9150612ebc82612e77565b915081905092915050565b7f646174613a6170706c69636174696f6e2f6a736f6e3b6261736536342c000000600082015250565b6000612efd601d83612c05565b9150612f0882612ec7565b601d82019050919050565b6000612f1e82612ef0565b9150612f2a8284612c10565b915081905092915050565b7f4f776e61626c653a206e6577206f776e657220697320746865207a65726f206160008201527f6464726573730000000000000000000000000000000000000000000000000000602082015250565b6000612f916026836122e3565b9150612f9c82612f35565b604082019050919050565b60006020820190508181036000830152612fc081612f84565b9050919050565b7f4552433732313a206f70657261746f7220717565727920666f72206e6f6e657860008201527f697374656e7420746f6b656e0000000000000000000000000000000000000000602082015250565b6000613023602c836122e3565b915061302e82612fc7565b604082019050919050565b6000602082019050818103600083015261305281613016565b9050919050565b7f4552433732313a207472616e736665722066726f6d20696e636f72726563742060008201527f6f776e6572000000000000000000000000000000000000000000000000000000602082015250565b60006130b56025836122e3565b91506130c082613059565b604082019050919050565b600060208201905081810360008301526130e4816130a8565b9050919050565b7f4552433732313a207472616e7366657220746f20746865207a65726f2061646460008201527f7265737300000000000000000000000000000000000000000000000000000000602082015250565b60006131476024836122e3565b9150613152826130eb565b604082019050919050565b600060208201905081810360008301526131768161313a565b9050919050565b7f4e487b7100000000000000000000000000000000000000000000000000000000600052601160045260246000fd5b60006131b782612393565b91506131c283612393565b9250828210156131d5576131d461317d565b5b828203905092915050565b60006131eb82612393565b91506131f683612393565b9250827fffffffffffffffffffffffffffffffffffffffffffffffffffffffffffffffff0382111561322b5761322a61317d565b5b828201905092915050565b7f4552433732313a20617070726f766520746f2063616c6c657200000000000000600082015250565b600061326c6019836122e3565b915061327782613236565b602082019050919050565b6000602082019050818103600083015261329b8161325f565b9050919050565b7f4552433732313a207472616e7366657220746f206e6f6e20455243373231526560008201527f63656976657220696d706c656d656e7465720000000000000000000000000000602082015250565b60006132fe6032836122e3565b9150613309826132a2565b604082019050919050565b6000602082019050818103600083015261332d816132f1565b9050919050565b60006133408284612c10565b915081905092915050565b7f4e487b7100000000000000000000000000000000000000000000000000000000600052601260045260246000fd5b600061338582612393565b915061339083612393565b9250826133a05761339f61334b565b5b828206905092915050565b60006133b682612393565b91507fffffffffffffffffffffffffffffffffffffffffffffffffffffffffffffffff8214156133e9576133e861317d565b5b600182019050919050565b60006133ff82612393565b915061340a83612393565b92508261341a5761341961334b565b5b828204905092915050565b600061343082612393565b915061343b83612393565b9250817fffffffffffffffffffffffffffffffffffffffffffffffffffffffffffffffff04831182151516156134745761347361317d565b5b828202905092915050565b600081519050919050565b600082825260208201905092915050565b60006134a68261347f565b6134b0818561348a565b93506134c08185602086016122f4565b6134c981612327565b840191505092915050565b60006080820190506134e96000830187612428565b6134f66020830186612428565b613503604083018561253e565b8181036060830152613515818461349b565b905095945050505050565b60008151905061352f81612249565b92915050565b60006020828403121561354b5761354a612213565b5b600061355984828501613520565b91505092915050565b7f4552433732313a206d696e7420746f20746865207a65726f2061646472657373600082015250565b60006135986020836122e3565b91506135a382613562565b602082019050919050565b600060208201905081810360008301526135c78161358b565b9050919050565b7f4552433732313a20746f6b656e20616c7265616479206d696e74656400000000600082015250565b6000613604601c836122e3565b915061360f826135ce565b602082019050919050565b60006020820190508181036000830152613633816135f7565b905091905056fe252c37392529222f3e3c7061746820643d224d3138302e363031203134304c3231352e333332203230332e363839483133344c3138302e363031203134305a222066696c6c3d2268736c28252c39342529222f3e3c7061746820643d224d3231352e333332203230332e3638394c3235352e393938203337322e3035364c313334203230332e363839483231352e3333325a222066696c6c3d2268736c283c73766720786d6c6e733d22687474703a2f2f7777772e77332e6f72672f323030302f73766722207072657365727665417370656374526174696f3d22784d696e594d696e206d656574222076696577426f783d223020302035313220353132223e3c726563742077696474683d223130302522206865696768743d2231303025222066696c6c3d2223252c38322529222f3e3c7061746820643d224d3333312e34203134304c3239362e363634203230332e3638394c3235352e39393820313430483333312e345a222066696c6c3d2268736c28252c39342529222f3e3c7061746820643d224d3235352e393938203134304c3239362e363634203230332e363839483231352e3333324c3235352e393938203134305a222066696c6c3d2268736c284142434445464748494a4b4c4d4e4f505152535455565758595a6162636465666768696a6b6c6d6e6f707172737475767778797a303132333435363738392b2f252c38322529222f3e3c7061746820643d224d3333312e34203134304c3337372e393935203230332e363839483239362e3636344c3333312e34203134305a222066696c6c3d2268736c28222f3e3c7061746820643d224d323536203337322e3035374c333738203230332e3638364c3333312e3420313430483138302e364c313334203230332e3638364c323536203337322e3035375a222066696c6c3d2268736c28252c38322529222f3e3c7061746820643d224d3239362e363634203230332e3638394c3235352e393938203337322e3035364c3231352e333332203230332e363839483239362e3636345a222066696c6c3d2268736c28a2646970667358221220efffebeb6c6f0e619e7875932676289bd7a20ee3d1181062e6729b231df6b64a64736f6c63430008090033",
  "linkReferences": {},
  "deployedLinkReferences": {}
}