{
  "_format": "hh-sol-artifact-1",
  "contractName": "Fweb3Game",
  "sourceName": "contracts/Fweb3Game.sol",
  "abi": [
    {
      "inputs": [
        {
          "internalType": "contract IERC20",
          "name": "token",
          "type": "address"
        }
      ],
      "stateMutability": "nonpayable",
      "type": "constructor"
    },
    {
      "anonymous": false,
      "inputs": [
        {
          "indexed": true,
          "internalType": "address",
          "name": "previousOwner",
          "type": "address"
        },
        {
          "indexed": true,
          "internalType": "address",
          "name": "newOwner",
          "type": "address"
        }
      ],
      "name": "OwnershipTransferred",
      "type": "event"
    },
    {
      "anonymous": false,
      "inputs": [
        {
          "indexed": true,
          "internalType": "address",
          "name": "_player",
          "type": "address"
        }
      ],
      "name": "PlayerSeeksVerification",
      "type": "event"
    },
    {
      "anonymous": false,
      "inputs": [
        {
          "indexed": true,
          "internalType": "address",
          "name": "_player",
          "type": "address"
        },
        {
          "indexed": true,
          "internalType": "address",
          "name": "_judge",
          "type": "address"
        }
      ],
      "name": "PlayerVerifiedToWin",
      "type": "event"
    },
    {
      "anonymous": false,
      "inputs": [
        {
          "indexed": true,
          "internalType": "address",
          "name": "player",
          "type": "address"
        }
      ],
      "name": "PlayerWon",
      "type": "event"
    },
    {
      "inputs": [
        {
          "internalType": "address",
          "name": "judge",
          "type": "address"
        }
      ],
      "name": "addJudge",
      "outputs": [],
      "stateMutability": "nonpayable",
      "type": "function"
    },
    {
      "inputs": [],
      "name": "getJudges",
      "outputs": [
        {
          "internalType": "address[]",
          "name": "",
          "type": "address[]"
        }
      ],
      "stateMutability": "view",
      "type": "function"
    },
    {
      "inputs": [
        {
          "internalType": "address",
          "name": "player",
          "type": "address"
        }
      ],
      "name": "getPlayer",
      "outputs": [
        {
          "internalType": "bool",
          "name": "isSeekingVerification",
          "type": "bool"
        },
        {
          "internalType": "bool",
          "name": "verifiedToWin",
          "type": "bool"
        },
        {
          "internalType": "bool",
          "name": "hasWon",
          "type": "bool"
        },
        {
          "internalType": "address",
          "name": "judgeApprovedBy",
          "type": "address"
        }
      ],
      "stateMutability": "view",
      "type": "function"
    },
    {
      "inputs": [
        {
          "internalType": "address",
          "name": "judge",
          "type": "address"
        }
      ],
      "name": "isJudge",
      "outputs": [
        {
          "internalType": "bool",
          "name": "",
          "type": "bool"
        }
      ],
      "stateMutability": "view",
      "type": "function"
    },
    {
      "inputs": [
        {
          "internalType": "address",
          "name": "player",
          "type": "address"
        }
      ],
      "name": "isWinner",
      "outputs": [
        {
          "internalType": "bool",
          "name": "",
          "type": "bool"
        }
      ],
      "stateMutability": "view",
      "type": "function"
    },
    {
      "inputs": [],
      "name": "owner",
      "outputs": [
        {
          "internalType": "address",
          "name": "",
          "type": "address"
        }
      ],
      "stateMutability": "view",
      "type": "function"
    },
    {
      "inputs": [
        {
          "internalType": "address",
          "name": "judge",
          "type": "address"
        }
      ],
      "name": "removeJudge",
      "outputs": [],
      "stateMutability": "nonpayable",
      "type": "function"
    },
    {
      "inputs": [],
      "name": "renounceOwnership",
      "outputs": [],
      "stateMutability": "nonpayable",
      "type": "function"
    },
    {
      "inputs": [],
      "name": "seekVerification",
      "outputs": [],
      "stateMutability": "nonpayable",
      "type": "function"
    },
    {
      "inputs": [
        {
          "internalType": "address",
          "name": "newOwner",
          "type": "address"
        }
      ],
      "name": "transferOwnership",
      "outputs": [],
      "stateMutability": "nonpayable",
      "type": "function"
    },
    {
      "inputs": [
        {
          "internalType": "address",
          "name": "player",
          "type": "address"
        }
      ],
      "name": "verifyPlayer",
      "outputs": [],
      "stateMutability": "nonpayable",
      "type": "function"
    },
    {
      "inputs": [],
      "name": "win",
      "outputs": [],
      "stateMutability": "nonpayable",
      "type": "function"
    }
  ],
  "bytecode": "0x60806040523480156200001157600080fd5b50604051620019f5380380620019f58339818101604052810190620000379190620001e9565b620000576200004b6200009f60201b60201c565b620000a760201b60201c565b80600160006101000a81548173ffffffffffffffffffffffffffffffffffffffff021916908373ffffffffffffffffffffffffffffffffffffffff160217905550506200021b565b600033905090565b60008060009054906101000a900473ffffffffffffffffffffffffffffffffffffffff169050816000806101000a81548173ffffffffffffffffffffffffffffffffffffffff021916908373ffffffffffffffffffffffffffffffffffffffff1602179055508173ffffffffffffffffffffffffffffffffffffffff168173ffffffffffffffffffffffffffffffffffffffff167f8be0079c531659141344cd1fd0a4f28419497f9722a3daafe3b4186f6b6457e060405160405180910390a35050565b600080fd5b600073ffffffffffffffffffffffffffffffffffffffff82169050919050565b60006200019d8262000170565b9050919050565b6000620001b18262000190565b9050919050565b620001c381620001a4565b8114620001cf57600080fd5b50565b600081519050620001e381620001b8565b92915050565b6000602082840312156200020257620002016200016b565b5b60006200021284828501620001d2565b91505092915050565b6117ca806200022b6000396000f3fe608060405234801561001057600080fd5b50600436106100b45760003560e01c8063927cab4711610071578063927cab47146101445780639d9ca28d14610160578063ae2ac4ae14610190578063ed896d66146101ac578063f2fde38b146101dc578063f3869fbe146101f8576100b4565b8063473ca96c146100b95780635c12cd4b146100c3578063715018a6146100f657806376fa6554146101005780638da5cb5b1461011c578063912a49a81461013a575b600080fd5b6100c1610216565b005b6100dd60048036038101906100d891906110e6565b610447565b6040516100ed949392919061113d565b60405180910390f35b6100fe6105f7565b005b61011a600480360381019061011591906110e6565b61067f565b005b610124610788565b6040516101319190611182565b60405180910390f35b6101426107b1565b005b61015e600480360381019061015991906110e6565b610899565b005b61017a600480360381019061017591906110e6565b6109c4565b604051610187919061119d565b60405180910390f35b6101aa60048036038101906101a591906110e6565b610a1d565b005b6101c660048036038101906101c191906110e6565b610b74565b6040516101d3919061119d565b60405180910390f35b6101f660048036038101906101f191906110e6565b610c60565b005b610200610d58565b60405161020d9190611276565b60405180910390f35b61021f33610de6565b61025e576040517f08c379a0000000000000000000000000000000000000000000000000000000008152600401610255906112f5565b60405180910390fd5b61026733610ea6565b6102a6576040517f08c379a000000000000000000000000000000000000000000000000000000000815260040161029d90611361565b60405180910390fd5b6102af33610eff565b6102ee576040517f08c379a00000000000000000000000000000000000000000000000000000000081526004016102e5906113cd565b60405180910390fd5b600160009054906101000a900473ffffffffffffffffffffffffffffffffffffffff1673ffffffffffffffffffffffffffffffffffffffff1663a9059cbb33683635c9adc5dea000006040518363ffffffff1660e01b815260040161035492919061143c565b602060405180830381600087803b15801561036e57600080fd5b505af1158015610382573d6000803e3d6000fd5b505050506040513d601f19601f820116820180604052508101906103a69190611491565b506001600360003373ffffffffffffffffffffffffffffffffffffffff1673ffffffffffffffffffffffffffffffffffffffff16815260200190815260200160002060000160026101000a81548160ff0219169083151502179055503373ffffffffffffffffffffffffffffffffffffffff167f970f935ee01502df35da11db45c29bdd97d8f41d5a0640c1dc3bd96c67f9798760405160405180910390a2565b60008060008061045633610b74565b610495576040517f08c379a000000000000000000000000000000000000000000000000000000000815260040161048c9061150a565b60405180910390fd5b600360008673ffffffffffffffffffffffffffffffffffffffff1673ffffffffffffffffffffffffffffffffffffffff16815260200190815260200160002060000160009054906101000a900460ff16600360008773ffffffffffffffffffffffffffffffffffffffff1673ffffffffffffffffffffffffffffffffffffffff16815260200190815260200160002060000160019054906101000a900460ff16600360008873ffffffffffffffffffffffffffffffffffffffff1673ffffffffffffffffffffffffffffffffffffffff16815260200190815260200160002060000160029054906101000a900460ff16600360008973ffffffffffffffffffffffffffffffffffffffff1673ffffffffffffffffffffffffffffffffffffffff16815260200190815260200160002060000160039054906101000a900473ffffffffffffffffffffffffffffffffffffffff1693509350935093509193509193565b6105ff610f59565b73ffffffffffffffffffffffffffffffffffffffff1661061d610788565b73ffffffffffffffffffffffffffffffffffffffff1614610673576040517f08c379a000000000000000000000000000000000000000000000000000000000815260040161066a90611576565b60405180910390fd5b61067d6000610f61565b565b61068833610b74565b6106c7576040517f08c379a00000000000000000000000000000000000000000000000000000000081526004016106be9061150a565b60405180910390fd5b6001600360008373ffffffffffffffffffffffffffffffffffffffff1673ffffffffffffffffffffffffffffffffffffffff16815260200190815260200160002060000160016101000a81548160ff02191690831515021790555061072b81611025565b3373ffffffffffffffffffffffffffffffffffffffff168173ffffffffffffffffffffffffffffffffffffffff167fecc124f225be266aedd430d4c9ad47a16a21a2021df8b98cc974593fabec414760405160405180910390a350565b60008060009054906101000a900473ffffffffffffffffffffffffffffffffffffffff16905090565b6107ba33610de6565b6107f9576040517f08c379a00000000000000000000000000000000000000000000000000000000081526004016107f0906112f5565b60405180910390fd5b6001600360003373ffffffffffffffffffffffffffffffffffffffff1673ffffffffffffffffffffffffffffffffffffffff16815260200190815260200160002060000160006101000a81548160ff0219169083151502179055503373ffffffffffffffffffffffffffffffffffffffff167ff387812f565af3431d038dcefb632ac8c441e403b9ce42511dae33454786fefa60405160405180910390a2565b6108a1610f59565b73ffffffffffffffffffffffffffffffffffffffff166108bf610788565b73ffffffffffffffffffffffffffffffffffffffff1614610915576040517f08c379a000000000000000000000000000000000000000000000000000000000815260040161090c90611576565b60405180910390fd5b61091e81610b74565b1561095e576040517f08c379a0000000000000000000000000000000000000000000000000000000008152600401610955906115e2565b60405180910390fd5b6002819080600181540180825580915050600190039060005260206000200160009091909190916101000a81548173ffffffffffffffffffffffffffffffffffffffff021916908373ffffffffffffffffffffffffffffffffffffffff16021790555050565b6000600360008373ffffffffffffffffffffffffffffffffffffffff1673ffffffffffffffffffffffffffffffffffffffff16815260200190815260200160002060000160029054906101000a900460ff169050919050565b610a25610f59565b73ffffffffffffffffffffffffffffffffffffffff16610a43610788565b73ffffffffffffffffffffffffffffffffffffffff1614610a99576040517f08c379a0000000000000000000000000000000000000000000000000000000008152600401610a9090611576565b60405180910390fd5b60005b600280549050811015610b705760028181548110610abd57610abc611602565b5b9060005260206000200160009054906101000a900473ffffffffffffffffffffffffffffffffffffffff1673ffffffffffffffffffffffffffffffffffffffff168273ffffffffffffffffffffffffffffffffffffffff161415610b5d5760028181548110610b2f57610b2e611602565b5b9060005260206000200160006101000a81549073ffffffffffffffffffffffffffffffffffffffff02191690555b8080610b6890611660565b915050610a9c565b5050565b6000610b7e610788565b73ffffffffffffffffffffffffffffffffffffffff168273ffffffffffffffffffffffffffffffffffffffff161415610bba5760019050610c5b565b6000805b600280549050811015610c555760028181548110610bdf57610bde611602565b5b9060005260206000200160009054906101000a900473ffffffffffffffffffffffffffffffffffffffff1673ffffffffffffffffffffffffffffffffffffffff168473ffffffffffffffffffffffffffffffffffffffff161415610c4257600191505b8080610c4d90611660565b915050610bbe565b50809150505b919050565b610c68610f59565b73ffffffffffffffffffffffffffffffffffffffff16610c86610788565b73ffffffffffffffffffffffffffffffffffffffff1614610cdc576040517f08c379a0000000000000000000000000000000000000000000000000000000008152600401610cd390611576565b60405180910390fd5b600073ffffffffffffffffffffffffffffffffffffffff168173ffffffffffffffffffffffffffffffffffffffff161415610d4c576040517f08c379a0000000000000000000000000000000000000000000000000000000008152600401610d439061171b565b60405180910390fd5b610d5581610f61565b50565b60606002805480602002602001604051908101604052809291908181526020018280548015610ddc57602002820191906000526020600020905b8160009054906101000a900473ffffffffffffffffffffffffffffffffffffffff1673ffffffffffffffffffffffffffffffffffffffff1681526020019060010190808311610d92575b5050505050905090565b600068056bc75e2d63100000600160009054906101000a900473ffffffffffffffffffffffffffffffffffffffff1673ffffffffffffffffffffffffffffffffffffffff166370a08231846040518263ffffffff1660e01b8152600401610e4d9190611182565b60206040518083038186803b158015610e6557600080fd5b505afa158015610e79573d6000803e3d6000fd5b505050506040513d601f19601f82011682018060405250810190610e9d9190611767565b10159050919050565b6000600360008373ffffffffffffffffffffffffffffffffffffffff1673ffffffffffffffffffffffffffffffffffffffff16815260200190815260200160002060000160019054906101000a900460ff169050919050565b6000600360008373ffffffffffffffffffffffffffffffffffffffff1673ffffffffffffffffffffffffffffffffffffffff16815260200190815260200160002060000160029054906101000a900460ff16159050919050565b600033905090565b60008060009054906101000a900473ffffffffffffffffffffffffffffffffffffffff169050816000806101000a81548173ffffffffffffffffffffffffffffffffffffffff021916908373ffffffffffffffffffffffffffffffffffffffff1602179055508173ffffffffffffffffffffffffffffffffffffffff168173ffffffffffffffffffffffffffffffffffffffff167f8be0079c531659141344cd1fd0a4f28419497f9722a3daafe3b4186f6b6457e060405160405180910390a35050565b6000600360008373ffffffffffffffffffffffffffffffffffffffff1673ffffffffffffffffffffffffffffffffffffffff16815260200190815260200160002060000160006101000a81548160ff02191690831515021790555050565b600080fd5b600073ffffffffffffffffffffffffffffffffffffffff82169050919050565b60006110b382611088565b9050919050565b6110c3816110a8565b81146110ce57600080fd5b50565b6000813590506110e0816110ba565b92915050565b6000602082840312156110fc576110fb611083565b5b600061110a848285016110d1565b91505092915050565b60008115159050919050565b61112881611113565b82525050565b611137816110a8565b82525050565b6000608082019050611152600083018761111f565b61115f602083018661111f565b61116c604083018561111f565b611179606083018461112e565b95945050505050565b6000602082019050611197600083018461112e565b92915050565b60006020820190506111b2600083018461111f565b92915050565b600081519050919050565b600082825260208201905092915050565b6000819050602082019050919050565b6111ed816110a8565b82525050565b60006111ff83836111e4565b60208301905092915050565b6000602082019050919050565b6000611223826111b8565b61122d81856111c3565b9350611238836111d4565b8060005b8381101561126957815161125088826111f3565b975061125b8361120b565b92505060018101905061123c565b5085935050505092915050565b600060208201905081810360008301526112908184611218565b905092915050565b600082825260208201905092915050565b7f6e6f7420656e6f75676820746f6b656e73000000000000000000000000000000600082015250565b60006112df601183611298565b91506112ea826112a9565b602082019050919050565b6000602082019050818103600083015261130e816112d2565b9050919050565b7f6e6f742076657269666965640000000000000000000000000000000000000000600082015250565b600061134b600c83611298565b915061135682611315565b602082019050919050565b6000602082019050818103600083015261137a8161133e565b9050919050565b7f68617320776f6e00000000000000000000000000000000000000000000000000600082015250565b60006113b7600783611298565b91506113c282611381565b602082019050919050565b600060208201905081810360008301526113e6816113aa565b9050919050565b6000819050919050565b6000819050919050565b6000819050919050565b600061142661142161141c846113ed565b611401565b6113f7565b9050919050565b6114368161140b565b82525050565b6000604082019050611451600083018561112e565b61145e602083018461142d565b9392505050565b61146e81611113565b811461147957600080fd5b50565b60008151905061148b81611465565b92915050565b6000602082840312156114a7576114a6611083565b5b60006114b58482850161147c565b91505092915050565b7f6e6f74206a756467650000000000000000000000000000000000000000000000600082015250565b60006114f4600983611298565b91506114ff826114be565b602082019050919050565b60006020820190508181036000830152611523816114e7565b9050919050565b7f4f776e61626c653a2063616c6c6572206973206e6f7420746865206f776e6572600082015250565b6000611560602083611298565b915061156b8261152a565b602082019050919050565b6000602082019050818103600083015261158f81611553565b9050919050565b7f616c7265616479206a7564676500000000000000000000000000000000000000600082015250565b60006115cc600d83611298565b91506115d782611596565b602082019050919050565b600060208201905081810360008301526115fb816115bf565b9050919050565b7f4e487b7100000000000000000000000000000000000000000000000000000000600052603260045260246000fd5b7f4e487b7100000000000000000000000000000000000000000000000000000000600052601160045260246000fd5b600061166b826113f7565b91507fffffffffffffffffffffffffffffffffffffffffffffffffffffffffffffffff82141561169e5761169d611631565b5b600182019050919050565b7f4f776e61626c653a206e6577206f776e657220697320746865207a65726f206160008201527f6464726573730000000000000000000000000000000000000000000000000000602082015250565b6000611705602683611298565b9150611710826116a9565b604082019050919050565b60006020820190508181036000830152611734816116f8565b9050919050565b611744816113f7565b811461174f57600080fd5b50565b6000815190506117618161173b565b92915050565b60006020828403121561177d5761177c611083565b5b600061178b84828501611752565b9150509291505056fea264697066735822122058538a619a2b519b945f7642b6ff3fb7783d4653e4db70b4783fc7c0b8880e6464736f6c63430008090033",
  "linkReferences": {},
  "deployedLinkReferences": {}
}