{
  "_format": "hh-sol-artifact-1",
  "contractName": "Fweb3TokenFaucet",
  "sourceName": "contracts/Fweb3TokenFaucet.sol",
  "abi": [
    {
      "inputs": [
        {
          "internalType": "contract ERC20",
          "name": "_fweb3Token",
          "type": "address"
        },
        {
          "internalType": "uint256",
          "name": "_dripAmount",
          "type": "uint256"
        },
        {
          "internalType": "uint256",
          "name": "_decimals",
          "type": "uint256"
        },
        {
          "internalType": "uint256",
          "name": "_timeout",
          "type": "uint256"
        },
        {
          "internalType": "bool",
          "name": "_singleUse",
          "type": "bool"
        },
        {
          "internalType": "uint256",
          "name": "_holderLimitFweb3",
          "type": "uint256"
        }
      ],
      "stateMutability": "nonpayable",
      "type": "constructor"
    },
    {
      "anonymous": false,
      "inputs": [
        {
          "indexed": false,
          "internalType": "address",
          "name": "",
          "type": "address"
        },
        {
          "indexed": false,
          "internalType": "string",
          "name": "",
          "type": "string"
        },
        {
          "indexed": false,
          "internalType": "uint256",
          "name": "",
          "type": "uint256"
        }
      ],
      "name": "Dripped",
      "type": "event"
    },
    {
      "anonymous": false,
      "inputs": [
        {
          "indexed": true,
          "internalType": "address",
          "name": "previousOwner",
          "type": "address"
        },
        {
          "indexed": true,
          "internalType": "address",
          "name": "newOwner",
          "type": "address"
        }
      ],
      "name": "OwnershipTransferred",
      "type": "event"
    },
    {
      "anonymous": false,
      "inputs": [
        {
          "indexed": false,
          "internalType": "address",
          "name": "",
          "type": "address"
        },
        {
          "indexed": false,
          "internalType": "uint256",
          "name": "",
          "type": "uint256"
        }
      ],
      "name": "ReceivedDeposit",
      "type": "event"
    },
    {
      "anonymous": false,
      "inputs": [
        {
          "indexed": false,
          "internalType": "address",
          "name": "",
          "type": "address"
        },
        {
          "indexed": false,
          "internalType": "uint256",
          "name": "",
          "type": "uint256"
        }
      ],
      "name": "ReceivedFweb3Deposit",
      "type": "event"
    },
    {
      "anonymous": false,
      "inputs": [
        {
          "indexed": true,
          "internalType": "bytes32",
          "name": "role",
          "type": "bytes32"
        },
        {
          "indexed": true,
          "internalType": "bytes32",
          "name": "previousAdminRole",
          "type": "bytes32"
        },
        {
          "indexed": true,
          "internalType": "bytes32",
          "name": "newAdminRole",
          "type": "bytes32"
        }
      ],
      "name": "RoleAdminChanged",
      "type": "event"
    },
    {
      "anonymous": false,
      "inputs": [
        {
          "indexed": true,
          "internalType": "bytes32",
          "name": "role",
          "type": "bytes32"
        },
        {
          "indexed": true,
          "internalType": "address",
          "name": "account",
          "type": "address"
        },
        {
          "indexed": true,
          "internalType": "address",
          "name": "sender",
          "type": "address"
        }
      ],
      "name": "RoleGranted",
      "type": "event"
    },
    {
      "anonymous": false,
      "inputs": [
        {
          "indexed": true,
          "internalType": "bytes32",
          "name": "role",
          "type": "bytes32"
        },
        {
          "indexed": true,
          "internalType": "address",
          "name": "account",
          "type": "address"
        },
        {
          "indexed": true,
          "internalType": "address",
          "name": "sender",
          "type": "address"
        }
      ],
      "name": "RoleRevoked",
      "type": "event"
    },
    {
      "inputs": [],
      "name": "ADMIN_ROLE",
      "outputs": [
        {
          "internalType": "bytes32",
          "name": "",
          "type": "bytes32"
        }
      ],
      "stateMutability": "view",
      "type": "function"
    },
    {
      "inputs": [],
      "name": "DEFAULT_ADMIN_ROLE",
      "outputs": [
        {
          "internalType": "bytes32",
          "name": "",
          "type": "bytes32"
        }
      ],
      "stateMutability": "view",
      "type": "function"
    },
    {
      "inputs": [
        {
          "internalType": "address",
          "name": "forWhom",
          "type": "address"
        }
      ],
      "name": "clearTimeoutForAddress",
      "outputs": [],
      "stateMutability": "nonpayable",
      "type": "function"
    },
    {
      "inputs": [],
      "name": "decimals",
      "outputs": [
        {
          "internalType": "uint256",
          "name": "",
          "type": "uint256"
        }
      ],
      "stateMutability": "view",
      "type": "function"
    },
    {
      "inputs": [
        {
          "internalType": "address payable",
          "name": "to",
          "type": "address"
        }
      ],
      "name": "drain",
      "outputs": [],
      "stateMutability": "nonpayable",
      "type": "function"
    },
    {
      "inputs": [
        {
          "internalType": "address payable",
          "name": "to",
          "type": "address"
        }
      ],
      "name": "drainFweb3",
      "outputs": [],
      "stateMutability": "nonpayable",
      "type": "function"
    },
    {
      "inputs": [
        {
          "internalType": "address payable",
          "name": "to",
          "type": "address"
        }
      ],
      "name": "drip",
      "outputs": [],
      "stateMutability": "nonpayable",
      "type": "function"
    },
    {
      "inputs": [],
      "name": "dripAmount",
      "outputs": [
        {
          "internalType": "uint256",
          "name": "",
          "type": "uint256"
        }
      ],
      "stateMutability": "view",
      "type": "function"
    },
    {
      "inputs": [],
      "name": "faucetDisabled",
      "outputs": [
        {
          "internalType": "bool",
          "name": "",
          "type": "bool"
        }
      ],
      "stateMutability": "view",
      "type": "function"
    },
    {
      "inputs": [],
      "name": "fweb3Token",
      "outputs": [
        {
          "internalType": "contract ERC20",
          "name": "",
          "type": "address"
        }
      ],
      "stateMutability": "view",
      "type": "function"
    },
    {
      "inputs": [
        {
          "internalType": "bytes32",
          "name": "role",
          "type": "bytes32"
        }
      ],
      "name": "getRoleAdmin",
      "outputs": [
        {
          "internalType": "bytes32",
          "name": "",
          "type": "bytes32"
        }
      ],
      "stateMutability": "view",
      "type": "function"
    },
    {
      "inputs": [
        {
          "internalType": "bytes32",
          "name": "role",
          "type": "bytes32"
        },
        {
          "internalType": "address",
          "name": "account",
          "type": "address"
        }
      ],
      "name": "grantRole",
      "outputs": [],
      "stateMutability": "nonpayable",
      "type": "function"
    },
    {
      "inputs": [
        {
          "internalType": "bytes32",
          "name": "role",
          "type": "bytes32"
        },
        {
          "internalType": "address",
          "name": "account",
          "type": "address"
        }
      ],
      "name": "hasRole",
      "outputs": [
        {
          "internalType": "bool",
          "name": "",
          "type": "bool"
        }
      ],
      "stateMutability": "view",
      "type": "function"
    },
    {
      "inputs": [],
      "name": "holderLimit",
      "outputs": [
        {
          "internalType": "uint256",
          "name": "",
          "type": "uint256"
        }
      ],
      "stateMutability": "view",
      "type": "function"
    },
    {
      "inputs": [],
      "name": "owner",
      "outputs": [
        {
          "internalType": "address",
          "name": "",
          "type": "address"
        }
      ],
      "stateMutability": "view",
      "type": "function"
    },
    {
      "inputs": [],
      "name": "renounceOwnership",
      "outputs": [],
      "stateMutability": "nonpayable",
      "type": "function"
    },
    {
      "inputs": [
        {
          "internalType": "bytes32",
          "name": "role",
          "type": "bytes32"
        },
        {
          "internalType": "address",
          "name": "account",
          "type": "address"
        }
      ],
      "name": "renounceRole",
      "outputs": [],
      "stateMutability": "nonpayable",
      "type": "function"
    },
    {
      "inputs": [
        {
          "internalType": "bytes32",
          "name": "role",
          "type": "bytes32"
        },
        {
          "internalType": "address",
          "name": "account",
          "type": "address"
        }
      ],
      "name": "revokeRole",
      "outputs": [],
      "stateMutability": "nonpayable",
      "type": "function"
    },
    {
      "inputs": [
        {
          "internalType": "bool",
          "name": "shouldBeDisabled",
          "type": "bool"
        }
      ],
      "name": "setDisableFaucet",
      "outputs": [],
      "stateMutability": "nonpayable",
      "type": "function"
    },
    {
      "inputs": [
        {
          "internalType": "uint256",
          "name": "amount",
          "type": "uint256"
        },
        {
          "internalType": "uint256",
          "name": "_decimals",
          "type": "uint256"
        }
      ],
      "name": "setDripAmount",
      "outputs": [],
      "stateMutability": "nonpayable",
      "type": "function"
    },
    {
      "inputs": [
        {
          "internalType": "uint256",
          "name": "limit",
          "type": "uint256"
        }
      ],
      "name": "setHolderLimit",
      "outputs": [],
      "stateMutability": "nonpayable",
      "type": "function"
    },
    {
      "inputs": [
        {
          "internalType": "bool",
          "name": "shouldBeSingleUse",
          "type": "bool"
        }
      ],
      "name": "setSingleUse",
      "outputs": [],
      "stateMutability": "nonpayable",
      "type": "function"
    },
    {
      "inputs": [
        {
          "internalType": "uint256",
          "name": "newTimeout",
          "type": "uint256"
        }
      ],
      "name": "setTimeout",
      "outputs": [],
      "stateMutability": "nonpayable",
      "type": "function"
    },
    {
      "inputs": [],
      "name": "singleUse",
      "outputs": [
        {
          "internalType": "bool",
          "name": "",
          "type": "bool"
        }
      ],
      "stateMutability": "view",
      "type": "function"
    },
    {
      "inputs": [
        {
          "internalType": "bytes4",
          "name": "interfaceId",
          "type": "bytes4"
        }
      ],
      "name": "supportsInterface",
      "outputs": [
        {
          "internalType": "bool",
          "name": "",
          "type": "bool"
        }
      ],
      "stateMutability": "view",
      "type": "function"
    },
    {
      "inputs": [],
      "name": "timeout",
      "outputs": [
        {
          "internalType": "uint256",
          "name": "",
          "type": "uint256"
        }
      ],
      "stateMutability": "view",
      "type": "function"
    },
    {
      "inputs": [
        {
          "internalType": "address",
          "name": "newOwner",
          "type": "address"
        }
      ],
      "name": "transferOwnership",
      "outputs": [],
      "stateMutability": "nonpayable",
      "type": "function"
    },
    {
      "inputs": [],
      "name": "useHolderLimit",
      "outputs": [
        {
          "internalType": "bool",
          "name": "",
          "type": "bool"
        }
      ],
      "stateMutability": "view",
      "type": "function"
    },
    {
      "stateMutability": "payable",
      "type": "receive"
    }
  ],
  "bytecode": "0x60806040523480156200001157600080fd5b506040516200336f3803806200336f833981810160405281019062000037919062000486565b620000576200004b6200015160201b60201c565b6200015960201b60201c565b6200006c6000801b336200021f60201b60201c565b6200009e7fa49807205ce4d355092ef5a8a18f56e8913cf4a201fbe287825b095693c21775336200021f60201b60201c565b85600a60006101000a81548173ffffffffffffffffffffffffffffffffffffffff021916908373ffffffffffffffffffffffffffffffffffffffff16021790555083600a620000ee9190620006a5565b85620000fb9190620006f6565b600281905550836003819055508260048190555081600560016101000a81548160ff021916908315150217905550670de0b6b3a7640000816200013f9190620006f6565b60068190555050505050505062000757565b600033905090565b6000600160009054906101000a900473ffffffffffffffffffffffffffffffffffffffff16905081600160006101000a81548173ffffffffffffffffffffffffffffffffffffffff021916908373ffffffffffffffffffffffffffffffffffffffff1602179055508173ffffffffffffffffffffffffffffffffffffffff168173ffffffffffffffffffffffffffffffffffffffff167f8be0079c531659141344cd1fd0a4f28419497f9722a3daafe3b4186f6b6457e060405160405180910390a35050565b6200023182826200023560201b60201c565b5050565b6200024782826200032660201b60201c565b6200032257600160008084815260200190815260200160002060000160008373ffffffffffffffffffffffffffffffffffffffff1673ffffffffffffffffffffffffffffffffffffffff16815260200190815260200160002060006101000a81548160ff021916908315150217905550620002c76200015160201b60201c565b73ffffffffffffffffffffffffffffffffffffffff168173ffffffffffffffffffffffffffffffffffffffff16837f2f8788117e7eff1d82e926ec794901d17c78024a50270940304540a733656f0d60405160405180910390a45b5050565b600080600084815260200190815260200160002060000160008373ffffffffffffffffffffffffffffffffffffffff1673ffffffffffffffffffffffffffffffffffffffff16815260200190815260200160002060009054906101000a900460ff16905092915050565b600080fd5b600073ffffffffffffffffffffffffffffffffffffffff82169050919050565b6000620003c28262000395565b9050919050565b6000620003d682620003b5565b9050919050565b620003e881620003c9565b8114620003f457600080fd5b50565b6000815190506200040881620003dd565b92915050565b6000819050919050565b62000423816200040e565b81146200042f57600080fd5b50565b600081519050620004438162000418565b92915050565b60008115159050919050565b620004608162000449565b81146200046c57600080fd5b50565b600081519050620004808162000455565b92915050565b60008060008060008060c08789031215620004a657620004a562000390565b5b6000620004b689828a01620003f7565b9650506020620004c989828a0162000432565b9550506040620004dc89828a0162000432565b9450506060620004ef89828a0162000432565b93505060806200050289828a016200046f565b92505060a06200051589828a0162000432565b9150509295509295509295565b7f4e487b7100000000000000000000000000000000000000000000000000000000600052601160045260246000fd5b60008160011c9050919050565b6000808291508390505b6001851115620005b05780860481111562000588576200058762000522565b5b6001851615620005985780820291505b8081029050620005a88562000551565b945062000568565b94509492505050565b600082620005cb57600190506200069e565b81620005db57600090506200069e565b8160018114620005f45760028114620005ff5762000635565b60019150506200069e565b60ff84111562000614576200061362000522565b5b8360020a9150848211156200062e576200062d62000522565b5b506200069e565b5060208310610133831016604e8410600b84101617156200066f5782820a90508381111562000669576200066862000522565b5b6200069e565b6200067e84848460016200055e565b9250905081840481111562000698576200069762000522565b5b81810290505b9392505050565b6000620006b2826200040e565b9150620006bf836200040e565b9250620006ee7fffffffffffffffffffffffffffffffffffffffffffffffffffffffffffffffff8484620005b9565b905092915050565b600062000703826200040e565b915062000710836200040e565b9250817fffffffffffffffffffffffffffffffffffffffffffffffffffffffffffffffff04831182151516156200074c576200074b62000522565b5b828202905092915050565b612c0880620007676000396000f3fe6080604052600436106101bb5760003560e01c806375b238fc116100ec578063c58a34cc1161008a578063e928890c11610064578063e928890c14610616578063ec53241814610641578063ece531321461066a578063f2fde38b14610693576101fb565b8063c58a34cc1461059b578063d547741f146105c4578063e28c8172146105ed576101fb565b80638da5cb5b116100c65780638da5cb5b146104dd57806391d14854146105085780639811572c14610545578063a217fddf14610570576101fb565b806375b238fc1461045e57806376e1032a1461048957806386c10c0a146104b4576101fb565b806336568abe116101595780636c40bc15116101335780636c40bc15146103c85780636f7bd002146103f157806370dea79a1461041c578063715018a614610447576101fb565b806336568abe1461034b578063506e817d1461037457806367a5cd061461039f576101fb565b8063248a9ca311610195578063248a9ca31461028f5780632f2ff15d146102cc578063313ce567146102f557806335a1529b14610320576101fb565b806301ffc9a71461020057806306f91d591461023d5780631d691fb514610266576101fb565b366101fb577f645431dbae366bae0d8be5812a6298ad69f5604842a40a1bae301a143386865433346040516101f1929190611c3b565b60405180910390a1005b600080fd5b34801561020c57600080fd5b5061022760048036038101906102229190611cc1565b6106bc565b6040516102349190611d09565b60405180910390f35b34801561024957600080fd5b50610264600480360381019061025f9190611d50565b610736565b005b34801561027257600080fd5b5061028d60048036038101906102889190611da9565b610786565b005b34801561029b57600080fd5b506102b660048036038101906102b19190611e0c565b6107d6565b6040516102c39190611e48565b60405180910390f35b3480156102d857600080fd5b506102f360048036038101906102ee9190611e8f565b6107f5565b005b34801561030157600080fd5b5061030a61081e565b6040516103179190611ecf565b60405180910390f35b34801561032c57600080fd5b50610335610824565b6040516103429190611ecf565b60405180910390f35b34801561035757600080fd5b50610372600480360381019061036d9190611e8f565b61082a565b005b34801561038057600080fd5b506103896108ad565b6040516103969190611d09565b60405180910390f35b3480156103ab57600080fd5b506103c660048036038101906103c19190611f28565b6108c0565b005b3480156103d457600080fd5b506103ef60048036038101906103ea9190611f55565b610e34565b005b3480156103fd57600080fd5b50610406610e90565b6040516104139190611ff4565b60405180910390f35b34801561042857600080fd5b50610431610eb6565b60405161043e9190611ecf565b60405180910390f35b34801561045357600080fd5b5061045c610ebc565b005b34801561046a57600080fd5b50610473610f44565b6040516104809190611e48565b60405180910390f35b34801561049557600080fd5b5061049e610f68565b6040516104ab9190611d09565b60405180910390f35b3480156104c057600080fd5b506104db60048036038101906104d6919061200f565b610f7b565b005b3480156104e957600080fd5b506104f2610ff6565b6040516104ff919061203c565b60405180910390f35b34801561051457600080fd5b5061052f600480360381019061052a9190611e8f565b611020565b60405161053c9190611d09565b60405180910390f35b34801561055157600080fd5b5061055a61108a565b6040516105679190611ecf565b60405180910390f35b34801561057c57600080fd5b50610585611090565b6040516105929190611e48565b60405180910390f35b3480156105a757600080fd5b506105c260048036038101906105bd9190611d50565b611097565b005b3480156105d057600080fd5b506105eb60048036038101906105e69190611e8f565b6110d4565b005b3480156105f957600080fd5b50610614600480360381019061060f9190611da9565b6110fd565b005b34801561062257600080fd5b5061062b61114d565b6040516106389190611d09565b60405180910390f35b34801561064d57600080fd5b5061066860048036038101906106639190611f28565b611160565b005b34801561067657600080fd5b50610691600480360381019061068c9190611f28565b611383565b005b34801561069f57600080fd5b506106ba60048036038101906106b5919061200f565b611449565b005b60007f7965db0b000000000000000000000000000000000000000000000000000000007bffffffffffffffffffffffffffffffffffffffffffffffffffffffff1916827bffffffffffffffffffffffffffffffffffffffffffffffffffffffff1916148061072f575061072e82611541565b5b9050919050565b7fa49807205ce4d355092ef5a8a18f56e8913cf4a201fbe287825b095693c21775610768816107636115ab565b6115b3565b670de0b6b3a76400008261077c9190612086565b6006819055505050565b7fa49807205ce4d355092ef5a8a18f56e8913cf4a201fbe287825b095693c217756107b8816107b36115ab565b6115b3565b81600560006101000a81548160ff0219169083151502179055505050565b6000806000838152602001908152602001600020600101549050919050565b6107fe826107d6565b61080f8161080a6115ab565b6115b3565b6108198383611650565b505050565b60035481565b60025481565b6108326115ab565b73ffffffffffffffffffffffffffffffffffffffff168173ffffffffffffffffffffffffffffffffffffffff161461089f576040517f08c379a000000000000000000000000000000000000000000000000000000000815260040161089690612163565b60405180910390fd5b6108a98282611730565b5050565b600760009054906101000a900460ff1681565b80600560009054906101000a900460ff1615610911576040517f08c379a0000000000000000000000000000000000000000000000000000000008152600401610908906121cf565b60405180910390fd5b6402540be400471015610959576040517f08c379a00000000000000000000000000000000000000000000000000000000081526004016109509061223b565b60405180910390fd5b600560019054906101000a900460ff16156109fc57600860008273ffffffffffffffffffffffffffffffffffffffff1673ffffffffffffffffffffffffffffffffffffffff16815260200190815260200160002060009054906101000a900460ff16156109fb576040517f08c379a00000000000000000000000000000000000000000000000000000000081526004016109f2906122a7565b60405180910390fd5b5b6006548173ffffffffffffffffffffffffffffffffffffffff163111610a57576040517f08c379a0000000000000000000000000000000000000000000000000000000008152600401610a4e90612313565b60405180910390fd5b60006004541115610ae55742600960008373ffffffffffffffffffffffffffffffffffffffff1673ffffffffffffffffffffffffffffffffffffffff168152602001908152602001600020541115610ae4576040517f08c379a0000000000000000000000000000000000000000000000000000000008152600401610adb9061237f565b60405180910390fd5b5b7fa49807205ce4d355092ef5a8a18f56e8913cf4a201fbe287825b095693c21775610b1781610b126115ab565b6115b3565b600254600a60009054906101000a900473ffffffffffffffffffffffffffffffffffffffff1673ffffffffffffffffffffffffffffffffffffffff166370a08231306040518263ffffffff1660e01b8152600401610b75919061203c565b60206040518083038186803b158015610b8d57600080fd5b505afa158015610ba1573d6000803e3d6000fd5b505050506040513d601f19601f82011682018060405250810190610bc591906123b4565b1015610c06576040517f08c379a0000000000000000000000000000000000000000000000000000000008152600401610bfd9061242d565b60405180910390fd5b600654600a60009054906101000a900473ffffffffffffffffffffffffffffffffffffffff1673ffffffffffffffffffffffffffffffffffffffff166370a08231856040518263ffffffff1660e01b8152600401610c64919061246e565b60206040518083038186803b158015610c7c57600080fd5b505afa158015610c90573d6000803e3d6000fd5b505050506040513d601f19601f82011682018060405250810190610cb491906123b4565b1115610cf5576040517f08c379a0000000000000000000000000000000000000000000000000000000008152600401610cec906124d5565b60405180910390fd5b6000600a60009054906101000a900473ffffffffffffffffffffffffffffffffffffffff1673ffffffffffffffffffffffffffffffffffffffff1663a9059cbb856002546040518363ffffffff1660e01b8152600401610d569291906124f5565b602060405180830381600087803b158015610d7057600080fd5b505af1158015610d84573d6000803e3d6000fd5b505050506040513d601f19601f82011682018060405250810190610da89190612533565b905080610dea576040517f08c379a0000000000000000000000000000000000000000000000000000000008152600401610de1906125ac565b60405180910390fd5b610df384611811565b7f5c17f5353b06dcfd2dc264e541fbcef1696efb5f704f1ca75eb20af054eab5ee33600254604051610e26929190612618565b60405180910390a150505050565b7fa49807205ce4d355092ef5a8a18f56e8913cf4a201fbe287825b095693c21775610e6681610e616115ab565b6115b3565b8160038190555081600a610e7a9190612787565b83610e859190612086565b600281905550505050565b600a60009054906101000a900473ffffffffffffffffffffffffffffffffffffffff1681565b60045481565b610ec46115ab565b73ffffffffffffffffffffffffffffffffffffffff16610ee2610ff6565b73ffffffffffffffffffffffffffffffffffffffff1614610f38576040517f08c379a0000000000000000000000000000000000000000000000000000000008152600401610f2f9061281e565b60405180910390fd5b610f4260006118df565b565b7fa49807205ce4d355092ef5a8a18f56e8913cf4a201fbe287825b095693c2177581565b600560019054906101000a900460ff1681565b7fa49807205ce4d355092ef5a8a18f56e8913cf4a201fbe287825b095693c21775610fad81610fa86115ab565b6115b3565b6000600960008473ffffffffffffffffffffffffffffffffffffffff1673ffffffffffffffffffffffffffffffffffffffff168152602001908152602001600020819055505050565b6000600160009054906101000a900473ffffffffffffffffffffffffffffffffffffffff16905090565b600080600084815260200190815260200160002060000160008373ffffffffffffffffffffffffffffffffffffffff1673ffffffffffffffffffffffffffffffffffffffff16815260200190815260200160002060009054906101000a900460ff16905092915050565b60065481565b6000801b81565b7fa49807205ce4d355092ef5a8a18f56e8913cf4a201fbe287825b095693c217756110c9816110c46115ab565b6115b3565b816004819055505050565b6110dd826107d6565b6110ee816110e96115ab565b6115b3565b6110f88383611730565b505050565b7fa49807205ce4d355092ef5a8a18f56e8913cf4a201fbe287825b095693c2177561112f8161112a6115ab565b6115b3565b81600560016101000a81548160ff0219169083151502179055505050565b600560009054906101000a900460ff1681565b6111686115ab565b73ffffffffffffffffffffffffffffffffffffffff16611186610ff6565b73ffffffffffffffffffffffffffffffffffffffff16146111dc576040517f08c379a00000000000000000000000000000000000000000000000000000000081526004016111d39061281e565b60405180910390fd5b6000600a60009054906101000a900473ffffffffffffffffffffffffffffffffffffffff1673ffffffffffffffffffffffffffffffffffffffff166370a08231306040518263ffffffff1660e01b8152600401611239919061203c565b60206040518083038186803b15801561125157600080fd5b505afa158015611265573d6000803e3d6000fd5b505050506040513d601f19601f8201168201806040525081019061128991906123b4565b90506000600a60009054906101000a900473ffffffffffffffffffffffffffffffffffffffff1673ffffffffffffffffffffffffffffffffffffffff1663a9059cbb84846040518363ffffffff1660e01b81526004016112ea9291906124f5565b602060405180830381600087803b15801561130457600080fd5b505af1158015611318573d6000803e3d6000fd5b505050506040513d601f19601f8201168201806040525081019061133c9190612533565b90508061137e576040517f08c379a0000000000000000000000000000000000000000000000000000000008152600401611375906125ac565b60405180910390fd5b505050565b61138b6115ab565b73ffffffffffffffffffffffffffffffffffffffff166113a9610ff6565b73ffffffffffffffffffffffffffffffffffffffff16146113ff576040517f08c379a00000000000000000000000000000000000000000000000000000000081526004016113f69061281e565b60405180910390fd5b8073ffffffffffffffffffffffffffffffffffffffff166108fc479081150290604051600060405180830381858888f19350505050158015611445573d6000803e3d6000fd5b5050565b6114516115ab565b73ffffffffffffffffffffffffffffffffffffffff1661146f610ff6565b73ffffffffffffffffffffffffffffffffffffffff16146114c5576040517f08c379a00000000000000000000000000000000000000000000000000000000081526004016114bc9061281e565b60405180910390fd5b600073ffffffffffffffffffffffffffffffffffffffff168173ffffffffffffffffffffffffffffffffffffffff161415611535576040517f08c379a000000000000000000000000000000000000000000000000000000000815260040161152c906128b0565b60405180910390fd5b61153e816118df565b50565b60007f01ffc9a7000000000000000000000000000000000000000000000000000000007bffffffffffffffffffffffffffffffffffffffffffffffffffffffff1916827bffffffffffffffffffffffffffffffffffffffffffffffffffffffff1916149050919050565b600033905090565b6115bd8282611020565b61164c576115e28173ffffffffffffffffffffffffffffffffffffffff1660146119a5565b6115f08360001c60206119a5565b6040516020016116019291906129e2565b6040516020818303038152906040526040517f08c379a00000000000000000000000000000000000000000000000000000000081526004016116439190612a66565b60405180910390fd5b5050565b61165a8282611020565b61172c57600160008084815260200190815260200160002060000160008373ffffffffffffffffffffffffffffffffffffffff1673ffffffffffffffffffffffffffffffffffffffff16815260200190815260200160002060006101000a81548160ff0219169083151502179055506116d16115ab565b73ffffffffffffffffffffffffffffffffffffffff168173ffffffffffffffffffffffffffffffffffffffff16837f2f8788117e7eff1d82e926ec794901d17c78024a50270940304540a733656f0d60405160405180910390a45b5050565b61173a8282611020565b1561180d57600080600084815260200190815260200160002060000160008373ffffffffffffffffffffffffffffffffffffffff1673ffffffffffffffffffffffffffffffffffffffff16815260200190815260200160002060006101000a81548160ff0219169083151502179055506117b26115ab565b73ffffffffffffffffffffffffffffffffffffffff168173ffffffffffffffffffffffffffffffffffffffff16837ff6391f5c32d9c69d2a47ea670b442974b53935d1edc7fd64eb21e047a839171b60405160405180910390a45b5050565b6000600454111561186e576004544261182a9190612a88565b600960008373ffffffffffffffffffffffffffffffffffffffff1673ffffffffffffffffffffffffffffffffffffffff168152602001908152602001600020819055505b600560019054906101000a900460ff16156118dc576001600860008373ffffffffffffffffffffffffffffffffffffffff1673ffffffffffffffffffffffffffffffffffffffff16815260200190815260200160002060006101000a81548160ff0219169083151502179055505b50565b6000600160009054906101000a900473ffffffffffffffffffffffffffffffffffffffff16905081600160006101000a81548173ffffffffffffffffffffffffffffffffffffffff021916908373ffffffffffffffffffffffffffffffffffffffff1602179055508173ffffffffffffffffffffffffffffffffffffffff168173ffffffffffffffffffffffffffffffffffffffff167f8be0079c531659141344cd1fd0a4f28419497f9722a3daafe3b4186f6b6457e060405160405180910390a35050565b6060600060028360026119b89190612086565b6119c29190612a88565b67ffffffffffffffff8111156119db576119da612ade565b5b6040519080825280601f01601f191660200182016040528015611a0d5781602001600182028036833780820191505090505b5090507f300000000000000000000000000000000000000000000000000000000000000081600081518110611a4557611a44612b0d565b5b60200101907effffffffffffffffffffffffffffffffffffffffffffffffffffffffffffff1916908160001a9053507f780000000000000000000000000000000000000000000000000000000000000081600181518110611aa957611aa8612b0d565b5b60200101907effffffffffffffffffffffffffffffffffffffffffffffffffffffffffffff1916908160001a90535060006001846002611ae99190612086565b611af39190612a88565b90505b6001811115611b93577f3031323334353637383961626364656600000000000000000000000000000000600f861660108110611b3557611b34612b0d565b5b1a60f81b828281518110611b4c57611b4b612b0d565b5b60200101907effffffffffffffffffffffffffffffffffffffffffffffffffffffffffffff1916908160001a905350600485901c945080611b8c90612b3c565b9050611af6565b5060008414611bd7576040517f08c379a0000000000000000000000000000000000000000000000000000000008152600401611bce90612bb2565b60405180910390fd5b8091505092915050565b600073ffffffffffffffffffffffffffffffffffffffff82169050919050565b6000611c0c82611be1565b9050919050565b611c1c81611c01565b82525050565b6000819050919050565b611c3581611c22565b82525050565b6000604082019050611c506000830185611c13565b611c5d6020830184611c2c565b9392505050565b600080fd5b60007fffffffff0000000000000000000000000000000000000000000000000000000082169050919050565b611c9e81611c69565b8114611ca957600080fd5b50565b600081359050611cbb81611c95565b92915050565b600060208284031215611cd757611cd6611c64565b5b6000611ce584828501611cac565b91505092915050565b60008115159050919050565b611d0381611cee565b82525050565b6000602082019050611d1e6000830184611cfa565b92915050565b611d2d81611c22565b8114611d3857600080fd5b50565b600081359050611d4a81611d24565b92915050565b600060208284031215611d6657611d65611c64565b5b6000611d7484828501611d3b565b91505092915050565b611d8681611cee565b8114611d9157600080fd5b50565b600081359050611da381611d7d565b92915050565b600060208284031215611dbf57611dbe611c64565b5b6000611dcd84828501611d94565b91505092915050565b6000819050919050565b611de981611dd6565b8114611df457600080fd5b50565b600081359050611e0681611de0565b92915050565b600060208284031215611e2257611e21611c64565b5b6000611e3084828501611df7565b91505092915050565b611e4281611dd6565b82525050565b6000602082019050611e5d6000830184611e39565b92915050565b611e6c81611c01565b8114611e7757600080fd5b50565b600081359050611e8981611e63565b92915050565b60008060408385031215611ea657611ea5611c64565b5b6000611eb485828601611df7565b9250506020611ec585828601611e7a565b9150509250929050565b6000602082019050611ee46000830184611c2c565b92915050565b6000611ef582611be1565b9050919050565b611f0581611eea565b8114611f1057600080fd5b50565b600081359050611f2281611efc565b92915050565b600060208284031215611f3e57611f3d611c64565b5b6000611f4c84828501611f13565b91505092915050565b60008060408385031215611f6c57611f6b611c64565b5b6000611f7a85828601611d3b565b9250506020611f8b85828601611d3b565b9150509250929050565b6000819050919050565b6000611fba611fb5611fb084611be1565b611f95565b611be1565b9050919050565b6000611fcc82611f9f565b9050919050565b6000611fde82611fc1565b9050919050565b611fee81611fd3565b82525050565b60006020820190506120096000830184611fe5565b92915050565b60006020828403121561202557612024611c64565b5b600061203384828501611e7a565b91505092915050565b60006020820190506120516000830184611c13565b92915050565b7f4e487b7100000000000000000000000000000000000000000000000000000000600052601160045260246000fd5b600061209182611c22565b915061209c83611c22565b9250817fffffffffffffffffffffffffffffffffffffffffffffffffffffffffffffffff04831182151516156120d5576120d4612057565b5b828202905092915050565b600082825260208201905092915050565b7f416363657373436f6e74726f6c3a2063616e206f6e6c792072656e6f756e636560008201527f20726f6c657320666f722073656c660000000000000000000000000000000000602082015250565b600061214d602f836120e0565b9150612158826120f1565b604082019050919050565b6000602082019050818103600083015261217c81612140565b9050919050565b7f4641554345545f44495341424c45440000000000000000000000000000000000600082015250565b60006121b9600f836120e0565b91506121c482612183565b602082019050919050565b600060208201905081810360008301526121e8816121ac565b9050919050565b7f4641554345545f44525900000000000000000000000000000000000000000000600082015250565b6000612225600a836120e0565b9150612230826121ef565b602082019050919050565b6000602082019050818103600083015261225481612218565b9050919050565b7f53494e474c455f55534500000000000000000000000000000000000000000000600082015250565b6000612291600a836120e0565b915061229c8261225b565b602082019050919050565b600060208201905081810360008301526122c081612284565b9050919050565b7f484f4c4445525f4c494d49540000000000000000000000000000000000000000600082015250565b60006122fd600c836120e0565b9150612308826122c7565b602082019050919050565b6000602082019050818103600083015261232c816122f0565b9050919050565b7f57414c4c45545f54494d454f5554000000000000000000000000000000000000600082015250565b6000612369600e836120e0565b915061237482612333565b602082019050919050565b600060208201905081810360008301526123988161235c565b9050919050565b6000815190506123ae81611d24565b92915050565b6000602082840312156123ca576123c9611c64565b5b60006123d88482850161239f565b91505092915050565b7f46574542335f4452590000000000000000000000000000000000000000000000600082015250565b60006124176009836120e0565b9150612422826123e1565b602082019050919050565b600060208201905081810360008301526124468161240a565b9050919050565b600061245882611fc1565b9050919050565b6124688161244d565b82525050565b6000602082019050612483600083018461245f565b92915050565b7f46574542335f57414c4c45545f4c494d49540000000000000000000000000000600082015250565b60006124bf6012836120e0565b91506124ca82612489565b602082019050919050565b600060208201905081810360008301526124ee816124b2565b9050919050565b600060408201905061250a600083018561245f565b6125176020830184611c2c565b9392505050565b60008151905061252d81611d7d565b92915050565b60006020828403121561254957612548611c64565b5b60006125578482850161251e565b91505092915050565b7f54585f4641494c55524500000000000000000000000000000000000000000000600082015250565b6000612596600a836120e0565b91506125a182612560565b602082019050919050565b600060208201905081810360008301526125c581612589565b9050919050565b7f4657454233000000000000000000000000000000000000000000000000000000600082015250565b60006126026005836120e0565b915061260d826125cc565b602082019050919050565b600060608201905061262d6000830185611c13565b818103602083015261263e816125f5565b905061264d6040830184611c2c565b9392505050565b60008160011c9050919050565b6000808291508390505b60018511156126ab5780860481111561268757612686612057565b5b60018516156126965780820291505b80810290506126a485612654565b945061266b565b94509492505050565b6000826126c45760019050612780565b816126d25760009050612780565b81600181146126e857600281146126f257612721565b6001915050612780565b60ff84111561270457612703612057565b5b8360020a91508482111561271b5761271a612057565b5b50612780565b5060208310610133831016604e8410600b84101617156127565782820a90508381111561275157612750612057565b5b612780565b6127638484846001612661565b9250905081840481111561277a57612779612057565b5b81810290505b9392505050565b600061279282611c22565b915061279d83611c22565b92506127ca7fffffffffffffffffffffffffffffffffffffffffffffffffffffffffffffffff84846126b4565b905092915050565b7f4f776e61626c653a2063616c6c6572206973206e6f7420746865206f776e6572600082015250565b60006128086020836120e0565b9150612813826127d2565b602082019050919050565b60006020820190508181036000830152612837816127fb565b9050919050565b7f4f776e61626c653a206e6577206f776e657220697320746865207a65726f206160008201527f6464726573730000000000000000000000000000000000000000000000000000602082015250565b600061289a6026836120e0565b91506128a58261283e565b604082019050919050565b600060208201905081810360008301526128c98161288d565b9050919050565b600081905092915050565b7f416363657373436f6e74726f6c3a206163636f756e7420000000000000000000600082015250565b60006129116017836128d0565b915061291c826128db565b601782019050919050565b600081519050919050565b60005b83811015612950578082015181840152602081019050612935565b8381111561295f576000848401525b50505050565b600061297082612927565b61297a81856128d0565b935061298a818560208601612932565b80840191505092915050565b7f206973206d697373696e6720726f6c6520000000000000000000000000000000600082015250565b60006129cc6011836128d0565b91506129d782612996565b601182019050919050565b60006129ed82612904565b91506129f98285612965565b9150612a04826129bf565b9150612a108284612965565b91508190509392505050565b6000601f19601f8301169050919050565b6000612a3882612927565b612a4281856120e0565b9350612a52818560208601612932565b612a5b81612a1c565b840191505092915050565b60006020820190508181036000830152612a808184612a2d565b905092915050565b6000612a9382611c22565b9150612a9e83611c22565b9250827fffffffffffffffffffffffffffffffffffffffffffffffffffffffffffffffff03821115612ad357612ad2612057565b5b828201905092915050565b7f4e487b7100000000000000000000000000000000000000000000000000000000600052604160045260246000fd5b7f4e487b7100000000000000000000000000000000000000000000000000000000600052603260045260246000fd5b6000612b4782611c22565b91506000821415612b5b57612b5a612057565b5b600182039050919050565b7f537472696e67733a20686578206c656e67746820696e73756666696369656e74600082015250565b6000612b9c6020836120e0565b9150612ba782612b66565b602082019050919050565b60006020820190508181036000830152612bcb81612b8f565b905091905056fea2646970667358221220a23f5af7b00644e875c2b324df6eefd83b453fcc1bd91cd6452bf7ff42f8bd9764736f6c63430008090033",
  "linkReferences": {},
  "deployedLinkReferences": {}
}