{
  "_format": "hh-sol-artifact-1",
  "contractName": "Fweb3Poll",
  "sourceName": "contracts/Fweb3Poll.sol",
  "abi": [
    {
      "inputs": [
        {
          "internalType": "contract IERC20",
          "name": "token",
          "type": "address"
        }
      ],
      "stateMutability": "nonpayable",
      "type": "constructor"
    },
    {
      "inputs": [],
      "name": "getNumVoters",
      "outputs": [
        {
          "internalType": "uint256",
          "name": "",
          "type": "uint256"
        }
      ],
      "stateMutability": "view",
      "type": "function"
    },
    {
      "inputs": [],
      "name": "getYesPercentage",
      "outputs": [
        {
          "internalType": "uint256",
          "name": "",
          "type": "uint256"
        }
      ],
      "stateMutability": "view",
      "type": "function"
    },
    {
      "inputs": [
        {
          "internalType": "address",
          "name": "voter",
          "type": "address"
        }
      ],
      "name": "hasVoted",
      "outputs": [
        {
          "internalType": "bool",
          "name": "",
          "type": "bool"
        }
      ],
      "stateMutability": "view",
      "type": "function"
    },
    {
      "inputs": [],
      "name": "voteNo",
      "outputs": [],
      "stateMutability": "nonpayable",
      "type": "function"
    },
    {
      "inputs": [],
      "name": "voteYes",
      "outputs": [],
      "stateMutability": "nonpayable",
      "type": "function"
    }
  ],
  "bytecode": "0x60806040526040518060400160405280601181526020017f596f7520616c726561647920766f74656400000000000000000000000000000081525060039080519060200190620000519291906200011a565b506040518060400160405280601d81526020017f4e6565642031303020465745423320746f6b656e7320746f20766f7465000000815250600490805190602001906200009f9291906200011a565b50348015620000ad57600080fd5b5060405162000c0c38038062000c0c8339818101604052810190620000d3919062000248565b806000806101000a81548173ffffffffffffffffffffffffffffffffffffffff021916908373ffffffffffffffffffffffffffffffffffffffff16021790555050620002df565b8280546200012890620002a9565b90600052602060002090601f0160209004810192826200014c576000855562000198565b82601f106200016757805160ff191683800117855562000198565b8280016001018555821562000198579182015b82811115620001975782518255916020019190600101906200017a565b5b509050620001a79190620001ab565b5090565b5b80821115620001c6576000816000905550600101620001ac565b5090565b600080fd5b600073ffffffffffffffffffffffffffffffffffffffff82169050919050565b6000620001fc82620001cf565b9050919050565b60006200021082620001ef565b9050919050565b620002228162000203565b81146200022e57600080fd5b50565b600081519050620002428162000217565b92915050565b600060208284031215620002615762000260620001ca565b5b6000620002718482850162000231565b91505092915050565b7f4e487b7100000000000000000000000000000000000000000000000000000000600052602260045260246000fd5b60006002820490506001821680620002c257607f821691505b60208210811415620002d957620002d86200027a565b5b50919050565b61091d80620002ef6000396000f3fe608060405234801561001057600080fd5b50600436106100575760003560e01c806309eef43e1461005c57806325bd79eb1461008c57806341c12a70146100aa57806390cf581c146100b45780639b51dda3146100be575b600080fd5b61007660048036038101906100719190610543565b6100dc565b604051610083919061058b565b60405180910390f35b610094610187565b6040516100a191906105bf565b60405180910390f35b6100b2610194565b005b6100bc610294565b005b6100c66103f7565b6040516100d391906105bf565b60405180910390f35b6000806000905060005b60028054905081101561017d5760028181548110610107576101066105da565b5b9060005260206000200160009054906101000a900473ffffffffffffffffffffffffffffffffffffffff1673ffffffffffffffffffffffffffffffffffffffff168473ffffffffffffffffffffffffffffffffffffffff16141561016a57600191505b808061017590610638565b9150506100e6565b5080915050919050565b6000600280549050905090565b61019d336100dc565b156003906101e1576040517f08c379a00000000000000000000000000000000000000000000000000000000081526004016101d89190610788565b60405180910390fd5b506101eb33610422565b60049061022e576040517f08c379a00000000000000000000000000000000000000000000000000000000081526004016102259190610788565b60405180910390fd5b506002339080600181540180825580915050600190039060005260206000200160009091909190916101000a81548173ffffffffffffffffffffffffffffffffffffffff021916908373ffffffffffffffffffffffffffffffffffffffff160217905550565b61029d336100dc565b156003906102e1576040517f08c379a00000000000000000000000000000000000000000000000000000000081526004016102d89190610788565b60405180910390fd5b506102eb33610422565b60049061032e576040517f08c379a00000000000000000000000000000000000000000000000000000000081526004016103259190610788565b60405180910390fd5b506001339080600181540180825580915050600190039060005260206000200160009091909190916101000a81548173ffffffffffffffffffffffffffffffffffffffff021916908373ffffffffffffffffffffffffffffffffffffffff1602179055506002339080600181540180825580915050600190039060005260206000200160009091909190916101000a81548173ffffffffffffffffffffffffffffffffffffffff021916908373ffffffffffffffffffffffffffffffffffffffff160217905550565b6000610401610187565b606460018054905061041391906107aa565b61041d9190610833565b905090565b600068056bc75e2d6310000060008054906101000a900473ffffffffffffffffffffffffffffffffffffffff1673ffffffffffffffffffffffffffffffffffffffff166370a08231846040518263ffffffff1660e01b81526004016104879190610873565b60206040518083038186803b15801561049f57600080fd5b505afa1580156104b3573d6000803e3d6000fd5b505050506040513d601f19601f820116820180604052508101906104d791906108ba565b10159050919050565b600080fd5b600073ffffffffffffffffffffffffffffffffffffffff82169050919050565b6000610510826104e5565b9050919050565b61052081610505565b811461052b57600080fd5b50565b60008135905061053d81610517565b92915050565b600060208284031215610559576105586104e0565b5b60006105678482850161052e565b91505092915050565b60008115159050919050565b61058581610570565b82525050565b60006020820190506105a0600083018461057c565b92915050565b6000819050919050565b6105b9816105a6565b82525050565b60006020820190506105d460008301846105b0565b92915050565b7f4e487b7100000000000000000000000000000000000000000000000000000000600052603260045260246000fd5b7f4e487b7100000000000000000000000000000000000000000000000000000000600052601160045260246000fd5b6000610643826105a6565b91507fffffffffffffffffffffffffffffffffffffffffffffffffffffffffffffffff82141561067657610675610609565b5b600182019050919050565b7f4e487b7100000000000000000000000000000000000000000000000000000000600052602260045260246000fd5b600060028204905060018216806106c857607f821691505b602082108114156106dc576106db610681565b5b50919050565b600082825260208201905092915050565b60008190508160005260206000209050919050565b60008154610715816106b0565b61071f81866106e2565b9450600182166000811461073a576001811461074c5761077f565b60ff198316865260208601935061077f565b610755856106f3565b60005b8381101561077757815481890152600182019150602081019050610758565b808801955050505b50505092915050565b600060208201905081810360008301526107a28184610708565b905092915050565b60006107b5826105a6565b91506107c0836105a6565b9250817fffffffffffffffffffffffffffffffffffffffffffffffffffffffffffffffff04831182151516156107f9576107f8610609565b5b828202905092915050565b7f4e487b7100000000000000000000000000000000000000000000000000000000600052601260045260246000fd5b600061083e826105a6565b9150610849836105a6565b92508261085957610858610804565b5b828204905092915050565b61086d81610505565b82525050565b60006020820190506108886000830184610864565b92915050565b610897816105a6565b81146108a257600080fd5b50565b6000815190506108b48161088e565b92915050565b6000602082840312156108d0576108cf6104e0565b5b60006108de848285016108a5565b9150509291505056fea26469706673582212203e6cc4cd7288f6282f6c1a0ba51679b8a08e62a83eb4d041049ff86630097a9c64736f6c63430008090033",
  "linkReferences": {},
  "deployedLinkReferences": {}
}