{
  "_format": "hh-sol-artifact-1",
  "contractName": "Fweb3MaticFaucet",
  "sourceName": "contracts/Fweb3MaticFaucet.sol",
  "abi": [
    {
      "inputs": [
        {
          "internalType": "uint256",
          "name": "_dripBase",
          "type": "uint256"
        },
        {
          "internalType": "uint256",
          "name": "_decimals",
          "type": "uint256"
        },
        {
          "internalType": "contract IERC20",
          "name": "_fweb3TokenAddress",
          "type": "address"
        },
        {
          "internalType": "uint256",
          "name": "_timout",
          "type": "uint256"
        },
        {
          "internalType": "bool",
          "name": "_singleUse",
          "type": "bool"
        },
        {
          "internalType": "uint256",
          "name": "_minFweb3Required",
          "type": "uint256"
        },
        {
          "internalType": "uint256",
          "name": "_minFweb3TokenRequiredDecimals",
          "type": "uint256"
        },
        {
          "internalType": "uint256",
          "name": "_holderLimit",
          "type": "uint256"
        }
      ],
      "stateMutability": "nonpayable",
      "type": "constructor"
    },
    {
      "anonymous": false,
      "inputs": [
        {
          "indexed": false,
          "internalType": "address",
          "name": "",
          "type": "address"
        },
        {
          "indexed": false,
          "internalType": "string",
          "name": "",
          "type": "string"
        },
        {
          "indexed": false,
          "internalType": "uint256",
          "name": "",
          "type": "uint256"
        }
      ],
      "name": "Dripped",
      "type": "event"
    },
    {
      "anonymous": false,
      "inputs": [
        {
          "indexed": true,
          "internalType": "address",
          "name": "previousOwner",
          "type": "address"
        },
        {
          "indexed": true,
          "internalType": "address",
          "name": "newOwner",
          "type": "address"
        }
      ],
      "name": "OwnershipTransferred",
      "type": "event"
    },
    {
      "anonymous": false,
      "inputs": [
        {
          "indexed": false,
          "internalType": "address",
          "name": "",
          "type": "address"
        },
        {
          "indexed": false,
          "internalType": "uint256",
          "name": "",
          "type": "uint256"
        }
      ],
      "name": "ReceivedDeposit",
      "type": "event"
    },
    {
      "anonymous": false,
      "inputs": [
        {
          "indexed": true,
          "internalType": "bytes32",
          "name": "role",
          "type": "bytes32"
        },
        {
          "indexed": true,
          "internalType": "bytes32",
          "name": "previousAdminRole",
          "type": "bytes32"
        },
        {
          "indexed": true,
          "internalType": "bytes32",
          "name": "newAdminRole",
          "type": "bytes32"
        }
      ],
      "name": "RoleAdminChanged",
      "type": "event"
    },
    {
      "anonymous": false,
      "inputs": [
        {
          "indexed": true,
          "internalType": "bytes32",
          "name": "role",
          "type": "bytes32"
        },
        {
          "indexed": true,
          "internalType": "address",
          "name": "account",
          "type": "address"
        },
        {
          "indexed": true,
          "internalType": "address",
          "name": "sender",
          "type": "address"
        }
      ],
      "name": "RoleGranted",
      "type": "event"
    },
    {
      "anonymous": false,
      "inputs": [
        {
          "indexed": true,
          "internalType": "bytes32",
          "name": "role",
          "type": "bytes32"
        },
        {
          "indexed": true,
          "internalType": "address",
          "name": "account",
          "type": "address"
        },
        {
          "indexed": true,
          "internalType": "address",
          "name": "sender",
          "type": "address"
        }
      ],
      "name": "RoleRevoked",
      "type": "event"
    },
    {
      "inputs": [],
      "name": "ADMIN_ROLE",
      "outputs": [
        {
          "internalType": "bytes32",
          "name": "",
          "type": "bytes32"
        }
      ],
      "stateMutability": "view",
      "type": "function"
    },
    {
      "inputs": [],
      "name": "DEFAULT_ADMIN_ROLE",
      "outputs": [
        {
          "internalType": "bytes32",
          "name": "",
          "type": "bytes32"
        }
      ],
      "stateMutability": "view",
      "type": "function"
    },
    {
      "inputs": [
        {
          "internalType": "address",
          "name": "forWhom",
          "type": "address"
        }
      ],
      "name": "clearTimeoutForAddress",
      "outputs": [],
      "stateMutability": "nonpayable",
      "type": "function"
    },
    {
      "inputs": [],
      "name": "decimals",
      "outputs": [
        {
          "internalType": "uint256",
          "name": "",
          "type": "uint256"
        }
      ],
      "stateMutability": "view",
      "type": "function"
    },
    {
      "inputs": [
        {
          "internalType": "address payable",
          "name": "to",
          "type": "address"
        }
      ],
      "name": "drain",
      "outputs": [],
      "stateMutability": "nonpayable",
      "type": "function"
    },
    {
      "inputs": [
        {
          "internalType": "address payable",
          "name": "to",
          "type": "address"
        }
      ],
      "name": "drip",
      "outputs": [],
      "stateMutability": "nonpayable",
      "type": "function"
    },
    {
      "inputs": [],
      "name": "dripAmount",
      "outputs": [
        {
          "internalType": "uint256",
          "name": "",
          "type": "uint256"
        }
      ],
      "stateMutability": "view",
      "type": "function"
    },
    {
      "inputs": [],
      "name": "dripBase",
      "outputs": [
        {
          "internalType": "uint256",
          "name": "",
          "type": "uint256"
        }
      ],
      "stateMutability": "view",
      "type": "function"
    },
    {
      "inputs": [],
      "name": "faucetDisabled",
      "outputs": [
        {
          "internalType": "bool",
          "name": "",
          "type": "bool"
        }
      ],
      "stateMutability": "view",
      "type": "function"
    },
    {
      "inputs": [],
      "name": "fweb3TokenAddress",
      "outputs": [
        {
          "internalType": "contract IERC20",
          "name": "",
          "type": "address"
        }
      ],
      "stateMutability": "view",
      "type": "function"
    },
    {
      "inputs": [
        {
          "internalType": "bytes32",
          "name": "role",
          "type": "bytes32"
        }
      ],
      "name": "getRoleAdmin",
      "outputs": [
        {
          "internalType": "bytes32",
          "name": "",
          "type": "bytes32"
        }
      ],
      "stateMutability": "view",
      "type": "function"
    },
    {
      "inputs": [
        {
          "internalType": "bytes32",
          "name": "role",
          "type": "bytes32"
        },
        {
          "internalType": "address",
          "name": "account",
          "type": "address"
        }
      ],
      "name": "grantRole",
      "outputs": [],
      "stateMutability": "nonpayable",
      "type": "function"
    },
    {
      "inputs": [
        {
          "internalType": "bytes32",
          "name": "role",
          "type": "bytes32"
        },
        {
          "internalType": "address",
          "name": "account",
          "type": "address"
        }
      ],
      "name": "hasRole",
      "outputs": [
        {
          "internalType": "bool",
          "name": "",
          "type": "bool"
        }
      ],
      "stateMutability": "view",
      "type": "function"
    },
    {
      "inputs": [],
      "name": "holderLimit",
      "outputs": [
        {
          "internalType": "uint256",
          "name": "",
          "type": "uint256"
        }
      ],
      "stateMutability": "view",
      "type": "function"
    },
    {
      "inputs": [],
      "name": "minFweb3Required",
      "outputs": [
        {
          "internalType": "uint256",
          "name": "",
          "type": "uint256"
        }
      ],
      "stateMutability": "view",
      "type": "function"
    },
    {
      "inputs": [],
      "name": "minFweb3RequiredDecimals",
      "outputs": [
        {
          "internalType": "uint256",
          "name": "",
          "type": "uint256"
        }
      ],
      "stateMutability": "view",
      "type": "function"
    },
    {
      "inputs": [],
      "name": "owner",
      "outputs": [
        {
          "internalType": "address",
          "name": "",
          "type": "address"
        }
      ],
      "stateMutability": "view",
      "type": "function"
    },
    {
      "inputs": [],
      "name": "renounceOwnership",
      "outputs": [],
      "stateMutability": "nonpayable",
      "type": "function"
    },
    {
      "inputs": [
        {
          "internalType": "bytes32",
          "name": "role",
          "type": "bytes32"
        },
        {
          "internalType": "address",
          "name": "account",
          "type": "address"
        }
      ],
      "name": "renounceRole",
      "outputs": [],
      "stateMutability": "nonpayable",
      "type": "function"
    },
    {
      "inputs": [
        {
          "internalType": "bytes32",
          "name": "role",
          "type": "bytes32"
        },
        {
          "internalType": "address",
          "name": "account",
          "type": "address"
        }
      ],
      "name": "revokeRole",
      "outputs": [],
      "stateMutability": "nonpayable",
      "type": "function"
    },
    {
      "inputs": [
        {
          "internalType": "bool",
          "name": "shouldBeDisabled",
          "type": "bool"
        }
      ],
      "name": "setDisableFaucet",
      "outputs": [],
      "stateMutability": "nonpayable",
      "type": "function"
    },
    {
      "inputs": [
        {
          "internalType": "uint256",
          "name": "_dripbase",
          "type": "uint256"
        },
        {
          "internalType": "uint256",
          "name": "_decimals",
          "type": "uint256"
        }
      ],
      "name": "setDripAmount",
      "outputs": [],
      "stateMutability": "nonpayable",
      "type": "function"
    },
    {
      "inputs": [
        {
          "internalType": "uint256",
          "name": "_base",
          "type": "uint256"
        },
        {
          "internalType": "uint256",
          "name": "_decimals",
          "type": "uint256"
        }
      ],
      "name": "setHolderLimit",
      "outputs": [],
      "stateMutability": "nonpayable",
      "type": "function"
    },
    {
      "inputs": [
        {
          "internalType": "uint256",
          "name": "min",
          "type": "uint256"
        },
        {
          "internalType": "uint256",
          "name": "decimals",
          "type": "uint256"
        }
      ],
      "name": "setMinErc20Required",
      "outputs": [],
      "stateMutability": "nonpayable",
      "type": "function"
    },
    {
      "inputs": [
        {
          "internalType": "bool",
          "name": "shouldBeSingleUse",
          "type": "bool"
        }
      ],
      "name": "setSingleUse",
      "outputs": [],
      "stateMutability": "nonpayable",
      "type": "function"
    },
    {
      "inputs": [
        {
          "internalType": "uint256",
          "name": "newTimeout",
          "type": "uint256"
        }
      ],
      "name": "setTimeout",
      "outputs": [],
      "stateMutability": "nonpayable",
      "type": "function"
    },
    {
      "inputs": [],
      "name": "singleUse",
      "outputs": [
        {
          "internalType": "bool",
          "name": "",
          "type": "bool"
        }
      ],
      "stateMutability": "view",
      "type": "function"
    },
    {
      "inputs": [
        {
          "internalType": "bytes4",
          "name": "interfaceId",
          "type": "bytes4"
        }
      ],
      "name": "supportsInterface",
      "outputs": [
        {
          "internalType": "bool",
          "name": "",
          "type": "bool"
        }
      ],
      "stateMutability": "view",
      "type": "function"
    },
    {
      "inputs": [],
      "name": "timeout",
      "outputs": [
        {
          "internalType": "uint256",
          "name": "",
          "type": "uint256"
        }
      ],
      "stateMutability": "view",
      "type": "function"
    },
    {
      "inputs": [
        {
          "internalType": "address",
          "name": "newOwner",
          "type": "address"
        }
      ],
      "name": "transferOwnership",
      "outputs": [],
      "stateMutability": "nonpayable",
      "type": "function"
    },
    {
      "stateMutability": "payable",
      "type": "receive"
    }
  ],
  "bytecode": "0x60806040523480156200001157600080fd5b50604051620030eb380380620030eb8339818101604052810190620000379190620004a3565b620000576200004b6200016e60201b60201c565b6200017660201b60201c565b6200006c6000801b336200023c60201b60201c565b6200009e7fa49807205ce4d355092ef5a8a18f56e8913cf4a201fbe287825b095693c21775336200023c60201b60201c565b8760038190555086600a620000b49190620006ef565b88620000c1919062000740565b600281905550866004819055508460058190555083600660016101000a81548160ff02191690831515021790555085600a60006101000a81548173ffffffffffffffffffffffffffffffffffffffff021916908373ffffffffffffffffffffffffffffffffffffffff16021790555081600c8190555081600a620001469190620006ef565b8362000153919062000740565b600b81905550806007819055505050505050505050620007a1565b600033905090565b6000600160009054906101000a900473ffffffffffffffffffffffffffffffffffffffff16905081600160006101000a81548173ffffffffffffffffffffffffffffffffffffffff021916908373ffffffffffffffffffffffffffffffffffffffff1602179055508173ffffffffffffffffffffffffffffffffffffffff168173ffffffffffffffffffffffffffffffffffffffff167f8be0079c531659141344cd1fd0a4f28419497f9722a3daafe3b4186f6b6457e060405160405180910390a35050565b6200024e82826200025260201b60201c565b5050565b6200026482826200034360201b60201c565b6200033f57600160008084815260200190815260200160002060000160008373ffffffffffffffffffffffffffffffffffffffff1673ffffffffffffffffffffffffffffffffffffffff16815260200190815260200160002060006101000a81548160ff021916908315150217905550620002e46200016e60201b60201c565b73ffffffffffffffffffffffffffffffffffffffff168173ffffffffffffffffffffffffffffffffffffffff16837f2f8788117e7eff1d82e926ec794901d17c78024a50270940304540a733656f0d60405160405180910390a45b5050565b600080600084815260200190815260200160002060000160008373ffffffffffffffffffffffffffffffffffffffff1673ffffffffffffffffffffffffffffffffffffffff16815260200190815260200160002060009054906101000a900460ff16905092915050565b600080fd5b6000819050919050565b620003c781620003b2565b8114620003d357600080fd5b50565b600081519050620003e781620003bc565b92915050565b600073ffffffffffffffffffffffffffffffffffffffff82169050919050565b60006200041a82620003ed565b9050919050565b60006200042e826200040d565b9050919050565b620004408162000421565b81146200044c57600080fd5b50565b600081519050620004608162000435565b92915050565b60008115159050919050565b6200047d8162000466565b81146200048957600080fd5b50565b6000815190506200049d8162000472565b92915050565b600080600080600080600080610100898b031215620004c757620004c6620003ad565b5b6000620004d78b828c01620003d6565b9850506020620004ea8b828c01620003d6565b9750506040620004fd8b828c016200044f565b9650506060620005108b828c01620003d6565b9550506080620005238b828c016200048c565b94505060a0620005368b828c01620003d6565b93505060c0620005498b828c01620003d6565b92505060e06200055c8b828c01620003d6565b9150509295985092959890939650565b7f4e487b7100000000000000000000000000000000000000000000000000000000600052601160045260246000fd5b60008160011c9050919050565b6000808291508390505b6001851115620005fa57808604811115620005d257620005d16200056c565b5b6001851615620005e25780820291505b8081029050620005f2856200059b565b9450620005b2565b94509492505050565b600082620006155760019050620006e8565b81620006255760009050620006e8565b81600181146200063e576002811462000649576200067f565b6001915050620006e8565b60ff8411156200065e576200065d6200056c565b5b8360020a9150848211156200067857620006776200056c565b5b50620006e8565b5060208310610133831016604e8410600b8410161715620006b95782820a905083811115620006b357620006b26200056c565b5b620006e8565b620006c88484846001620005a8565b92509050818404811115620006e257620006e16200056c565b5b81810290505b9392505050565b6000620006fc82620003b2565b91506200070983620003b2565b9250620007387fffffffffffffffffffffffffffffffffffffffffffffffffffffffffffffffff848462000603565b905092915050565b60006200074d82620003b2565b91506200075a83620003b2565b9250817fffffffffffffffffffffffffffffffffffffffffffffffffffffffffffffffff04831182151516156200079657620007956200056c565b5b828202905092915050565b61293a80620007b16000396000f3fe6080604052600436106101d15760003560e01c806375b238fc116100f7578063a217fddf11610095578063e928890c11610064578063e928890c14610682578063ec1cb194146106ad578063ece53132146106d6578063f2fde38b146106ff57610211565b8063a217fddf146105dc578063c58a34cc14610607578063d547741f14610630578063e28c81721461065957610211565b806386c10c0a116100d157806386c10c0a146105205780638da5cb5b1461054957806391d14854146105745780639811572c146105b157610211565b806375b238fc1461049f57806376e1032a146104ca57806379f1cb54146104f557610211565b806335a1529b1161016f57806367a5cd061161013e57806367a5cd061461040b5780636c40bc151461043457806370dea79a1461045d578063715018a61461048857610211565b806335a1529b1461036157806336568abe1461038c578063393c4734146103b557806351f53a76146103e057610211565b80631d691fb5116101ab5780631d691fb5146102a7578063248a9ca3146102d05780632f2ff15d1461030d578063313ce5671461033657610211565b806301ffc9a71461021657806305b400ae1461025357806306464e561461027e57610211565b36610211577f645431dbae366bae0d8be5812a6298ad69f5604842a40a1bae301a143386865433346040516102079291906119fe565b60405180910390a1005b600080fd5b34801561022257600080fd5b5061023d60048036038101906102389190611a84565b610728565b60405161024a9190611acc565b60405180910390f35b34801561025f57600080fd5b506102686107a2565b6040516102759190611ae7565b60405180910390f35b34801561028a57600080fd5b506102a560048036038101906102a09190611b2e565b6107a8565b005b3480156102b357600080fd5b506102ce60048036038101906102c99190611b9a565b6107fd565b005b3480156102dc57600080fd5b506102f760048036038101906102f29190611bfd565b61084d565b6040516103049190611c39565b60405180910390f35b34801561031957600080fd5b50610334600480360381019061032f9190611c80565b61086c565b005b34801561034257600080fd5b5061034b610895565b6040516103589190611ae7565b60405180910390f35b34801561036d57600080fd5b5061037661089b565b6040516103839190611ae7565b60405180910390f35b34801561039857600080fd5b506103b360048036038101906103ae9190611c80565b6108a1565b005b3480156103c157600080fd5b506103ca610924565b6040516103d79190611ae7565b60405180910390f35b3480156103ec57600080fd5b506103f561092a565b6040516104029190611d1f565b60405180910390f35b34801561041757600080fd5b50610432600480360381019061042d9190611d78565b610950565b005b34801561044057600080fd5b5061045b60048036038101906104569190611b2e565b610dde565b005b34801561046957600080fd5b50610472610e41565b60405161047f9190611ae7565b60405180910390f35b34801561049457600080fd5b5061049d610e47565b005b3480156104ab57600080fd5b506104b4610ecf565b6040516104c19190611c39565b60405180910390f35b3480156104d657600080fd5b506104df610ef3565b6040516104ec9190611acc565b60405180910390f35b34801561050157600080fd5b5061050a610f06565b6040516105179190611ae7565b60405180910390f35b34801561052c57600080fd5b5061054760048036038101906105429190611da5565b610f0c565b005b34801561055557600080fd5b5061055e610f87565b60405161056b9190611dd2565b60405180910390f35b34801561058057600080fd5b5061059b60048036038101906105969190611c80565b610fb1565b6040516105a89190611acc565b60405180910390f35b3480156105bd57600080fd5b506105c661101b565b6040516105d39190611ae7565b60405180910390f35b3480156105e857600080fd5b506105f1611021565b6040516105fe9190611c39565b60405180910390f35b34801561061357600080fd5b5061062e60048036038101906106299190611ded565b611028565b005b34801561063c57600080fd5b5061065760048036038101906106529190611c80565b611065565b005b34801561066557600080fd5b50610680600480360381019061067b9190611b9a565b61108e565b005b34801561068e57600080fd5b506106976110de565b6040516106a49190611acc565b60405180910390f35b3480156106b957600080fd5b506106d460048036038101906106cf9190611b2e565b6110f1565b005b3480156106e257600080fd5b506106fd60048036038101906106f89190611d78565b611146565b005b34801561070b57600080fd5b5061072660048036038101906107219190611da5565b61120c565b005b60007f7965db0b000000000000000000000000000000000000000000000000000000007bffffffffffffffffffffffffffffffffffffffffffffffffffffffff1916827bffffffffffffffffffffffffffffffffffffffffffffffffffffffff1916148061079b575061079a82611304565b5b9050919050565b600b5481565b7fa49807205ce4d355092ef5a8a18f56e8913cf4a201fbe287825b095693c217756107da816107d561136e565b611376565b81600a6107e79190611f7c565b836107f29190611fc7565b600781905550505050565b7fa49807205ce4d355092ef5a8a18f56e8913cf4a201fbe287825b095693c2177561082f8161082a61136e565b611376565b81600660006101000a81548160ff0219169083151502179055505050565b6000806000838152602001908152602001600020600101549050919050565b6108758261084d565b6108868161088161136e565b611376565b6108908383611413565b505050565b60045481565b60025481565b6108a961136e565b73ffffffffffffffffffffffffffffffffffffffff168173ffffffffffffffffffffffffffffffffffffffff1614610916576040517f08c379a000000000000000000000000000000000000000000000000000000000815260040161090d906120a4565b60405180910390fd5b61092082826114f3565b5050565b60035481565b600a60009054906101000a900473ffffffffffffffffffffffffffffffffffffffff1681565b80600660009054906101000a900460ff16156109a1576040517f08c379a000000000000000000000000000000000000000000000000000000000815260040161099890612110565b60405180910390fd5b6402540be4004710156109e9576040517f08c379a00000000000000000000000000000000000000000000000000000000081526004016109e09061217c565b60405180910390fd5b600660019054906101000a900460ff1615610a8c57600860008273ffffffffffffffffffffffffffffffffffffffff1673ffffffffffffffffffffffffffffffffffffffff16815260200190815260200160002060009054906101000a900460ff1615610a8b576040517f08c379a0000000000000000000000000000000000000000000000000000000008152600401610a82906121e8565b60405180910390fd5b5b60006005541115610b1a5742600960008373ffffffffffffffffffffffffffffffffffffffff1673ffffffffffffffffffffffffffffffffffffffff168152602001908152602001600020541115610b19576040517f08c379a0000000000000000000000000000000000000000000000000000000008152600401610b1090612254565b60405180910390fd5b5b7fa49807205ce4d355092ef5a8a18f56e8913cf4a201fbe287825b095693c21775610b4c81610b4761136e565b611376565b600254471015610b91576040517f08c379a0000000000000000000000000000000000000000000000000000000008152600401610b889061217c565b60405180910390fd5b600b54600a60009054906101000a900473ffffffffffffffffffffffffffffffffffffffff1673ffffffffffffffffffffffffffffffffffffffff166370a08231856040518263ffffffff1660e01b8152600401610bef9190612295565b60206040518083038186803b158015610c0757600080fd5b505afa158015610c1b573d6000803e3d6000fd5b505050506040513d601f19601f82011682018060405250810190610c3f91906122c5565b1015610c80576040517f08c379a0000000000000000000000000000000000000000000000000000000008152600401610c779061233e565b60405180910390fd5b600060075414610ce6576007548373ffffffffffffffffffffffffffffffffffffffff163110610ce5576040517f08c379a0000000000000000000000000000000000000000000000000000000008152600401610cdc906123aa565b60405180910390fd5b5b60008373ffffffffffffffffffffffffffffffffffffffff16600254604051610d0e906123fb565b60006040518083038185875af1925050503d8060008114610d4b576040519150601f19603f3d011682016040523d82523d6000602084013e610d50565b606091505b5050905080610d94576040517f08c379a0000000000000000000000000000000000000000000000000000000008152600401610d8b9061245c565b60405180910390fd5b610d9d846115d4565b7f5c17f5353b06dcfd2dc264e541fbcef1696efb5f704f1ca75eb20af054eab5ee33600254604051610dd09291906124c8565b60405180910390a150505050565b7fa49807205ce4d355092ef5a8a18f56e8913cf4a201fbe287825b095693c21775610e1081610e0b61136e565b611376565b816004819055508260038190555081600a610e2b9190611f7c565b83610e369190611fc7565b600281905550505050565b60055481565b610e4f61136e565b73ffffffffffffffffffffffffffffffffffffffff16610e6d610f87565b73ffffffffffffffffffffffffffffffffffffffff1614610ec3576040517f08c379a0000000000000000000000000000000000000000000000000000000008152600401610eba90612550565b60405180910390fd5b610ecd60006116a2565b565b7fa49807205ce4d355092ef5a8a18f56e8913cf4a201fbe287825b095693c2177581565b600660019054906101000a900460ff1681565b600c5481565b7fa49807205ce4d355092ef5a8a18f56e8913cf4a201fbe287825b095693c21775610f3e81610f3961136e565b611376565b6000600960008473ffffffffffffffffffffffffffffffffffffffff1673ffffffffffffffffffffffffffffffffffffffff168152602001908152602001600020819055505050565b6000600160009054906101000a900473ffffffffffffffffffffffffffffffffffffffff16905090565b600080600084815260200190815260200160002060000160008373ffffffffffffffffffffffffffffffffffffffff1673ffffffffffffffffffffffffffffffffffffffff16815260200190815260200160002060009054906101000a900460ff16905092915050565b60075481565b6000801b81565b7fa49807205ce4d355092ef5a8a18f56e8913cf4a201fbe287825b095693c2177561105a8161105561136e565b611376565b816005819055505050565b61106e8261084d565b61107f8161107a61136e565b611376565b61108983836114f3565b505050565b7fa49807205ce4d355092ef5a8a18f56e8913cf4a201fbe287825b095693c217756110c0816110bb61136e565b611376565b81600660016101000a81548160ff0219169083151502179055505050565b600660009054906101000a900460ff1681565b7fa49807205ce4d355092ef5a8a18f56e8913cf4a201fbe287825b095693c217756111238161111e61136e565b611376565b81600a6111309190611f7c565b8361113b9190611fc7565b600b81905550505050565b61114e61136e565b73ffffffffffffffffffffffffffffffffffffffff1661116c610f87565b73ffffffffffffffffffffffffffffffffffffffff16146111c2576040517f08c379a00000000000000000000000000000000000000000000000000000000081526004016111b990612550565b60405180910390fd5b8073ffffffffffffffffffffffffffffffffffffffff166108fc479081150290604051600060405180830381858888f19350505050158015611208573d6000803e3d6000fd5b5050565b61121461136e565b73ffffffffffffffffffffffffffffffffffffffff16611232610f87565b73ffffffffffffffffffffffffffffffffffffffff1614611288576040517f08c379a000000000000000000000000000000000000000000000000000000000815260040161127f90612550565b60405180910390fd5b600073ffffffffffffffffffffffffffffffffffffffff168173ffffffffffffffffffffffffffffffffffffffff1614156112f8576040517f08c379a00000000000000000000000000000000000000000000000000000000081526004016112ef906125e2565b60405180910390fd5b611301816116a2565b50565b60007f01ffc9a7000000000000000000000000000000000000000000000000000000007bffffffffffffffffffffffffffffffffffffffffffffffffffffffff1916827bffffffffffffffffffffffffffffffffffffffffffffffffffffffff1916149050919050565b600033905090565b6113808282610fb1565b61140f576113a58173ffffffffffffffffffffffffffffffffffffffff166014611768565b6113b38360001c6020611768565b6040516020016113c4929190612714565b6040516020818303038152906040526040517f08c379a00000000000000000000000000000000000000000000000000000000081526004016114069190612798565b60405180910390fd5b5050565b61141d8282610fb1565b6114ef57600160008084815260200190815260200160002060000160008373ffffffffffffffffffffffffffffffffffffffff1673ffffffffffffffffffffffffffffffffffffffff16815260200190815260200160002060006101000a81548160ff02191690831515021790555061149461136e565b73ffffffffffffffffffffffffffffffffffffffff168173ffffffffffffffffffffffffffffffffffffffff16837f2f8788117e7eff1d82e926ec794901d17c78024a50270940304540a733656f0d60405160405180910390a45b5050565b6114fd8282610fb1565b156115d057600080600084815260200190815260200160002060000160008373ffffffffffffffffffffffffffffffffffffffff1673ffffffffffffffffffffffffffffffffffffffff16815260200190815260200160002060006101000a81548160ff02191690831515021790555061157561136e565b73ffffffffffffffffffffffffffffffffffffffff168173ffffffffffffffffffffffffffffffffffffffff16837ff6391f5c32d9c69d2a47ea670b442974b53935d1edc7fd64eb21e047a839171b60405160405180910390a45b5050565b6000600554111561163157600554426115ed91906127ba565b600960008373ffffffffffffffffffffffffffffffffffffffff1673ffffffffffffffffffffffffffffffffffffffff168152602001908152602001600020819055505b600660019054906101000a900460ff161561169f576001600860008373ffffffffffffffffffffffffffffffffffffffff1673ffffffffffffffffffffffffffffffffffffffff16815260200190815260200160002060006101000a81548160ff0219169083151502179055505b50565b6000600160009054906101000a900473ffffffffffffffffffffffffffffffffffffffff16905081600160006101000a81548173ffffffffffffffffffffffffffffffffffffffff021916908373ffffffffffffffffffffffffffffffffffffffff1602179055508173ffffffffffffffffffffffffffffffffffffffff168173ffffffffffffffffffffffffffffffffffffffff167f8be0079c531659141344cd1fd0a4f28419497f9722a3daafe3b4186f6b6457e060405160405180910390a35050565b60606000600283600261177b9190611fc7565b61178591906127ba565b67ffffffffffffffff81111561179e5761179d612810565b5b6040519080825280601f01601f1916602001820160405280156117d05781602001600182028036833780820191505090505b5090507f3000000000000000000000000000000000000000000000000000000000000000816000815181106118085761180761283f565b5b60200101907effffffffffffffffffffffffffffffffffffffffffffffffffffffffffffff1916908160001a9053507f78000000000000000000000000000000000000000000000000000000000000008160018151811061186c5761186b61283f565b5b60200101907effffffffffffffffffffffffffffffffffffffffffffffffffffffffffffff1916908160001a905350600060018460026118ac9190611fc7565b6118b691906127ba565b90505b6001811115611956577f3031323334353637383961626364656600000000000000000000000000000000600f8616601081106118f8576118f761283f565b5b1a60f81b82828151811061190f5761190e61283f565b5b60200101907effffffffffffffffffffffffffffffffffffffffffffffffffffffffffffff1916908160001a905350600485901c94508061194f9061286e565b90506118b9565b506000841461199a576040517f08c379a0000000000000000000000000000000000000000000000000000000008152600401611991906128e4565b60405180910390fd5b8091505092915050565b600073ffffffffffffffffffffffffffffffffffffffff82169050919050565b60006119cf826119a4565b9050919050565b6119df816119c4565b82525050565b6000819050919050565b6119f8816119e5565b82525050565b6000604082019050611a1360008301856119d6565b611a2060208301846119ef565b9392505050565b600080fd5b60007fffffffff0000000000000000000000000000000000000000000000000000000082169050919050565b611a6181611a2c565b8114611a6c57600080fd5b50565b600081359050611a7e81611a58565b92915050565b600060208284031215611a9a57611a99611a27565b5b6000611aa884828501611a6f565b91505092915050565b60008115159050919050565b611ac681611ab1565b82525050565b6000602082019050611ae16000830184611abd565b92915050565b6000602082019050611afc60008301846119ef565b92915050565b611b0b816119e5565b8114611b1657600080fd5b50565b600081359050611b2881611b02565b92915050565b60008060408385031215611b4557611b44611a27565b5b6000611b5385828601611b19565b9250506020611b6485828601611b19565b9150509250929050565b611b7781611ab1565b8114611b8257600080fd5b50565b600081359050611b9481611b6e565b92915050565b600060208284031215611bb057611baf611a27565b5b6000611bbe84828501611b85565b91505092915050565b6000819050919050565b611bda81611bc7565b8114611be557600080fd5b50565b600081359050611bf781611bd1565b92915050565b600060208284031215611c1357611c12611a27565b5b6000611c2184828501611be8565b91505092915050565b611c3381611bc7565b82525050565b6000602082019050611c4e6000830184611c2a565b92915050565b611c5d816119c4565b8114611c6857600080fd5b50565b600081359050611c7a81611c54565b92915050565b60008060408385031215611c9757611c96611a27565b5b6000611ca585828601611be8565b9250506020611cb685828601611c6b565b9150509250929050565b6000819050919050565b6000611ce5611ce0611cdb846119a4565b611cc0565b6119a4565b9050919050565b6000611cf782611cca565b9050919050565b6000611d0982611cec565b9050919050565b611d1981611cfe565b82525050565b6000602082019050611d346000830184611d10565b92915050565b6000611d45826119a4565b9050919050565b611d5581611d3a565b8114611d6057600080fd5b50565b600081359050611d7281611d4c565b92915050565b600060208284031215611d8e57611d8d611a27565b5b6000611d9c84828501611d63565b91505092915050565b600060208284031215611dbb57611dba611a27565b5b6000611dc984828501611c6b565b91505092915050565b6000602082019050611de760008301846119d6565b92915050565b600060208284031215611e0357611e02611a27565b5b6000611e1184828501611b19565b91505092915050565b7f4e487b7100000000000000000000000000000000000000000000000000000000600052601160045260246000fd5b60008160011c9050919050565b6000808291508390505b6001851115611ea057808604811115611e7c57611e7b611e1a565b5b6001851615611e8b5780820291505b8081029050611e9985611e49565b9450611e60565b94509492505050565b600082611eb95760019050611f75565b81611ec75760009050611f75565b8160018114611edd5760028114611ee757611f16565b6001915050611f75565b60ff841115611ef957611ef8611e1a565b5b8360020a915084821115611f1057611f0f611e1a565b5b50611f75565b5060208310610133831016604e8410600b8410161715611f4b5782820a905083811115611f4657611f45611e1a565b5b611f75565b611f588484846001611e56565b92509050818404811115611f6f57611f6e611e1a565b5b81810290505b9392505050565b6000611f87826119e5565b9150611f92836119e5565b9250611fbf7fffffffffffffffffffffffffffffffffffffffffffffffffffffffffffffffff8484611ea9565b905092915050565b6000611fd2826119e5565b9150611fdd836119e5565b9250817fffffffffffffffffffffffffffffffffffffffffffffffffffffffffffffffff048311821515161561201657612015611e1a565b5b828202905092915050565b600082825260208201905092915050565b7f416363657373436f6e74726f6c3a2063616e206f6e6c792072656e6f756e636560008201527f20726f6c657320666f722073656c660000000000000000000000000000000000602082015250565b600061208e602f83612021565b915061209982612032565b604082019050919050565b600060208201905081810360008301526120bd81612081565b9050919050565b7f4641554345545f44495341424c45440000000000000000000000000000000000600082015250565b60006120fa600f83612021565b9150612105826120c4565b602082019050919050565b60006020820190508181036000830152612129816120ed565b9050919050565b7f4641554345545f44525900000000000000000000000000000000000000000000600082015250565b6000612166600a83612021565b915061217182612130565b602082019050919050565b6000602082019050818103600083015261219581612159565b9050919050565b7f53494e474c455f55534500000000000000000000000000000000000000000000600082015250565b60006121d2600a83612021565b91506121dd8261219c565b602082019050919050565b60006020820190508181036000830152612201816121c5565b9050919050565b7f57414c4c45545f54494d454f5554000000000000000000000000000000000000600082015250565b600061223e600e83612021565b915061224982612208565b602082019050919050565b6000602082019050818103600083015261226d81612231565b9050919050565b600061227f82611cec565b9050919050565b61228f81612274565b82525050565b60006020820190506122aa6000830184612286565b92915050565b6000815190506122bf81611b02565b92915050565b6000602082840312156122db576122da611a27565b5b60006122e9848285016122b0565b91505092915050565b7f4d495353494e475f46574542335f544f4b454e53000000000000000000000000600082015250565b6000612328601483612021565b9150612333826122f2565b602082019050919050565b600060208201905081810360008301526123578161231b565b9050919050565b7f484f4c4445525f4c494d49540000000000000000000000000000000000000000600082015250565b6000612394600c83612021565b915061239f8261235e565b602082019050919050565b600060208201905081810360008301526123c381612387565b9050919050565b600081905092915050565b50565b60006123e56000836123ca565b91506123f0826123d5565b600082019050919050565b6000612406826123d8565b9150819050919050565b7f54585f4641494c55524500000000000000000000000000000000000000000000600082015250565b6000612446600a83612021565b915061245182612410565b602082019050919050565b6000602082019050818103600083015261247581612439565b9050919050565b7f4d41544943000000000000000000000000000000000000000000000000000000600082015250565b60006124b2600583612021565b91506124bd8261247c565b602082019050919050565b60006060820190506124dd60008301856119d6565b81810360208301526124ee816124a5565b90506124fd60408301846119ef565b9392505050565b7f4f776e61626c653a2063616c6c6572206973206e6f7420746865206f776e6572600082015250565b600061253a602083612021565b915061254582612504565b602082019050919050565b600060208201905081810360008301526125698161252d565b9050919050565b7f4f776e61626c653a206e6577206f776e657220697320746865207a65726f206160008201527f6464726573730000000000000000000000000000000000000000000000000000602082015250565b60006125cc602683612021565b91506125d782612570565b604082019050919050565b600060208201905081810360008301526125fb816125bf565b9050919050565b600081905092915050565b7f416363657373436f6e74726f6c3a206163636f756e7420000000000000000000600082015250565b6000612643601783612602565b915061264e8261260d565b601782019050919050565b600081519050919050565b60005b83811015612682578082015181840152602081019050612667565b83811115612691576000848401525b50505050565b60006126a282612659565b6126ac8185612602565b93506126bc818560208601612664565b80840191505092915050565b7f206973206d697373696e6720726f6c6520000000000000000000000000000000600082015250565b60006126fe601183612602565b9150612709826126c8565b601182019050919050565b600061271f82612636565b915061272b8285612697565b9150612736826126f1565b91506127428284612697565b91508190509392505050565b6000601f19601f8301169050919050565b600061276a82612659565b6127748185612021565b9350612784818560208601612664565b61278d8161274e565b840191505092915050565b600060208201905081810360008301526127b2818461275f565b905092915050565b60006127c5826119e5565b91506127d0836119e5565b9250827fffffffffffffffffffffffffffffffffffffffffffffffffffffffffffffffff0382111561280557612804611e1a565b5b828201905092915050565b7f4e487b7100000000000000000000000000000000000000000000000000000000600052604160045260246000fd5b7f4e487b7100000000000000000000000000000000000000000000000000000000600052603260045260246000fd5b6000612879826119e5565b9150600082141561288d5761288c611e1a565b5b600182039050919050565b7f537472696e67733a20686578206c656e67746820696e73756666696369656e74600082015250565b60006128ce602083612021565b91506128d982612898565b602082019050919050565b600060208201905081810360008301526128fd816128c1565b905091905056fea26469706673582212209f4c7213f0e306f2a31ab9510fc9355ee35078554cbacae7739f55ac18a5f86264736f6c63430008090033",
  "linkReferences": {},
  "deployedLinkReferences": {}
}