{
  "_format": "hh-sol-artifact-1",
  "contractName": "Fweb3TokenFaucet",
  "sourceName": "contracts/Fweb3TokenFaucet.sol",
  "abi": [
    {
      "inputs": [
        {
          "internalType": "contract ERC20",
          "name": "_fweb3Token",
          "type": "address"
        },
        {
          "internalType": "uint256",
          "name": "_dripBase",
          "type": "uint256"
        },
        {
          "internalType": "uint256",
          "name": "_decimals",
          "type": "uint256"
        },
        {
          "internalType": "uint256",
          "name": "_timeout",
          "type": "uint256"
        },
        {
          "internalType": "bool",
          "name": "_singleUse",
          "type": "bool"
        },
        {
          "internalType": "uint256",
          "name": "_holderLimitFweb3",
          "type": "uint256"
        }
      ],
      "stateMutability": "nonpayable",
      "type": "constructor"
    },
    {
      "anonymous": false,
      "inputs": [
        {
          "indexed": false,
          "internalType": "address",
          "name": "",
          "type": "address"
        },
        {
          "indexed": false,
          "internalType": "string",
          "name": "",
          "type": "string"
        },
        {
          "indexed": false,
          "internalType": "uint256",
          "name": "",
          "type": "uint256"
        }
      ],
      "name": "Dripped",
      "type": "event"
    },
    {
      "anonymous": false,
      "inputs": [
        {
          "indexed": true,
          "internalType": "address",
          "name": "previousOwner",
          "type": "address"
        },
        {
          "indexed": true,
          "internalType": "address",
          "name": "newOwner",
          "type": "address"
        }
      ],
      "name": "OwnershipTransferred",
      "type": "event"
    },
    {
      "anonymous": false,
      "inputs": [
        {
          "indexed": false,
          "internalType": "address",
          "name": "",
          "type": "address"
        },
        {
          "indexed": false,
          "internalType": "uint256",
          "name": "",
          "type": "uint256"
        }
      ],
      "name": "ReceivedDeposit",
      "type": "event"
    },
    {
      "anonymous": false,
      "inputs": [
        {
          "indexed": false,
          "internalType": "address",
          "name": "",
          "type": "address"
        },
        {
          "indexed": false,
          "internalType": "uint256",
          "name": "",
          "type": "uint256"
        }
      ],
      "name": "ReceivedFweb3Deposit",
      "type": "event"
    },
    {
      "anonymous": false,
      "inputs": [
        {
          "indexed": true,
          "internalType": "bytes32",
          "name": "role",
          "type": "bytes32"
        },
        {
          "indexed": true,
          "internalType": "bytes32",
          "name": "previousAdminRole",
          "type": "bytes32"
        },
        {
          "indexed": true,
          "internalType": "bytes32",
          "name": "newAdminRole",
          "type": "bytes32"
        }
      ],
      "name": "RoleAdminChanged",
      "type": "event"
    },
    {
      "anonymous": false,
      "inputs": [
        {
          "indexed": true,
          "internalType": "bytes32",
          "name": "role",
          "type": "bytes32"
        },
        {
          "indexed": true,
          "internalType": "address",
          "name": "account",
          "type": "address"
        },
        {
          "indexed": true,
          "internalType": "address",
          "name": "sender",
          "type": "address"
        }
      ],
      "name": "RoleGranted",
      "type": "event"
    },
    {
      "anonymous": false,
      "inputs": [
        {
          "indexed": true,
          "internalType": "bytes32",
          "name": "role",
          "type": "bytes32"
        },
        {
          "indexed": true,
          "internalType": "address",
          "name": "account",
          "type": "address"
        },
        {
          "indexed": true,
          "internalType": "address",
          "name": "sender",
          "type": "address"
        }
      ],
      "name": "RoleRevoked",
      "type": "event"
    },
    {
      "inputs": [],
      "name": "ADMIN_ROLE",
      "outputs": [
        {
          "internalType": "bytes32",
          "name": "",
          "type": "bytes32"
        }
      ],
      "stateMutability": "view",
      "type": "function"
    },
    {
      "inputs": [],
      "name": "DEFAULT_ADMIN_ROLE",
      "outputs": [
        {
          "internalType": "bytes32",
          "name": "",
          "type": "bytes32"
        }
      ],
      "stateMutability": "view",
      "type": "function"
    },
    {
      "inputs": [
        {
          "internalType": "address",
          "name": "forWhom",
          "type": "address"
        }
      ],
      "name": "clearTimeoutForAddress",
      "outputs": [],
      "stateMutability": "nonpayable",
      "type": "function"
    },
    {
      "inputs": [],
      "name": "decimals",
      "outputs": [
        {
          "internalType": "uint256",
          "name": "",
          "type": "uint256"
        }
      ],
      "stateMutability": "view",
      "type": "function"
    },
    {
      "inputs": [
        {
          "internalType": "address payable",
          "name": "to",
          "type": "address"
        }
      ],
      "name": "drain",
      "outputs": [],
      "stateMutability": "nonpayable",
      "type": "function"
    },
    {
      "inputs": [
        {
          "internalType": "address payable",
          "name": "to",
          "type": "address"
        }
      ],
      "name": "drainFweb3",
      "outputs": [],
      "stateMutability": "nonpayable",
      "type": "function"
    },
    {
      "inputs": [
        {
          "internalType": "address payable",
          "name": "to",
          "type": "address"
        }
      ],
      "name": "drip",
      "outputs": [],
      "stateMutability": "nonpayable",
      "type": "function"
    },
    {
      "inputs": [],
      "name": "dripAmount",
      "outputs": [
        {
          "internalType": "uint256",
          "name": "",
          "type": "uint256"
        }
      ],
      "stateMutability": "view",
      "type": "function"
    },
    {
      "inputs": [],
      "name": "dripBase",
      "outputs": [
        {
          "internalType": "uint256",
          "name": "",
          "type": "uint256"
        }
      ],
      "stateMutability": "view",
      "type": "function"
    },
    {
      "inputs": [],
      "name": "faucetDisabled",
      "outputs": [
        {
          "internalType": "bool",
          "name": "",
          "type": "bool"
        }
      ],
      "stateMutability": "view",
      "type": "function"
    },
    {
      "inputs": [],
      "name": "fweb3Token",
      "outputs": [
        {
          "internalType": "contract ERC20",
          "name": "",
          "type": "address"
        }
      ],
      "stateMutability": "view",
      "type": "function"
    },
    {
      "inputs": [
        {
          "internalType": "bytes32",
          "name": "role",
          "type": "bytes32"
        }
      ],
      "name": "getRoleAdmin",
      "outputs": [
        {
          "internalType": "bytes32",
          "name": "",
          "type": "bytes32"
        }
      ],
      "stateMutability": "view",
      "type": "function"
    },
    {
      "inputs": [
        {
          "internalType": "bytes32",
          "name": "role",
          "type": "bytes32"
        },
        {
          "internalType": "address",
          "name": "account",
          "type": "address"
        }
      ],
      "name": "grantRole",
      "outputs": [],
      "stateMutability": "nonpayable",
      "type": "function"
    },
    {
      "inputs": [
        {
          "internalType": "bytes32",
          "name": "role",
          "type": "bytes32"
        },
        {
          "internalType": "address",
          "name": "account",
          "type": "address"
        }
      ],
      "name": "hasRole",
      "outputs": [
        {
          "internalType": "bool",
          "name": "",
          "type": "bool"
        }
      ],
      "stateMutability": "view",
      "type": "function"
    },
    {
      "inputs": [],
      "name": "holderLimit",
      "outputs": [
        {
          "internalType": "uint256",
          "name": "",
          "type": "uint256"
        }
      ],
      "stateMutability": "view",
      "type": "function"
    },
    {
      "inputs": [],
      "name": "owner",
      "outputs": [
        {
          "internalType": "address",
          "name": "",
          "type": "address"
        }
      ],
      "stateMutability": "view",
      "type": "function"
    },
    {
      "inputs": [],
      "name": "renounceOwnership",
      "outputs": [],
      "stateMutability": "nonpayable",
      "type": "function"
    },
    {
      "inputs": [
        {
          "internalType": "bytes32",
          "name": "role",
          "type": "bytes32"
        },
        {
          "internalType": "address",
          "name": "account",
          "type": "address"
        }
      ],
      "name": "renounceRole",
      "outputs": [],
      "stateMutability": "nonpayable",
      "type": "function"
    },
    {
      "inputs": [
        {
          "internalType": "bytes32",
          "name": "role",
          "type": "bytes32"
        },
        {
          "internalType": "address",
          "name": "account",
          "type": "address"
        }
      ],
      "name": "revokeRole",
      "outputs": [],
      "stateMutability": "nonpayable",
      "type": "function"
    },
    {
      "inputs": [
        {
          "internalType": "bool",
          "name": "shouldBeDisabled",
          "type": "bool"
        }
      ],
      "name": "setDisableFaucet",
      "outputs": [],
      "stateMutability": "nonpayable",
      "type": "function"
    },
    {
      "inputs": [
        {
          "internalType": "uint256",
          "name": "_dripbase",
          "type": "uint256"
        },
        {
          "internalType": "uint256",
          "name": "_decimals",
          "type": "uint256"
        }
      ],
      "name": "setDripAmount",
      "outputs": [],
      "stateMutability": "nonpayable",
      "type": "function"
    },
    {
      "inputs": [
        {
          "internalType": "uint256",
          "name": "_base",
          "type": "uint256"
        },
        {
          "internalType": "uint256",
          "name": "_decimals",
          "type": "uint256"
        }
      ],
      "name": "setHolderLimit",
      "outputs": [],
      "stateMutability": "nonpayable",
      "type": "function"
    },
    {
      "inputs": [
        {
          "internalType": "bool",
          "name": "shouldBeSingleUse",
          "type": "bool"
        }
      ],
      "name": "setSingleUse",
      "outputs": [],
      "stateMutability": "nonpayable",
      "type": "function"
    },
    {
      "inputs": [
        {
          "internalType": "uint256",
          "name": "newTimeout",
          "type": "uint256"
        }
      ],
      "name": "setTimeout",
      "outputs": [],
      "stateMutability": "nonpayable",
      "type": "function"
    },
    {
      "inputs": [],
      "name": "singleUse",
      "outputs": [
        {
          "internalType": "bool",
          "name": "",
          "type": "bool"
        }
      ],
      "stateMutability": "view",
      "type": "function"
    },
    {
      "inputs": [
        {
          "internalType": "bytes4",
          "name": "interfaceId",
          "type": "bytes4"
        }
      ],
      "name": "supportsInterface",
      "outputs": [
        {
          "internalType": "bool",
          "name": "",
          "type": "bool"
        }
      ],
      "stateMutability": "view",
      "type": "function"
    },
    {
      "inputs": [],
      "name": "timeout",
      "outputs": [
        {
          "internalType": "uint256",
          "name": "",
          "type": "uint256"
        }
      ],
      "stateMutability": "view",
      "type": "function"
    },
    {
      "inputs": [
        {
          "internalType": "address",
          "name": "newOwner",
          "type": "address"
        }
      ],
      "name": "transferOwnership",
      "outputs": [],
      "stateMutability": "nonpayable",
      "type": "function"
    },
    {
      "stateMutability": "payable",
      "type": "receive"
    }
  ],
  "bytecode": "0x60806040523480156200001157600080fd5b50604051620032b9380380620032b983398181016040528101906200003791906200048d565b620000576200004b6200015860201b60201c565b6200016060201b60201c565b6200006c6000801b336200022660201b60201c565b6200009e7fa49807205ce4d355092ef5a8a18f56e8913cf4a201fbe287825b095693c21775336200022660201b60201c565b85600a60006101000a81548173ffffffffffffffffffffffffffffffffffffffff021916908373ffffffffffffffffffffffffffffffffffffffff16021790555083600a620000ee9190620006ac565b85620000fb9190620006fd565b60028190555084600381905550836004819055508260058190555081600660016101000a81548160ff021916908315150217905550670de0b6b3a764000081620001469190620006fd565b6007819055505050505050506200075e565b600033905090565b6000600160009054906101000a900473ffffffffffffffffffffffffffffffffffffffff16905081600160006101000a81548173ffffffffffffffffffffffffffffffffffffffff021916908373ffffffffffffffffffffffffffffffffffffffff1602179055508173ffffffffffffffffffffffffffffffffffffffff168173ffffffffffffffffffffffffffffffffffffffff167f8be0079c531659141344cd1fd0a4f28419497f9722a3daafe3b4186f6b6457e060405160405180910390a35050565b6200023882826200023c60201b60201c565b5050565b6200024e82826200032d60201b60201c565b6200032957600160008084815260200190815260200160002060000160008373ffffffffffffffffffffffffffffffffffffffff1673ffffffffffffffffffffffffffffffffffffffff16815260200190815260200160002060006101000a81548160ff021916908315150217905550620002ce6200015860201b60201c565b73ffffffffffffffffffffffffffffffffffffffff168173ffffffffffffffffffffffffffffffffffffffff16837f2f8788117e7eff1d82e926ec794901d17c78024a50270940304540a733656f0d60405160405180910390a45b5050565b600080600084815260200190815260200160002060000160008373ffffffffffffffffffffffffffffffffffffffff1673ffffffffffffffffffffffffffffffffffffffff16815260200190815260200160002060009054906101000a900460ff16905092915050565b600080fd5b600073ffffffffffffffffffffffffffffffffffffffff82169050919050565b6000620003c9826200039c565b9050919050565b6000620003dd82620003bc565b9050919050565b620003ef81620003d0565b8114620003fb57600080fd5b50565b6000815190506200040f81620003e4565b92915050565b6000819050919050565b6200042a8162000415565b81146200043657600080fd5b50565b6000815190506200044a816200041f565b92915050565b60008115159050919050565b620004678162000450565b81146200047357600080fd5b50565b60008151905062000487816200045c565b92915050565b60008060008060008060c08789031215620004ad57620004ac62000397565b5b6000620004bd89828a01620003fe565b9650506020620004d089828a0162000439565b9550506040620004e389828a0162000439565b9450506060620004f689828a0162000439565b93505060806200050989828a0162000476565b92505060a06200051c89828a0162000439565b9150509295509295509295565b7f4e487b7100000000000000000000000000000000000000000000000000000000600052601160045260246000fd5b60008160011c9050919050565b6000808291508390505b6001851115620005b7578086048111156200058f576200058e62000529565b5b60018516156200059f5780820291505b8081029050620005af8562000558565b94506200056f565b94509492505050565b600082620005d25760019050620006a5565b81620005e25760009050620006a5565b8160018114620005fb576002811462000606576200063c565b6001915050620006a5565b60ff8411156200061b576200061a62000529565b5b8360020a91508482111562000635576200063462000529565b5b50620006a5565b5060208310610133831016604e8410600b8410161715620006765782820a90508381111562000670576200066f62000529565b5b620006a5565b62000685848484600162000565565b925090508184048111156200069f576200069e62000529565b5b81810290505b9392505050565b6000620006b98262000415565b9150620006c68362000415565b9250620006f57fffffffffffffffffffffffffffffffffffffffffffffffffffffffffffffffff8484620005c0565b905092915050565b60006200070a8262000415565b9150620007178362000415565b9250817fffffffffffffffffffffffffffffffffffffffffffffffffffffffffffffffff048311821515161562000753576200075262000529565b5b828202905092915050565b612b4b806200076e6000396000f3fe6080604052600436106101bb5760003560e01c806375b238fc116100ec578063c58a34cc1161008a578063e928890c11610064578063e928890c14610616578063ec53241814610641578063ece531321461066a578063f2fde38b14610693576101fb565b8063c58a34cc1461059b578063d547741f146105c4578063e28c8172146105ed576101fb565b80638da5cb5b116100c65780638da5cb5b146104dd57806391d14854146105085780639811572c14610545578063a217fddf14610570576101fb565b806375b238fc1461045e57806376e1032a1461048957806386c10c0a146104b4576101fb565b806336568abe116101595780636c40bc15116101335780636c40bc15146103c85780636f7bd002146103f157806370dea79a1461041c578063715018a614610447576101fb565b806336568abe1461034b578063393c47341461037457806367a5cd061461039f576101fb565b8063248a9ca311610195578063248a9ca31461028f5780632f2ff15d146102cc578063313ce567146102f557806335a1529b14610320576101fb565b806301ffc9a71461020057806306464e561461023d5780631d691fb514610266576101fb565b366101fb577f645431dbae366bae0d8be5812a6298ad69f5604842a40a1bae301a143386865433346040516101f1929190611bea565b60405180910390a1005b600080fd5b34801561020c57600080fd5b5061022760048036038101906102229190611c70565b6106bc565b6040516102349190611cb8565b60405180910390f35b34801561024957600080fd5b50610264600480360381019061025f9190611cff565b610736565b005b34801561027257600080fd5b5061028d60048036038101906102889190611d6b565b61078b565b005b34801561029b57600080fd5b506102b660048036038101906102b19190611dce565b6107db565b6040516102c39190611e0a565b60405180910390f35b3480156102d857600080fd5b506102f360048036038101906102ee9190611e51565b6107fa565b005b34801561030157600080fd5b5061030a610823565b6040516103179190611e91565b60405180910390f35b34801561032c57600080fd5b50610335610829565b6040516103429190611e91565b60405180910390f35b34801561035757600080fd5b50610372600480360381019061036d9190611e51565b61082f565b005b34801561038057600080fd5b506103896108b2565b6040516103969190611e91565b60405180910390f35b3480156103ab57600080fd5b506103c660048036038101906103c19190611eea565b6108b8565b005b3480156103d457600080fd5b506103ef60048036038101906103ea9190611cff565b610ddc565b005b3480156103fd57600080fd5b50610406610e3f565b6040516104139190611f76565b60405180910390f35b34801561042857600080fd5b50610431610e65565b60405161043e9190611e91565b60405180910390f35b34801561045357600080fd5b5061045c610e6b565b005b34801561046a57600080fd5b50610473610ef3565b6040516104809190611e0a565b60405180910390f35b34801561049557600080fd5b5061049e610f17565b6040516104ab9190611cb8565b60405180910390f35b3480156104c057600080fd5b506104db60048036038101906104d69190611f91565b610f2a565b005b3480156104e957600080fd5b506104f2610fa5565b6040516104ff9190611fbe565b60405180910390f35b34801561051457600080fd5b5061052f600480360381019061052a9190611e51565b610fcf565b60405161053c9190611cb8565b60405180910390f35b34801561055157600080fd5b5061055a611039565b6040516105679190611e91565b60405180910390f35b34801561057c57600080fd5b5061058561103f565b6040516105929190611e0a565b60405180910390f35b3480156105a757600080fd5b506105c260048036038101906105bd9190611fd9565b611046565b005b3480156105d057600080fd5b506105eb60048036038101906105e69190611e51565b611083565b005b3480156105f957600080fd5b50610614600480360381019061060f9190611d6b565b6110ac565b005b34801561062257600080fd5b5061062b6110fc565b6040516106389190611cb8565b60405180910390f35b34801561064d57600080fd5b5061066860048036038101906106639190611eea565b61110f565b005b34801561067657600080fd5b50610691600480360381019061068c9190611eea565b611332565b005b34801561069f57600080fd5b506106ba60048036038101906106b59190611f91565b6113f8565b005b60007f7965db0b000000000000000000000000000000000000000000000000000000007bffffffffffffffffffffffffffffffffffffffffffffffffffffffff1916827bffffffffffffffffffffffffffffffffffffffffffffffffffffffff1916148061072f575061072e826114f0565b5b9050919050565b7fa49807205ce4d355092ef5a8a18f56e8913cf4a201fbe287825b095693c217756107688161076361155a565b611562565b81600a6107759190612168565b8361078091906121b3565b600781905550505050565b7fa49807205ce4d355092ef5a8a18f56e8913cf4a201fbe287825b095693c217756107bd816107b861155a565b611562565b81600660006101000a81548160ff0219169083151502179055505050565b6000806000838152602001908152602001600020600101549050919050565b610803826107db565b6108148161080f61155a565b611562565b61081e83836115ff565b505050565b60045481565b60025481565b61083761155a565b73ffffffffffffffffffffffffffffffffffffffff168173ffffffffffffffffffffffffffffffffffffffff16146108a4576040517f08c379a000000000000000000000000000000000000000000000000000000000815260040161089b90612290565b60405180910390fd5b6108ae82826116df565b5050565b60035481565b80600660009054906101000a900460ff1615610909576040517f08c379a0000000000000000000000000000000000000000000000000000000008152600401610900906122fc565b60405180910390fd5b6402540be400471015610951576040517f08c379a000000000000000000000000000000000000000000000000000000000815260040161094890612368565b60405180910390fd5b600660019054906101000a900460ff16156109f457600860008273ffffffffffffffffffffffffffffffffffffffff1673ffffffffffffffffffffffffffffffffffffffff16815260200190815260200160002060009054906101000a900460ff16156109f3576040517f08c379a00000000000000000000000000000000000000000000000000000000081526004016109ea906123d4565b60405180910390fd5b5b60006005541115610a825742600960008373ffffffffffffffffffffffffffffffffffffffff1673ffffffffffffffffffffffffffffffffffffffff168152602001908152602001600020541115610a81576040517f08c379a0000000000000000000000000000000000000000000000000000000008152600401610a7890612440565b60405180910390fd5b5b7fa49807205ce4d355092ef5a8a18f56e8913cf4a201fbe287825b095693c21775610ab481610aaf61155a565b611562565b600254600a60009054906101000a900473ffffffffffffffffffffffffffffffffffffffff1673ffffffffffffffffffffffffffffffffffffffff166370a08231306040518263ffffffff1660e01b8152600401610b129190611fbe565b60206040518083038186803b158015610b2a57600080fd5b505afa158015610b3e573d6000803e3d6000fd5b505050506040513d601f19601f82011682018060405250810190610b629190612475565b1015610ba3576040517f08c379a0000000000000000000000000000000000000000000000000000000008152600401610b9a906124ee565b60405180910390fd5b600060075414610c9d57600754600a60009054906101000a900473ffffffffffffffffffffffffffffffffffffffff1673ffffffffffffffffffffffffffffffffffffffff166370a08231856040518263ffffffff1660e01b8152600401610c0b919061252f565b60206040518083038186803b158015610c2357600080fd5b505afa158015610c37573d6000803e3d6000fd5b505050506040513d601f19601f82011682018060405250810190610c5b9190612475565b1115610c9c576040517f08c379a0000000000000000000000000000000000000000000000000000000008152600401610c9390612596565b60405180910390fd5b5b6000600a60009054906101000a900473ffffffffffffffffffffffffffffffffffffffff1673ffffffffffffffffffffffffffffffffffffffff1663a9059cbb856002546040518363ffffffff1660e01b8152600401610cfe9291906125b6565b602060405180830381600087803b158015610d1857600080fd5b505af1158015610d2c573d6000803e3d6000fd5b505050506040513d601f19601f82011682018060405250810190610d5091906125f4565b905080610d92576040517f08c379a0000000000000000000000000000000000000000000000000000000008152600401610d899061266d565b60405180910390fd5b610d9b846117c0565b7f5c17f5353b06dcfd2dc264e541fbcef1696efb5f704f1ca75eb20af054eab5ee33600254604051610dce9291906126d9565b60405180910390a150505050565b7fa49807205ce4d355092ef5a8a18f56e8913cf4a201fbe287825b095693c21775610e0e81610e0961155a565b611562565b816004819055508260038190555081600a610e299190612168565b83610e3491906121b3565b600281905550505050565b600a60009054906101000a900473ffffffffffffffffffffffffffffffffffffffff1681565b60055481565b610e7361155a565b73ffffffffffffffffffffffffffffffffffffffff16610e91610fa5565b73ffffffffffffffffffffffffffffffffffffffff1614610ee7576040517f08c379a0000000000000000000000000000000000000000000000000000000008152600401610ede90612761565b60405180910390fd5b610ef1600061188e565b565b7fa49807205ce4d355092ef5a8a18f56e8913cf4a201fbe287825b095693c2177581565b600660019054906101000a900460ff1681565b7fa49807205ce4d355092ef5a8a18f56e8913cf4a201fbe287825b095693c21775610f5c81610f5761155a565b611562565b6000600960008473ffffffffffffffffffffffffffffffffffffffff1673ffffffffffffffffffffffffffffffffffffffff168152602001908152602001600020819055505050565b6000600160009054906101000a900473ffffffffffffffffffffffffffffffffffffffff16905090565b600080600084815260200190815260200160002060000160008373ffffffffffffffffffffffffffffffffffffffff1673ffffffffffffffffffffffffffffffffffffffff16815260200190815260200160002060009054906101000a900460ff16905092915050565b60075481565b6000801b81565b7fa49807205ce4d355092ef5a8a18f56e8913cf4a201fbe287825b095693c217756110788161107361155a565b611562565b816005819055505050565b61108c826107db565b61109d8161109861155a565b611562565b6110a783836116df565b505050565b7fa49807205ce4d355092ef5a8a18f56e8913cf4a201fbe287825b095693c217756110de816110d961155a565b611562565b81600660016101000a81548160ff0219169083151502179055505050565b600660009054906101000a900460ff1681565b61111761155a565b73ffffffffffffffffffffffffffffffffffffffff16611135610fa5565b73ffffffffffffffffffffffffffffffffffffffff161461118b576040517f08c379a000000000000000000000000000000000000000000000000000000000815260040161118290612761565b60405180910390fd5b6000600a60009054906101000a900473ffffffffffffffffffffffffffffffffffffffff1673ffffffffffffffffffffffffffffffffffffffff166370a08231306040518263ffffffff1660e01b81526004016111e89190611fbe565b60206040518083038186803b15801561120057600080fd5b505afa158015611214573d6000803e3d6000fd5b505050506040513d601f19601f820116820180604052508101906112389190612475565b90506000600a60009054906101000a900473ffffffffffffffffffffffffffffffffffffffff1673ffffffffffffffffffffffffffffffffffffffff1663a9059cbb84846040518363ffffffff1660e01b81526004016112999291906125b6565b602060405180830381600087803b1580156112b357600080fd5b505af11580156112c7573d6000803e3d6000fd5b505050506040513d601f19601f820116820180604052508101906112eb91906125f4565b90508061132d576040517f08c379a00000000000000000000000000000000000000000000000000000000081526004016113249061266d565b60405180910390fd5b505050565b61133a61155a565b73ffffffffffffffffffffffffffffffffffffffff16611358610fa5565b73ffffffffffffffffffffffffffffffffffffffff16146113ae576040517f08c379a00000000000000000000000000000000000000000000000000000000081526004016113a590612761565b60405180910390fd5b8073ffffffffffffffffffffffffffffffffffffffff166108fc479081150290604051600060405180830381858888f193505050501580156113f4573d6000803e3d6000fd5b5050565b61140061155a565b73ffffffffffffffffffffffffffffffffffffffff1661141e610fa5565b73ffffffffffffffffffffffffffffffffffffffff1614611474576040517f08c379a000000000000000000000000000000000000000000000000000000000815260040161146b90612761565b60405180910390fd5b600073ffffffffffffffffffffffffffffffffffffffff168173ffffffffffffffffffffffffffffffffffffffff1614156114e4576040517f08c379a00000000000000000000000000000000000000000000000000000000081526004016114db906127f3565b60405180910390fd5b6114ed8161188e565b50565b60007f01ffc9a7000000000000000000000000000000000000000000000000000000007bffffffffffffffffffffffffffffffffffffffffffffffffffffffff1916827bffffffffffffffffffffffffffffffffffffffffffffffffffffffff1916149050919050565b600033905090565b61156c8282610fcf565b6115fb576115918173ffffffffffffffffffffffffffffffffffffffff166014611954565b61159f8360001c6020611954565b6040516020016115b0929190612925565b6040516020818303038152906040526040517f08c379a00000000000000000000000000000000000000000000000000000000081526004016115f291906129a9565b60405180910390fd5b5050565b6116098282610fcf565b6116db57600160008084815260200190815260200160002060000160008373ffffffffffffffffffffffffffffffffffffffff1673ffffffffffffffffffffffffffffffffffffffff16815260200190815260200160002060006101000a81548160ff02191690831515021790555061168061155a565b73ffffffffffffffffffffffffffffffffffffffff168173ffffffffffffffffffffffffffffffffffffffff16837f2f8788117e7eff1d82e926ec794901d17c78024a50270940304540a733656f0d60405160405180910390a45b5050565b6116e98282610fcf565b156117bc57600080600084815260200190815260200160002060000160008373ffffffffffffffffffffffffffffffffffffffff1673ffffffffffffffffffffffffffffffffffffffff16815260200190815260200160002060006101000a81548160ff02191690831515021790555061176161155a565b73ffffffffffffffffffffffffffffffffffffffff168173ffffffffffffffffffffffffffffffffffffffff16837ff6391f5c32d9c69d2a47ea670b442974b53935d1edc7fd64eb21e047a839171b60405160405180910390a45b5050565b6000600554111561181d57600554426117d991906129cb565b600960008373ffffffffffffffffffffffffffffffffffffffff1673ffffffffffffffffffffffffffffffffffffffff168152602001908152602001600020819055505b600660019054906101000a900460ff161561188b576001600860008373ffffffffffffffffffffffffffffffffffffffff1673ffffffffffffffffffffffffffffffffffffffff16815260200190815260200160002060006101000a81548160ff0219169083151502179055505b50565b6000600160009054906101000a900473ffffffffffffffffffffffffffffffffffffffff16905081600160006101000a81548173ffffffffffffffffffffffffffffffffffffffff021916908373ffffffffffffffffffffffffffffffffffffffff1602179055508173ffffffffffffffffffffffffffffffffffffffff168173ffffffffffffffffffffffffffffffffffffffff167f8be0079c531659141344cd1fd0a4f28419497f9722a3daafe3b4186f6b6457e060405160405180910390a35050565b60606000600283600261196791906121b3565b61197191906129cb565b67ffffffffffffffff81111561198a57611989612a21565b5b6040519080825280601f01601f1916602001820160405280156119bc5781602001600182028036833780820191505090505b5090507f3000000000000000000000000000000000000000000000000000000000000000816000815181106119f4576119f3612a50565b5b60200101907effffffffffffffffffffffffffffffffffffffffffffffffffffffffffffff1916908160001a9053507f780000000000000000000000000000000000000000000000000000000000000081600181518110611a5857611a57612a50565b5b60200101907effffffffffffffffffffffffffffffffffffffffffffffffffffffffffffff1916908160001a90535060006001846002611a9891906121b3565b611aa291906129cb565b90505b6001811115611b42577f3031323334353637383961626364656600000000000000000000000000000000600f861660108110611ae457611ae3612a50565b5b1a60f81b828281518110611afb57611afa612a50565b5b60200101907effffffffffffffffffffffffffffffffffffffffffffffffffffffffffffff1916908160001a905350600485901c945080611b3b90612a7f565b9050611aa5565b5060008414611b86576040517f08c379a0000000000000000000000000000000000000000000000000000000008152600401611b7d90612af5565b60405180910390fd5b8091505092915050565b600073ffffffffffffffffffffffffffffffffffffffff82169050919050565b6000611bbb82611b90565b9050919050565b611bcb81611bb0565b82525050565b6000819050919050565b611be481611bd1565b82525050565b6000604082019050611bff6000830185611bc2565b611c0c6020830184611bdb565b9392505050565b600080fd5b60007fffffffff0000000000000000000000000000000000000000000000000000000082169050919050565b611c4d81611c18565b8114611c5857600080fd5b50565b600081359050611c6a81611c44565b92915050565b600060208284031215611c8657611c85611c13565b5b6000611c9484828501611c5b565b91505092915050565b60008115159050919050565b611cb281611c9d565b82525050565b6000602082019050611ccd6000830184611ca9565b92915050565b611cdc81611bd1565b8114611ce757600080fd5b50565b600081359050611cf981611cd3565b92915050565b60008060408385031215611d1657611d15611c13565b5b6000611d2485828601611cea565b9250506020611d3585828601611cea565b9150509250929050565b611d4881611c9d565b8114611d5357600080fd5b50565b600081359050611d6581611d3f565b92915050565b600060208284031215611d8157611d80611c13565b5b6000611d8f84828501611d56565b91505092915050565b6000819050919050565b611dab81611d98565b8114611db657600080fd5b50565b600081359050611dc881611da2565b92915050565b600060208284031215611de457611de3611c13565b5b6000611df284828501611db9565b91505092915050565b611e0481611d98565b82525050565b6000602082019050611e1f6000830184611dfb565b92915050565b611e2e81611bb0565b8114611e3957600080fd5b50565b600081359050611e4b81611e25565b92915050565b60008060408385031215611e6857611e67611c13565b5b6000611e7685828601611db9565b9250506020611e8785828601611e3c565b9150509250929050565b6000602082019050611ea66000830184611bdb565b92915050565b6000611eb782611b90565b9050919050565b611ec781611eac565b8114611ed257600080fd5b50565b600081359050611ee481611ebe565b92915050565b600060208284031215611f0057611eff611c13565b5b6000611f0e84828501611ed5565b91505092915050565b6000819050919050565b6000611f3c611f37611f3284611b90565b611f17565b611b90565b9050919050565b6000611f4e82611f21565b9050919050565b6000611f6082611f43565b9050919050565b611f7081611f55565b82525050565b6000602082019050611f8b6000830184611f67565b92915050565b600060208284031215611fa757611fa6611c13565b5b6000611fb584828501611e3c565b91505092915050565b6000602082019050611fd36000830184611bc2565b92915050565b600060208284031215611fef57611fee611c13565b5b6000611ffd84828501611cea565b91505092915050565b7f4e487b7100000000000000000000000000000000000000000000000000000000600052601160045260246000fd5b60008160011c9050919050565b6000808291508390505b600185111561208c5780860481111561206857612067612006565b5b60018516156120775780820291505b808102905061208585612035565b945061204c565b94509492505050565b6000826120a55760019050612161565b816120b35760009050612161565b81600181146120c957600281146120d357612102565b6001915050612161565b60ff8411156120e5576120e4612006565b5b8360020a9150848211156120fc576120fb612006565b5b50612161565b5060208310610133831016604e8410600b84101617156121375782820a90508381111561213257612131612006565b5b612161565b6121448484846001612042565b9250905081840481111561215b5761215a612006565b5b81810290505b9392505050565b600061217382611bd1565b915061217e83611bd1565b92506121ab7fffffffffffffffffffffffffffffffffffffffffffffffffffffffffffffffff8484612095565b905092915050565b60006121be82611bd1565b91506121c983611bd1565b9250817fffffffffffffffffffffffffffffffffffffffffffffffffffffffffffffffff048311821515161561220257612201612006565b5b828202905092915050565b600082825260208201905092915050565b7f416363657373436f6e74726f6c3a2063616e206f6e6c792072656e6f756e636560008201527f20726f6c657320666f722073656c660000000000000000000000000000000000602082015250565b600061227a602f8361220d565b91506122858261221e565b604082019050919050565b600060208201905081810360008301526122a98161226d565b9050919050565b7f4641554345545f44495341424c45440000000000000000000000000000000000600082015250565b60006122e6600f8361220d565b91506122f1826122b0565b602082019050919050565b60006020820190508181036000830152612315816122d9565b9050919050565b7f4641554345545f44525900000000000000000000000000000000000000000000600082015250565b6000612352600a8361220d565b915061235d8261231c565b602082019050919050565b6000602082019050818103600083015261238181612345565b9050919050565b7f53494e474c455f55534500000000000000000000000000000000000000000000600082015250565b60006123be600a8361220d565b91506123c982612388565b602082019050919050565b600060208201905081810360008301526123ed816123b1565b9050919050565b7f57414c4c45545f54494d454f5554000000000000000000000000000000000000600082015250565b600061242a600e8361220d565b9150612435826123f4565b602082019050919050565b600060208201905081810360008301526124598161241d565b9050919050565b60008151905061246f81611cd3565b92915050565b60006020828403121561248b5761248a611c13565b5b600061249984828501612460565b91505092915050565b7f46574542335f4452590000000000000000000000000000000000000000000000600082015250565b60006124d860098361220d565b91506124e3826124a2565b602082019050919050565b60006020820190508181036000830152612507816124cb565b9050919050565b600061251982611f43565b9050919050565b6125298161250e565b82525050565b60006020820190506125446000830184612520565b92915050565b7f46574542335f57414c4c45545f4c494d49540000000000000000000000000000600082015250565b600061258060128361220d565b915061258b8261254a565b602082019050919050565b600060208201905081810360008301526125af81612573565b9050919050565b60006040820190506125cb6000830185612520565b6125d86020830184611bdb565b9392505050565b6000815190506125ee81611d3f565b92915050565b60006020828403121561260a57612609611c13565b5b6000612618848285016125df565b91505092915050565b7f54585f4641494c55524500000000000000000000000000000000000000000000600082015250565b6000612657600a8361220d565b915061266282612621565b602082019050919050565b600060208201905081810360008301526126868161264a565b9050919050565b7f4657454233000000000000000000000000000000000000000000000000000000600082015250565b60006126c360058361220d565b91506126ce8261268d565b602082019050919050565b60006060820190506126ee6000830185611bc2565b81810360208301526126ff816126b6565b905061270e6040830184611bdb565b9392505050565b7f4f776e61626c653a2063616c6c6572206973206e6f7420746865206f776e6572600082015250565b600061274b60208361220d565b915061275682612715565b602082019050919050565b6000602082019050818103600083015261277a8161273e565b9050919050565b7f4f776e61626c653a206e6577206f776e657220697320746865207a65726f206160008201527f6464726573730000000000000000000000000000000000000000000000000000602082015250565b60006127dd60268361220d565b91506127e882612781565b604082019050919050565b6000602082019050818103600083015261280c816127d0565b9050919050565b600081905092915050565b7f416363657373436f6e74726f6c3a206163636f756e7420000000000000000000600082015250565b6000612854601783612813565b915061285f8261281e565b601782019050919050565b600081519050919050565b60005b83811015612893578082015181840152602081019050612878565b838111156128a2576000848401525b50505050565b60006128b38261286a565b6128bd8185612813565b93506128cd818560208601612875565b80840191505092915050565b7f206973206d697373696e6720726f6c6520000000000000000000000000000000600082015250565b600061290f601183612813565b915061291a826128d9565b601182019050919050565b600061293082612847565b915061293c82856128a8565b915061294782612902565b915061295382846128a8565b91508190509392505050565b6000601f19601f8301169050919050565b600061297b8261286a565b612985818561220d565b9350612995818560208601612875565b61299e8161295f565b840191505092915050565b600060208201905081810360008301526129c38184612970565b905092915050565b60006129d682611bd1565b91506129e183611bd1565b9250827fffffffffffffffffffffffffffffffffffffffffffffffffffffffffffffffff03821115612a1657612a15612006565b5b828201905092915050565b7f4e487b7100000000000000000000000000000000000000000000000000000000600052604160045260246000fd5b7f4e487b7100000000000000000000000000000000000000000000000000000000600052603260045260246000fd5b6000612a8a82611bd1565b91506000821415612a9e57612a9d612006565b5b600182039050919050565b7f537472696e67733a20686578206c656e67746820696e73756666696369656e74600082015250565b6000612adf60208361220d565b9150612aea82612aa9565b602082019050919050565b60006020820190508181036000830152612b0e81612ad2565b905091905056fea2646970667358221220fdc1470759b4a0ee5fe109072f91899bc6eba4a76f744772947183c54576e31964736f6c63430008090033",
  "linkReferences": {},
  "deployedLinkReferences": {}
}