{
  "_format": "hh-sol-artifact-1",
  "contractName": "Fweb3Diamond",
  "sourceName": "contracts/original-contracts/fweb3diamondnft.sol",
  "abi": [
    {
      "inputs": [],
      "stateMutability": "nonpayable",
      "type": "constructor"
    },
    {
      "anonymous": false,
      "inputs": [
        {
          "indexed": true,
          "internalType": "address",
          "name": "owner",
          "type": "address"
        },
        {
          "indexed": true,
          "internalType": "address",
          "name": "approved",
          "type": "address"
        },
        {
          "indexed": true,
          "internalType": "uint256",
          "name": "tokenId",
          "type": "uint256"
        }
      ],
      "name": "Approval",
      "type": "event"
    },
    {
      "anonymous": false,
      "inputs": [
        {
          "indexed": true,
          "internalType": "address",
          "name": "owner",
          "type": "address"
        },
        {
          "indexed": true,
          "internalType": "address",
          "name": "operator",
          "type": "address"
        },
        {
          "indexed": false,
          "internalType": "bool",
          "name": "approved",
          "type": "bool"
        }
      ],
      "name": "ApprovalForAll",
      "type": "event"
    },
    {
      "anonymous": false,
      "inputs": [
        {
          "indexed": true,
          "internalType": "address",
          "name": "previousOwner",
          "type": "address"
        },
        {
          "indexed": true,
          "internalType": "address",
          "name": "newOwner",
          "type": "address"
        }
      ],
      "name": "OwnershipTransferred",
      "type": "event"
    },
    {
      "anonymous": false,
      "inputs": [
        {
          "indexed": true,
          "internalType": "address",
          "name": "from",
          "type": "address"
        },
        {
          "indexed": true,
          "internalType": "address",
          "name": "to",
          "type": "address"
        },
        {
          "indexed": true,
          "internalType": "uint256",
          "name": "tokenId",
          "type": "uint256"
        }
      ],
      "name": "Transfer",
      "type": "event"
    },
    {
      "inputs": [
        {
          "internalType": "address",
          "name": "to",
          "type": "address"
        },
        {
          "internalType": "uint256",
          "name": "tokenId",
          "type": "uint256"
        }
      ],
      "name": "approve",
      "outputs": [],
      "stateMutability": "nonpayable",
      "type": "function"
    },
    {
      "inputs": [
        {
          "internalType": "address",
          "name": "owner",
          "type": "address"
        }
      ],
      "name": "balanceOf",
      "outputs": [
        {
          "internalType": "uint256",
          "name": "",
          "type": "uint256"
        }
      ],
      "stateMutability": "view",
      "type": "function"
    },
    {
      "inputs": [
        {
          "internalType": "uint256",
          "name": "tokenId",
          "type": "uint256"
        }
      ],
      "name": "getApproved",
      "outputs": [
        {
          "internalType": "address",
          "name": "",
          "type": "address"
        }
      ],
      "stateMutability": "view",
      "type": "function"
    },
    {
      "inputs": [
        {
          "internalType": "uint256",
          "name": "tokenId",
          "type": "uint256"
        }
      ],
      "name": "getBackgroundColor",
      "outputs": [
        {
          "internalType": "string",
          "name": "",
          "type": "string"
        }
      ],
      "stateMutability": "pure",
      "type": "function"
    },
    {
      "inputs": [
        {
          "internalType": "uint256",
          "name": "tokenId",
          "type": "uint256"
        }
      ],
      "name": "getHue",
      "outputs": [
        {
          "internalType": "string",
          "name": "",
          "type": "string"
        }
      ],
      "stateMutability": "pure",
      "type": "function"
    },
    {
      "inputs": [
        {
          "internalType": "uint256",
          "name": "tokenId",
          "type": "uint256"
        }
      ],
      "name": "getSaturation",
      "outputs": [
        {
          "internalType": "string",
          "name": "",
          "type": "string"
        }
      ],
      "stateMutability": "pure",
      "type": "function"
    },
    {
      "inputs": [
        {
          "internalType": "address",
          "name": "owner",
          "type": "address"
        },
        {
          "internalType": "address",
          "name": "operator",
          "type": "address"
        }
      ],
      "name": "isApprovedForAll",
      "outputs": [
        {
          "internalType": "bool",
          "name": "",
          "type": "bool"
        }
      ],
      "stateMutability": "view",
      "type": "function"
    },
    {
      "inputs": [
        {
          "internalType": "uint256",
          "name": "tokenId",
          "type": "uint256"
        }
      ],
      "name": "mint",
      "outputs": [],
      "stateMutability": "nonpayable",
      "type": "function"
    },
    {
      "inputs": [],
      "name": "name",
      "outputs": [
        {
          "internalType": "string",
          "name": "",
          "type": "string"
        }
      ],
      "stateMutability": "view",
      "type": "function"
    },
    {
      "inputs": [],
      "name": "owner",
      "outputs": [
        {
          "internalType": "address",
          "name": "",
          "type": "address"
        }
      ],
      "stateMutability": "view",
      "type": "function"
    },
    {
      "inputs": [
        {
          "internalType": "uint256",
          "name": "tokenId",
          "type": "uint256"
        }
      ],
      "name": "ownerOf",
      "outputs": [
        {
          "internalType": "address",
          "name": "",
          "type": "address"
        }
      ],
      "stateMutability": "view",
      "type": "function"
    },
    {
      "inputs": [],
      "name": "renounceOwnership",
      "outputs": [],
      "stateMutability": "nonpayable",
      "type": "function"
    },
    {
      "inputs": [
        {
          "internalType": "address",
          "name": "from",
          "type": "address"
        },
        {
          "internalType": "address",
          "name": "to",
          "type": "address"
        },
        {
          "internalType": "uint256",
          "name": "tokenId",
          "type": "uint256"
        }
      ],
      "name": "safeTransferFrom",
      "outputs": [],
      "stateMutability": "nonpayable",
      "type": "function"
    },
    {
      "inputs": [
        {
          "internalType": "address",
          "name": "from",
          "type": "address"
        },
        {
          "internalType": "address",
          "name": "to",
          "type": "address"
        },
        {
          "internalType": "uint256",
          "name": "tokenId",
          "type": "uint256"
        },
        {
          "internalType": "bytes",
          "name": "_data",
          "type": "bytes"
        }
      ],
      "name": "safeTransferFrom",
      "outputs": [],
      "stateMutability": "nonpayable",
      "type": "function"
    },
    {
      "inputs": [
        {
          "internalType": "address",
          "name": "operator",
          "type": "address"
        },
        {
          "internalType": "bool",
          "name": "approved",
          "type": "bool"
        }
      ],
      "name": "setApprovalForAll",
      "outputs": [],
      "stateMutability": "nonpayable",
      "type": "function"
    },
    {
      "inputs": [
        {
          "internalType": "bytes4",
          "name": "interfaceId",
          "type": "bytes4"
        }
      ],
      "name": "supportsInterface",
      "outputs": [
        {
          "internalType": "bool",
          "name": "",
          "type": "bool"
        }
      ],
      "stateMutability": "view",
      "type": "function"
    },
    {
      "inputs": [],
      "name": "symbol",
      "outputs": [
        {
          "internalType": "string",
          "name": "",
          "type": "string"
        }
      ],
      "stateMutability": "view",
      "type": "function"
    },
    {
      "inputs": [
        {
          "internalType": "uint256",
          "name": "tokenId",
          "type": "uint256"
        }
      ],
      "name": "tokenURI",
      "outputs": [
        {
          "internalType": "string",
          "name": "",
          "type": "string"
        }
      ],
      "stateMutability": "pure",
      "type": "function"
    },
    {
      "inputs": [
        {
          "internalType": "address",
          "name": "from",
          "type": "address"
        },
        {
          "internalType": "address",
          "name": "to",
          "type": "address"
        },
        {
          "internalType": "uint256",
          "name": "tokenId",
          "type": "uint256"
        }
      ],
      "name": "transferFrom",
      "outputs": [],
      "stateMutability": "nonpayable",
      "type": "function"
    },
    {
      "inputs": [
        {
          "internalType": "address",
          "name": "newOwner",
          "type": "address"
        }
      ],
      "name": "transferOwnership",
      "outputs": [],
      "stateMutability": "nonpayable",
      "type": "function"
    }
  ],
  "bytecode": "0x60806040523480156200001157600080fd5b506040518060400160405280601181526020017f4677656233204469616d6f6e64204e46540000000000000000000000000000008152506040518060400160405280600f81526020017f46574542334449414d4f4e444e46540000000000000000000000000000000000815250816000908051906020019062000096929190620001a6565b508060019080519060200190620000af929190620001a6565b505050620000d2620000c6620000d860201b60201c565b620000e060201b60201c565b620002bb565b600033905090565b6000600660009054906101000a900473ffffffffffffffffffffffffffffffffffffffff16905081600660006101000a81548173ffffffffffffffffffffffffffffffffffffffff021916908373ffffffffffffffffffffffffffffffffffffffff1602179055508173ffffffffffffffffffffffffffffffffffffffff168173ffffffffffffffffffffffffffffffffffffffff167f8be0079c531659141344cd1fd0a4f28419497f9722a3daafe3b4186f6b6457e060405160405180910390a35050565b828054620001b49062000285565b90600052602060002090601f016020900481019282620001d8576000855562000224565b82601f10620001f357805160ff191683800117855562000224565b8280016001018555821562000224579182015b828111156200022357825182559160200191906001019062000206565b5b50905062000233919062000237565b5090565b5b808211156200025257600081600090555060010162000238565b5090565b7f4e487b7100000000000000000000000000000000000000000000000000000000600052602260045260246000fd5b600060028204905060018216806200029e57607f821691505b60208210811415620002b557620002b462000256565b5b50919050565b613bb380620002cb6000396000f3fe608060405234801561001057600080fd5b506004361061012c5760003560e01c806370a08231116100ad578063a22cb46511610071578063a22cb46514610355578063b88d4fde14610371578063c87b56dd1461038d578063e985e9c5146103bd578063f2fde38b146103ed5761012c565b806370a08231146102c3578063715018a6146102f35780638da5cb5b146102fd57806395d89b411461031b578063a0712d68146103395761012c565b80632fd1c7d7116100f45780632fd1c7d7146101e757806342842e0e146102175780634671059f146102335780635e91b20b146102635780636352211e146102935761012c565b806301ffc9a71461013157806306fdde0314610161578063081812fc1461017f578063095ea7b3146101af57806323b872dd146101cb575b600080fd5b61014b600480360381019061014691906124bb565b610409565b6040516101589190612503565b60405180910390f35b6101696104eb565b60405161017691906125b7565b60405180910390f35b6101996004803603810190610194919061260f565b61057d565b6040516101a6919061267d565b60405180910390f35b6101c960048036038101906101c491906126c4565b610602565b005b6101e560048036038101906101e09190612704565b61071a565b005b61020160048036038101906101fc919061260f565b61077a565b60405161020e91906125b7565b60405180910390f35b610231600480360381019061022c9190612704565b6107d4565b005b61024d6004803603810190610248919061260f565b6107f4565b60405161025a91906125b7565b60405180910390f35b61027d6004803603810190610278919061260f565b610969565b60405161028a91906125b7565b60405180910390f35b6102ad60048036038101906102a8919061260f565b6109c2565b6040516102ba919061267d565b60405180910390f35b6102dd60048036038101906102d89190612757565b610a74565b6040516102ea9190612793565b60405180910390f35b6102fb610b2c565b005b610305610bb4565b604051610312919061267d565b60405180910390f35b610323610bde565b60405161033091906125b7565b60405180910390f35b610353600480360381019061034e919061260f565b610c70565b005b61036f600480360381019061036a91906127da565b610c84565b005b61038b6004803603810190610386919061294f565b610c9a565b005b6103a760048036038101906103a2919061260f565b610cfc565b6040516103b491906125b7565b60405180910390f35b6103d760048036038101906103d291906129d2565b61128c565b6040516103e49190612503565b60405180910390f35b61040760048036038101906104029190612757565b611320565b005b60007f80ac58cd000000000000000000000000000000000000000000000000000000007bffffffffffffffffffffffffffffffffffffffffffffffffffffffff1916827bffffffffffffffffffffffffffffffffffffffffffffffffffffffff191614806104d457507f5b5e139f000000000000000000000000000000000000000000000000000000007bffffffffffffffffffffffffffffffffffffffffffffffffffffffff1916827bffffffffffffffffffffffffffffffffffffffffffffffffffffffff1916145b806104e457506104e382611418565b5b9050919050565b6060600080546104fa90612a41565b80601f016020809104026020016040519081016040528092919081815260200182805461052690612a41565b80156105735780601f1061054857610100808354040283529160200191610573565b820191906000526020600020905b81548152906001019060200180831161055657829003601f168201915b5050505050905090565b600061058882611482565b6105c7576040517f08c379a00000000000000000000000000000000000000000000000000000000081526004016105be90612ae5565b60405180910390fd5b6004600083815260200190815260200160002060009054906101000a900473ffffffffffffffffffffffffffffffffffffffff169050919050565b600061060d826109c2565b90508073ffffffffffffffffffffffffffffffffffffffff168373ffffffffffffffffffffffffffffffffffffffff16141561067e576040517f08c379a000000000000000000000000000000000000000000000000000000000815260040161067590612b77565b60405180910390fd5b8073ffffffffffffffffffffffffffffffffffffffff1661069d6114ee565b73ffffffffffffffffffffffffffffffffffffffff1614806106cc57506106cb816106c66114ee565b61128c565b5b61070b576040517f08c379a000000000000000000000000000000000000000000000000000000000815260040161070290612c09565b60405180910390fd5b61071583836114f6565b505050565b61072b6107256114ee565b826115af565b61076a576040517f08c379a000000000000000000000000000000000000000000000000000000000815260040161076190612c9b565b60405180910390fd5b61077583838361168d565b505050565b606060006107ae61078a846118f4565b60405160200161079a9190612cf7565b604051602081830303815290604052611a55565b90506000610168826107c09190612d3d565b90506107cb81611a88565b92505050919050565b6107ef83838360405180602001604052806000815250610c9a565b505050565b60606000610828610804846118f4565b6040516020016108149190612cf7565b604051602081830303815290604052611a55565b905060008160001b905060006040518060400160405280601081526020017f303132333435363738394142434445460000000000000000000000000000000081525090506000600667ffffffffffffffff81111561088957610888612824565b5b6040519080825280601f01601f1916602001820160405280156108bb5781602001600182028036833780820191505090505b50905060005b600681101561095c5782600f8583602081106108e0576108df612d6e565b5b1a60f81b60f81c1660ff16815181106108fc576108fb612d6e565b5b602001015160f81c60f81b82828151811061091a57610919612d6e565b5b60200101907effffffffffffffffffffffffffffffffffffffffffffffffffffffffffffff1916908160001a905350808061095490612dcc565b9150506108c1565b5080945050505050919050565b6060600061099d610979846118f4565b6040516020016109899190612cf7565b604051602081830303815290604052611a55565b905060006064826109ae9190612d3d565b90506109b981611a88565b92505050919050565b6000806002600084815260200190815260200160002060009054906101000a900473ffffffffffffffffffffffffffffffffffffffff169050600073ffffffffffffffffffffffffffffffffffffffff168173ffffffffffffffffffffffffffffffffffffffff161415610a6b576040517f08c379a0000000000000000000000000000000000000000000000000000000008152600401610a6290612e87565b60405180910390fd5b80915050919050565b60008073ffffffffffffffffffffffffffffffffffffffff168273ffffffffffffffffffffffffffffffffffffffff161415610ae5576040517f08c379a0000000000000000000000000000000000000000000000000000000008152600401610adc90612f19565b60405180910390fd5b600360008373ffffffffffffffffffffffffffffffffffffffff1673ffffffffffffffffffffffffffffffffffffffff168152602001908152602001600020549050919050565b610b346114ee565b73ffffffffffffffffffffffffffffffffffffffff16610b52610bb4565b73ffffffffffffffffffffffffffffffffffffffff1614610ba8576040517f08c379a0000000000000000000000000000000000000000000000000000000008152600401610b9f90612f85565b60405180910390fd5b610bb26000611be9565b565b6000600660009054906101000a900473ffffffffffffffffffffffffffffffffffffffff16905090565b606060018054610bed90612a41565b80601f0160208091040260200160405190810160405280929190818152602001828054610c1990612a41565b8015610c665780601f10610c3b57610100808354040283529160200191610c66565b820191906000526020600020905b815481529060010190602001808311610c4957829003601f168201915b5050505050905090565b610c81610c7b6114ee565b82611caf565b50565b610c96610c8f6114ee565b8383611ccd565b5050565b610cab610ca56114ee565b836115af565b610cea576040517f08c379a0000000000000000000000000000000000000000000000000000000008152600401610ce190612c9b565b60405180910390fd5b610cf684848484611e3a565b50505050565b6060610d06612427565b6000610d118461077a565b610d1a85610969565b604051602001610d2b929190612ff1565b60405160208183030381529060405290506000610d47856107f4565b90506040518060c00160405280608a815260200161391f608a913983600060118110610d7657610d75612d6e565b5b60200201819052508083600160118110610d9357610d92612d6e565b5b6020020181905250604051806080016040528060598152602001613ace6059913983600260118110610dc857610dc7612d6e565b5b60200201819052508183600360118110610de557610de4612d6e565b5b60200201819052506040518060800160405280604b8152602001613881604b913983600460118110610e1a57610e19612d6e565b5b60200201819052508183600560118110610e3757610e36612d6e565b5b60200201819052506040518060800160405280604b81526020016139a9604b913983600660118110610e6c57610e6b612d6e565b5b60200201819052508183600760118110610e8957610e88612d6e565b5b6020020181905250604051806080016040528060578152602001613b276057913983600860118110610ebe57610ebd612d6e565b5b60200201819052508183600960118110610edb57610eda612d6e565b5b60200201819052506040518060800160405280604b8152602001613a83604b913983600a60118110610f1057610f0f612d6e565b5b60200201819052508183600b60118110610f2d57610f2c612d6e565b5b60200201819052506040518060800160405280604f81526020016139f4604f913983600c60118110610f6257610f61612d6e565b5b60200201819052508183600d60118110610f7f57610f7e612d6e565b5b60200201819052506040518060800160405280605381526020016138cc6053913983600e60118110610fb457610fb3612d6e565b5b60200201819052508183600f60118110610fd157610fd0612d6e565b5b60200201819052506040518060400160405280600f81526020017f252c39342529222f3e3c2f7376673e00000000000000000000000000000000008152508360106011811061102357611022612d6e565b5b602002018190525060008360006011811061104157611040612d6e565b5b60200201518460016011811061105a57611059612d6e565b5b60200201518560026011811061107357611072612d6e565b5b60200201518660036011811061108c5761108b612d6e565b5b6020020151876004601181106110a5576110a4612d6e565b5b6020020151886005601181106110be576110bd612d6e565b5b6020020151896006601181106110d7576110d6612d6e565b5b60200201518a6007601181106110f0576110ef612d6e565b5b60200201518b60086011811061110957611108612d6e565b5b602002015160405160200161112699989796959493929190613020565b6040516020818303038152906040529050808460096011811061114c5761114b612d6e565b5b602002015185600a6011811061116557611164612d6e565b5b602002015186600b6011811061117e5761117d612d6e565b5b602002015187600c6011811061119757611196612d6e565b5b602002015188600d601181106111b0576111af612d6e565b5b602002015189600e601181106111c9576111c8612d6e565b5b60200201518a600f601181106111e2576111e1612d6e565b5b60200201518b6010601181106111fb576111fa612d6e565b5b602002015160405160200161121899989796959493929190613020565b6040516020818303038152906040529050600061125b61123783611e96565b60405160200161124791906131cf565b604051602081830303815290604052611e96565b90508060405160200161126e9190613248565b60405160208183030381529060405291508195505050505050919050565b6000600560008473ffffffffffffffffffffffffffffffffffffffff1673ffffffffffffffffffffffffffffffffffffffff16815260200190815260200160002060008373ffffffffffffffffffffffffffffffffffffffff1673ffffffffffffffffffffffffffffffffffffffff16815260200190815260200160002060009054906101000a900460ff16905092915050565b6113286114ee565b73ffffffffffffffffffffffffffffffffffffffff16611346610bb4565b73ffffffffffffffffffffffffffffffffffffffff161461139c576040517f08c379a000000000000000000000000000000000000000000000000000000000815260040161139390612f85565b60405180910390fd5b600073ffffffffffffffffffffffffffffffffffffffff168173ffffffffffffffffffffffffffffffffffffffff16141561140c576040517f08c379a0000000000000000000000000000000000000000000000000000000008152600401611403906132dc565b60405180910390fd5b61141581611be9565b50565b60007f01ffc9a7000000000000000000000000000000000000000000000000000000007bffffffffffffffffffffffffffffffffffffffffffffffffffffffff1916827bffffffffffffffffffffffffffffffffffffffffffffffffffffffff1916149050919050565b60008073ffffffffffffffffffffffffffffffffffffffff166002600084815260200190815260200160002060009054906101000a900473ffffffffffffffffffffffffffffffffffffffff1673ffffffffffffffffffffffffffffffffffffffff1614159050919050565b600033905090565b816004600083815260200190815260200160002060006101000a81548173ffffffffffffffffffffffffffffffffffffffff021916908373ffffffffffffffffffffffffffffffffffffffff160217905550808273ffffffffffffffffffffffffffffffffffffffff16611569836109c2565b73ffffffffffffffffffffffffffffffffffffffff167f8c5be1e5ebec7d5bd14f71427d1e84f3dd0314c0f7b2291e5b200ac8c7c3b92560405160405180910390a45050565b60006115ba82611482565b6115f9576040517f08c379a00000000000000000000000000000000000000000000000000000000081526004016115f09061336e565b60405180910390fd5b6000611604836109c2565b90508073ffffffffffffffffffffffffffffffffffffffff168473ffffffffffffffffffffffffffffffffffffffff16148061167357508373ffffffffffffffffffffffffffffffffffffffff1661165b8461057d565b73ffffffffffffffffffffffffffffffffffffffff16145b806116845750611683818561128c565b5b91505092915050565b8273ffffffffffffffffffffffffffffffffffffffff166116ad826109c2565b73ffffffffffffffffffffffffffffffffffffffff1614611703576040517f08c379a00000000000000000000000000000000000000000000000000000000081526004016116fa90613400565b60405180910390fd5b600073ffffffffffffffffffffffffffffffffffffffff168273ffffffffffffffffffffffffffffffffffffffff161415611773576040517f08c379a000000000000000000000000000000000000000000000000000000000815260040161176a90613492565b60405180910390fd5b61177e83838361202e565b6117896000826114f6565b6001600360008573ffffffffffffffffffffffffffffffffffffffff1673ffffffffffffffffffffffffffffffffffffffff16815260200190815260200160002060008282546117d991906134b2565b925050819055506001600360008473ffffffffffffffffffffffffffffffffffffffff1673ffffffffffffffffffffffffffffffffffffffff168152602001908152602001600020600082825461183091906134e6565b92505081905550816002600083815260200190815260200160002060006101000a81548173ffffffffffffffffffffffffffffffffffffffff021916908373ffffffffffffffffffffffffffffffffffffffff160217905550808273ffffffffffffffffffffffffffffffffffffffff168473ffffffffffffffffffffffffffffffffffffffff167fddf252ad1be2c89b69c2b068fc378daa952ba7f163c4a11628f55a4df523b3ef60405160405180910390a46118ef838383612033565b505050565b6060600082141561193c576040518060400160405280600181526020017f30000000000000000000000000000000000000000000000000000000000000008152509050611a50565b600082905060005b6000821461196e57808061195790612dcc565b915050600a82611967919061353c565b9150611944565b60008167ffffffffffffffff81111561198a57611989612824565b5b6040519080825280601f01601f1916602001820160405280156119bc5781602001600182028036833780820191505090505b5090505b60008514611a49576001826119d591906134b2565b9150600a856119e49190612d3d565b60306119f091906134e6565b60f81b818381518110611a0657611a05612d6e565b5b60200101907effffffffffffffffffffffffffffffffffffffffffffffffffffffffffffff1916908160001a905350600a85611a42919061353c565b94506119c0565b8093505050505b919050565b600081604051602001611a689190612cf7565b6040516020818303038152906040528051906020012060001c9050919050565b60606000821415611ad0576040518060400160405280600181526020017f30000000000000000000000000000000000000000000000000000000000000008152509050611be4565b600082905060005b60008214611b02578080611aeb90612dcc565b915050600a82611afb919061353c565b9150611ad8565b60008167ffffffffffffffff811115611b1e57611b1d612824565b5b6040519080825280601f01601f191660200182016040528015611b505781602001600182028036833780820191505090505b5090505b60008514611bdd57600182611b6991906134b2565b9150600a85611b789190612d3d565b6030611b8491906134e6565b60f81b818381518110611b9a57611b99612d6e565b5b60200101907effffffffffffffffffffffffffffffffffffffffffffffffffffffffffffff1916908160001a905350600a85611bd6919061353c565b9450611b54565b8093505050505b919050565b6000600660009054906101000a900473ffffffffffffffffffffffffffffffffffffffff16905081600660006101000a81548173ffffffffffffffffffffffffffffffffffffffff021916908373ffffffffffffffffffffffffffffffffffffffff1602179055508173ffffffffffffffffffffffffffffffffffffffff168173ffffffffffffffffffffffffffffffffffffffff167f8be0079c531659141344cd1fd0a4f28419497f9722a3daafe3b4186f6b6457e060405160405180910390a35050565b611cc9828260405180602001604052806000815250612038565b5050565b8173ffffffffffffffffffffffffffffffffffffffff168373ffffffffffffffffffffffffffffffffffffffff161415611d3c576040517f08c379a0000000000000000000000000000000000000000000000000000000008152600401611d33906135b9565b60405180910390fd5b80600560008573ffffffffffffffffffffffffffffffffffffffff1673ffffffffffffffffffffffffffffffffffffffff16815260200190815260200160002060008473ffffffffffffffffffffffffffffffffffffffff1673ffffffffffffffffffffffffffffffffffffffff16815260200190815260200160002060006101000a81548160ff0219169083151502179055508173ffffffffffffffffffffffffffffffffffffffff168373ffffffffffffffffffffffffffffffffffffffff167f17307eab39ab6107e8899845ad3d59bd9653f200f220920489ca2b5937696c3183604051611e2d9190612503565b60405180910390a3505050565b611e4584848461168d565b611e5184848484612093565b611e90576040517f08c379a0000000000000000000000000000000000000000000000000000000008152600401611e879061364b565b60405180910390fd5b50505050565b60606000825190506000811415611ebf5760405180602001604052806000815250915050612029565b60006003600283611ed091906134e6565b611eda919061353c565b6004611ee6919061366b565b90506000602082611ef791906134e6565b67ffffffffffffffff811115611f1057611f0f612824565b5b6040519080825280601f01601f191660200182016040528015611f425781602001600182028036833780820191505090505b5090506000604051806060016040528060408152602001613a43604091399050600181016020830160005b86811015611fe65760038101905062ffffff818a015116603f8160121c168401518060081b905060ff603f83600c1c1686015116810190508060081b905060ff603f8360061c1686015116810190508060081b905060ff603f831686015116810190508060e01b90508084526004840193505050611f6d565b50600386066001811461200057600281146120105761201b565b613d3d60f01b600283035261201b565b603d60f81b60018303525b508484525050819450505050505b919050565b505050565b505050565b612042838361222a565b61204f6000848484612093565b61208e576040517f08c379a00000000000000000000000000000000000000000000000000000000081526004016120859061364b565b60405180910390fd5b505050565b60006120b48473ffffffffffffffffffffffffffffffffffffffff16612404565b1561221d578373ffffffffffffffffffffffffffffffffffffffff1663150b7a026120dd6114ee565b8786866040518563ffffffff1660e01b81526004016120ff949392919061371a565b602060405180830381600087803b15801561211957600080fd5b505af192505050801561214a57506040513d601f19601f82011682018060405250810190612147919061377b565b60015b6121cd573d806000811461217a576040519150601f19603f3d011682016040523d82523d6000602084013e61217f565b606091505b506000815114156121c5576040517f08c379a00000000000000000000000000000000000000000000000000000000081526004016121bc9061364b565b60405180910390fd5b805181602001fd5b63150b7a0260e01b7bffffffffffffffffffffffffffffffffffffffffffffffffffffffff1916817bffffffffffffffffffffffffffffffffffffffffffffffffffffffff191614915050612222565b600190505b949350505050565b600073ffffffffffffffffffffffffffffffffffffffff168273ffffffffffffffffffffffffffffffffffffffff16141561229a576040517f08c379a0000000000000000000000000000000000000000000000000000000008152600401612291906137f4565b60405180910390fd5b6122a381611482565b156122e3576040517f08c379a00000000000000000000000000000000000000000000000000000000081526004016122da90613860565b60405180910390fd5b6122ef6000838361202e565b6001600360008473ffffffffffffffffffffffffffffffffffffffff1673ffffffffffffffffffffffffffffffffffffffff168152602001908152602001600020600082825461233f91906134e6565b92505081905550816002600083815260200190815260200160002060006101000a81548173ffffffffffffffffffffffffffffffffffffffff021916908373ffffffffffffffffffffffffffffffffffffffff160217905550808273ffffffffffffffffffffffffffffffffffffffff16600073ffffffffffffffffffffffffffffffffffffffff167fddf252ad1be2c89b69c2b068fc378daa952ba7f163c4a11628f55a4df523b3ef60405160405180910390a461240060008383612033565b5050565b6000808273ffffffffffffffffffffffffffffffffffffffff163b119050919050565b6040518061022001604052806011905b60608152602001906001900390816124375790505090565b6000604051905090565b600080fd5b600080fd5b60007fffffffff0000000000000000000000000000000000000000000000000000000082169050919050565b61249881612463565b81146124a357600080fd5b50565b6000813590506124b58161248f565b92915050565b6000602082840312156124d1576124d0612459565b5b60006124df848285016124a6565b91505092915050565b60008115159050919050565b6124fd816124e8565b82525050565b600060208201905061251860008301846124f4565b92915050565b600081519050919050565b600082825260208201905092915050565b60005b8381101561255857808201518184015260208101905061253d565b83811115612567576000848401525b50505050565b6000601f19601f8301169050919050565b60006125898261251e565b6125938185612529565b93506125a381856020860161253a565b6125ac8161256d565b840191505092915050565b600060208201905081810360008301526125d1818461257e565b905092915050565b6000819050919050565b6125ec816125d9565b81146125f757600080fd5b50565b600081359050612609816125e3565b92915050565b60006020828403121561262557612624612459565b5b6000612633848285016125fa565b91505092915050565b600073ffffffffffffffffffffffffffffffffffffffff82169050919050565b60006126678261263c565b9050919050565b6126778161265c565b82525050565b6000602082019050612692600083018461266e565b92915050565b6126a18161265c565b81146126ac57600080fd5b50565b6000813590506126be81612698565b92915050565b600080604083850312156126db576126da612459565b5b60006126e9858286016126af565b92505060206126fa858286016125fa565b9150509250929050565b60008060006060848603121561271d5761271c612459565b5b600061272b868287016126af565b935050602061273c868287016126af565b925050604061274d868287016125fa565b9150509250925092565b60006020828403121561276d5761276c612459565b5b600061277b848285016126af565b91505092915050565b61278d816125d9565b82525050565b60006020820190506127a86000830184612784565b92915050565b6127b7816124e8565b81146127c257600080fd5b50565b6000813590506127d4816127ae565b92915050565b600080604083850312156127f1576127f0612459565b5b60006127ff858286016126af565b9250506020612810858286016127c5565b9150509250929050565b600080fd5b600080fd5b7f4e487b7100000000000000000000000000000000000000000000000000000000600052604160045260246000fd5b61285c8261256d565b810181811067ffffffffffffffff8211171561287b5761287a612824565b5b80604052505050565b600061288e61244f565b905061289a8282612853565b919050565b600067ffffffffffffffff8211156128ba576128b9612824565b5b6128c38261256d565b9050602081019050919050565b82818337600083830152505050565b60006128f26128ed8461289f565b612884565b90508281526020810184848401111561290e5761290d61281f565b5b6129198482856128d0565b509392505050565b600082601f8301126129365761293561281a565b5b81356129468482602086016128df565b91505092915050565b6000806000806080858703121561296957612968612459565b5b6000612977878288016126af565b9450506020612988878288016126af565b9350506040612999878288016125fa565b925050606085013567ffffffffffffffff8111156129ba576129b961245e565b5b6129c687828801612921565b91505092959194509250565b600080604083850312156129e9576129e8612459565b5b60006129f7858286016126af565b9250506020612a08858286016126af565b9150509250929050565b7f4e487b7100000000000000000000000000000000000000000000000000000000600052602260045260246000fd5b60006002820490506001821680612a5957607f821691505b60208210811415612a6d57612a6c612a12565b5b50919050565b7f4552433732313a20617070726f76656420717565727920666f72206e6f6e657860008201527f697374656e7420746f6b656e0000000000000000000000000000000000000000602082015250565b6000612acf602c83612529565b9150612ada82612a73565b604082019050919050565b60006020820190508181036000830152612afe81612ac2565b9050919050565b7f4552433732313a20617070726f76616c20746f2063757272656e74206f776e6560008201527f7200000000000000000000000000000000000000000000000000000000000000602082015250565b6000612b61602183612529565b9150612b6c82612b05565b604082019050919050565b60006020820190508181036000830152612b9081612b54565b9050919050565b7f4552433732313a20617070726f76652063616c6c6572206973206e6f74206f7760008201527f6e6572206e6f7220617070726f76656420666f7220616c6c0000000000000000602082015250565b6000612bf3603883612529565b9150612bfe82612b97565b604082019050919050565b60006020820190508181036000830152612c2281612be6565b9050919050565b7f4552433732313a207472616e736665722063616c6c6572206973206e6f74206f60008201527f776e6572206e6f7220617070726f766564000000000000000000000000000000602082015250565b6000612c85603183612529565b9150612c9082612c29565b604082019050919050565b60006020820190508181036000830152612cb481612c78565b9050919050565b600081905092915050565b6000612cd18261251e565b612cdb8185612cbb565b9350612ceb81856020860161253a565b80840191505092915050565b6000612d038284612cc6565b915081905092915050565b7f4e487b7100000000000000000000000000000000000000000000000000000000600052601260045260246000fd5b6000612d48826125d9565b9150612d53836125d9565b925082612d6357612d62612d0e565b5b828206905092915050565b7f4e487b7100000000000000000000000000000000000000000000000000000000600052603260045260246000fd5b7f4e487b7100000000000000000000000000000000000000000000000000000000600052601160045260246000fd5b6000612dd7826125d9565b91507fffffffffffffffffffffffffffffffffffffffffffffffffffffffffffffffff821415612e0a57612e09612d9d565b5b600182019050919050565b7f4552433732313a206f776e657220717565727920666f72206e6f6e657869737460008201527f656e7420746f6b656e0000000000000000000000000000000000000000000000602082015250565b6000612e71602983612529565b9150612e7c82612e15565b604082019050919050565b60006020820190508181036000830152612ea081612e64565b9050919050565b7f4552433732313a2062616c616e636520717565727920666f7220746865207a6560008201527f726f206164647265737300000000000000000000000000000000000000000000602082015250565b6000612f03602a83612529565b9150612f0e82612ea7565b604082019050919050565b60006020820190508181036000830152612f3281612ef6565b9050919050565b7f4f776e61626c653a2063616c6c6572206973206e6f7420746865206f776e6572600082015250565b6000612f6f602083612529565b9150612f7a82612f39565b602082019050919050565b60006020820190508181036000830152612f9e81612f62565b9050919050565b7f2c00000000000000000000000000000000000000000000000000000000000000600082015250565b6000612fdb600183612cbb565b9150612fe682612fa5565b600182019050919050565b6000612ffd8285612cc6565b915061300882612fce565b91506130148284612cc6565b91508190509392505050565b600061302c828c612cc6565b9150613038828b612cc6565b9150613044828a612cc6565b91506130508289612cc6565b915061305c8288612cc6565b91506130688287612cc6565b91506130748286612cc6565b91506130808285612cc6565b915061308c8284612cc6565b91508190509a9950505050505050505050565b7f7b226e616d65223a20224677656233204469616d6f6e64204e4654222c20226460008201527f65736372697074696f6e223a202254686973204e465420726570726573656e7460208201527f732070617274696369706174696f6e20696e20467765623320323032322e222c60408201527f2022696d616765223a2022646174613a696d6167652f7376672b786d6c3b626160608201527f736536342c000000000000000000000000000000000000000000000000000000608082015250565b600061316d608583612cbb565b91506131788261309f565b608582019050919050565b7f227d000000000000000000000000000000000000000000000000000000000000600082015250565b60006131b9600283612cbb565b91506131c482613183565b600282019050919050565b60006131da82613160565b91506131e68284612cc6565b91506131f1826131ac565b915081905092915050565b7f646174613a6170706c69636174696f6e2f6a736f6e3b6261736536342c000000600082015250565b6000613232601d83612cbb565b915061323d826131fc565b601d82019050919050565b600061325382613225565b915061325f8284612cc6565b915081905092915050565b7f4f776e61626c653a206e6577206f776e657220697320746865207a65726f206160008201527f6464726573730000000000000000000000000000000000000000000000000000602082015250565b60006132c6602683612529565b91506132d18261326a565b604082019050919050565b600060208201905081810360008301526132f5816132b9565b9050919050565b7f4552433732313a206f70657261746f7220717565727920666f72206e6f6e657860008201527f697374656e7420746f6b656e0000000000000000000000000000000000000000602082015250565b6000613358602c83612529565b9150613363826132fc565b604082019050919050565b600060208201905081810360008301526133878161334b565b9050919050565b7f4552433732313a207472616e736665722066726f6d20696e636f72726563742060008201527f6f776e6572000000000000000000000000000000000000000000000000000000602082015250565b60006133ea602583612529565b91506133f58261338e565b604082019050919050565b60006020820190508181036000830152613419816133dd565b9050919050565b7f4552433732313a207472616e7366657220746f20746865207a65726f2061646460008201527f7265737300000000000000000000000000000000000000000000000000000000602082015250565b600061347c602483612529565b915061348782613420565b604082019050919050565b600060208201905081810360008301526134ab8161346f565b9050919050565b60006134bd826125d9565b91506134c8836125d9565b9250828210156134db576134da612d9d565b5b828203905092915050565b60006134f1826125d9565b91506134fc836125d9565b9250827fffffffffffffffffffffffffffffffffffffffffffffffffffffffffffffffff0382111561353157613530612d9d565b5b828201905092915050565b6000613547826125d9565b9150613552836125d9565b92508261356257613561612d0e565b5b828204905092915050565b7f4552433732313a20617070726f766520746f2063616c6c657200000000000000600082015250565b60006135a3601983612529565b91506135ae8261356d565b602082019050919050565b600060208201905081810360008301526135d281613596565b9050919050565b7f4552433732313a207472616e7366657220746f206e6f6e20455243373231526560008201527f63656976657220696d706c656d656e7465720000000000000000000000000000602082015250565b6000613635603283612529565b9150613640826135d9565b604082019050919050565b6000602082019050818103600083015261366481613628565b9050919050565b6000613676826125d9565b9150613681836125d9565b9250817fffffffffffffffffffffffffffffffffffffffffffffffffffffffffffffffff04831182151516156136ba576136b9612d9d565b5b828202905092915050565b600081519050919050565b600082825260208201905092915050565b60006136ec826136c5565b6136f681856136d0565b935061370681856020860161253a565b61370f8161256d565b840191505092915050565b600060808201905061372f600083018761266e565b61373c602083018661266e565b6137496040830185612784565b818103606083015261375b81846136e1565b905095945050505050565b6000815190506137758161248f565b92915050565b60006020828403121561379157613790612459565b5b600061379f84828501613766565b91505092915050565b7f4552433732313a206d696e7420746f20746865207a65726f2061646472657373600082015250565b60006137de602083612529565b91506137e9826137a8565b602082019050919050565b6000602082019050818103600083015261380d816137d1565b9050919050565b7f4552433732313a20746f6b656e20616c7265616479206d696e74656400000000600082015250565b600061384a601c83612529565b915061385582613814565b602082019050919050565b600060208201905081810360008301526138798161383d565b905091905056fe252c37392529222f3e3c7061746820643d224d3138302e363031203134304c3231352e333332203230332e363839483133344c3138302e363031203134305a222066696c6c3d2268736c28252c39342529222f3e3c7061746820643d224d3231352e333332203230332e3638394c3235352e393938203337322e3035364c313334203230332e363839483231352e3333325a222066696c6c3d2268736c283c73766720786d6c6e733d22687474703a2f2f7777772e77332e6f72672f323030302f73766722207072657365727665417370656374526174696f3d22784d696e594d696e206d656574222076696577426f783d223020302035313220353132223e3c726563742077696474683d223130302522206865696768743d2231303025222066696c6c3d2223252c38322529222f3e3c7061746820643d224d3333312e34203134304c3239362e363634203230332e3638394c3235352e39393820313430483333312e345a222066696c6c3d2268736c28252c39342529222f3e3c7061746820643d224d3235352e393938203134304c3239362e363634203230332e363839483231352e3333324c3235352e393938203134305a222066696c6c3d2268736c284142434445464748494a4b4c4d4e4f505152535455565758595a6162636465666768696a6b6c6d6e6f707172737475767778797a303132333435363738392b2f252c38322529222f3e3c7061746820643d224d3333312e34203134304c3337372e393935203230332e363839483239362e3636344c3333312e34203134305a222066696c6c3d2268736c28222f3e3c7061746820643d224d323536203337322e3035374c333738203230332e3638364c3333312e3420313430483138302e364c313334203230332e3638364c323536203337322e3035375a222066696c6c3d2268736c28252c38322529222f3e3c7061746820643d224d3239362e363634203230332e3638394c3235352e393938203337322e3035364c3231352e333332203230332e363839483239362e3636345a222066696c6c3d2268736c28a264697066735822122088f988c1ee0afdb06d2715227fb60a516ff88be66d4d2fc6804a47ce109cbb3164736f6c63430008090033",
  "linkReferences": {},
  "deployedLinkReferences": {}
}