{
  "_format": "hh-sol-artifact-1",
  "contractName": "Poll",
  "sourceName": "contracts/original-contracts/poll.sol",
  "abi": [
    {
      "inputs": [
        {
          "internalType": "contract IERC20",
          "name": "token",
          "type": "address"
        }
      ],
      "stateMutability": "nonpayable",
      "type": "constructor"
    },
    {
      "inputs": [],
      "name": "getNumVoters",
      "outputs": [
        {
          "internalType": "uint256",
          "name": "",
          "type": "uint256"
        }
      ],
      "stateMutability": "view",
      "type": "function"
    },
    {
      "inputs": [],
      "name": "getYesPercentage",
      "outputs": [
        {
          "internalType": "uint256",
          "name": "",
          "type": "uint256"
        }
      ],
      "stateMutability": "view",
      "type": "function"
    },
    {
      "inputs": [
        {
          "internalType": "address",
          "name": "voter",
          "type": "address"
        }
      ],
      "name": "hasTokens",
      "outputs": [
        {
          "internalType": "bool",
          "name": "",
          "type": "bool"
        }
      ],
      "stateMutability": "view",
      "type": "function"
    },
    {
      "inputs": [
        {
          "internalType": "address",
          "name": "voter",
          "type": "address"
        }
      ],
      "name": "hasVoted",
      "outputs": [
        {
          "internalType": "bool",
          "name": "",
          "type": "bool"
        }
      ],
      "stateMutability": "view",
      "type": "function"
    },
    {
      "inputs": [],
      "name": "owner",
      "outputs": [
        {
          "internalType": "address",
          "name": "",
          "type": "address"
        }
      ],
      "stateMutability": "view",
      "type": "function"
    },
    {
      "inputs": [],
      "name": "voteNo",
      "outputs": [],
      "stateMutability": "nonpayable",
      "type": "function"
    },
    {
      "inputs": [],
      "name": "voteYes",
      "outputs": [],
      "stateMutability": "nonpayable",
      "type": "function"
    }
  ],
  "bytecode": "0x608060405234801561001057600080fd5b50604051610acd380380610acd8339818101604052810190610032919061012e565b33600160006101000a81548173ffffffffffffffffffffffffffffffffffffffff021916908373ffffffffffffffffffffffffffffffffffffffff160217905550806000806101000a81548173ffffffffffffffffffffffffffffffffffffffff021916908373ffffffffffffffffffffffffffffffffffffffff1602179055505061015b565b600080fd5b600073ffffffffffffffffffffffffffffffffffffffff82169050919050565b60006100e9826100be565b9050919050565b60006100fb826100de565b9050919050565b61010b816100f0565b811461011657600080fd5b50565b60008151905061012881610102565b92915050565b600060208284031215610144576101436100b9565b5b600061015284828501610119565b91505092915050565b6109638061016a6000396000f3fe608060405234801561001057600080fd5b506004361061007d5760003560e01c806341c12a701161005b57806341c12a70146101005780638da5cb5b1461010a57806390cf581c146101285780639b51dda3146101325761007d565b806309eef43e1461008257806325bd79eb146100b25780633cefc1e0146100d0575b600080fd5b61009c600480360381019061009791906105c9565b610150565b6040516100a99190610611565b60405180910390f35b6100ba6101fb565b6040516100c79190610645565b60405180910390f35b6100ea60048036038101906100e591906105c9565b610208565b6040516100f79190610611565b60405180910390f35b6101086102c6565b005b6101126103bc565b60405161011f919061066f565b60405180910390f35b6101306103e2565b005b61013a61053b565b6040516101479190610645565b60405180910390f35b6000806000905060005b6003805490508110156101f1576003818154811061017b5761017a61068a565b5b9060005260206000200160009054906101000a900473ffffffffffffffffffffffffffffffffffffffff1673ffffffffffffffffffffffffffffffffffffffff168473ffffffffffffffffffffffffffffffffffffffff1614156101de57600191505b80806101e9906106e8565b91505061015a565b5080915050919050565b6000600380549050905090565b600068056bc75e2d6310000060008054906101000a900473ffffffffffffffffffffffffffffffffffffffff1673ffffffffffffffffffffffffffffffffffffffff166370a08231846040518263ffffffff1660e01b815260040161026d919061066f565b60206040518083038186803b15801561028557600080fd5b505afa158015610299573d6000803e3d6000fd5b505050506040513d601f19601f820116820180604052508101906102bd919061075d565b10159050919050565b6102cf33610150565b1561030f576040517f08c379a0000000000000000000000000000000000000000000000000000000008152600401610306906107e7565b60405180910390fd5b61031833610208565b610357576040517f08c379a000000000000000000000000000000000000000000000000000000000815260040161034e90610853565b60405180910390fd5b6003339080600181540180825580915050600190039060005260206000200160009091909190916101000a81548173ffffffffffffffffffffffffffffffffffffffff021916908373ffffffffffffffffffffffffffffffffffffffff160217905550565b600160009054906101000a900473ffffffffffffffffffffffffffffffffffffffff1681565b6103eb33610150565b1561042b576040517f08c379a0000000000000000000000000000000000000000000000000000000008152600401610422906107e7565b60405180910390fd5b61043433610208565b610473576040517f08c379a000000000000000000000000000000000000000000000000000000000815260040161046a90610853565b60405180910390fd5b6002339080600181540180825580915050600190039060005260206000200160009091909190916101000a81548173ffffffffffffffffffffffffffffffffffffffff021916908373ffffffffffffffffffffffffffffffffffffffff1602179055506003339080600181540180825580915050600190039060005260206000200160009091909190916101000a81548173ffffffffffffffffffffffffffffffffffffffff021916908373ffffffffffffffffffffffffffffffffffffffff160217905550565b60006105456101fb565b60646002805490506105579190610873565b61056191906108fc565b905090565b600080fd5b600073ffffffffffffffffffffffffffffffffffffffff82169050919050565b60006105968261056b565b9050919050565b6105a68161058b565b81146105b157600080fd5b50565b6000813590506105c38161059d565b92915050565b6000602082840312156105df576105de610566565b5b60006105ed848285016105b4565b91505092915050565b60008115159050919050565b61060b816105f6565b82525050565b60006020820190506106266000830184610602565b92915050565b6000819050919050565b61063f8161062c565b82525050565b600060208201905061065a6000830184610636565b92915050565b6106698161058b565b82525050565b60006020820190506106846000830184610660565b92915050565b7f4e487b7100000000000000000000000000000000000000000000000000000000600052603260045260246000fd5b7f4e487b7100000000000000000000000000000000000000000000000000000000600052601160045260246000fd5b60006106f38261062c565b91507fffffffffffffffffffffffffffffffffffffffffffffffffffffffffffffffff821415610726576107256106b9565b5b600182019050919050565b61073a8161062c565b811461074557600080fd5b50565b60008151905061075781610731565b92915050565b60006020828403121561077357610772610566565b5b600061078184828501610748565b91505092915050565b600082825260208201905092915050565b7f596f7520616c726561647920766f746564000000000000000000000000000000600082015250565b60006107d160118361078a565b91506107dc8261079b565b602082019050919050565b60006020820190508181036000830152610800816107c4565b9050919050565b7f4e6565642031303020465745423320746f6b656e7320746f20766f7465000000600082015250565b600061083d601d8361078a565b915061084882610807565b602082019050919050565b6000602082019050818103600083015261086c81610830565b9050919050565b600061087e8261062c565b91506108898361062c565b9250817fffffffffffffffffffffffffffffffffffffffffffffffffffffffffffffffff04831182151516156108c2576108c16106b9565b5b828202905092915050565b7f4e487b7100000000000000000000000000000000000000000000000000000000600052601260045260246000fd5b60006109078261062c565b91506109128361062c565b925082610922576109216108cd565b5b82820490509291505056fea2646970667358221220ddc946c79abd605eb7604cf3463e9bb6e3a7c10080dce854f0e881296fd865a764736f6c63430008090033",
  "linkReferences": {},
  "deployedLinkReferences": {}
}